:020000040800F2
:10200000B822002001210008F74D00083D430008D8
:10201000F54D0008532F0008657A00080000000005
:1020200000000000000000000000000055650008EE
:10203000513600080000000071540008316D00089E
:102040001B2100081B2100081B210008F95900086A
:102050001B2100081B2100081B2100081B21000870
:102060001B2100081B2100081B2100081B21000860
:102070001B2100081B2100081B2100081B21000850
:102080001B2100081B2100081B21000861790008A2
:10209000F57900081B2100081B2100085D360008A7
:1020A0001B2100081B2100081B2100081B21000820
:1020B0001B2100081B2100081B2100081B21000810
:1020C0001B2100081B2100081B2100081B21000800
:1020D0001B210008F57700085D780008BD7800082E
:1020E0001B2100081B2100081B210008DFF80CD071
:1020F00000F06CFC0048004719A80008B822002036
:102100000648804706480047FEE7FEE7FEE7FEE791
:10211000FEE7FEE7FEE7FEE7FEE7FEE7A56D000847
:10212000ED2000082DE9F05F0546002092469B4611
:1021300088460646814640241BE0284641464746DD
:10214000224600F038FB52465B46801A994110D374
:1021500010461946224600F01FFB2D1A67EB0108B6
:102160004F4622460120002100F016FB17EB000924
:102170004E41201EA4F10104DFDC484631462A46C8
:102180004346BDE8F09F40EA01039B0703D009E006
:1021900008C9121F08C0042AFAD203E011F8013B53
:1021A00000F8013B521EF9D27047D2B201E000F8AC
:1021B000012B491EFBD270470022F6E710B50446FA
:1021C0000846114602462046FFF7EFFF204610BDA5
:1021D00030B50EE003460A4601E05B1C521C1C7839
:1021E0001578AC4201D1002CF7D115F0FF0F04D0C7
:1021F000401C0278002AEDD1002030BD10B5044605
:1022000004E00B7800F8013B03B1491C521EF8D2E0
:10221000204610BD0146002000E0401C0A5C002A58
:10222000FBD170470246C9B200E0401C0378002B86
:10223000FBD102E003788B4203D0401E9042F9D2DA
:10224000002070472DE9F0470F469146804604462E
:10225000002614F8015B2DB100F0D0FA0068405D53
:10226000C007F6D12B2D02D02D2D18D0641E4A4662
:102270003946204600F0C6FA27B13968A14201D19B
:10228000C7F8008071054FF002040BD540420028CA
:1022900003DD05F097FC0460A007BDE8F08746F475
:1022A0008066E4E70028F8DA05F08CFC04606FF043
:1022B0000040F2E7F0B480EA0102D20F4300B3EB32
:1022C000410F02D20346084619464B0042D0C30DC7
:1022D000DDB2C1F3C7542C1B202C35DAC1F3160133
:1022E00041F4000502B16D42C4F1200605FA06F181
:1022F00025412844B3EBD05F23D0C2B1012CA0EB21
:10230000C35009DCF0BC4FF0004202EAC35200F5B2
:102310000000DBB200F0CEBA400000F1807000EBAC
:10232000C350A0F1807040EAD170490009E049082B
:1023300041EAC071A0EBC35000F50000400800EB7B
:10234000C350F0BC00F0ADBA5142012303EB410190
:10235000801AF6E7F0BC704781F00041AAE780F0F0
:102360000040A7E72DE9FE4F074681EA0300C00FB2
:102370000E46019021F0004123F00044B81AA1411B
:1023800005D23846314617461E460B46024623F014
:102390000040104304D13846314603B0BDE8F08F09
:1023A000350DC5F30A00C3F30A510290401A00909C
:1023B000402868DAC3F3130040F4801B019892466A
:1023C00020B10023D2EB030A63EB0B0B00985946B4
:1023D000C0F14002504600F0DFF980460C465046FE
:1023E0005946009A00F0F7F9C0197141EF1785EAD4
:1023F00011533B4340D0019A52B3009A012A11DC99
:102400000022801A4FF0004361EB055103EA0553A7
:102410008018CDE9002341F580114246234600F0A3
:1024200083FABAE72E050025401B61EB060140192F
:1024300041F58012001852412818A6F5001343EB0D
:10244000020140EAD470294318EB0808644113E004
:1024500064084FEA38084FF0000244EAC0744FEABB
:102460000553801A61EB0301801841F5801149087A
:102470004FEA3000801859414246234603B0BDE878
:10248000F04F00F044BA0198012240000023D0EB45
:10249000020263EBE07301984FEAE074381A66EBCE
:1024A0000401EBE783F000435CE781F0004159E76A
:1024B0002DE9FE4F81EA030421F0004504F00044B9
:1024C00023F000414FF0000A009450EA050302D0C7
:1024D00052EA010304D10020014603B0BDE8F08FA9
:1024E000C1F30A53C5F30A541C44A0FB02B3C5F35D
:1024F000130545F4801CC1F3130141F480180CFB53
:10250000023300FB083EA4F2F334810A930A41EA45
:102510008C5143EA88530194A1FB03474FEA9C2561
:1025200005FB03734FEA982601FB06373D05260598
:1025300045EA1435BBEB06016EEB0503850E920EE2
:1025400045EA8C1542EA8812A5FB0206261E67EBB7
:1025500000070C0D44EA0334A41947EB1350C1F3F0
:1025600013064FF0000319464FEA033343EA1653AC
:1025700043EA0403019CE5FB0201A4F10C0402946C
:10258000009C4FEA0632CDE900A400F0CDF9A4E7A3
:102590002DE9F04D81EA030404F0004B21F00047DF
:1025A00014464FF0000A23F0004150EA070220D001
:1025B00054EA01021DD0C1F30A550246C1F31300CB
:1025C000C7F30A56C7F3130340F4801143F4801392
:1025D000A6EB0508101BD64608F2FD3873EB010088
:1025E00002D308F1010801E092185B41B8F1000F35
:1025F00003DA00200146BDE8F08D00204FF480157D
:10260000064607460EE0B2EB040C73EB010C04D354
:10261000121B064363EB01032F436D084FEA3000A2
:1026200092185B4150EA050CEDD152EA030012D03A
:1026300082EA040083EA0105284303D100224FF017
:10264000004308E0101B8B4102D20122002302E06C
:102650006FF0010253101AEB060047EB085110EB24
:102660000A0041EB0B01BDE8F04D00F050B970B528
:1026700021F0004303430CD0C1F30A540026D4EBED
:10268000060566EB0603D417AD1AA34102DB002052
:10269000014670BD001C41EB025170BD9623002223
:1026A000114600F007B90EB540F233410291002106
:1026B000CDE900110A460B4600F036F903B000BD23
:1026C000C1F30A52C1F3130140F2FF3341F4801108
:1026D0009A4201DA0020704740F233439A42A2F254
:1026E000334202DC524200F066B89040704700F07E
:1026F000004230F000400DD0C10D01F5607142EA9A
:1027000001510022C0F31600520742EAD0024007EE
:1027100011437047002001467047000030B5002982
:1027200004DB4FF00044404264EB0101002B04DB6A
:102730004FF00044524264EB03038B4208BF8242D5
:1027400030BD0000002801DBC0F10040002901DBA2
:10275000C1F1004181427047002801DBC0F1004017
:10276000002901DBC1F100418842704730B50B46BA
:10277000014600202022012409E021FA02F59D42B1
:1027800005D303FA02F5491B04FA02F52844151E85
:10279000A2F10102F1DC30BD202A04DB203A00FA6C
:1027A00002F1002070479140C2F1200320FA03F3A8
:1027B000194390407047202A04DB203A21FA02F0A6
:1027C0000021704721FA02F3D040C2F1200291406B
:1027D000084319467047202A06DBCB17203A41FAF6
:1027E00002F043EAE071704741FA02F3D040C2F1CF
:1027F0002002914008431946704700000048704786
:1028000098BD00082DE9F05F8246007800278B46CE
:1028100015460AF10104B946302801D09DB113E0F4
:1028200014F8010B0127782803D0582801D045B1AE
:102830000AE00DB1102D07D10027102514F8010B67
:1028400002E0082500E00A250026B0460EE005FB60
:10285000080005FB06F1012701EB10461FFA80F87E
:10286000B6F5803F00D3B94614F8010B294600F0B5
:10287000BFF80028EBDABBF1000F05D00FB1641EE2
:1028800000E05446CBF80040B9F1000F06D005F047
:1028900099F902210160C81EBDE8F09F48EA064090
:1028A000FAE70029A8BF7047401C490008BF20F084
:1028B0000100704710B4B0FA80FC00FA0CF050EA46
:1028C000010404BF10BC704749B1CCF1200421FAC7
:1028D00004F411FA0CF118BF012121430843A3EBC2
:1028E0000C01CB1D0106000A002BBEBF002010BC4E
:1028F000704700EBC35010440029A4BF10BC7047C0
:10290000401C490008BF20F0010010BC704710B502
:10291000002B08DA401C41F1000192185B411A4378
:1029200001D120F0010010BD2DE9F04D92469B46EB
:1029300011B1B1FA81F202E0B0FA80F22032904691
:10294000FFF72AFF06460F4640EA0A0041EA0B015C
:1029500052465B46084303D130463946BDE8F08D08
:10296000194652EA010015D0C8F140025046FFF75F
:1029700022FF04460D46504659464246FFF70CFFDB
:10298000084301D0012000E00020044345EAE0753F
:1029900026432F430A984FEAD625A0EB08000A30B9
:1029A0004FEA46534FF0000245EA47554FEAD72415
:1029B00002D500200146D1E7010550196141DDE94A
:1029C000084500196941BDE8F04DA0E7064C074DE8
:1029D00006E0E06840F0010394E8070098471034EF
:1029E000AC42F6D3FFF786FB74BE000894BE000825
:1029F0003A2800D2303820F02002412A01D3A2F137
:102A00003700884201D34FF0FF30704770B501EBBB
:102A1000020410F8015B15F0070301D110F8013B27
:102A20002A1106D110F8012B03E010F8016B01F810
:102A3000016B5B1EF9D12B0705D40023521E0FD466
:102A400001F8013BFAE710F8013B02F10202A1EBA9
:102A5000030303E013F8015B01F8015B521EF9D593
:102A6000A142D6D3002070BD7FB51F4CA06940F4B1
:102A70000170A061606820F4404040F480406060D4
:102A80000126ADF80C6000258DF80F5003A91748FA
:102A900003F092FCE06840F40070E060E06820F42D
:102AA0000070E0604FF460208DE8610000231A465A
:102AB00019460F4803F01AFC0D4C0834206840F00A
:102AC000010020601E2005F0FDFC206840F0080099
:102AD000206020680007FCD4206840F004002060DB
:102AE00020684007FCD47FBD001002400008014070
:102AF0000024014010B5FFF7B7FF07230122BDE80E
:102B000010400021014803F01DBC000000240140DA
:102B100038B5054615480068000604D514490878FC
:102B200040F0F0000870FFF7E5FF0024234622463E
:102B300010491148009402F015FA0F4800232A4664
:102B40000E491C38009402F00DFA012000F0F0F854
:102B50000B48016841F4A0010160BDE83840064817
:102B6000002205211C3807F0AABE00000808014019
:102B700012010020852D00088C160020852B0008EE
:102B80000824014070B504462348022100688007EC
:102B900034D521484C300068204D80B26A68024428
:102BA0006A602888401C80B22880282827D32820E3
:102BB000B2FBF0F080B2FFF776FD0022184BFFF772
:102BC00077FC6FF00B02FFF752FDFFF779FD80B243
:102BD000FFF769FD134A144BFFF76AFCFFF770FD1E
:102BE0000021696080B2298004B1A047002000F074
:102BF0009FF8002240F6B8310C4809E0322106481F
:102C00000830026842F4A0020260084800221C3822
:102C1000BDE8704007F053BE0024014008010020C9
:102C200000C8A94036EA3B1BF59DF53F8C160020F5
:102C300070B572B61F482049086004F031F804F0FE
:102C400083F81E48816941F03D0181611C4841685B
:102C500041F0007141601B4C4FF4E131204604F01B
:102C6000FFFD00F015F900F085F808F035FB01F0E4
:102C7000EBF803F01BF902F083FD00F007FF4FF4BF
:102C800016552946600004F0B7FD2946204604F099
:102C900017FE62B601F08EFC00F0D0F802F0DEFA0A
:102CA00004F096FA03F0BAFA07F0B4FCBDE87040FD
:102CB00000F048BD0020000808ED00E000100240D0
:102CC0000000014000366E0100B589B00020009080
:102CD00001900290039004900590069007900BA33A
:102CE0000DA21021684604F059FF10220BA104A880
:102CF000FFF784FA002104AA084601F0E1FD6A46C4
:102D00000021012001F0DCFD09B000BD4E6F7620EE
:102D10003233203230313700257320004856312EAF
:102D2000313235205356312E34372E350000000015
:102D300008B54FF40071ADF8001001210C4A8DF870
:102D4000021068B110208DF803006946104603F0A8
:102D500033FB07481430016841F40071016008BD7D
:102D600004208DF803006946104603F025FB08BDDA
:102D70000008014000B504F00EF80149087000BDDC
:102D80001400002010B50120FFF7D2FF05480168AC
:102D900041F4A00101600022BDE810400521024875
:102DA00007F08DBD082401407016002010B50120E9
:102DB00001F092FD0448016841F010010160BDE896
:102DC000104002F079BB00001408014030B440F616
:102DD000E441174C884202D8002020701FE041F2E5
:102DE0006801884203D36420207030BC7047114BC7
:102DF000012103EB810232F8025C854208D8528837
:102E0000824205D903EB810010F8040C207003E026
:102E1000491CC9B20A29ECD320781E28E5D20648FD
:102E200000680006E1D430BC0120FFF7BFBF0000FE
:102E3000100100206EB40008080801400148FFF7A7
:102E400067BE0000CD2D000870B5104D40F6FF7430
:102E50002868800512D40020FFF76AFF28688005E3
:102E600004D42000A4F10104A4B2F7D12868C0F36F
:102E700040140120FFF75CFF1CB104E028688006C5
:102E800001D4012070BD002070BD00000808014081
:102E9000F8B52148816941F01C0181611020ADF82D
:102EA000000001258DF802501C4E8DF80300694684
:102EB000304603F081FA194C1034206840F01000BD
:102EC0002060A015ADF800006946304603F074FAA2
:102ED000206840F480702060002001F0FDFC00209C
:102EE000FFF726FF2020ADF8000003208DF8020038
:102EF00048208DF803006946304603F05DFA8020D3
:102F0000ADF800008DF8025028208DF803006946C6
:102F1000304603F051FAF8BD0010024000080140AD
:102F200010B578B14FF48054012805D002280FD194
:102F30001021012003F036FC2146BDE8104002209C
:102F400003F0E8BB1021BDE81040012003F02ABCCB
:102F500010BDFEE7C1B2000A40EA01207047000040
:102F600070B5614B614C00205988A4F1400202E029
:102F7000155C2554401C8842FAD35C4862682030B6
:102F80001F294260A268826007D00220FFF7C8FFB5
:102F900000202060607B1A2221E0E17B282901D0FB
:102FA0002A290AD1D4F81100227D00BA20F0FF00AE
:102FB00010435860E08A40BA98604D4A20689042B9
:102FC00052D14C4A607B1268904203D8A27B0AB16E
:102FD000102A0DD90220FFF7A3FF607B24220521D0
:102FE00003F070FCBDE870400021012003F04ABCF2
:102FF000252958D01ADC152971D00DDC08296ED08E
:1030000005DCB9B3032936D004292DD163E00A29A0
:1030100065D0122928D132E01A390A2924D2DFE8F2
:1030200001F03632235E32232323233E8A2956D0F1
:103030000EDC552953D006DC28293CD02A2940D063
:103040002F2911D143E05A2925D088290CD146E0F7
:10305000A82944D004DC8F2941D09E2904D13EE028
:10306000AA293CD0AF293AD00220FFF759FF607B54
:103070002022B4E71BE0BDE8704002F089BEBDE845
:10308000704002F0A3BDBDE8704002F08DBEBDE807
:10309000704002F0D5BDBDE8704002F0CBBDBDE888
:1030A000704002F03FBEBDE8704002F003BEBDE8D4
:1030B000704002F07DBED3E90112BDE8704002F01D
:1030C000C5BDD3E90112BDE8704002F0A7BEBDE85E
:1030D000704002F089BEBDE8704002F05FBDBDE8FF
:1030E000704002F08DBD000078020020101B00200F
:1030F00055534243DC0200202DE9F041184D174C96
:10310000174F4435174E23E047F6FF70286030888C
:1031100000F00F00207007EB8000016889B20A04FC
:1031200007D5016840F68F7289B2114001600E48E0
:1031300008E009060CD5016848F60F7289B2114003
:1031400001600A48217800EB810050F8040C8047A8
:10315000286830800004D7D4BDE8F08178030020CF
:10316000005C0040D8020020BC020020A002002029
:103170002DE9F05F4BF6BF7848F28009454F40F6E5
:103180008F7A454E454D48F60F7B27E0088810F0B2
:103190000F0030702BD005EB800001688CB2210449
:1031A0000BD5016889B201EA0A0101603C48317817
:1031B00000EB810050F8040C804720060ED53078D3
:1031C00005EB8000016889B201EA0B010160354816
:1031D000317800EB810050F8040C80472F484430D0
:1031E0000068314908800004D0D4BDE8F09F286809
:1031F0003880388800F030007880388800F44050FB
:103200003880286880B200EA080080F4005080F01E
:10321000200040EA090028600888C00600282868C5
:1032200080B217DB00EA0B00286001F017F924E0F8
:103230003988890401D580F400507988C90626D4DC
:103240007988890601D580F0200080B240EA090023
:103250002860CAE7010507D5286880B200EA0A009D
:10326000286003F035FB08E00004B7D5286880B279
:1032700000EA0A00286001F0ADFE2868398880B2B3
:1032800000EA0800C904D3D580F48050D0E780F06C
:103290001000D5E78A03002078030020005C00407E
:1032A000BC020020A0020020D802002070B500243B
:1032B0000C4A04E032F81030401C1C44C0B2122802
:1032C000F8D30846FFF7EFF905460E462046FFF70C
:1032D000EAF92A463346FFF75BF9FFF7F1F980B2C6
:1032E00070BD000000050020074901EB8000016867
:1032F000490408D5016848F68F7289B211404CF232
:103300008002114301607047005C0040074901EBF7
:1033100080000168490608D5016848F68F7289B2B5
:10332000114048F2C002114301607047005C004048
:10333000064901EB8000016848F68F6289B21140AE
:1033400048F280021143016070470000005C0040B9
:103350002DE9F05FDFF89C90DFF89C804FF0300A99
:10336000D9F8001001F11004088A0E7A08B9042E69
:1033700004D0A588A84216D8042615E01F4A107864
:10338000012804D007261021A8F800102CE01C49C1
:10339000002009681B4B89B203EB41014860A8F883
:1033A00000A0107020E00226854200D90546A8B290
:1033B000A168074688478346002000F085FD014646
:1033C0003A46584604F050FB3946002003F0DCF939
:1033D0002088401B2080608828446080A8F800A0D6
:1033E00009494FF440500880D9F800000672BDE842
:1033F000F09F00007C0300208C0300207403002059
:10340000505C0040006000408A0300202DE9F04736
:10341000234EDFF890904FF03008346834F8100FE6
:10342000A168B1B108B3A588854200D90546A8B204
:103430000746884782462088401B208060882844B1
:103440006080002000F016FD01463A46504602F02A
:1034500001F8208848B114494FF4405008800021F9
:10346000084603F091F9A9F800802088A1888842D5
:1034700001D3032001E020B1052031680872BDE8C6
:10348000F087316806200872084900200968084A58
:1034900089B202EB41014860A9F80080EFE7000023
:1034A0007C0300208C0300208A030020505C004035
:1034B000006000402DE9F0415C4C5D4D092620681C
:1034C000002729684278062A05D0AAB1082A4BD0DD
:1034D0000A2A4ED069E00278520666D18078012827
:1034E00004D0022804D0032804D05EE0C96954E067
:1034F000096A52E0496A50E04288A2BBC288022AA7
:1035000053D102797ABB0278530601D1838833B153
:1035100002F07F02012A04D0022A0CD045E045497E
:103520003BE08A69407900219047E0B92068807AC1
:103530000028F4D139E0417901F00F0001F0700268
:103540000B063D4951F8201003D5C1F301110901C3
:1035500002E0C1F301310903384B1B78834224D9BF
:103560000AB90029DBD120E0007840061DD134499A
:1035700013E0027802F07F02012A16D1827AA2B10A
:10358000428892B9027982B9C288012A0DD18A692A
:1035900040790021904740B92A4931B120684782DB
:1035A000816100208847002006E0296820680969B9
:1035B00040788847032808D021680A8AA2F57F430B
:1035C000FF3B05D10E72BDE8F08120680672FAE774
:1035D000022808D03AB10878000620D5C88882426F
:1035E00005D9088213E04FF008000872EBE70ED20D
:1035F0002868154B90F82C00824201D21F7006E01B
:10360000B2FBF0F400FB142008B901201870286800
:1036100090F82C008882BDE8F041FFF799BE0320A6
:1036200008720A4900030880CDE700007C030020EF
:1036300080030020916A0008005C004048030020DD
:10364000256A0008696A0008740300208A030020C4
:10365000704701F035BB01F073BB000070B5104C32
:10366000206820F0800020600D4D14352868000689
:1036700011D50C480068000606D50B4E307818B1FD
:10368000FFF7D6FA0020307000220121074807F02A
:1036900016F980202860206840F08000206070BD0E
:1036A000000401400808014011010020A816002074
:1036B00030B51A4A8379016853B313688B4313609A
:1036C000111D0B680468A3430B60017911440B685A
:1036D000046823430B60114B083319680468A14345
:1036E00019601C1D21680568A943216041791029D2
:1036F00005D011440A68006802430A6030BD1968A9
:10370000026811431960216800680143216030BDDF
:103710000079104402688A43026030BD0004014011
:10372000064800680106064805D5017841F0F00119
:10373000017000F0F5BA00210170704708080140DF
:10374000120100207FB500252B462A46164917484E
:10375000009501F007FC1648816941F00401816180
:103760008024ADF80C4004208DF80F0003A9114807
:1037700002F022FE0721002000F068FB0E480460E2
:103780008DF8085010208DF8090001208DF80A00EE
:10379000019401A8FFF78CFF0123062203211720C3
:1037A00002F04AFE7FBD000021370008A816002065
:1037B00000100240000801401404014030B599B0E7
:1037C00005460C4607F04CFBACB16B46642229461B
:1037D00007F060FB5C21684603F0D2FA05466422DC
:1037E00069462046FEF7CFFCE06DA84203D1216E6A
:1037F000C943884202D0012019B030BD0020FBE748
:103800007FB5044607F02CFB0E49ACB16B46102285
:1038100007F040FB0821684603F0B2FA0246DDE9F2
:103820000201DDE90035C4E90201C4E90035904236
:1038300002D1C943884202D0012004B070BD0020EB
:10384000FBE70000640004002DE9F04180460F46CC
:1038500007F006FB154C054637B34FF48056234658
:103860003246414607F016FB642239462046FEF7F1
:103870008AFC5C21204603F083FAE065C0432066A1
:1038800032464146284607F078FA234632464146FA
:10389000284607F003FC234632464146284607F0F7
:1038A000F9FA0020BDE8F0810120FBE7280600209E
:1038B0002DE9F041074607F0D3FA164C4FF4802665
:1038C0004FF480580546A4F164034246314607F0A0
:1038D000E1FA0FCF84E80F000821204603F050FAE8
:1038E000A060C043E06042463146284607F045FAF2
:1038F000A4F1640342463146284607F0CFFBA4F109
:10390000640342463146284607F0C4FA0020BDE869
:10391000F08100008C06002010B501220A490B48F6
:1039200005F03EFD0D2805D000280BD1BDE8104064
:1039300000F0F6B9BDE810404FF480520121024872
:1039400005F094BA10BD00008E0300205C1B00201F
:1039500030B5C3B000251FA1224800F045F801286A
:1039600030D020484FF48074C168A14200D9963904
:103970001C4805F0F0F840BB0020419040902146E3
:103980006846FEF719FC41AB22466946154805F02A
:1039900049FED0B95B216846FEF744FC040014D010
:1039A0005D21FEF73FFC80B10A2240A9601CFEF7B2
:1039B00049FC48B94099641CA14205D1094805F069
:1039C000A7F8002043B030BD451C064805F0A0F81C
:1039D0002846F7E773656E736F725F646174612EDA
:1039E00074787400001E002070B59CB006460C462A
:1039F000402225496846FEF7C6FB0025694610A807
:103A000005F0C8FD052801D0C0BB04E0684605F0FC
:103A100073F998BB012510A805F08DF86846FEF7EC
:103A2000F9FB2F220DF800206844401C402221465B
:103A3000FEF7E4FB13226946304605F0DFFC04463E
:103A4000C5B100201A9010487438FEF7E3FB0E4908
:103A500002461AAB7439304605F036FF0A4837384B
:103A6000FEF7D8FB084902461AAB3739304605F055
:103A70002BFF0446304605F095FE14B101201CB022
:103A800070BD0020FBE700002CB700082DE9F041D5
:103A9000ADF5167D20226E4987A8FEF774FB132230
:103AA00087A96C4805F0AAFC04466A4805F07AFE2E
:103AB000002C7DD1A046CDF850824FF400742146F1
:103AC00003A8CDF83C82FEF777FB94AB224603A90E
:103AD000604805F0A7FD0028EBD18FAF4FF41670BA
:103AE000CDE9000786AE002304225BA1029603A85D
:103AF00003F0AAF820B9BDF8180208B158490880A7
:103B00000A20CDE900070023072256A1029603A848
:103B100003F09AF800284BD1BDF81802002847D0CE
:103B2000C5B2CDF80C8240F63300CDE900078F9C7A
:103B3000CDF810824FF4FA6305224CA1CDF814821F
:103B4000029603A803F080F800287AD1BDF8180285
:103B5000ADF810020C20CDE9000701231A4645A15B
:103B600002968F9803F070F890B9BDF818028DF89E
:103B700012021F20CDE9000701231A463DA102963B
:103B80008F9803F061F818B9BDF818028DF8130288
:103B90001720CDE900070023052237A1029603A8CC
:103BA00003F052F820B9BDF818028DF80C0200E0BD
:103BB00047E04FF03B08CDF80080CDE901760023C7
:103BC00001222FA18F9803F03FF890B9BDF8180299
:103BD0008DF80D02CDF80080CDE901760023012299
:103BE00027A18F9803F030F818B9BDF818028DF8A6
:103BF0000E02012D15D11648343800F15401006E23
:103C00000EC9CDE99230CDE9901203A8211A1148CE
:103C100004F0A1FF28B986AB102290A90D4805F049
:103C200053FE9DF80E129DF80D02CDE900019DF89E
:103C30000C329DF813229DF81212BDF8100201F00B
:103C40003FFE044804F064FF0DF5167DBDE8F081E9
:103C50006CB70008001E00206761703D0000000086
:103C600008000020616374696F6E3D0064617465D3
:103C70003D0000002D00000074696D653D000000EE
:103C80003A0000002DE9F04194B00546204811901B
:103C90003320129016461F46DDF86880294601A899
:103CA00005F078FC040022D02AE01198007808B1D1
:103CB000119801E00DF135009DF83410C90601D5C9
:103CC00004241DE000902B4612A24146384603F022
:103CD00065FF31463846FEF77BFA04460FA13846A9
:103CE000FEF776FA14B108B1002400E004240BA911
:103CF00001A805F02BFD18B99DF835000028D4D196
:103D000001A804F018FF14B02046BDE8F0810000BF
:103D1000CC1D002025732F25730D0A0062696E00EB
:103D2000F0B59BB040200090334B34A220213548A1
:103D3000FFF7A8FF00285CD12F49012201F1740090
:103D400005F05CFB002854D10446199007F088F870
:103D500007464FF48056284819AB32462A4974303A
:103D600005F060FC05001AD11998C0B12503324650
:103D70002946384607F001F81998B04206D2224A7F
:103D8000C0F580511044CC22FEF70FFA1E4B32468C
:103D90002946384607F082F9641CA4B2DBE71648CE
:103DA000743004F0B5FE1998054322D1124805F08D
:103DB00037FD64216846FEF7FFF90F484FF4802471
:103DC00074306946C068119001201590C01E16908D
:103DD0002046FFF739FD64216846FEF7EDF9694694
:103DE0002046FFF7EBFC40F6B83004F041FB00F052
:103DF0007FFB1BB0F0BD00008C1D0020757064615E
:103E000074650000960300202806002038B50C4693
:103E100001460C48FFF7E8FD012811D00948C168A8
:103E200004F099FE2046FEF7F5F902466B4621465E
:103E3000044805F049FD0446024804F069FE2046A6
:103E400038BD0000001E0020FFF766BD10B58A07D0
:103E500021F003040649120F21440F238C6893407C
:103E60009C438C608B68904003438B6010BD0000C6
:103E7000000001400549096889B201EBC00004490E
:103E800001EB4000806880B270470000505C004049
:103E9000006000400549096889B201EBC00004498F
:103EA00001EB4000C068C0F309007047505C00405F
:103EB00000600040034951F82000C0F301300003C6
:103EC00070470000005C00400449096889B201EBBA
:103ED000C000034951F8100080B27047505C0040A8
:103EE0000060004008B10448704704490120096897
:103EF0000882002070470000DC0200207C030020C4
:103F00000A4810B50168001D0468001D0068081803
:103F10000BD00822064900F0CFFA054920460422BA
:103F2000BDE81040103100F0C7BA10BDE8F7FF1F20
:103F3000860200201FB52248007801283ED1214C7E
:103F4000207880F00100207014F834191C48807922
:103F5000C9B1012801D01CA200E01CA20D21012042
:103F600000F0AEFCA08DE085E08DFEF79CFB00220A
:103F7000174BFEF79DFA4FF06632164BFEF708FB23
:103F8000FEF79EFB09E008B113A200E013A20D2189
:103F9000012000F095FC0020E08520866846FFF7B0
:103FA0002FFC94F834008DF80000208EADF8060048
:103FB000E08DADF804006846FFF77AFC1FBD0000F5
:103FC0002E0000203405002043414C0043264800C9
:103FD00000003E4066663640202048002020200039
:103FE00010B50022022901D2002010BD401C891EFC
:103FF0008BB2002104E0445C491C224492B289B295
:104000009942F8D3D043401CC0B210BD70B5264EC3
:10401000348DB58D10B101282FD115E0308E38B117
:10402000308EA04202D2308E201A00E0002084B2EE
:1040300000F070FA00211DA2084600F041FC204665
:1040400000F046F81BA214E0F08D38B1F08DA842C4
:1040500002D2F08D281A00E0002085B200F05AFA52
:10406000002112A2084600F02BFC284600F065F85B
:1040700012A20A21002000F023FC96F8340018B1A7
:104080001048807901280CD096F8340020B10EA297
:104090000D21012000F014FC2046BDE8704000F026
:1040A000C3B80AA2F4E70000000500204843484FC7
:1040B00020000000206D672F6D3300002070706DB0
:1040C000202000002E00002043414C0043264800E1
:1040D00070B504460521002000F0C6FA42F21070C7
:1040E000B4FBF0F100FB11404FF47A75B0FBF5F032
:1040F0003030C0B200F020FB2E2000F01DFBB4FBDE
:10410000F5F005FB10406425B0FBF5F03030C0B28F
:1041100000F012FBB4FBF5F005FB10400A25B0FBE4
:10412000F5F0303000F008FBB4FBF5F005FB104073
:10413000BDE87040303000F0FFBA70B5044605218C
:10414000002000F091FA42F21070B4FBF0F100FB95
:1041500011404FF47A75B0FBF5F03030C0B200F08A
:10416000EBFA2E2000F0E8FAB4FBF5F005FB104066
:104170006425B0FBF5F03030C0B200F0DDFAB4FBDE
:10418000F5F005FB10400A25B0FBF5F0303000F0EB
:10419000D3FAB4FBF5F005FB1040BDE870403030B9
:1041A00000F0CABA70B51C4D01002C8DA88D02D04C
:1041B00001291AD10DE0288E38B1288EA04202D2F2
:1041C000288E201A00E0002084B22046FFF780FFEE
:1041D0000BE0E98D39B1E98D814202D2E98D401AB7
:1041E00000E0002080B2FFF7A8FF95F8340018B176
:1041F0000A48807901280CD095F8340020B108A233
:104200000D21012000F05CFB2046BDE8704000F06D
:104210000BB804A2F4E70000000500202E000020E7
:1042200043414C0043264800502801D205A205E036
:10423000B0F5FA7F01D206A200E008A20021012019
:1042400000F03EBB476F6F6420202020202020001C
:10425000556E6865616C7468792020004261646CF9
:1042600079202020202020000178FF290FD14178DB
:104270000E4A172902F136030AD0862907D10221F6
:1042800083F82310C178807801EB0020D084704738
:104290004179007901EB00205085012083F823004B
:1042A000002202481146803006F009BB00050020BC
:1042B00070B51F480088800630D51D48001D008855
:1042C0001C4CC0B294F822100025FF2903D11728F6
:1042D00025D0862823D0218C202900D32584218C29
:1042E0006218491C2184107084F82200208C09284F
:1042F00014D109210F48FFF773FE217A88420CD1AF
:104300000D4E012086F829004FF4967000F002FE51
:10431000F06209210748FFF7A7FF258470BD2584B7
:10432000218CFF226318491C21841A70D7E70000F2
:10433000004800403605002040000020FEE7000055
:104340000E4808B5816941F008018161C020ADF8CF
:10435000000010208DF8030003208DF8020069464C
:10436000074802F029F806481030016841F0400182
:104370000160016841F08001016008BD0010024049
:10438000000C0140AFF3008070B506460C461546A0
:1043900006F068F830B946F0010006F02FF806F094
:1043A000BFF840B1012070BD012005F0EBFF6D1E8C
:1043B00004F8010BEDB2012DF6D8002005F0E2FF64
:1043C000207006F08BF8002070BD38B5049C009476
:1043D00000F001F838BD2DE9F041064614461D46AF
:1043E000069F06F067F848B90FB106F03BF846F0B3
:1043F000010006F003F806F093F848B10120BDE88B
:10440000F081012005F0BEFF6D1E04F8010BEDB236
:10441000012DF6D8002005F0B5FF207006F05EF8FB
:104420000020ECE7AFF3008070B514461E4606F09E
:1044300041F838B900250AE0207805F0DFFF06F0E2
:104440006FF808B1012070BD6D1CEDB2641CB5425F
:10445000F2D306F043F8002070BD000010B5134CF5
:104460002068017A022904D0042902D0062905D047
:1044700015E0FEF76DFF2068007A11E0417805290C
:1044800009D10178490606D1C07802F0F1F8084850
:104490000068006A804707480068806880470820F5
:1044A00021680872BDE8104000F0E4BF7C030020E2
:1044B0008403002080030020F0B500230A26302763
:1044C0004FF0370C1C460FE0B6EB107F02D907EB1C
:1044D000107501E00CEB107501F8135001EB43056A
:1044E00000015B1C6C70DBB29342EDD3F0BD0000A9
:1044F00001F078F872B605480168054A01F4E061F8
:1045000011430160BFF3408FFEE700000CED00E0B7
:104510000400FA0510B5012000F0AEF8022003F007
:10452000A7FF022000F0A8F8BDE81040022003F029
:104530009FBF00002DE9F8434FF40055ADF800503F
:1045400001208DF80200DFF8608010268DF80360EE
:104550006946404601F030FFDFF850902F11ADF86A
:1045600000706946484601F027FF6C11ADF8004025
:104570006946484601F020FF012000F041FA002082
:1045800000F0AAF9094810300460011D0F60C8F856
:104590001450074AE10111600821016006602021E2
:1045A0000160BDE8F883000000100140000C0140EC
:1045B000100801402DE9F047FFF7BCFF1E2003F073
:1045C00057FFDFF89CA04FF40046CAF80060254D65
:1045D00008272F602C1F4FF01008C4F800804FF000
:1045E0002009C4F8009000F0F9F90A2003F040FF18
:1045F000CAF800602F60C4F80080C4F8009000F092
:10460000EDF9962003F05EFFCAF800602F60C4F851
:104610000080C4F8009000F0E1F9CAF800602F6053
:10462000C4F80080C5F8009000F0D8F90A2003F023
:104630001FFF282000F020F80A2003F019FF0120B6
:1046400000F01AF80A2003F013FF0C2000F014F811
:104650000A2003F00DFFBDE8F047062000F00CB87B
:1046600014080140140C014001EB8010C0B240F06E
:10467000800000F001B800002DE9F05F0446282812
:1046800003D0382C01D000F09FF927494FF4005097
:104690004861264D001128604FEA1410DFF890B0F1
:1046A00001074FF4004701D5594601E02049091D93
:1046B0000F6041074FF0080A1E4E514601D5316088
:1046C00000E0296081074FF01009494601D53160AB
:1046D00000E02960C0074FF02008404601D5306057
:1046E00000E0286000F07AF9200701D5584601E083
:1046F0000F48001D07606007504601D5306000E09C
:104700002860A007484601D5306000E02860E00737
:10471000404601D5306000E0286000F05FF9BDE858
:10472000F05F412003F0CEBE00100140140C0140A8
:1047300010080140100C01402DE9F05F044600F024
:1047400043F929494FF400500861284D00112860B1
:104750004FEA1410DFF898B001074FF4004701D575
:10476000594601E02249091D0F6041074FF0080A30
:10477000204E514601D5316000E0296081074FF09D
:104780001009494601D5316000E02960C0074FF0AB
:104790002008404601D5306000E0286000F01EF996
:1047A000200701D5584601E01148001D0760600749
:1047B000504601D5306000E02860A007484601D58A
:1047C000306000E02860E007404601D5306000E03E
:1047D000286000F003F904494FF400504861BDE837
:1047E000F05F412003F06EBE00100140140C014048
:1047F00010080140100C014070B51546FFF734FF5A
:104800000A26B5FBF6F404F13000C0B2FFF794FFBE
:1048100006FB1450BDE870403030FFF78DBF00003C
:104820002DE9FE4F82468846244900200A276C461F
:10483000B2FBF1F501FB1522B1FBF7F105F13006F2
:104840002654401CC0B20A28F2D30025605D3028EF
:1048500003D16D1CEDB20A2DF8D3C5F10A0010F09A
:10486000FF0001D109250120834215D3A3EB0009E4
:1048700009F0FF0741465046FFF7F6FE002604E028
:104880002020FFF759FF761CF6B2BE42F8D309EBA1
:10489000080000F0FF0802E0C01A2844C5B24146F3
:1048A0005046FFF7E1FE04E0605DFFF745FF6D1C39
:1048B000EDB20A2DF8D3BDE8FE8F000000CA9A3B86
:1048C00010B51446FFF7D0FE02E0641CFFF734FF7A
:1048D00020780028F9D110BD08B54FF48061ADF8FB
:1048E000001001210C4A8DF8021038B104208DF817
:1048F00003006946104601F05FFD08BD10208DF8E9
:1049000003006946104601F057FD03481430016862
:1049100041F48061016008BD000C014038B50022FF
:104920008DF800200C466A4600F078FB05460C49DD
:10493000C4EBC400421800210846FFF7C1FF03235F
:104940002A4607210020FFF76BFF05489DF800105D
:10495000703800EB011200210120FFF7B1FF38BDD4
:10496000CCB3000870B50D460446002110A20846DD
:10497000FFF7A6FF0323224606210020FFF750FF82
:104980000DA20A210020FFF79BFF0DA200210120AC
:10499000FFF796FF03232A4606210120FFF740FF79
:1049A000BDE870400A2104A20120FFF789BF000082
:1049B000504D322E3520000075672F6D33000000FA
:1049C000504D31302020000003494FF480700860C2
:1049D000012000F015B80000140C014010B5074884
:1049E0004FF4807404600F2003F06CFD0348001D39
:1049F0000460BDE810400F2003F064BD100C0140BE
:104A000038B501218DF802101024F8B18DF803405B
:104A10004FF40040ADF8000069460E4801F0CCFCB0
:104A200008200D4DADF800006946284601F0C4FC91
:104A3000ADF800406946284601F0BEFC2021ADF8E3
:104A400000106946284601F0B7FC38BD48208DF8B3
:104A50000300DDE700080140000C014008B101201F
:104A60007047084841F6F8510022016005494FF4AB
:104A70000070091F086003480349001DC0E90012C7
:104A800010467047B401002000F03B0010B508B19B
:104A9000012010BD05F05CF980B210BD10B51146C3
:104AA000DDE9022308B1012010BD05F06FF90020F7
:104AB00010BD10B51146DDE9022308B1012010BD7B
:104AC00005F072F9002010BD0D4900B509680A789B
:104AD00002F07F02212A08D1FE2806D1488820B999
:104AE000888810B9C888012801D0022000BD054877
:104AF000886100204882FFF7F5F9002000BD000022
:104B00007C030020E53E0008014901F09FBF000042
:104B1000E8020020014901F099BF0000E0020020F6
:104B200005490968C978052901D900207047034A59
:104B300002EBC10101F08ABF7C03002020030020AA
:104B400009B9002800D00220704700000F4910B5B5
:104B500009680A7802F07F02212A07D1FF2805D1CF
:104B6000488818B9888808B9C88808B1022010BDDB
:104B70000120FEF7CBFB0220FEF7B6FB05490448F7
:104B8000086005490020087010BD00007C0300206B
:104B900055534243101B00207802002070B52F4867
:104BA0000025304985722E480968C0794872284628
:104BB00001F056FD4FF40071002001F00BFE2021A2
:104BC000002001F0EFFD1821002001F073FD264CBC
:104BD0000020217801F07EFD5821002001F0C4FD65
:104BE0000020FEF7A5FB002001F0ACFD0021012014
:104BF00001F0F0FD9821012001F0B6FD20210120F7
:104C000001F0D0FD0021012001F084FD00210220EF
:104C100001F0E0FDD821022001F04CFD21780220B6
:104C200001F058FD4FF44051022001F073FD0021C6
:104C3000022001F0B7FD2178002001F04BFD00209B
:104C400001F080FD002001F013FD084901200860FB
:104C50000849074808600848057070BD401B0020DF
:104C600036B600087C0300201C03002070030020DF
:104C700055534243101B00207802002070477047B4
:104C800010B5FFF73DF9054800240068847200F074
:104C900091FC02F0B1FE0248046010BD7C030020CC
:104CA00070030020044805490068884202D00220B1
:104CB000FEF736B970470000101B002055534243E1
:104CC0001C4910B5087840F0100008701A4B18788D
:104CD000022819D04FF44054032824D0042801D0CE
:104CE000052825D1002018702146022001F012FD70
:104CF0000220FFF7DFF8B0F5805F19D12146BDE84B
:104D00001040022001F006BD0C48C27B282A0FD1BA
:104D10000A7842F002020A70D3E90112407BBDE832
:104D2000104000F093BF0121002001F0ABFDE5E74A
:104D300010BD0000C101002078020020101B0020DF
:104D400070B5194E307840F010003070174C0220CA
:104D5000A4F14001E57B02F05FFE15494880087828
:104D600018B1012805D0022006E0BDE87040FEF72A
:104D7000F7B82A2D0DD00120FEF7D2F8607B24224F
:104D8000052101F09FFDBDE870400021022001F0E7
:104D900079BD307840F001003070091D607B06C994
:104DA000BDE8704001F03AB8C1010020101B00209E
:104DB00078020020094810B50068807A00280BD0DE
:104DC0000749052008600120FEF7A0FA0220FEF73F
:104DD0008BFA04490020087010BD00007C030020FD
:104DE0007003002078020020014904200860704709
:104DF00070030020FEE770477047000070B52F4D2C
:104E00002868017844784A0606D001F07F0001281E
:104E100028D002282BD035E0092C06D0052C07D04D
:104E2000032C0ED0012C14D02CE001F079FE28E0E8
:104E3000C1787F292ED8817861BB818851BB807A67
:104E400027E0C17801291DD18088D8B901F084FEFE
:104E500017E0C178012915D1818899B9407A800677
:104E60000AD40FE00B2C0DD101F0CAFE09E0012C91
:104E700002D0032C03D005E001F05EFD01E001F05B
:104E80007DFE58B10E4800684169E0B288470328AA
:104E900002D018B108200DE009200BE0094A0620D5
:104EA00000211268084B92B203EB42025160074A9C
:104EB000302111802968087270BD00007C03002039
:104EC00080030020505C0040006000408C03002004
:104ED00010B5FFF71FFB0021BDE8104001A20846F6
:104EE000FFF7EEBC4E6F2053656E736F72000000CB
:104EF0007047000001484068704700000000002033
:104F000010B50446FFF7F6FFA04201D3012010BD03
:104F1000002010BD10B50446FFF7ECFF204410BD83
:104F20000F4810B5046817E0FFF7E4FF21698842D5
:104F300011D3207AC1070ED0810703D420F00100DD
:104F4000207204E0FFF7D6FFE16808442061616940
:104F500009B1A06988476468002CE5D110BD000044
:104F60001800002070B50446049EC360C4E9051211
:104F70001D46FFF7BFFF28442061267270BD000068
:104F80000B4B19680A4608E0814205D1087A40F0C7
:104F9000010008720020704749680029F4D172B6F8
:104FA0004260186062B6017A41F001010172F1E7D6
:104FB000180000200649096806E0814203D10A7AF8
:104FC00022F001020A7249680029F6D170470000F8
:104FD0001800002010B50F4C2068007A022811D06C
:104FE00004280FD0032804D0052802D0072805D0B4
:104FF00008E0FEF70BFA2068007A04E00648006833
:10500000C0688047082021680872BDE8104000F0A1
:1050100031BA00007C030020800300202DE9F74F07
:1050200005464FF4FA704FF00009854200D9054655
:10503000DFF8F88001294FF000041ED146462846CB
:10504000FDF72CFB824604EB840006EB80075046FC
:10505000B968FDF781FB0BD8F9685046FDF772FB84
:1050600006D804EB840006EB80008668F8681DE033
:10507000641CE4B2072CE6D352E046462846FDF70E
:105080000DFB824604EB840006EB8007504639682E
:10509000FDF762FB40D879685046FDF753FB3BD8DB
:1050A00004EB840006EB800006687868072C37D292
:1050B0003146FDF751F9074604EB840108EB810006
:1050C000418A008A091A1FFA81FAFDF7ECFA804634
:1050D00089463846FDF70BFB83460F462846FDF709
:1050E000DDFA3146FDF738F9FDF701FB05460E46BE
:1050F0005046FDF7D8FA2A463346FDF7D9F95A4605
:105100003B46FDF745FA42464B46FDF72BF9FDF7C6
:10511000D7FA1FFA80F904E0641CE4B2072CB1D37B
:105120000024029804704846BDE8FE8FDAB30008F8
:1051300070B50446FFF7EEF91F4934B1012C09D0D0
:10514000022C25D0032C2AD125E08889C989FFF7B4
:1051500009FC24E0C88A0A8B10444A8B0D8A10444B
:1051600084B2002115A20846FFF7AAFB05232A46B0
:1051700008210020FFF754FB13A200210120FFF7B4
:105180009FFB0523224608210120FFF749FB06E08B
:105190008889002101E088890121FFF7BFFB0D48C4
:1051A0008079022806D1BDE870400F210AA20120B3
:1051B000FFF786BB70BD0000E00400203E20302ECB
:1051C00033756D20000000003E20322E35756D20B5
:1051D000000000002E0000204800000070B51C4CAC
:1051E00030B101280ED002281FD0032824D11FE09F
:1051F000A289032306210020FFF712FBE289032383
:1052000006210EE0E08A218B0844618B228A084443
:1052100085B2052308210020FFF702FB05232A465B
:1052200008210120FFF7FCFA06E0A089002101E037
:10523000A0890121FFF772FB06488079022806D178
:10524000BDE870400F2104A20120FFF739BB70BDFB
:10525000E00400202E0000204800000070B586B059
:1052600036212B48FCF7A8FF294E012086F8330091
:1052700001A8FEF7C5FA274D0024C8B30194029493
:10528000039401A80494FEF713FBAC71204800239B
:105290001A462149B8300094FFF764FE1C480023E9
:1052A0001A461E4980300094FFF75CFE1848002320
:1052B0001A461B499C300094FFF754FE1448002303
:1052C0001A461849F0300094FFF74CFE00231A46A6
:1052D000154916480094FFF745FE062028700A205D
:1052E000A88000229621114805F0E9FA06B070BDA9
:1052F000FFE79DF8040086F83400BDF80A00308608
:10530000BDF80800F0859DF80500A871BEE7000013
:10531000000500202E0000200975000819740008FF
:1053200089750008B57600086D7500080C06002028
:105330002DE9F04102780023422A02D042784D2A1A
:1053400039D11E4C227812B12278521E2270C278B6
:105350008578DFF86CC002EB0522ACF802200CF176
:105360000407002200EB42056E792D7906EB052536
:1053700027F81250521CD2B20E2AF3D3891C8AB2DB
:10538000002104E0455C491C2B449BB2C9B2914208
:10539000F8D3BCF81E0098420AD1094901207A319D
:1053A00081F82300064800221146BC3005F087FA38
:1053B0002078401C2070BDE8F08100002000002013
:1053C000E00400202DE9F0411F480088800630D518
:1053D0001D48001D00881D4CC0B294F82210002505
:1053E000422901D14D2826D0218C202900D32584A3
:1053F000218C6218491C2184107084F82200208CB2
:10540000032816D9E078A17800EB0120218C86B220
:10541000301D81420DD10E4F012087F841004FF41D
:105420009670FFF777FD786431460848FFF780FFF4
:105430002584BDE8F0812584218C42226318491C13
:1054400021841A70D4E70000003801405A0500207A
:1054500040000020054B521C520803EB410104D0D0
:1054600008C920F8023B521EFAD170470060004084
:10547000704700000C4810B590F82C10002001F087
:1054800029F90A480068007A082802D0092809D0BA
:1054900006E007494FF48050088006491020088034
:1054A000002010BD012010BDF00200207C03002070
:1054B0008A0300208C03002010B572B600F03CF87F
:1054C000184864210068B0FBF1F020F07F414FF0F4
:1054D000E020491E416100218161072101611248DC
:1054E000816921F020018161C16921F40001C1615C
:1054F000C16921F08051C1610C490A8822F400522F
:105500000A800B490A8822F400520A8009490A8855
:1055100022F400520A80C16921F40031C16162B6EF
:1055200010BD000018010020001002400C3801409E
:105530000C4800400C44004010B500F053F81849E6
:1055400001200860174801688907FCD516490A68D8
:105550000B681A4342F010020A600A6802F038022F
:10556000921C0A60416821F0F00141F0A001416005
:10557000416821F4605141F440514160416821F497
:10558000E06141F4C0614160416821F00301416084
:10559000416811F00C0FFBD105490448086010BDAB
:1055A00000004242001002400020024040420F0032
:1055B0001801002010B5012002F0C6F906480121AB
:1055C00001600021054A0160031D19604FF4E0519C
:1055D00011800160002010BD405C00408803002065
:1055E000704700000C48016841F00101016041680A
:1055F0000A4A114041600168094A1140016001688E
:1056000021F480210160416821F4FE0141604FF4E2
:105610001F01816070470000001002400000FFF889
:10562000FFFFF6FE084900204FF400330A88920677
:1056300003D40246401C9A42F8D3984201D3012079
:105640007047002070470000042800400A490020ED
:105650000A8822F008020A804FF400330A881207F1
:1056600003D40246401C9A42F8D3984201D3012049
:10567000704700207047000004280040F0B5002269
:1056800064239D002A4E2B4F0EE0840704D1B0FB0B
:10569000F3F403FB140494B9B0FBF5F405FB140414
:1056A0006CB13A44401C80B28C888442EDD8887931
:1056B000401E88710020DFF880C0204F1CE032447B
:1056C000F0E71CF8004040F2A326744302EBC4123A
:1056D0008C88A40705D18C88B4FBF3F603FB164431
:1056E0002CB98C88B4FBF5F605FB164414B90128D7
:1056F00000D13A44401C80B28C798442E1D8C87908
:1057000040F2A323584302EBC0100C4A5242024419
:105710000878C0EB4013C3EB002002EB001248787E
:105720008978C0EB001002EB80000844F0BD000057
:105730000085E2018033E10196B400088051010048
:1057400070B50546002400F04DF901460A480B4AA1
:10575000B1FBF0F0138880B2834201D010800124A5
:1057600023462A4640F2B27000F042F8012001F0D0
:10577000EFFB002070BD00008051010014010020EB
:105780007CB5032100230622084600F055FE154D86
:105790004AF2A650286028884AF2A556124CB04218
:1057A0000ED000F0C5F819213620CDE900010A23FA
:1057B0001222194640F2E17000F082F82E600CE0EF
:1057C000606A000100D4606AFFF740FF0748018863
:1057D00041F001010180FFF725FF606A40F0807011
:1057E00060627CBD046C0040001002400028004054
:1057F0002DE9F043DFF8C090B1FBF9F42546EBB397
:1058000064239F004FF4B77C4FF4B6780FE086070F
:1058100004D1B0FBF3F603FB16067EB9B0FBF7F636
:1058200007FB160656B1A4F26D14401C80B2444525
:10583000EDD890800020DFF8848021E0644502D319
:10584000A4F5B774F1E7401C80B2F2E79688B6077A
:1058500005D19688B6FBF3FC03FB1C662EB996882F
:10586000B6FBF7FC07FB1C660EB9012820D018F820
:105870000060A64206D8A41B401C00E006E080B2EF
:105880001C2CE3D2401C9071641CD47109FB1510D0
:105890004FF46163B0FBF3F1117003FB11013C2382
:1058A000B1FBF3F0507003FB10109070BDE8F08373
:1058B0001D2CE7D31D3CDFE78051010096B40008A2
:1058C0003EB5DDE90645ADF804008DF806108DF80B
:1058D00007208DF800308DF801408DF802506946A0
:1058E00040F2B270FFF7CAFE0E49CA6942F0C052D8
:1058F000CA610D4A012111620C490A8842F0100266
:105900000A800A4B020C14331A801A1D1080088872
:1059100020F010000880FFF785FE002800D001204D
:105920003EBD00000010024000000E42042800406E
:105930002DE9F041274D0024286840F0C050286030
:1059400025484FF00107076224490F60A0460C600C
:105950002C712C712F71A5F11C054FF4AF7604E06A
:10596000641CA4B20A2002F083FD286A800702D4D6
:10597000B442F5D32BE0B44229D2286A40F48070B7
:1059800028621648001F0760FFF760FEF8B9FFF7AE
:1059900049FEE0B91248018841F001010180FFF79A
:1059A00041FEA0B90E48001D018841F010010180A0
:1059B000021DA2F80080121D47F6FF7111800188B8
:1059C00021F010010180FFF72DFE002800D00120FA
:1059D000BDE8F0811C10024000000E42400442422B
:1059E00000280040034800880249091F098840EA4E
:1059F000014070471C28004070B50F4D288805F104
:105A00000404C00705D02088C00702D00B48FFF768
:105A100097FE2888800709D52088800706D520882A
:105A200020F0020020800548FFF78AFE208820F041
:105A30000300208070BD000000280040C416002034
:105A40007CB5344D0446344E287810B101280CD072
:105A500053E056F82400A1FB0013C5E90613A2FB8E
:105A60000010C5E908100120287068682B4958B15A
:105A7000E86840220144812001F0E0FF6868403876
:105A80006860E86840301AE056F8240080B2CDE93A
:105A90000010D5E906232046FFF700F810F0FF0FAD
:105AA00003D0687840F00800687040221B498120CC
:105AB00001F0C4FF56F82400403868604020E860D8
:105AC0004021012000F060FE3021012000F06AFE3C
:105AD000D5E906014022821841F10000C5E90620FF
:105AE000D5E908026FF03F01411842F1FF30C5E9E6
:105AF00008100B48816840398160D5E908010843E6
:105B000007D16860E860C5E90600064A0321117004
:105B100028707CBDC0010020B0010020D0160020FC
:105B2000301B00207802002070B5184C1A4454F83D
:105B30002040A2420DD92A2902D10220FDF7F0F916
:105B40000020FDF7EDF9124A052121209170107314
:105B500011E0114D0F4C55F82000A26858438242C5
:105B600011D02A290DD00020FDF7DAF9607B24221C
:105B7000052100F0A7FE0021012000F083FE002097
:105B800070BD0220F0E7012070BD0000B4010020CC
:105B900051020020101B0020B001002010B5FEF7BC
:105BA0005DFF00280ED008483A220221407B00F019
:105BB00089FE0121084600F065FEBDE81040002086
:105BC000FDF7AEB910BD0000101B002008490A7C8B
:105BD000D20702D00748052105E030B10648C97C4C
:105BE000242900D9242101F0EBBD0448F7E7000087
:105BF000101B0020F801002021020020FD010020E0
:105C000010B50B4CA06810B1207B000601D5002018
:105C100000E00220FDF784F9607B2022052100F0DE
:105C200051FE0021BDE81040012000F02BBE000015
:105C3000101B00200821014801F0C2BD49020020CC
:105C40000421014801F0BCBD450200202DE9F041CE
:105C5000164C80460D462078164630B1022823D1D6
:105C60004046BDE8F041FFF7EBBE114F13460A4630
:105C7000787B2821FFF758FF002815D0387B0006D5
:105C80004FF0020003D5207032462946E8E7FDF7C1
:105C900047F9787B2422052100F014FEBDE8F0418D
:105CA0000121084600F0EEBDBDE8F0817802002039
:105CB000101B002010B50446FEF7D0FE70B1154849
:105CC0003A220221407B00F0FDFD0121084600F050
:105CD000D9FDBDE810400020FDF722B90E480F495C
:105CE00050F82420521E100E0870100C4870100A34
:105CF00088700B48CA7050F82400020E0A71020C1A
:105D00004A71020A8A71C871BDE81040082103482F
:105D100001F056BD101B0020B401002063020020DA
:105D2000B001002010B50446FEF798FE70B114488B
:105D30003A220221407B00F0C5FD0121084600F017
:105D4000A1FDBDE810400020FDF7EAB80D480E495E
:105D500050F82420100E0871100C4871100A887138
:105D60000A48CA7150F82400020C4A72020A8A7268
:105D7000C872BDE810400C21034801F021BD0000AD
:105D8000101B0020B40100206B020020B001002095
:105D90000348C17C122900D91221024801F010BD2C
:105DA000101B0020510200200121002000F06ABDDC
:105DB00010B5FEF753FE70B10A483A220221407B2B
:105DC00000F080FD0121084600F05CFDBDE81040B8
:105DD0000020FDF7A5B80121BDE81040002000F02B
:105DE00051BD0000101B002010B50B4CA06828B955
:105DF000207C400702D40121002009E00220FDF7A9
:105E00008FF8607B2422052100F05CFD0021012039
:105E1000BDE8104000F036BD101B002070B5174DD6
:105E200013462A7832B1012A26D1BDE870401A46BD
:105E300001F02EBE124C0A462A21607BFFF774FE49
:105E4000002819D0207B000608D401202870BDE866
:105E500070404FF44051022000F05CBC0020FDF780
:105E60005FF8607B2422052100F02CFDBDE8704026
:105E70000021012000F006BD70BD00007802002066
:105E8000101B002008B58021ADF8001003218DF80B
:105E9000021038B110208DF803006946024800F066
:105EA0008BFA08BD4820F6E7000C014010B516211A
:105EB0000348FCF781F9FDF74BFD0249486010BD2E
:105EC000C80300200800002010B5254A052817D275
:105ED000DFE800F00306090C0F000988518111E08A
:105EE000098891810EE00988D1810BE0098811822F
:105EF00008E00B68C2F802304968C2F8061001E0F9
:105F0000052804D2917C01238340194391741548DC
:105F100081884FF4FA63B1FBF3F403FB1411917021
:105F20008179D170C1791171017891714178D17104
:105F300080781072907C40F01C0090741F280DD166
:105F4000094CA068FEF7DCFF40B12088642148437B
:105F5000FEF7E0FFA06005A000F0B8F8002010BD3B
:105F6000C8030020C41600200800002073656E736B
:105F70006F725F646174612E747874002DE9F04F64
:105F80000F461188A1B00400154610D07FB175B13D
:105F900020790DF10C08267AE379A279A8E84D0062
:105FA0003148E278A378007828B130A004E00120DD
:105FB00021B0BDE8F08F2EA00292CDE900032D4A5A
:105FC000384653682CA201F0E9FD86B22888642285
:105FD000801B80B20690208AB0FBF2F102FB110810
:105FE000E089B0FBF2F102FB110E42F21071B0FB3E
:105FF000F1F301FB1303B3FBF2FBA3894FF47A72B5
:10600000B3FBF2FC02FB1C3A6389B3FBF2F402FB24
:106010001439B3FBF1F401FB1433B3FBF2F3303367
:10602000884201D32D2000E0202002A9CDF8148061
:10603000A1E80148CDE9009AB8191BA2069901F020
:10604000ADFD304484B280216846FCF7B5F82246A5
:1060500039466846FCF7D2F806484168491C416059
:106060002C800020A4E70000E90000207461670094
:1060700020202000080000205B253035645D2020B2
:106080002025732020253032642D253032642D25C3
:1060900030326420253032643A253032643A25307B
:1060A000326420200000000025632E253033642058
:1060B000202533642020202025632532642E2530BE
:1060C0003264202025326425250D0A002DE9F8438D
:1060D0001D4D80461D4E68880027C0F58071ADF8C3
:1060E000001031186A46A6F11600FFF747FF044674
:1060F0006888BDF80020104480B2C0F5807189B274
:10610000688091421DD206F1FE04022907D930446D
:106110004FF02002A1F10201FCF747F800E005D1A1
:106120004FF002020AA12046FCF768F807494046F2
:10613000FDF76CFE04464FF480710448FCF73CF810
:106140006F802046BDE8F88308000020DE030020B1
:106150000D0A00002DE9F0410F46002620F0030053
:10616000FCF7A1FA0022104BFCF7A2F96FF00F0226
:10617000FCF77DFA00220D4BFCF794F9002204464F
:106180000D461346FCF7CAFA02D2761E85F000458A
:106190000022074B20462946FCF78AF9FCF790FAC3
:1061A00038803046BDE8F08100405F400000184074
:1061B000000059402DE9F0410F46002620F0030071
:1061C000FCF771FA104A114BFCF772F96FF00F02ED
:1061D000FCF74DFA0E4A0F4BFCF764F90022044617
:1061E0000D461346FCF79AFA02D2761E85F000455A
:1061F0000022094B20462946FCF75AF9FCF760FAC1
:1062000038803046BDE8F081D7A3703D0AF765407D
:10621000CDCCCCCCCC6C47400000594008B5002117
:10622000084600F015F80020034602460090064993
:106230000648FEF797FEBDE8084000224FF4FA71C9
:10624000024804F03CBB00009575000828160020A9
:106250002DE9FC41012704460D4600268DF8046017
:106260003B4601AAE72180200097FEF7AEF8002800
:1062700039D19DF8040000F08101A14207D020F03F
:1062800081008DF8040014B120438DF80400C0B2E1
:1062900000F00401A94207D015B140F0040001E06C
:1062A00020F004008DF80400012301AAE6218020DB
:1062B000FEF7B8F8002816D18DF80460012301AA72
:1062C000E72180200097FEF780F800280BD19DF889
:1062D000040000F08100A04205D1002301AAF321AF
:1062E0008020FEF79FF8BDE8FC810000F0B505AC0A
:1062F000E0CC446824F470240C434460416821F4E9
:10630000807141EA02214160816821F0020141EA85
:1063100043018160816821F46021294381608168A3
:1063200021F4006131438160C16A21F47001C162CE
:10633000C16A034A02EB07521143C162F0BD00007B
:106340000000F0FF70B5072509290AD9C668A1F138
:106350000A0404EB4404A540AE43A3401E43C660B8
:1063600007E0066901EB4104A540AE43A3401E438C
:1063700006611F23072A09D2446B521E02EB8202D8
:1063800093409C4391400C43446370BD0D2A09D255
:10639000046BD21F02EB820293409C4391400C435A
:1063A000046370BDC46A0D3A02EB820293409C43C1
:1063B00091400C43C46270BDF0B5002201274FF03C
:1063C0000F0E0B8823FA02F3DB072FD0CC78E306FD
:1063D00004F00F0303D58C782344DBB211E00225CF
:1063E000B5EB141F04D1C46807FA02F5AC4307E00B
:1063F0000425B5EB141F04D1C46807FA02F52C4339
:10640000C460082A09D2066894000EFA04FC26EA41
:106410000C06A3403344036008E09400203C466827
:106420000EFA04F5AE43A34033444360521CD2B28B
:10643000102AC6D3F0BD00002DE9F04704461746E8
:1064400099468846234D084600F048F8022200206D
:10645000AA46294604F0A0F905460E463846FCF740
:1064600022F92A463346FCF759F922D202220020AB
:10647000514604F091F905460E464846FCF713F9DB
:106480002A463346FCF74AF913D2C8F10400874084
:10649000114807EB090200EB9400037804F00305B0
:1064A000042101EBC5010F258D40AB438A409918AB
:1064B000017061094FF0E02000EB8100D0F800117D
:1064C00004F01F0301229A401143C0F80011BDE8F7
:1064D000F08700000000F03F00E400E004280BD843
:1064E00006490A684FF6FF031A40C0F1070002EBA5
:1064F0000020034A10440860704700000CED00E0E3
:106500000000FA051149401811490ED0B0F5806F0E
:1065100013D0B0F5784F07D1086940F48050086176
:10652000C86820F48050C8607047086940F4804013
:106530000861086920F4804006E0086940F40040E2
:106540000861086920F400400861704700C8FFBF77
:10655000001002407047000030B40E4C034604F1B6
:106560001205217801EB410005EBC002204699425B
:1065700040780BD09074A17003EB430105EBC10090
:106580002370807C607055F8311000E0516830BC99
:10659000084700002E0000201FB5174C174A204660
:1065A000A179007809B181420CD0A071012801D0F5
:1065B00013A20CE092F8340008B112A200E012A27B
:1065C0000D2105E00021A17101280ED00FA20F219D
:1065D0000120FEF775F96846FDF712F9A0798DF8EC
:1065E00001006846FDF764F91FBD92F8340008B158
:1065F00007A2E5E707A2E3E72E0000200005002040
:1066000048000000432648002020480020000000E9
:1066100043414C002020200001490620888070471B
:106620002E0000200D4A30B49088062801D20620A2
:1066300090805078094B401CC0B2507011781233D2
:1066400001EB410103EBC104247CA04201D90020ED
:10665000507053F8311030BCC0B208472E000020F3
:10666000024920F00700086070470000505C0040BD
:10667000F0B50E490E4E48F68F770D78002148F29E
:10668000800C0AE0CAB206EB82031C68A4B23C404C
:10669000144344EA0C041C60491CA942F2D3044987
:1066A00040F080004C310860F0BD0000480300203D
:1066B000005C0040054A21F00101126892B202EB31
:1066C000C000034A02EB400081607047505C00400C
:1066D000006000400D4A12683E2992B202EBC000F1
:1066E0000B4A02EB400209D94809C90601D1401EF4
:1066F00080B24FF4004141EA802005E04808C90714
:1067000001D0401C80B2800210607047505C004095
:106710000C6000400A4A02EB800210684BF68F734F
:1067200080B200EA0300CB0401D580F480508904D4
:1067300001D580F4005048F2800108431060704792
:10674000005C0040074901EB800001684BF68F7246
:1067500089B2114081F4405148F280021143016036
:1067600070470000005C0040054A21F001011268FA
:1067700092B202EBC000034A42F8101070470000CA
:10678000505C004000600040044A126892B202EB84
:10679000C000034A02EB400041607047505C00407B
:1067A000006000400A4A02EB8002106848F6BF739E
:1067B00080B200EA0300CB0601D580F01000890604
:1067C00001D580F0200048F2800108431060704736
:1067D000005C0040054A02EB8000026848F68F1317
:1067E00092B21A400A43026070470000005C004009
:1067F000224900200A6842F480320A604FF6FF7393
:106800000A6800F1010012F4003F01D19842F7D16B
:106810000868800330D51A48026842F0100202600E
:10682000026822F003020260026842F00202026083
:106830004868486048684860486840F4806048603C
:10684000486820F47C104860486840F4E8104860CC
:10685000086840F08070086008688001FCD54868CE
:1068600020F003004860486840F002004860486833
:10687000C0F381000228FAD17047000000100240E6
:106880000020024010B50D4A0C460B4911601073F0
:106890000D220A49812001F0D1F809480521002C78
:1068A000017007D0042101703021BDE810400120A3
:1068B000FFF778BF10BD000055534253301B002036
:1068C0007802002001488170027370475102002055
:1068D00070B516480068174D81B2154800EB4101AC
:1068E000896889B200EB41042868017A09290FD030
:1068F0002178017061784170A088FCF72BFB296832
:1069000048802089FCF726FB29688880A089C880F8
:10691000286801210172C08828B1FCF7CBFDBDE8D1
:106920007040FEF7A7BDFEF769FAF8E7505C00403B
:10693000006000407C0300202DE9F04134480168EC
:10694000087810F07F0002D0022805D05EE0487A77
:1069500000F0DF00487247E04888002856D10879E7
:10696000002853D14A792C4D22F080001306294C7F
:1069700055F8203003D5C3F301131B0102E0C3F324
:1069800001331B032678044686423FD97BB3897ABC
:1069900069B311060ED555F82010C1F30111012974
:1069A0001ED1E0B20446FCF7B1FC30212046FFF7CF
:1069B000F9FE15E005EB80042168C1F301310129DE
:1069C0000ED14BF68F7648F2800788B1C0B2FCF743
:1069D0008BFC206880B2304080F440503843206007
:1069E0000E480068406980470020BDE8F0810DE056
:1069F0000B4890F82C100020FFF76CFE286880B23E
:106A0000304080F4405038432860E9E70220ECE74A
:106A10007C03002048030020005C00408403002029
:106A2000F002002010B5074C30B10748006800683C
:106A3000804720680A3010BD2168012008820020AC
:106A400010BD00007C03002084030020054A136869
:106A50005A8A10B10868104470478888801A1882D2
:106A6000002070477C03002010B5074C30B1074868
:106A700000688068804720680C3010BD21680120C4
:106A80000882002010BD00007C0300208403002049
:106A90001F4910B5096860B11E48002202800A78BB
:106AA00053060AD002F07F02012A16D0022A16D01D
:106AB00001E002200882002010BD497A8A0602788F
:106AC00002D542F0020201E002F0FD024906027026
:106AD000D1B210D401F0FE010FE00E4810BD4A798A
:106AE00002F00F0113060C4A52F8211007D5C1F32A
:106AF000011106E0017841F00101017003E0C1F3EA
:106B000001310129F6D00548006800698047E4E7B3
:106B10007C03002076030020005C004084030020FA
:106B20000A4810B500680A4AC1785278914203D8E1
:106B300082780AB982880AB1022010BD81720548A4
:106B4000006840688047002010BD00007C030020E2
:106B50004803002084030020064810B50068417AED
:106B600041F02001417204480068C069804700205C
:106B700010BD00007C0300208403002070B51C4879
:106B800002681C48517921F0800500EB85000B0656
:106B9000036821F0800403D5C3F301131B0102E055
:106BA000C3F301331B03144D2D78A54211D954882A
:106BB0007CB973B1927A62B109060029016848F282
:106BC000800289B207DA48F6BF73194081F01001DC
:106BD00006E0022070BD4BF68F73194081F480519E
:106BE000114301600548006880698047002070BD3E
:106BF0007C030020005C0040480300208403002048
:106C000010B50E4C0E4A20681268C178926940791E
:106C1000904721688A7A22B118B9087908B988782A
:106C200008B1022010BD07480068C068804720688E
:106C30004179C172C1780173002010BD7C0300202E
:106C400080030020840300202DE9F8430027DDE9BC
:106C50000956DDF820900097144698463780FBF7D8
:106C6000B7FAD0B104442046FBF7D4FA0004000C74
:106C700013D00A2269462046FBF7E4FA0004000C10
:106C800002D10099A14208D0804506D8484504D8D1
:106C90002C6030800020BDE8F88301202F60FAE7E7
:106CA00070B5FEF79FFC1D4B01221A601C4801685D
:106CB0008907FCD51B490C680D682C4344F010046F
:106CC0000C600C6804F0380404F102040C604168A4
:106CD00021F0F0014160416821F460514160416858
:106CE00021F4E06141F480614160416821F47C114C
:106CF00041F4201141601A6601688901FCD54168A0
:106D000021F00301891C41604168C1F3810102291E
:106D1000FAD106490448086070BD000000004242F4
:106D20000010024000200240006CDC02180100202C
:106D3000AFF3008003484168491C416001210170A4
:106D400070470000000000200B4864210068B0FB81
:106D5000F1F0B0F1807F0DD220F07F414FF0E020C4
:106D6000491E4161054AF02111700021816107210E
:106D700001617047FEE700001801002023ED00E0EC
:106D8000034610B50020024602E09C5C521C2044E1
:106D90008A42FAD310BD3420122801D00020704757
:106DA000012070470F4810B5016841F001010160F2
:106DB00041680D4A1140416001680C4A1140016070
:106DC000016821F480210160416821F4FE014160E5
:106DD0004FF41F018160FFF70BFD05494FF0006084
:106DE000086010BD001002400000FFF8FFFFF6FE33
:106DF00008ED00E0024800218170417070470000FA
:106E00002000002010B50446FDF784FB1C4A012138
:106E10002046917000F03CF802210020FDF724FC90
:106E20002D20FDF789FC05210020FDF71DFC2D20FC
:106E3000FDF782FC02210120FDF716FC3A20FDF748
:106E40007BFC05210120FDF70FFC3A20FDF774FCC7
:106E50000CA209210020FDF733FD0BA20F21002019
:106E6000FDF72EFD06480E308079052806D10F214A
:106E7000BDE8104005A20120FDF722BD10BD0000B5
:106E8000200000204241540025000000480000007E
:106E900010B5294CA0886421B0FBF1F201FB12026D
:106EA00000210846FDF7A8FCA27903210020FDF788
:106EB000A3FCE27906210020FDF79EFC2278002148
:106EC0000120FDF799FC627803210120FDF794FC75
:106ED000A27806210120FDF78FFC184803230C211E
:106EE00002780020FDF79CFC15480078000914D0BA
:106EF000FBF7AAFF88B11348417881B9012141709D
:106F000009210120FDF7B0FBFF20FDF715FC002251
:106F10001E210D4803F0D3FC01E000F025F80948DC
:106F20000E308079052806D10F21BDE8104007A258
:106F30000120FDF7C5BC10BDC416002010010020C3
:106F40001201002020000020B805002048000000A9
:106F500010B5044C60704FF47A70FDF7DBFF606091
:106F600010BD0000C800002010B50648FEF722F84A
:106F700005490020054A48700921BDE8104001205C
:106F8000FDF79EBCB80500202000002068B4000872
:106F90000C4910B5C888002813D00A79002A10D1EE
:106FA000401E82B2CA80C87820B103230521012087
:106FB000FDF736FC0022BDE810406421024803F0D2
:106FC0007EBC10BD20000020D405002070B5042236
:106FD0001B495E20FDF7D6F9194B187859789A7835
:106FE0004418144402EB0121E5B289B200B3A3F1C5
:106FF00008046068401C6060D878A84202D020680D
:10700000401C20600020401CC0B20428FBD34FF677
:10701000FF700C4A814202D001EB81004000908059
:10702000012000F0F3F8002002466421A06001E096
:1070300000223221BDE87040034803F040BC00004C
:1070400004010020280000205416002001490020DF
:10705000C870704720000020F8B50646254884888F
:10706000FDF758FA234D0120083D0021E87022A2C7
:107070000846FDF725FCA4F57F40FF3808D120A283
:1070800000210120FDF71CFC09211FA201200CE0BA
:10709000304600F043F808210020FDF7E5FA2E20E5
:1070A000FDF74AFB19A20B210020FDF709FC287906
:1070B00090B90323EA8805210120FDF7B1FB0020E8
:1070C00003460246009012491248FDF74BFF00228A
:1070D0006421104803F0F3FB0648801D80790428E2
:1070E00006D1BDE8F8400F210BA20120FDF7E8BB57
:1070F000F8BD00002800002054564F430000000057
:1071000077616974000000007300000070706D000A
:10711000916F0008D40500204800000070B5264893
:107120008488A4F57F40FF3845D02348083801798A
:1071300031B90121017121A200210120FDF7C0FB1D
:1071400042F21070B4FBF0F100FB11440621002064
:10715000FDF78AFA4FF47A75AC4204D3B4FBF5F02C
:107160003030C0B200E02020FDF7E6FAB4FBF5F0C5
:1071700005FB10406425B0FBF5F03030C0B2FDF7E0
:10718000DBFA09210020FDF76FFAB4FBF5F005FBEF
:1071900010400A21B0FBF1F03030FDF7CDFA06487F
:1071A000801D8079042806D1BDE870400F2107A218
:1071B0000120FDF785BB70BD280000202020202085
:1071C0002020202020202020200000004800000057
:1071D00008B5FDF7B5F800200346024600900549C2
:1071E0000548FDF7BFFE0022BDE80840C92102485E
:1071F00003F065BBCD6F0008541600200248002143
:107200000171B421C18070472000002010B5044CEA
:1072100084F871004FF47A70FDF77CFE606710BD52
:107220004000002010B50446FDF774F9204600F038
:1072300039F803210020FDF717FA2E20FDF77CFA1C
:1072400013A206210020FDF73BFB12A20A21002019
:10725000FDF736FB10A20F210020FDF731FB0F4890
:107260008079032804D10EA20F210120FDF728FB0D
:107270000A4842F21071801F4088BDE81040B0FB00
:10728000F1F201FB12006421B0FBF1F000F084B8D0
:107290002743000052482000250000002E00002057
:1072A000480000002DE9F04100210846FDF7DCF917
:1072B000374C42F210772088B0FBF7F010F0FF0F48
:1072C00001D02D2000E02020FDF736FA20884FF471
:1072D0007A75B0FBF7F107FB11002080B0FBF5F0E9
:1072E0003030C0B2FDF728FA20886426B0FBF5F1F3
:1072F00005FB1100B0FBF6F03030C0B2FDF71CFA10
:1073000004210020FDF7B0F920884FF00A08B0FBF7
:10731000F6F106FB1101B1FBF8F03030FDF70CFA85
:107320002188B1FBF8F208FB12103030FDF704FAA7
:107330000D210020FDF798F96088B0FBF7F107FBFD
:107340001100B0FBF5F03030C0B2FDF7F5F9608800
:10735000B0FBF5F105FB1100B0FBF6F03030C0B228
:10736000FDF7EAF90A48801D8079032804D109A2B3
:107370000F210120FDF7A4FA6088B0FBF7F107FBAD
:107380001100B0FBF6F0BDE8F04100F005B80000D8
:107390002800002048000000142801D209A20CE0B7
:1073A000282801D20AA208E0422801D20BA204E058
:1073B0004B2801D20CA200E00EA201210846FDF7E5
:1073C0007FBA0000546F6F20447279202020200083
:1073D000447279202020202020202000436F6D66F9
:1073E0006F727420202020005765742020202020F8
:1073F00020202000546F6F2057657420202020002B
:1074000010B5044C84F859004FF47A70FDF782FDF2
:10741000E06510BD400000202DE9F047FDF76AFD52
:107420006421B0FBF1F2354C0020638D012134F86A
:10743000115004EB410626F8025C491CC9B212291E
:10744000F5D36384A18C491CA18494F833100126E0
:10745000002500292A4FDFF8AC90A18C4FF0663848
:107460001ED0082915D903210F20FBF71FFFA08587
:10747000A08DFBF718F900223B46FBF719F84246AE
:107480004B46FBF785F8FBF71BF92085012084F8B4
:107490003260A18C122921D384F83350A5841DE0D9
:1074A00003291BD3782A02D203210F2001E01221E5
:1074B0000020FBF7FBFEA085A08DFBF7F4F800226F
:1074C0003B46FAF7F5FF42464B46FBF761F8FBF700
:1074D000F7F820850120A58484F832600749363109
:1074E00081F823506585002805D0BDE8F0470E39A6
:1074F0000020FEF7E9BCBDE8F08700000005002091
:1075000000003E406666364070B5144DA87808B35A
:107510006878401CC0B26870042801D901206870E6
:107520000FA209210120FDF7CBF909210120FDF768
:107530009BF8002404E0FF20FDF7FEF8641CE4B291
:1075400068788442F7D3BDE8704000221E210648C7
:1075500003F0B5B90020687070BD00002000002065
:107560002020202000000000B805002010B50020D9
:10757000FBF7AAFBBDE8104000224FF4167101484A
:1075800003F09DB9F005002001490120FEF79CBCE5
:10759000EC040020FEB5002400948DF80440ADF802
:1075A0000840032269468020FCF7ECFE3E4D40B1C6
:1075B0000022C8213D4803F082F96868401C6860D9
:1075C000FEBD9DF801003949394EC0F340021C311F
:1075D00042F2107742B39DF8003001EBC2016A78A5
:1075E00000EB032080B221F8120002A9FEF7B2FDE1
:1075F000BDF808007080B0FBF7F107FB11006421B3
:10760000B0FBF1F0ADF8080002A90320FEF75CFC26
:107610006878401CC0B26870042800D36C70E878A9
:10762000012825D1EC7023E09DF8002000EB02201A
:107630002A7880B221F8120002A9FEF7BBFDBDF83E
:1076400008103180401C01D1C81930803088ADF855
:10765000080002A90220FEF737FC2878401CC0B2BF
:107660002870042800D32C70E87808B90120E8704D
:107670000120FFF7C5FEA878401CC0B2A8700828FA
:1076800000D3AC70E8784FF0000301AA48B1F521AF
:107690008020FCF7C7FE00228721044803F00FF981
:1076A000FEBDF321F4E70000F400002028160020BE
:1076B000280000202DE9F0413F4C4FF0000804F174
:1076C00012052078A2880646BAB100EB400105EB0E
:1076D000C101497C31B1A17949B1814207D106216B
:1076E000A18006E0A4F8048084F8068005E0521E1C
:1076F000A280FEF731FFA088B8BB207800EB4000E5
:1077000005EBC000816809B160788847012000EB73
:10771000400105EBC101497C19B9401CC0B20628E3
:10772000F5D3062801D020780BE02178062921D056
:10773000FEF712FF1EE000EB400105EBC101497CA2
:1077400019B9401CC0B20628F5D3062803D0761C10
:10775000F0B2062800D3012000EB400105EBC10187
:10776000497C19B10A21A180E2E703E0401CC0B2C4
:107770000628F1D3012606EB460005EBC007786921
:1077800078B1FDF7BDFB60B1C7F8148087F81180B0
:10779000207800EB400005EBC000C16809B16078BB
:1077A0008847761CF6B2062EE5D3BDE8F0410022EC
:1077B0006421024803F083B82E000020F005002069
:1077C00010B50C460A460146812000F037F93021F9
:1077D0000120FEF7E7FF054903200870044881688F
:1077E000091B81600021017310BD00007802002098
:1077F000301B0020FDF7E6BD154AD36843F48043F3
:10780000D360D36823F48043D360936943F00403C7
:107810009361936943F4804393610E4A136823F4A0
:107820007F6303F596631360B0FBF1F00A490880AB
:10783000081D018842F20C0211430180018841F0C9
:10784000200101800023052203212520FEF7F4BD3D
:10785000001002400408014008380140FDF7C0BE96
:10786000134A136943F400331361136923F400339B
:107870001361936943F004039361D36943F40033C4
:10788000D3610C4A136823F47F4303F596431360D6
:10789000B0FBF1F008490880081D018842F2080297
:1078A000114301800123052203212620FEF7C4BDD8
:1078B000001002400008014008440040FCF7F8BCFA
:1078C000154A136943F480231361136923F4802359
:1078D0001361936943F008039361D36943F48023F0
:1078E000D3610E4A136823F47F4303F59643136074
:1078F000B0FBF1F00A490880081D018842F20C0231
:1079000011430180018841F02001018001230522FB
:1079100003212720FEF790BD00100240040C014017
:10792000084800400020FDF7B1B8000004490120DC
:1079300008600448C16941F40001C161704700005A
:10794000D8004242001002404FF4805110B1034869
:10795000016070470148001DFAE70000100801406F
:10796000FBF7CABB06480549022201600A72064AB3
:107970000449C0E90112086800470000401B0020CC
:107980007C030020F00200204C03002010B50222EE
:10799000002311461420FEF74FFD0023012202218F
:1079A000BDE810401320FEF747BD000070B50D4D37
:1079B00028680D4C208020880C4E31880840000437
:1079C00001D5FBF7D5FB208831880840400507D555
:1079D0004FF6FF30286006484068BDE87040004719
:1079E00070BD0000445C0040D802002088030020E5
:1079F000F0020020FFF7DABF0549002008600549C2
:107A00004FF4044008800249091F086000207047B5
:107A1000445C00408803002070B500F07F050E46EE
:107A20002846FCF737FA04462846FCF723FA0146B5
:107A300022463046FDF70EFD204670BD70B500F0C1
:107A40007F040D4616462046FCF73EFA0146B2B2C8
:107A50001646284600F008F831462046FEF794FE08
:107A6000002070BDFEE70000084B10B5521C520804
:107A700003EB410108D003784478801C43EA0423D7
:107A800021F8043B521EF6D110BD000000600040FA
:107A90002DE9FC5F3A4D8246AB682878394C40337B
:107AA0004FF0000B10B101280CD056E054F82A001A
:107AB000A1FB0016C5E90A16A2FB0001C5E90C01ED
:107AC00001202870304E314FC5F810B008E0286909
:107AD000AA68395CB154401C2861A868401CA860A1
