:020000040800F2
:102000006822002001210008D34A0008414000084E
:10201000D14A0008DF2E00083973000800000000D4
:102020000000000000000000000000007D600008CB
:10203000DD350008000000000D51000801680008AF
:102040001B2100081B2100081B21000891550008D6
:102050001B2100081B2100081B2100081B21000870
:102060001B2100081B2100081B2100081B21000860
:102070001B2100081B2100081B2100081B21000850
:102080001B2100081B2100081B21000835720008D5
:10209000C97200081B2100081B210008E93500084F
:1020A0001B2100081B2100081B2100081B21000820
:1020B0001B2100081B2100081B2100081B21000810
:1020C0001B2100081B2100081B2100081B21000800
:1020D0001B210008A970000819710008817100080F
:1020E0001B2100081B2100081B210008DFF80CD071
:1020F00000F06CFC00480047C5A0000868220020E2
:102100000648804706480047FEE7FEE7FEE7FEE791
:10211000FEE7FEE7FEE7FEE7FEE7FEE7756800087C
:10212000ED2000082DE9F05F0546002092469B4611
:1021300088460646814640241BE0284641464746DD
:10214000224600F038FB52465B46801A994110D374
:1021500010461946224600F01FFB2D1A67EB0108B6
:102160004F4622460120002100F016FB17EB000924
:102170004E41201EA4F10104DFDC484631462A46C8
:102180004346BDE8F09F40EA01039B0703D009E006
:1021900008C9121F08C0042AFAD203E011F8013B53
:1021A00000F8013B521EF9D27047D2B201E000F8AC
:1021B000012B491EFBD270470022F6E710B50446FA
:1021C0000846114602462046FFF7EFFF204610BDA5
:1021D00030B50EE003460A4601E05B1C521C1C7839
:1021E0001578AC4201D1002CF7D115F0FF0F04D0C7
:1021F000401C0278002AEDD1002030BD10B5044605
:1022000004E00B7800F8013B03B1491C521EF8D2E0
:10221000204610BD0146002000E0401C0A5C002A58
:10222000FBD170470246C9B200E0401C0378002B86
:10223000FBD102E003788B4203D0401E9042F9D2DA
:10224000002070472DE9F0470F469146804604462E
:10225000002614F8015B2DB100F0D0FA0068405D53
:10226000C007F6D12B2D02D02D2D18D0641E4A4662
:102270003946204600F0C6FA27B13968A14201D19B
:10228000C7F8008071054FF002040BD540420028CA
:1022900003DD05F011F90460A007BDE8F08746F4FE
:1022A0008066E4E70028F8DA05F006F904606FF0CC
:1022B0000040F2E7F0B480EA0102D20F4300B3EB32
:1022C000410F02D20346084619464B0042D0C30DC7
:1022D000DDB2C1F3C7542C1B202C35DAC1F3160133
:1022E00041F4000502B16D42C4F1200605FA06F181
:1022F00025412844B3EBD05F23D0C2B1012CA0EB21
:10230000C35009DCF0BC4FF0004202EAC35200F5B2
:102310000000DBB200F0CEBA400000F1807000EBAC
:10232000C350A0F1807040EAD170490009E049082B
:1023300041EAC071A0EBC35000F50000400800EB7B
:10234000C350F0BC00F0ADBA5142012303EB410190
:10235000801AF6E7F0BC704781F00041AAE780F0F0
:102360000040A7E72DE9FE4F074681EA0300C00FB2
:102370000E46019021F0004123F00044B81AA1411B
:1023800005D23846314617461E460B46024623F014
:102390000040104304D13846314603B0BDE8F08F09
:1023A000350DC5F30A00C3F30A510290401A00909C
:1023B000402868DAC3F3130040F4801B019892466A
:1023C00020B10023D2EB030A63EB0B0B00985946B4
:1023D000C0F14002504600F0DFF980460C465046FE
:1023E0005946009A00F0F7F9C0197141EF1785EAD4
:1023F00011533B4340D0019A52B3009A012A11DC99
:102400000022801A4FF0004361EB055103EA0553A7
:102410008018CDE9002341F580114246234600F0A3
:1024200083FABAE72E050025401B61EB060140192F
:1024300041F58012001852412818A6F5001343EB0D
:10244000020140EAD470294318EB0808644113E004
:1024500064084FEA38084FF0000244EAC0744FEABB
:102460000553801A61EB0301801841F5801149087A
:102470004FEA3000801859414246234603B0BDE878
:10248000F04F00F044BA0198012240000023D0EB45
:10249000020263EBE07301984FEAE074381A66EBCE
:1024A0000401EBE783F000435CE781F0004159E76A
:1024B0002DE9FE4F81EA030421F0004504F00044B9
:1024C00023F000414FF0000A009450EA050302D0C7
:1024D00052EA010304D10020014603B0BDE8F08FA9
:1024E000C1F30A53C5F30A541C44A0FB02B3C5F35D
:1024F000130545F4801CC1F3130141F480180CFB53
:10250000023300FB083EA4F2F334810A930A41EA45
:102510008C5143EA88530194A1FB03474FEA9C2561
:1025200005FB03734FEA982601FB06373D05260598
:1025300045EA1435BBEB06016EEB0503850E920EE2
:1025400045EA8C1542EA8812A5FB0206261E67EBB7
:1025500000070C0D44EA0334A41947EB1350C1F3F0
:1025600013064FF0000319464FEA033343EA1653AC
:1025700043EA0403019CE5FB0201A4F10C0402946C
:10258000009C4FEA0632CDE900A400F0CDF9A4E7A3
:102590002DE9F04D81EA030404F0004B21F00047DF
:1025A00014464FF0000A23F0004150EA070220D001
:1025B00054EA01021DD0C1F30A550246C1F31300CB
:1025C000C7F30A56C7F3130340F4801143F4801392
:1025D000A6EB0508101BD64608F2FD3873EB010088
:1025E00002D308F1010801E092185B41B8F1000F35
:1025F00003DA00200146BDE8F08D00204FF480157D
:10260000064607460EE0B2EB040C73EB010C04D354
:10261000121B064363EB01032F436D084FEA3000A2
:1026200092185B4150EA050CEDD152EA030012D03A
:1026300082EA040083EA0105284303D100224FF017
:10264000004308E0101B8B4102D20122002302E06C
:102650006FF0010253101AEB060047EB085110EB24
:102660000A0041EB0B01BDE8F04D00F050B970B528
:1026700021F0004303430CD0C1F30A540026D4EBED
:10268000060566EB0603D417AD1AA34102DB002052
:10269000014670BD001C41EB025170BD9623002223
:1026A000114600F007B90EB540F233410291002106
:1026B000CDE900110A460B4600F036F903B000BD23
:1026C000C1F30A52C1F3130140F2FF3341F4801108
:1026D0009A4201DA0020704740F233439A42A2F254
:1026E000334202DC524200F066B89040704700F07E
:1026F000004230F000400DD0C10D01F5607142EA9A
:1027000001510022C0F31600520742EAD0024007EE
:1027100011437047002001467047000030B5002982
:1027200004DB4FF00044404264EB0101002B04DB6A
:102730004FF00044524264EB03038B4208BF8242D5
:1027400030BD0000002801DBC0F10040002901DBA2
:10275000C1F1004181427047002801DBC0F1004017
:10276000002901DBC1F100418842704730B50B46BA
:10277000014600202022012409E021FA02F59D42B1
:1027800005D303FA02F5491B04FA02F52844151E85
:10279000A2F10102F1DC30BD202A04DB203A00FA6C
:1027A00002F1002070479140C2F1200320FA03F3A8
:1027B000194390407047202A04DB203A21FA02F0A6
:1027C0000021704721FA02F3D040C2F1200291406B
:1027D000084319467047202A06DBCB17203A41FAF6
:1027E00002F043EAE071704741FA02F3D040C2F1CF
:1027F0002002914008431946704700000048704786
:1028000000B600082DE9F05F8246007800278B466D
:1028100015460AF10104B946302801D09DB113E0F4
:1028200014F8010B0127782803D0582801D045B1AE
:102830000AE00DB1102D07D10027102514F8010B67
:1028400002E0082500E00A250026B0460EE005FB60
:10285000080005FB06F1012701EB10461FFA80F87E
:10286000B6F5803F00D3B94614F8010B294600F0B5
:10287000BFF80028EBDABBF1000F05D00FB1641EE2
:1028800000E05446CBF80040B9F1000F06D004F048
:1028900013FE02210160C81EBDE8F09F48EA064011
:1028A000FAE70029A8BF7047401C490008BF20F084
:1028B0000100704710B4B0FA80FC00FA0CF050EA46
:1028C000010404BF10BC704749B1CCF1200421FAC7
:1028D00004F411FA0CF118BF012121430843A3EBC2
:1028E0000C01CB1D0106000A002BBEBF002010BC4E
:1028F000704700EBC35010440029A4BF10BC7047C0
:10290000401C490008BF20F0010010BC704710B502
:10291000002B08DA401C41F1000192185B411A4378
:1029200001D120F0010010BD2DE9F04D92469B46EB
:1029300011B1B1FA81F202E0B0FA80F22032904691
:10294000FFF72AFF06460F4640EA0A0041EA0B015C
:1029500052465B46084303D130463946BDE8F08D08
:10296000194652EA010015D0C8F140025046FFF75F
:1029700022FF04460D46504659464246FFF70CFFDB
:10298000084301D0012000E00020044345EAE0753F
:1029900026432F430A984FEAD625A0EB08000A30B9
:1029A0004FEA46534FF0000245EA47554FEAD72415
:1029B00002D500200146D1E7010550196141DDE94A
:1029C000084500196941BDE8F04DA0E7064C074DE8
:1029D00006E0E06840F0010394E8070098471034EF
:1029E000AC42F6D3FFF786FBDCB60008FCB6000865
:1029F0003A2800D2303820F02002412A01D3A2F137
:102A00003700884201D34FF0FF30704770B501EBBB
:102A1000020410F8015B15F0070301D110F8013B27
:102A20002A1106D110F8012B03E010F8016B01F810
:102A3000016B5B1EF9D12B0705D40023521E0FD466
:102A400001F8013BFAE710F8013B02F10202A1EBA9
:102A5000030303E013F8015B01F8015B521EF9D593
:102A6000A142D6D3002070BD7FB51F4CA06940F4B1
:102A70000170A061606820F4404040F480406060D4
:102A80000126ADF80C6000258DF80F5003A91748FA
:102A900003F026FAE06840F40070E060E06820F49B
:102AA0000070E0604FF460208DE8610000231A465A
:102AB00019460F4803F0AEF90D4C0834206840F079
:102AC000010020601E2005F077F9206840F0080022
:102AD000206020680007FCD4206840F004002060DB
:102AE00020684007FCD47FBD001002400008014070
:102AF0000024014010B5FFF7B7FF07230122BDE80E
:102B000010400021014803F0B1B900000024014049
:102B100038B50546012000F01BF9FFF7EBFF0E4921
:102B2000086840F4A00008600024234622460B49B0
:102B30000B48009402F084F8094800232A4609490A
:102B40001C38009402F07CF8BDE8384004480022AC
:102B500002211C3807F009BB08240140A52D0008FC
:102B600038160020692B000870B50446234802215E
:102B70000068800734D521484C300068204D80B271
:102B80006A6802446A602888401C80B2288028282D
:102B900027D32820B2FBF0F080B2FFF784FD00229B
:102BA000184BFFF785FC6FF00B02FFF760FDFFF796
:102BB00087FD80B2FFF777FD134A144BFFF778FCCF
:102BC000FFF77EFD0021696080B2298004B1A04733
:102BD000002000F0BDF800224FF47A710C4809E0A3
:102BE000322106480830026842F4A0020260084818
:102BF00000221C38BDE8704007F0B7BA002401403D
:102C0000EC00002000C8A94036EA3B1BF59DF53FCB
:102C10003816002010B572B61F482049086003F02E
:102C2000A7FD03F0F9FD1E48816941F03D01816176
:102C30001C4841681C4A114341604FF4E13004F0E4
:102C40006DFA00F0F1F800F0A5F818A31AA21DA182
:102C500020A004F00DFC07F095FF00F077FF02F0D4
:102C6000F1FE02F059FB01F027FB4FF41654204609
:102C700004F01CFA204604F085FA62B600F0CEF8A3
:102C800002F04AF903F03EFF03F05CF807F04AF95E
:102C9000BDE8104000F006BD0020000808ED00E08F
:102CA00000100240000001400080000231393A3536
:102CB000323A3535000000004F6374203234203240
:102CC000303137004150502056312E3134302E32C1
:102CD000000000006170702076657273696F6E3A53
:102CE0002025732025732025730D0A0000B589B0B7
:102CF00000200090019002900390049005900690AF
:102D000007900BA30DA21021684604F0C1FB10220E
:102D10000BA104A8FFF772FA002104AA084601F0EB
:102D20003DFC6A460021012001F038FC09B000BDDD
:102D30004F63742032342032303137002573200045
:102D40004150502056312E3134302E3200000000D8
:102D500008B54FF40071ADF8001001210C4A8DF850
:102D6000021068B110208DF803006946104603F088
:102D7000B7F807481430016841F40071016008BDDC
:102D800004208DF803006946104603F0A9F808BD39
:102D90000008014000B503F066FD0149087000BD60
:102DA0001400002010B50120FFF7D2FF054801688C
:102DB00041F4A00101600022BDE810400521024855
:102DC00007F0D3B9082401401C16002030B540F6A6
:102DD000E441104C884201D8002004E041F268012F
:102DE000884202D36420207030BD0B4B012103EBDD
:102DF000810232F8025C854207D85288824204D9A7
:102E000003EB810010F8040CEDE7491CC9B20A2954
:102E1000EDD330BDF400002010AD00080148FFF7ED
:102E200077BE0000CD2D0008F8B51E48816941F03D
:102E30001C0181611020ADF8000001258DF80250C1
:102E4000194E8DF803006946304603F049F8164CD8
:102E50001034206840F010002060A015ADF800008C
:102E60006946304603F03CF8206840F480702060EA
:102E70004020ADF800006946304603F031F80020EC
:102E800001F098FB0020FFF763FF8020ADF8000001
:102E90008DF8025028208DF803006946304603F073
:102EA0001FF8F8BD001002400008014010B578B1CD
:102EB0004FF48054012805D002280FD110210120A1
:102EC00003F004FA2146BDE81040022003F0B6B931
:102ED0001021BDE81040012003F0F8B910BDFEE755
:102EE000C1B2000A40EA01207047000070B5614B92
:102EF000614C00205988A4F1400202E0155C255481
:102F0000401C8842FAD35C48626820301F29426026
:102F1000A268826007D00220FFF7C8FF002020606F
:102F2000607B1A2221E0E17B282901D02A290AD1DD
:102F3000D4F81100227D00BA20F0FF001043586041
:102F4000E08A40BA98604D4A2068904252D14C4A7B
:102F5000607B1268904203D8A27B0AB1102A0DD977
:102F60000220FFF7A3FF607B2422052103F03EFA35
:102F7000BDE870400021012003F018BA252958D07F
:102F80001ADC152971D00DDC08296ED005DCB9B327
:102F9000032936D004292DD163E00A2965D01229EE
:102FA00028D132E01A390A2924D2DFE801F036327A
:102FB000235E32232323233E8A2956D00EDC552953
:102FC00053D006DC28293CD02A2940D02F2911D102
:102FD00043E05A2925D088290CD146E0A82944D0BD
:102FE00004DC8F2941D09E2904D13EE0AA293CD09F
:102FF000AF293AD00220FFF759FF607B2022B4E7C7
:103000001BE0BDE8704002F08FBCBDE8704002F0EC
:10301000A9BBBDE8704002F093BCBDE8704002F06F
:10302000DBBBBDE8704002F0D1BBBDE8704002F0F0
:1030300045BCBDE8704002F009BCBDE8704002F03C
:1030400083BCD3E90112BDE8704002F0CBBBD3E9E9
:103050000112BDE8704002F0ADBCBDE8704002F066
:103060008FBCBDE8704002F065BBBDE8704002F067
:1030700093BB000058020020BC1A00205553424365
:10308000BC0200202DE9F041184D174C174F443574
:10309000174E23E047F6FF702860308800F00F00DD
:1030A000207007EB8000016889B20A0407D5016827
:1030B00040F68F7289B2114001600E4808E009069F
:1030C0000CD5016848F60F7289B2114001600A48B8
:1030D000217800EB810050F8040C8047286830808C
:1030E0000004D7D4BDE8F08158030020005C004004
:1030F000B80200209C020020800200202DE9F05F31
:103100004BF6BF7848F28009454F40F68F7A454E1E
:10311000454D48F60F7B27E0088810F00F0030700F
:103120002BD005EB800001688CB221040BD501681F
:1031300089B201EA0A0101603C48317800EB810064
:1031400050F8040C804720060ED5307805EB80003F
:10315000016889B201EA0B0101603548317800EB62
:10316000810050F8040C80472F48443000683149F2
:1031700008800004D0D4BDE8F09F286838803888E3
:1031800000F030007880388800F44050388028689B
:1031900080B200EA080080F4005080F0200040EA8D
:1031A000090028600888C0060028286880B217DB5C
:1031B00000EA0B00286000F0D3FF24E0398889047E
:1031C00001D580F400507988C90626D4798889060B
:1031D00001D580F0200080B240EA09002860CAE7EB
:1031E000010507D5286880B200EA0A00286003F0CC
:1031F00003F908E00004B7D5286880B200EA0A00A5
:10320000286001F045FD2868398880B200EA08008E
:10321000C904D3D580F48050D0E780F01000D5E702
:103220006A03002058030020005C00409C0200203C
:1032300080020020B802002070B500240C4A04E08F
:1032400032F81030401C1C44C0B21228F8D3084693
:10325000FFF729FA05460E462046FFF724FA2A46CC
:103260003346FFF795F9FFF72BFA80B270BD0000E7
:10327000E4040020074901EB80000168490408D5F7
:10328000016848F68F7289B211404CF280021143F6
:1032900001607047005C0040074901EB8000016855
:1032A000490608D5016848F68F7289B2114048F284
:1032B000C002114301607047005C0040064901EB09
:1032C0008000016848F68F6289B2114048F280029E
:1032D0001143016070470000005C00402DE9F05F81
:1032E000DFF89C90DFF89C804FF0300AD9F800108E
:1032F00001F11004088A0E7A08B9042E04D0A588BA
:10330000A84216D8042615E01F4A1078012804D0D8
:1033100007261021A8F800102CE01C49002009689D
:103320001B4B89B203EB41014860A8F800A0107064
:1033300020E00226854200D90546A8B2A1680746CA
:1033400088478346002000F041FC01463A46584633
:1033500003F0F4FF3946002002F0AAFF2088401B4A
:103360002080608828446080A8F800A009494FF4B4
:1033700040500880D9F800000672BDE8F09F0000B8
:103380005C0300206C03002054030020505C0040CC
:10339000006000406A0300202DE9F047234EDFF86B
:1033A00090904FF03008346834F8100FA168B1B134
:1033B00008B3A588854200D90546A8B207468847C4
:1033C00082462088401B208060882844608000203E
:1033D00000F0D2FB01463A46504601F089FE2088B3
:1033E00048B114494FF4405008800021084602F0CB
:1033F0005FFFA9F800802088A188884201D30320BC
:1034000001E020B1052031680872BDE8F08731681D
:1034100006200872084900200968084A89B202EBB0
:1034200041014860A9F80080EFE700005C0300203C
:103430006C0300206A030020505C004000600040E4
:103440002DE9F0415C4C5D4D092620680027296874
:103450004278062A05D0AAB1082A4BD00A2A4ED0B3
:1034600069E00278520666D18078012804D00228EB
:1034700004D0032804D05EE0C96954E0096A52E030
:10348000496A50E04288A2BBC288022A53D102791D
:103490007ABB0278530601D1838833B102F07F02F0
:1034A000012A04D0022A0CD045E045493BE08A6954
:1034B000407900219047E0B92068807A0028F4D153
:1034C00039E0417901F00F0001F070020B063D492F
:1034D00051F8201003D5C1F30111090102E0C1F335
:1034E00001310903384B1B78834224D90AB90029DA
:1034F000DBD120E0007840061DD1344913E002788A
:1035000002F07F02012A16D1827AA2B1428892B9D2
:10351000027982B9C288012A0DD18A6940790021D5
:10352000904740B92A4931B1206847828161002023
:103530008847002006E029682068096940788847A4
:10354000032808D021680A8AA2F57F43FF3B05D1F2
:103550000E72BDE8F08120680672FAE7022808D0F2
:103560003AB10878000620D5C888824205D9088279
:1035700013E04FF008000872EBE70ED22868154BF5
:1035800090F82C00824201D21F7006E0B2FBF0F4EA
:1035900000FB142008B901201870286890F82C004E
:1035A0008882BDE8F041FFF799BE032008720A49FE
:1035B00000030880CDE700005C03002060030020CA
:1035C000B9650008005C0040280300204D65000834
:1035D00091650008540300206A030020704701F041
:1035E000DDB901F01BBA000070B50C4C206820F06A
:1035F00080002060094D14352868000608D5084869
:10360000006800220121074806F0AFFD80202860F5
:10361000206840F08000206070BD00000004014080
:10362000080801405416002030B51A4A8379016811
:1036300053B313688B431360111D0B680468A343D5
:103640000B60017911440B68046823430B60114B34
:10365000083319680468A14319601C1D21680568B6
:10366000A94321604179102905D011440A680068F6
:1036700002430A6030BD196802681143196021686D
:1036800000680143216030BD0079104402688A431C
:10369000026030BD0004014001480068704700002E
:1036A000080801407FB500252B462A4616491748D1
:1036B000009501F0C5FA1648816941F00401816165
:1036C0008024ADF80C4004208DF80F0003A91148A8
:1036D00002F006FC0721002000F03AFA0E480460D0
:1036E0008DF8085010208DF8090001208DF80A008F
:1036F000019401A8FFF798FF012306220321172058
:1037000002F02EFC7FBD0000993600085416002000
:103710000010024000080140140401407FB5044637
:1037200006F0F4FF0E49ACB16B46102207F008F822
:103730000821684603F08CF80246DDE90201DDE964
:103740000035C4E90201C4E90035904202D1C94301
:10375000884202D0012004B070BD0020FBE70000C9
:10376000640004002DE9F04180460F4606F0CEFFCC
:10377000154C054637B34FF4805623463246414632
:1037800006F0DEFF642239462046FEF7FCFC5C2191
:10379000204603F05DF8E065C043206632464146AE
:1037A000284606F040FF234632464146284607F0A9
:1037B000CBF8234632464146284606F0C1FF00209A
:1037C000BDE8F0810120FBE7D40500202DE9F041A0
:1037D000074606F09BFF164C4FF480264FF48058A6
:1037E0000546A4F164034246314606F0A9FF0FCF17
:1037F00084E80F000821204603F02AF8A060C043A7
:10380000E06042463146284606F00DFFA4F164030D
:1038100042463146284607F097F8A4F16403424631
:103820003146284606F08CFF0020BDE8F0810000FC
:1038300038060020F0B59BB001223949394805F01F
:1038400029FA4FF480560D2823D0002865D1402056
:1038500000903348344B35A22021083000F00AF99B
:1038600000285AD13049012201F1740005F040FAD4
:10387000002852D10446199006F048FF07462A480E
:1038800019AB32462B49743005F046FB050023D1B5
:1038900007E01BB03246BDE8F0400121204804F0AB
:1038A0005FBF1998C0B1250332462946384606F055
:1038B000BAFE1998B04206D21E4AC0F58051104493
:1038C000CC22FEF772FC1B4B32462946384607F0E5
:1038D0003BF8641CA4B2D2E71348743004F092FDA4
:1038E0001998054319D1104805F014FC6421684665
:1038F000FEF762FC0C4869467430C06811900120E4
:103900001590C01E16904FF48020FFF72BFF40F655
:10391000B83004F027FA00F06DFC1BB0F0BD0000D9
:103920006E030020081B0020381D002075706461A4
:1039300074650000D405002030B5C3B000251FA178
:10394000224800F045F8012830D020484FF4807418
:10395000C168A14200D996391C4804F076FD40BBED
:1039600000204190409021466846FEF725FC41AB7F
:1039700022466946154805F0CFFAD0B95B21684662
:10398000FEF750FC040014D05D21FEF74BFC80B123
:103990000A2240A9601CFEF755FC48B94099641CF6
:1039A000A14205D1094804F02DFD002043B030BDEF
:1039B000451C064804F026FD2846F7E773656E733C
:1039C0006F725F646174612E74787400AC1D0020A6
:1039D00070B59CB006460C46402225496846FEF765
:1039E000D2FB0025694610A805F04EFA052801D043
:1039F000C0BB04E0684604F0F9FD98BB012510A89F
:103A000004F013FD6846FEF705FC2F220DF8002098
:103A10006844401C40222146FEF7F0FB1322694611
:103A2000304605F065F90446C5B100201A901048EB
:103A30006C38FEF7EFFB0E4902461AAB6C39304684
:103A400005F0BCFB0A483238FEF7E4FB08490246A1
:103A50001AAB3239304605F0B1FB0446304605F06A
:103A60001BFB14B101201CB070BD0020FBE700005F
:103A7000C4AF00082DE9F04194B0054620481190EC
:103A80003320129016461F46DDF86880294601A8AB
:103A900005F0FAF9040022D02AE01198007808B164
:103AA000119801E00DF135009DF83410C90601D5DB
:103AB00004241DE000902B4612A24146384603F034
:103AC000E7FC31463846FEF783FB04460FA1384633
:103AD000FEF77EFB14B108B1002400E004240BA91A
:103AE00001A805F0ADFA18B99DF835000028D4D129
:103AF00001A804F09AFC14B02046BDE8F081000053
:103B0000781D002025732F25730D0A0062696E0051
:103B100038B50C4601460C48FFF75AFF012811D072
:103B20000948C16804F091FC2046FEF773FB024689
:103B30006B462146044805F041FB0446024804F068
:103B400061FC204638BD0000AC1D0020FFF772BEAE
:103B500010B58A0721F003040649120F21440F23F0
:103B60008C6893409C438C608B68904003438B60CF
:103B700010BD0000000001400549096889B201EB51
:103B8000C000044901EB4000806880B2704700002B
:103B9000505C0040006000400549096889B201EBB3
:103BA000C000044901EB4000C068C0F30900704741
:103BB000505C004000600040034951F82000C0F311
:103BC0000130000370470000005C004004490968B0
:103BD00089B201EBC000034951F8100080B2704770
:103BE000505C00400060004008B104487047044940
:103BF000012009680882002070470000BC020020F4
:103C00005C0300200A4810B50168001D0468001D0F
:103C1000006808180BD00822064900F0CFFA0549C1
:103C200020460422BDE81040103100F0C7BA10BD94
:103C3000E8F7FF1F660200201FB522480078012820
:103C40003ED1214C207880F00100207014F8341906
:103C50001C488079C9B1012801D01CA200E01CA237
:103C60000D21012000F09AFCA08DE085E08DFEF78B
:103C70001AFD0022174BFEF71BFC4FF06632164B65
:103C8000FEF786FCFEF71CFD09E008B113A200E078
:103C900013A20D21012000F081FC0020E085208688
:103CA0006846FFF73BFD94F834008DF80000208E45
:103CB000ADF80600E08DADF804006846FFF786FD1C
:103CC0001FBD00002C0000201805002043414C00BF
:103CD0004326480000003E406666364020204800EB
:103CE0002020200010B50022022901D2002010BDA2
:103CF000401C891E8BB2002104E0445C491C224414
:103D000092B289B29942F8D3D043401CC0B210BDE0
:103D100070B5264E348DB58D10B101282FD115E028
:103D2000308E38B1308EA04202D2308E201A00E0A0
:103D3000002084B200F070FA00211DA2084600F0B5
:103D40002DFC204600F046F81BA214E0F08D38B19F
:103D5000F08DA84202D2F08D281A00E0002085B232
:103D600000F05AFA002112A2084600F017FC28467B
:103D700000F065F812A20A21002000F00FFC96F86E
:103D8000340018B11048807901280CD096F834001E
:103D900020B10EA20D21012000F000FC2046BDE85C
:103DA000704000F0C3B80AA2F4E70000E404002069
:103DB0004843484F20000000206D672F6D330000FE
:103DC0002070706D202000002C00002043414C002A
:103DD0004326480070B504460521002000F0C6FACD
:103DE00042F21070B4FBF0F100FB11404FF47A7511
:103DF000B0FBF5F03030C0B200F020FB2E2000F018
:103E00001DFBB4FBF5F005FB10406425B0FBF5F09D
:103E10003030C0B200F012FBB4FBF5F005FB1040EF
:103E20000A25B0FBF5F0303000F008FBB4FBF5F0EC
:103E300005FB1040BDE87040303000F0FFBA70B5AF
:103E400004460521002000F091FA42F21070B4FB04
:103E5000F0F100FB11404FF47A75B0FBF5F0303013
:103E6000C0B200F0EBFA2E2000F0E8FAB4FBF5F057
:103E700005FB10406425B0FBF5F03030C0B200F017
:103E8000DDFAB4FBF5F005FB10400A25B0FBF5F0B8
:103E9000303000F0D3FAB4FBF5F005FB1040BDE87C
:103EA0007040303000F0CABA70B51C4D01002C8D46
:103EB000A88D02D001291AD10DE0288E38B1288EA4
:103EC000A04202D2288E201A00E0002084B22046B0
:103ED000FFF780FF0BE0E98D39B1E98D814202D215
:103EE000E98D401A00E0002080B2FFF7A8FF95F8A6
:103EF000340018B10A48807901280CD095F83400B4
:103F000020B108A20D21012000F048FB2046BDE8A9
:103F1000704000F00BB804A2F4E70000E4040020B5
:103F20002C00002043414C0043264800502801D279
:103F300005A205E0B0F5FA7F01D206A200E008A2D2
:103F40000021012000F02ABB476F6F642020202051
:103F500020202000556E6865616C7468792020000F
:103F60004261646C79202020202020000178FF2904
:103F70000FD141780E4A172902F136030AD086295B
:103F800007D1022183F82310C178807801EB00204B
:103F9000D08470474179007901EB002050850120E1
:103FA00083F82300002202481146803006F0DDB875
:103FB000E404002070B51F480088800630D51D48F5
:103FC000001D00881C4CC0B294F822100025FF2967
:103FD00003D1172825D0862823D0218C202900D36F
:103FE0002584218C6218491C2184107084F82200D9
:103FF000208C092814D109210F48FFF773FE217A7C
:1040000088420CD10D4E012086F829004FF496709D
:1040100000F0EEFDF06209210748FFF7A7FF2584B5
:1040200070BD2584218CFF226318491C21841A70DD
:10403000D7E70000004800401A050020400000209B
:10404000FEE700000E4808B5816941F00801816172
:10405000C020ADF8000010208DF8030003208DF87B
:1040600002006946074801F03BFF0648103001682E
:1040700041F040010160016841F08001016008BD2C
:1040800000100240000C0140AFF3008070B50646FE
:104090000C46154605F06EFE30B946F0010005F0FD
:1040A00035FE05F0C5FE40B1012070BD012005F0D0
:1040B000F1FD6D1E04F8010BEDB2012DF6D80020C4
:1040C00005F0E8FD207005F091FE002070BD38B5C8
:1040D000049C009400F001F838BD2DE9F04106463B
:1040E00014461D46069F05F06DFE48B90FB105F058
:1040F00041FE46F0010005F009FE05F099FE48B1C9
:104100000120BDE8F081012005F0C4FD6D1E04F81A
:10411000010BEDB2012DF6D8002005F0BBFD20709B
:1041200005F064FE0020ECE7AFF3008070B51446A4
:104130001E4605F047FE38B900250AE0207805F054
:10414000E5FD05F075FE08B1012070BD6D1CEDB2F6
:10415000641CB542F2D305F049FE002070BD00009A
:1041600010B5134C2068017A022904D0042902D02A
:10417000062905D015E0FFF7B1F82068007A11E0B4
:104180004178052909D10178490606D1C07802F0A5
:1041900003F808480068006A80470748006880689C
:1041A0008047082021680872BDE8104000F0B0BFC9
:1041B0005C0300206403002060030020F0B50023AE
:1041C0000A2630274FF0370C1C460FE0B6EB107F65
:1041D00002D907EB107501E00CEB107501F81350D4
:1041E00001EB430500015B1C6C70DBB29342EDD325
:1041F000F0BD000000F0C6FF72B605480168054A30
:1042000001F4E06111430160BFF3408FFEE700005D
:104210000CED00E00400FA0510B5012000F0AEF846
:10422000022003F09FFD022000F0A8F8BDE8104036
:10423000022003F097BD00002DE9F8434FF400552C
:10424000ADF8005001208DF80200DFF860801026E4
:104250008DF803606946404601F042FEDFF8509059
:104260002F11ADF800706946484601F039FE6C1117
:10427000ADF800406946484601F032FE012000F0EA
:104280002DFA002000F096F9094810300460011D55
:104290000F60C8F81450074AE1011160082101605D
:1042A000066020210160BDE8F88300000010014095
:1042B000000C0140100801402DE9F047FFF7BCFF5A
:1042C0001E2003F04FFDDFF89CA04FF40046CAF813
:1042D0000060254D08272F602C1F4FF01008C4F8F0
:1042E00000804FF02009C4F8009000F0E5F90A20A2
:1042F00003F038FDCAF800602F60C4F80080C4F8ED
:10430000009000F0D9F9962003F056FDCAF800603D
:104310002F60C4F80080C4F8009000F0CDF9CAF80E
:1043200000602F60C4F80080C5F8009000F0C4F968
:104330000A2003F017FD282000F020F80A2003F0DF
:1043400011FD012000F01AF80A2003F00BFD0C20EB
:1043500000F014F80A2003F005FDBDE8F047062040
:1043600000F00CB814080140140C014001EB80105F
:10437000C0B240F0800000F001B800002DE9F05F0D
:104380000446282803D0382C01D000F08BF92749A7
:104390004FF400504861264D001128604FEA141078
:1043A000DFF890B001074FF4004701D5594601E00E
:1043B0002049091D0F6041074FF0080A1E4E514663
:1043C00001D5316000E0296081074FF010094946AE
:1043D00001D5316000E02960C0074FF02008404659
:1043E00001D5306000E0286000F066F9200701D5B3
:1043F000584601E00F48001D07606007504601D590
:10440000306000E02860A007484601D5306000E039
:104410002860E007404601D5306000E0286000F0E9
:104420004BF9BDE8F05F412003F0C6BC001001402D
:10443000140C014010080140100C01402DE9F05F00
:10444000044600F02FF929494FF400500861284D27
:10445000001128604FEA1410DFF898B001074FF4FC
:10446000004701D5594601E02249091D0F60410767
:104470004FF0080A204E514601D5316000E0296016
:1044800081074FF01009494601D5316000E02960ED
:10449000C0074FF02008404601D5306000E028609A
:1044A00000F00AF9200701D5584601E01148001D27
:1044B00007606007504601D5306000E02860A00723
:1044C000484601D5306000E02860E007404601D54D
:1044D000306000E0286000F0EFF804494FF400502D
:1044E0004861BDE8F05F412003F066BC0010014068
:1044F000140C014010080140100C01402DE9FE4F42
:1045000082468846244900200A276C46B2FBF1F512
:1045100001FB1522B1FBF7F105F130062654401CD2
:10452000C0B20A28F2D30025605D302803D16D1C8B
:10453000EDB20A2DF8D3C5F10A0010F0FF0001D149
:1045400009250120834215D3A3EB000909F0FF07D9
:1045500041465046FFF70AFF002604E02020FFF7FF
:104560006DFF761CF6B2BE42F8D309EB080000F0EE
:10457000FF0802E0C01A2844C5B241465046FFF782
:10458000F5FE04E0605DFFF759FF6D1CEDB20A2DEA
:10459000F8D3BDE8FE8F000000CA9A3B10B5144660
:1045A000FFF7E4FE02E0641CFFF748FF20780028D4
:1045B000F9D110BD08B54021ADF8001001210D4A18
:1045C0008DF8021038B104208DF8030069461046BA
:1045D00001F086FC08BD10208DF8030069461046E6
:1045E00001F07EFC03481430016841F04001016095
:1045F00008BD00000008014038B500228DF80020F9
:104600000C466A4600F068FB05460C49C4EBC40042
:10461000421800210846FFF7C1FF03232A4607215D
:104620000020FFF76BFF05489DF80010703800EB85
:10463000011200210120FFF7B1FF38BD76AC000860
:1046400070B50D460446002110A20846FFF7A6FFEC
:104650000323224606210020FFF750FF0DA20A2166
:104660000020FFF79BFF0DA200210120FFF796FF1E
:1046700003232A4606210120FFF740FFBDE87040D2
:104680000A2104A20120FFF789BF0000504D322EFD
:104690003520000075672F6D33000000504D31301C
:1046A0002020000003494FF480700860012000F0D2
:1046B00015B80000140C014010B507484FF4807481
:1046C00004600F2003F078FB0348001D0460BDE880
:1046D00010400F2003F070BB100C014038B50121D1
:1046E0008DF802101024F8B18DF803404FF400400B
:1046F000ADF8000069460E4801F0F2FB08200D4DB0
:10470000ADF800006946284601F0EAFBADF800402C
:104710006946284601F0E4FB2021ADF80010694607
:10472000284601F0DDFB38BD48208DF80300DDE7A9
:1047300000080140000C014008B101207047084802
:1047400041F6F8510022016005494FF40070091F3D
:10475000086003480349001DC0E900121046704775
:104760009401002000F03B0010B508B1012010BDFD
:1047700004F068FF80B210BD10B51146DDE90223D8
:1047800008B1012010BD04F07BFF002010BD10B562
:104790001146DDE9022308B1012010BD04F07EFFBF
:1047A000002010BD0D4900B509680A7802F07F02AB
:1047B000212A08D1FE2806D1488820B9888810B956
:1047C000C888012801D0022000BD0548886100206A
:1047D0004882FFF709FA002000BD00005C030020BA
:1047E000E93B0008014901F0C5BE0000C8020020F5
:1047F000014901F0BFBE0000C00200200549096860
:10480000C978052901D900207047034A02EBC1018C
:1048100001F0B0BE5C0300200003002009B90028AD
:1048200000D00220704700000F4910B509680A78CF
:1048300002F07F02212A07D1FF2805D1488818B944
:10484000888808B9C88808B1022010BD0120FEF789
:1048500023FD0220FEF70EFD0549044808600549C6
:104860000020087010BD00005C0300205553424337
:10487000BC1A00205802002070B52F48002530498E
:1048800085722E480968C0794872284601F07CFC80
:104890004FF40071002001F031FD2021002001F0D3
:1048A00015FD1821002001F099FC264C00202178EC
:1048B00001F0A4FC5821002001F0EAFC0020FEF7E2
:1048C000FDFC002001F0D2FC0021012001F016FDCA
:1048D0009821012001F0DCFC2021012001F0F6FCF0
:1048E0000021012001F0AAFC0021022001F006FDB8
:1048F000D821022001F072FC2178022001F07EFC18
:104900004FF44051022001F099FC0021022001F0F7
:10491000DDFC2178002001F071FC002001F0A6FCF4
:10492000002001F039FC08490120086008490748C7
:1049300008600848057070BDEC1A0020D6AE00086B
:104940005C030020FC02002050030020555342432A
:10495000BC1A0020580200207047704710B5FFF7BE
:1049600051F9054800240068847200F0F3FB02F05E
:10497000ADFC0248046010BD5C0300205003002021
:10498000044805490068884202D00220FEF78EBA2A
:1049900070470000BC1A0020555342431C4910B513
:1049A000087840F0100008701A4B1878022819D0C7
:1049B0004FF44054032824D0042801D0052825D1E1
:1049C000002018702146022001F038FC0220FFF779
:1049D000F3F8B0F5805F19D12146BDE81040022000
:1049E00001F02CBC0C48C27B282A0FD10A7842F077
:1049F00002020A70D3E90112407BBDE8104000F0CA
:104A0000F1BE0121002001F0D1FCE5E710BD00005E
:104A1000A101002058020020BC1A002070B5194ED8
:104A2000307840F010003070174C0220A4F14001A3
:104A3000E57B02F05BFC15494880087818B1012835
:104A400005D0022006E0BDE87040FEF74FBA2A2DDF
:104A50000DD00120FEF72AFA607B2422052101F007
:104A6000C5FCBDE870400021022001F09FBC3078F9
:104A700040F001003070091D607B06C9BDE8704040
:104A800000F098BFA1010020BC1A002058020020AD
:104A9000094810B50068807A00280BD00749052026
:104AA00008600120FEF7F8FB0220FEF7E3FB044953
:104AB0000020087010BD00005C030020500300209F
:104AC000580200200149042008607047500300206C
:104AD000FEE770477047000070B52F4D28680178D9
:104AE00044784A0606D001F07F00012828D0022829
:104AF0002BD035E0092C06D0052C07D0032C0ED086
:104B0000012C14D02CE001F09FFD28E0C1787F2912
:104B10002ED8817861BB818851BB807A27E0C1782B
:104B200001291DD18088D8B901F0AAFD17E0C1780C
:104B3000012915D1818899B9407A80060AD40FE0FD
:104B40000B2C0DD101F0F0FD09E0012C02D0032C5B
:104B500003D005E001F084FC01E001F0A3FD58B1B1
:104B60000E4800684169E0B28847032802D018B1B6
:104B700008200DE009200BE0094A062000211268F8
:104B8000084B92B203EB42025160074A3021118078
:104B90002968087270BD00005C03002060030020DB
:104BA000505C0040006000406C03002010B5FFF72F
:104BB00033FB0021BDE8104001A20846FFF7EEBC20
:104BC0004E6F2053656E736F7200000070470000D7
:104BD00001484068704700000000002010B50446FE
:104BE000FFF7F6FFA04201D3012010BD002010BD49
:104BF00010B50446FFF7ECFF204410BD0F4810B578
:104C0000046817E0FFF7E4FF2169884211D3207A96
:104C1000C1070ED0810703D420F00100207204E008
:104C2000FFF7D6FFE16808442061616909B1A06916
:104C300088476468002CE5D110BD000018000020F2
:104C400070B50446049EC360C4E905121D46FFF713
:104C5000BFFF28442061267270BD00000B4B19680D
:104C60000A4608E0814205D1087A40F00100087246
:104C70000020704749680029F4D172B6426018607C
:104C800062B6017A41F001010172F1E718000020DB
:104C900010B50F4C2068007A022811D004280FD0DC
:104CA000032804D0052802D0072805D008E0FEF725
:104CB00073FB2068007A04E006480068C0688047FB
:104CC000082021680872BDE8104000F021BA0000F9
:104CD0005C030020600300202DE9F74F05464FF4E8
:104CE000FA704FF00009854200D90546DFF8F880D8
:104CF00001294FF000041ED146462846FDF7CEFCA0
:104D0000824604EB840006EB80075046B968FDF745
:104D100023FD0BD8F9685046FDF714FD06D804EBC7
:104D2000840006EB80008668F8681DE0641CE4B22D
:104D3000072CE6D352E046462846FDF7AFFC8246F4
:104D400004EB840006EB800750463968FDF704FD4C
:104D500040D879685046FDF7F5FC3BD804EB840059
:104D600006EB800006687868072C37D23146FDF7DD
:104D7000F3FA074604EB840108EB8100418A008ABC
:104D8000091A1FFA81FAFDF78EFC804689463846DB
:104D9000FDF7ADFC83460F462846FDF77FFC314604
:104DA000FDF7DAFAFDF7A3FC05460E465046FDF77F
:104DB0007AFC2A463346FDF77BFB5A463B46FDF715
:104DC000E7FB42464B46FDF7CDFAFDF779FC1FFAAB
:104DD00080F904E0641CE4B2072CB1D300240298EB
:104DE00004704846BDE8FE8F84AC000870B50446E8
:104DF000FFF712FA1F4934B1012C09D0022C25D03B
:104E0000032C2AD125E08889C989FFF719FC24E001
:104E1000C88A0A8B10444A8B0D8A104484B2002140
:104E200015A20846FFF7BAFB05232A4608210020F1
:104E3000FFF764FB13A200210120FFF7AFFB05235E
:104E4000224608210120FFF759FB06E0888900214E
:104E500001E088890121FFF7CFFB0D488079022806
:104E600006D1BDE870400F210AA20120FFF796BBD2
:104E700070BD0000C40400203E20302E33756D202C
:104E8000000000003E20322E35756D20000000002D
:104E90002C0000204800000070B51C4C30B10128E7
:104EA0000ED002281FD0032824D11FE0A28903239B
:104EB00006210020FFF722FBE289032306210EE0F2
:104EC000E08A218B0844618B228A084485B205233D
:104ED00008210020FFF712FB05232A4608210120A4
:104EE000FFF70CFB06E0A089002101E0A089012169
:104EF000FFF782FB06488079022806D1BDE87040A2
:104F00000F2104A20120FFF749BB70BDC40400209B
:104F10002C0000204800000070B586B036212648DD
:104F2000FDF74AF9244D012085F8330001A8FEF76A
:104F3000F5FB224E002478B301940294039401A857
:104F40000494FEF743FCB4711B4800231A461C4925
:104F5000D4300094FFF774FE174800224FF44871D4
:104F6000D43005F002F9052030700A20B080B07905
:104F700001F086F8104800231A4612498030009448
:104F8000FFF75EFE0C4800231A460F499C30009440
:104F9000FFF756FE06B070BDFFE79DF8040085F8E8
:104FA0003400BDF80A002886BDF80800E8859DF8A1
:104FB0000500B071C8E70000E40400202C000020C8
:104FC000696F00084D6D00083D6E00082DE9F04145
:104FD00002780023422A02D042784D2A39D11E4C51
:104FE000227812B12278521E2270C2788578DFF8BA
:104FF0006CC002EB0522ACF802200CF10407002281
:1050000000EB42056E792D7906EB052527F8125045
:10501000521CD2B20E2AF3D3891C8AB2002104E0BA
:10502000455C491C2B449BB2C9B29142F8D3BCF8F1
:105030001E0098420AD1094901207A3181F82300E3
:10504000064800221146BC3005F08FF82078401C3D
:105050002070BDE8F081000020000020C404002082
:105060002DE9F0411F480088800630D51D48001DFD
:1050700000881D4CC0B294F822100025422901D1AD
:105080004D2826D0218C202900D32584218C62181C
:10509000491C2184107084F82200208C032816D922
:1050A000E078A17800EB0120218C86B2301D81428E
:1050B0000DD10E4F012087F841004FF49670FFF795
:1050C00097FD786431460848FFF780FF2584BDE8E6
:1050D000F0812584218C42226318491C21841A7096
:1050E000D4E70000003801403E05002040000020C9
:1050F000054B521C520803EB410104D008C920F8AB
:10510000023B521EFAD17047006000407047000019
:105110000C4810B590F82C10002001F06FF80A48E8
:105120000068007A082802D0092809D006E007495B
:105130004FF480500880064910200880002010BDE0
:10514000012010BDD00200205C0300206A03002073
:105150006C03002010B5012002F060F80648012120
:1051600001600021054A0160031D19604FF4E05100
:1051700011800160002010BD405C004068030020E9
:10518000704700000C48016841F00101016041686E
:105190000A4A114041600168094A114001600168F2
:1051A00021F480210160416821F4FE0141604FF447
:1051B0001F01816070470000001002400000FFF8EE
:1051C000FFFFF6FE084900204FF400330A889206DC
:1051D00003D40246401C9A42F8D3984201D30120DE
:1051E0007047002070470000042800400A49002052
:1051F0000A8822F008020A804FF400330A88120756
:1052000003D40246401C9A42F8D3984201D30120AD
:10521000704700207047000004280040F0B50022CD
:1052200064239D002A4E2B4F0EE0840704D1B0FB6F
:10523000F3F403FB140494B9B0FBF5F405FB140478
:105240006CB13A44401C80B28C888442EDD8887995
:10525000401E88710020DFF880C0204F1CE03244DF
:10526000F0E71CF8004040F2A326744302EBC4129E
:105270008C88A40705D18C88B4FBF3F603FB164495
:105280002CB98C88B4FBF5F605FB164414B901283B
:1052900000D13A44401C80B28C798442E1D8C8796C
:1052A00040F2A323584302EBC0100C4A524202447E
:1052B0000878C0EB4013C3EB002002EB00124878E3
:1052C0008978C0EB001002EB80000844F0BD0000BC
:1052D0000085E2018033E10138AD00088051010012
:1052E00070B50546002400F049F901460848094A0E
:1052F000B1FBF0F0138880B2834201D0108001240A
:1053000023462A4640F2B27000F03EF8002070BDFD
:1053100080510100F60000207CB503210023062205
:10532000084600F01DFE154D4AF2A6502860288858
:105330004AF2A556124CB0420ED000F0C5F8192121
:105340003620CDE900010A231222194640F2E1700D
:1053500000F082F82E600CE0606A000100D4606A00
:10536000FFF744FF0748018841F001010180FFF782
:1053700029FF606A40F0807060627CBD046C004070
:1053800000100240002800402DE9F043DFF8C090F3
:10539000B1FBF9F42546EBB364239F004FF4B77CCF
:1053A0004FF4B6780FE0860704D1B0FBF3F603FBA9
:1053B00016067EB9B0FBF7F607FB160656B1A4F247
:1053C0006D14401C80B24445EDD890800020DFF879
:1053D000848021E0644502D3A4F5B774F1E7401C52
:1053E00080B2F2E79688B60705D19688B6FBF3FC43
:1053F00003FB1C662EB99688B6FBF7FC07FB1C6600
:105400000EB9012820D018F80060A64206D8A41BC7
:10541000401C00E006E080B21C2CE3D2401C9071DE
:10542000641CD47109FB15104FF46163B0FBF3F1F8
:10543000117003FB11013C23B1FBF3F0507003FB2F
:1054400010109070BDE8F0831D2CE7D31D3CDFE702
:105450008051010038AD00083EB5DDE90645ADF8E4
:1054600004008DF806108DF807208DF800308DF8B7
:1054700001408DF80250694640F2B270FFF7CEFE4F
:105480000E49CA6942F0C052CA610D4A0121116237
:105490000C490A8842F010020A800A4B020C1433AD
:1054A0001A801A1D1080088820F010000880FFF76D
:1054B00089FE002800D001203EBD000000100240FF
:1054C00000000E42042800402DE9F041274D002441
:1054D000286840F0C050286025484FF00107076257
:1054E00024490F60A0460C602C712C712F71A5F11E
:1054F0001C054FF4AF7604E0641CA4B20A2002F04D
:1055000031FC286A800702D4B442F5D32BE0B442C0
:1055100029D2286A40F4807028621648001F07606C
:10552000FFF764FEF8B9FFF74DFEE0B912480188B5
:1055300041F001010180FFF745FEA0B90E48001DB2
:10554000018841F010010180021DA2F80080121DA7
:1055500047F6FF711180018821F010010180FFF7EB
:1055600031FE002800D00120BDE8F0811C1002406F
:1055700000000E42400442420028004003480088D8
:105580000249091F098840EA014070471C28004071
:1055900070B50F4D288805F10404C00705D0208898
:1055A000C00702D00B48FFF79BFE2888800709D56B
:1055B0002088800706D5208820F00200208005483A
:1055C000FFF78EFE208820F00300208070BD0000D1
:1055D00000280040701600207CB5344D0446344E3F
:1055E000287810B101280CD053E056F82400A1FB14
:1055F0000013C5E90613A2FB0010C5E9081001203D
:10560000287068682B4958B1E8684022014481201D
:1056100001F07EFE686840386860E86840301AE053
:1056200056F8240080B2CDE90010D5E906232046C3
:10563000FFF7A2F810F0FF0F03D0687840F00800E1
:10564000687040221B49812001F062FE56F8240058
:10565000403868604020E8604021012000F028FECA
:105660003021012000F032FED5E9060140228218E7
:1056700041F10000C5E90620D5E908026FF03F01BD
:10568000411842F1FF30C5E908100B4881684039E4
:105690008160D5E90801084307D16860E860C5E981
:1056A0000600064A0321117028707CBDA00100206D
:1056B000900100207C160020DC1A002058020020F7
:1056C00070B5184C1A4454F82040A2420DD92A292A
:1056D00002D10220FDF7EAFB0020FDF7E7FB124AAA
:1056E000052121209170107311E0114D0F4C55F8D8
:1056F0002000A2685843824211D02A290DD00020F0
:10570000FDF7D4FB607B2422052100F06FFE002111
:10571000012000F04BFE002070BD0220F0E70120C8
:1057200070BD00009401002031020020BC1A00204E
:105730009001002010B5FEF7FFFF00280ED00848AA
:105740003A220221407B00F051FE0121084600F080
:105750002DFEBDE810400020FDF7A8BB10BD0000E5
:10576000BC1A002008490A7CD20702D0074805214C
:1057700005E030B10648C97C242900D9242101F074
:1057800079BC0448F7E70000BC1A0020D8010020CB
:1057900001020020DD01002010B50B4CA06810B103
:1057A000207B000601D5002000E00220FDF77EFBF3
:1057B000607B2022052100F019FE0021BDE8104089
:1057C000012000F0F3BD0000BC1A002008210148B0
:1057D00001F050BC290200200421014801F04ABC1C
:1057E000250200202DE9F041164C80460D46207818
:1057F000164630B1022823D14046BDE8F041FFF7FC
:10580000EBBE114F13460A46787B2821FFF758FF5D
:10581000002815D0387B00064FF0020003D5207019
:1058200032462946E8E7FDF741FB787B2422052133
:1058300000F0DCFDBDE8F0410121084600F0B6BDF6
:10584000BDE8F08158020020BC1A002010B50446C3
:10585000FEF772FF70B115483A220221407B00F03A
:10586000C5FD0121084600F0A1FDBDE81040002063
:10587000FDF71CBB0E480F4950F82420521E100E95
:105880000870100C4870100A88700B48CA7050F8E5
:105890002400020E0A71020C4A71020A8A71C87150
:1058A000BDE810400821034801F0E4BBBC1A002009
:1058B00094010020430200209001002010B504460E
:1058C000FEF73AFF70B114483A220221407B00F003
:1058D0008DFD0121084600F069FDBDE81040002063
:1058E000FDF7E4BA0D480E4950F82420100E087157
:1058F000100C4871100A88710A48CA7150F82400C7
:10590000020C4A72020A8A72C872BDE810400C2169
:10591000034801F0AFBB0000BC1A00209401002036
:105920004B020020900100200348C17C122900D9BD
:105930001221024801F09EBBBC1A00203102002057
:105940000121002000F032BD10B5FEF7F5FE70B168
:105950000A483A220221407B00F048FD0121084616
:1059600000F024FDBDE810400020FDF79FBA0121A2
:10597000BDE81040002000F019BD0000BC1A002056
:1059800010B50B4CA06828B9207C400702D4012137
:10599000002009E00220FDF789FA607B242205211E
:1059A00000F024FD00210120BDE8104000F0FEBC05
:1059B000BC1A002070B5174D13462A7832B1012A5F
:1059C00026D1BDE870401A4601F0CCBC124C0A4604
:1059D0002A21607BFFF774FE002819D0207B000687
:1059E00008D401202870BDE870404FF440510220D7
:1059F00000F024BC0020FDF759FA607B2422052129
:105A000000F0F4FCBDE870400021012000F0CEBCA5
:105A100070BD000058020020BC1A002008B580218B
:105A2000ADF8001003218DF8021038B110208DF868
:105A300003006946024800F053FA08BD4820F6E723
:105A4000000C014010B516210348FCF7B5FBFDF72B
:105A500073FF0249486010BDAC030020080000201D
:105A600010B51B4A052817D2DFE800F00306090C21
:105A70000F000988518111E0098891810EE00988A1
:105A8000D1810BE00988118208E00B68C2F802306E
:105A90004968C2F8061001E0052804D2917C012370
:105AA000834019439174907C40F0100090741F283B
:105AB0000CD1084CA068FFF791F838B141F2707032
:105AC000FFF796F8A06004A000F094F8002010BD45
:105AD000AC0300200800002073656E736F725F6472
:105AE0006174612E747874002DE9F04F1688A1B0AE
:105AF00004000F4615463ED0E7B3DDB3FFF768F864
:105B00004FF06409B0FBF9F02C49009038464B681F
:105B10002BA2314601F0BCFC218A86B2B1FBF9F21E
:105B2000288809FB1218801B1FFA80FEE08942F2C8
:105B3000107CB0FBF9F2B0FBFCF109FB120B0CFB83
:105B40001102B2FBF9FAA2894FF47A71B2FBF1F3B8
:105B500001FB13296289B2FBF1F301FB1324B2FBB1
:105B6000FCF30CFB1322B2FBF1F33033604506D398
:105B70002D2005E0FFE7012021B0BDE8F08F2020B7
:105B800002A9CDF81480A1E8010CCDE90049B819AB
:105B90000FA2714601F07CFC304484B2802168463B
:105BA000FCF70AFB224639466846FCF727FB034808
:105BB0004168491C41602C800020DDE7080000207E
:105BC0005B253035645D2020256C64207320200027
:105BD00025632E25303364202025336420202020A7
:105BE00025632532642E2530326420202532642539
:105BF000250D0A002DE9F8431D4D80461D4E2888CD
:105C00000027C0F58071ADF8001031186A46A6F182
:105C10001600FFF769FF04462888BDF800201044ED
:105C200080B2C0F5807189B2288091421DD206F100
:105C3000FE04022907D930444FF02002A1F10201ED
:105C4000FCF7B3FA00E005D14FF002020AA12046AA
:105C5000FCF7D4FA07494046FDF75AFF04464FF4D3
:105C600080710448FCF7A8FA2F802046BDE8F8832D
:105C700008000020C20300200D0A00002DE9F041B9
:105C80000F46002620F00300FCF70DFD0022104B0C
:105C9000FCF70EFC6FF00F02FCF7E9FC00220D4B45
:105CA000FCF700FC002204460D461346FCF736FDC7
:105CB00002D2761E85F000450022074B2046294679
:105CC000FCF7F6FBFCF7FCFC38803046BDE8F081C1
:105CD00000405F4000001840000059402DE9F041AD
:105CE0000F46002620F00300FCF7DDFC104A114BA4
:105CF000FCF7DEFB6FF00F02FCF7B9FC0E4A0F4B0E
:105D0000FCF7D0FB002204460D461346FCF706FDC7
:105D100002D2761E85F000450022094B2046294616
:105D2000FCF7C6FBFCF7CCFC38803046BDE8F081C0
:105D3000D7A3703D0AF76540CDCCCCCCCC6C4740A6
:105D40000000594008B50021084600F015F8002071
:105D500003460246009006490648FEF771FFBDE87B
:105D6000084000224FF4FA71024804F0FEB9000026
:105D7000496E0008D41500202DE9FC410127044696
:105D80000D4600268DF804603B4601AAE7218020DD
:105D90000097FEF79CF9002839D19DF8040000F027
:105DA0008101A14207D020F081008DF8040014B1D8
:105DB00020438DF80400C0B200F00401A94207D0CE
:105DC00015B140F0040001E020F004008DF804005B
:105DD000012301AAE6218020FEF7A6F9002816D1AA
:105DE0008DF80460012301AAE72180200097FEF7C7
:105DF0006EF900280BD19DF8040000F08100A0424C
:105E000005D1002301AAF3218020FEF78DF9BDE81A
:105E1000FC810000F0B505ACE0CC446824F47024AB
:105E20000C434460416821F4807141EA02214160E1
:105E3000816821F0020141EA43018160816821F417
:105E4000602129438160816821F4006131438160D0
:105E5000C16A21F47001C162C16A034A02EB0752B0
:105E60001143C162F0BD00000000F0FF70B50725CE
:105E700009290AD9C668A1F10A0404EB4404A54023
:105E8000AE43A3401E43C66007E0066901EB410430
:105E9000A540AE43A3401E4306611F23072A09D233
:105EA000446B521E02EB820293409C4391400C4390
:105EB000446370BD0D2A09D2046BD21F02EB82022B
:105EC00093409C4391400C43046370BDC46A0D3AF7
:105ED00002EB820293409C4391400C43C46270BD2C
:105EE000F0B5002201274FF00F0E0B8823FA02F3C2
:105EF000DB072FD0CC78E30604F00F0303D58C78B2
:105F00002344DBB211E00225B5EB141F04D1C468B1
:105F100007FA02F5AC4307E00425B5EB141F04D1E2
:105F2000C46807FA02F52C43C460082A09D206683F
:105F300094000EFA04FC26EA0C06A34033440360E6
:105F400008E09400203C46680EFA04F5AE43A340F6
:105F500033444360521CD2B2102AC6D3F0BD0000B5
:105F60002DE9F0470446174699468846234D0846D2
:105F700000F048F802220020AA46294604F062F800
:105F800005460E463846FCF78EFB2A463346FCF79C
:105F9000C5FB22D202220020514604F053F80546E8
:105FA0000E464846FCF77FFB2A463346FCF7B6FB15
:105FB00013D2C8F104008740114807EB090200EB37
:105FC0009400037804F00305042101EBC5010F25BB
:105FD0008D40AB438A409918017061094FF0E02071
:105FE00000EB8100D0F8001104F01F0301229A4059
:105FF0001143C0F80011BDE8F08700000000F03F39
:1060000000E400E004280BD806490A684FF6FF03B5
:106010001A40C0F1070002EB0020034A1044086058
:10602000704700000CED00E00000FA05114940182F
:1060300011490ED0B0F5806F13D0B0F5784F07D16D
:10604000086940F480500861C86820F48050C86036
:106050007047086940F480400861086920F4804076
:1060600006E0086940F400400861086920F4004037
:106070000861704700C8FFBF001002407047000071
:1060800030B40E4C034604F11405217801EB4100B5
:1060900005EBC0022046994240780BD09074A17065
:1060A00003EB430105EBC1002370807C607055F861
:1060B000311000E0516830BC084700002C0000207F
:1060C0001FB5174C174A2046A179007809B18142C3
:1060D0000CD0A071012801D013A20CE092F834007A
:1060E00008B112A200E012A20D2105E00021A17169
:1060F00001280ED00FA20F210120FEF74FFA6846AB
:10610000FDF70CFBA0798DF801006846FDF75EFBFA
:106110001FBD92F8340008B107A2E5E707A2E3E744
:106120002C000020E4040020480000004326480022
:10613000202048002000000043414C002020200087
:1061400001490620888070472C0000200D4A30B499
:106150009088062801D2062090805078094B401C78
:10616000C0B250701178143301EB410103EBC1044C
:10617000247CA04201D90020507053F8311030BC6B
:10618000C0B208472C000020024920F00700086038
:1061900070470000505C0040F0B50E490E4E48F6C6
:1061A0008F770D78002148F2800C0AE0CAB206EB26
:1061B00082031C68A4B23C40144344EA0C041C60F3
:1061C000491CA942F2D3044940F080004C310860D8
:1061D000F0BD000028030020005C0040054A21F0CB
:1061E0000101126892B202EBC000034A02EB4000C8
:1061F00081607047505C0040006000400D4A1268AA
:106200003E2992B202EBC0000B4A02EB400209D9D0
:106210004809C90601D1401E80B24FF4004141EA4D
:10622000802005E04808C90701D0401C80B28002E8
:1062300010607047505C00400C6000400A4A02EB5E
:10624000800210684BF68F7380B200EA0300CB0423
:1062500001D580F48050890401D580F4005048F2C3
:106260008001084310607047005C0040074901EB63
:10627000800001684BF68F7289B2114081F4405161
:1062800048F280021143016070470000005C00404A
:10629000054A21F00101126892B202EBC000034AE4
:1062A00042F8101070470000505C00400060004051
:1062B000044A126892B202EBC000034A02EB4000AB
:1062C00041607047505C0040006000400A4A02EBA9
:1062D0008002106848F6BF7380B200EA0300CB0664
:1062E00001D580F01000890601D580F0200048F229
:1062F0008001084310607047005C0040054A02EBD3
:106300008000026848F68F1392B21A400A43026076
:1063100070470000005C0040224900200A6842F4F7
:1063200080320A604FF6FF730A6800F1010012F430
:10633000003F01D19842F7D10868800330D51A4850
:10634000026842F010020260026822F0030202605A
:10635000026842F00202026048684860486848608B
:10636000486840F480604860486820F47C104860C9
:10637000486840F4E8104860086840F080700860A1
:1063800008688001FCD5486820F003004860486830
:1063900040F0020048604868C0F381000228FAD14A
:1063A00070470000001002400020024010B50D4A66
:1063B0000C460B49116010730D220A49812000F030
:1063C000A7FF09480521002C017007D004210170A6
:1063D0003021BDE810400120FFF778BF10BD00005C
:1063E00055534253DC1A00205802002001488170A6
:1063F000027370473102002070B516480068174DCF
:1064000081B2154800EB4101896889B200EB410473
:106410002868017A09290FD02178017061784170CC
:10642000A088FCF75DFD296848802089FCF758FDAD
:1064300029688880A089C880286801210172C088E5
:1064400028B1FCF7FDFFBDE87040FEF761BEFEF726
:1064500043FBF8E7505C0040006000405C03002014
:106460002DE9F04134480168087810F07F0002D02F
:10647000022805D05EE0487A00F0DF00487247E06D
:106480004888002856D10879002853D14A792C4DE4
:1064900022F080001306294C55F8203003D5C3F3B1
:1064A00001131B0102E0C3F301331B0326780446EA
:1064B00086423FD97BB3897A69B311060ED555F868
:1064C0002010C1F3011101291ED1E0B20446FCF7EE
:1064D000E3FE30212046FFF7F9FE15E005EB8004CE
:1064E0002168C1F3013101290ED14BF68F7648F2B4
:1064F000800788B1C0B2FCF7BDFE206880B2304092
:1065000080F44050384320600E480068406980475E
:106510000020BDE8F0810DE00B4890F82C10002021
:10652000FFF76CFE286880B2304080F4405038435A
:106530002860E9E70220ECE75C0300202803002044
:10654000005C004064030020D002002010B5074C1E
:1065500030B1074800680068804720680A3010BDE5
:10656000216801200882002010BD00005C0300208B
:1065700064030020054A13685A8A10B10868104461
:1065800070478888801A1882002070475C030020BA
:1065900010B5074C30B10748006880688047206814
:1065A0000C3010BD216801200882002010BD0000C1
:1065B0005C030020640300201F4910B5096860B126
:1065C0001E48002202800A7853060AD002F07F0299
:1065D000012A16D0022A16D001E0022008820020EB
:1065E00010BD497A8A06027802D542F0020201E023
:1065F00002F0FD0249060270D1B210D401F0FE0192
:106600000FE00E4810BD4A7902F00F0113060C4A44
:1066100052F8211007D5C1F3011106E0017841F0CD
:106620000101017003E0C1F301310129F6D00548F1
:10663000006800698047E4E75C03002056030020FF
:10664000005C0040640300200A4810B500680A4A54
:10665000C1785278914203D882780AB982880AB107
:10666000022010BD81720548006840688047002004
:1066700010BD00005C0300202803002064030020FC
:10668000064810B50068417A41F020014172044883
:106690000068C0698047002010BD00005C03002036
:1066A0006403002070B51C4802681C48517921F031
:1066B000800500EB85000B06036821F0800403D5FC
:1066C000C3F301131B0102E0C3F301331B03144D99
:1066D0002D78A54211D954887CB973B1927A62B1F0
:1066E00009060029016848F2800289B207DA48F6F3
:1066F000BF73194081F0100106E0022070BD4BF617
:106700008F73194081F4805111430160054800687E
:1067100080698047002070BD5C030020005C004061
:10672000280300206403002010B50E4C0E4A206898
:106730001268C17892694079904721688A7A22B1BB
:1067400018B9087908B9887808B1022010BD07483F
:106750000068C068804720684179C172C1780173C0
:10676000002010BD5C0300206003002064030020B3
:1067700070B5FEF707FD1D4B01221A601C48016829
:106780008907FCD51B490C680D682C4344F01004A4
:106790000C600C6804F0380404F102040C604168D9
:1067A00021F0F0014160416821F46051416041688D
:1067B00021F4E06141F480614160416821F47C1181
:1067C00041F4201141601A6601688901FCD54168D5
:1067D00021F00301891C41604168C1F38101022954
:1067E000FAD106490448086070BD0000000042422A
:1067F0000010024000200240006CDC02F800002083
:10680000AFF3008003484168491C416001210170D9
:1068100070470000000000200B4864210068B0FBB6
:10682000F1F0B0F1807F0DD220F07F414FF0E020F9
:10683000491E4161054AF021117000218161072143
:1068400001617047FEE70000F800002023ED00E042
:10685000034610B50020024602E09C5C521C204416
:106860008A42FAD310BD3420122801D0002070478C
:10687000012070470F4810B5016841F00101016027
:1068800041680D4A1140416001680C4A11400160A5
:10689000016821F480210160416821F4FE0141601A
:1068A0004FF41F018160FFF737FD05494FF000608D
:1068B000086010BD001002400000FFF8FFFFF6FE68
:1068C00008ED00E00C4910B58888002813D08A78BC
:1068D000002A10D1401E82B28A80487820B103235A
:1068E00005210120FDF70AFE0022BDE810406421C9
:1068F000024803F03ABC10BD200000209C05002097
:1069000070B504221B495E20FDF7BEFB194B1878B9
:1069100059789A784418144402EB0121E5B289B2FF
:1069200000B3A3F108046068401C6060D878A842F6
:1069300002D02068401C20600020401CC0B2042807
:10694000FBD34FF6FF700C4A814202D001EB81006D
:1069500040009080012000F0F3F8002002466421FE
:10696000A06001E000223221BDE87040034803F03E
:10697000FCBB0000E80000202600002000160020DC
:10698000014900204870704720000020F8B50646F5
:1069900025488488FDF740FC234D0120AD1F0021D0
:1069A000687022A20846FDF7F9FDA4F57F40FF3884
:1069B00008D120A200210120FDF7F0FD09211FA22E
:1069C00001200CE0304600F043F808210020FDF7DC
:1069D000CDFC2E20FDF732FD19A20B210020FDF782
:1069E000DDFDA87890B90323AA8805210120FDF7D1
:1069F00085FD002003460246009012491248FEF72A
:106A00001FF900226421104803F0AFFB0648801DE7
:106A10008079042806D1BDE8F8400F210BA201209F
:106A2000FDF7BCBDF8BD00002600002054564F43C2
:106A3000000000007761697400000000730000002E
:106A400070706D00C56800089C05002048000000BB
:106A500070B526488488A4F57F40FF3845D0234888
:106A6000801F817831B90121817021A2002101208C
:106A7000FDF794FD42F21070B4FBF0F100FB1144FD
:106A800006210020FDF772FC4FF47A75AC4204D366
:106A9000B4FBF5F03030C0B200E02020FDF7CEFCB2
:106AA000B4FBF5F005FB10406425B0FBF5F0303089
:106AB000C0B2FDF7C3FC09210020FDF757FCB4FB71
:106AC000F5F005FB10400A21B0FBF1F03030FDF786
:106AD000B5FC0648801D8079042806D1BDE87040C9
:106AE0000F2107A20120FDF759BD70BD260000202F
:106AF00020202020202020202020202020000000F6
:106B00004800000008B5FDF79DFA00200346024644
:106B1000009005490548FEF793F80022BDE80840BB
:106B2000C921024803F021BB0169000800160020BA
:106B3000024800218170B42181807047200000202C
:106B400010B5044C84F871004FF47A70FEF750F8D9
:106B5000606710BD4000002010B50446FDF75CFBE7
:106B6000204600F039F803210020FDF7FFFB2E201E
:106B7000FDF764FC13A206210020FDF70FFD12A211
:106B80000A210020FDF70AFD10A20F210020FDF7C9
:106B900005FD0F488079032804D10EA20F210120A2
:106BA000FDF7FCFC0A4842F21071801F4088BDE8E6
:106BB0001040B0FBF1F201FB12006421B0FBF1F0D8
:106BC00000F084B827430000524820002500000050
:106BD0002C000020480000002DE9F041002108466B
:106BE000FDF7C4FB374C42F210772088B0FBF7F07A
:106BF00010F0FF0F01D02D2000E02020FDF71EFC3B
:106C000020884FF47A75B0FBF7F107FB1100208064
:106C1000B0FBF5F03030C0B2FDF710FC20886426E0
:106C2000B0FBF5F105FB1100B0FBF6F03030C0B25F
:106C3000FDF704FC04210020FDF798FB20884FF0AD
:106C40000A08B0FBF6F106FB1101B1FBF8F0303099
:106C5000FDF7F4FB2188B1FBF8F208FB121030308D
:106C6000FDF7ECFB0D210020FDF780FB6088B0FBF9
:106C7000F7F107FB1100B0FBF5F03030C0B2FDF7C3
:106C8000DDFB6088B0FBF5F105FB1100B0FBF6F011
:106C90003030C0B2FDF7D2FB0A48801D807903284E
:106CA00004D109A20F210120FDF778FC6088B0FB18
:106CB000F7F107FB1100B0FBF6F0BDE8F04100F082
:106CC00005B800002600002048000000142801D26A
:106CD00009A20CE0282801D20AA208E0422801D229
:106CE0000BA204E04B2801D20CA200E00EA201216D
:106CF0000846FDF753BC0000546F6F2044727920A2
:106D000020202000447279202020202020202000F4
:106D1000436F6D666F7274202020200057657420C9
:106D20002020202020202000546F6F2057657420E1
:106D30002020200010B5044C84F859004FF47A70DC
:106D4000FDF756FFE06510BD400000202DE9F0473B
:106D5000FDF73EFF6421B0FBF1F2354C0020638D5E
:106D6000012134F8115004EB410626F8025C491C5D
:106D7000C9B21229F5D36384A18C491CA18494F86B
:106D800033100126002500292A4FDFF8AC90A18C92
:106D90004FF066381ED0082915D903210F20FCF7C3
:106DA0004BFAA085A08DFBF77EFC00223B46FBF74B
:106DB0007FFB42464B46FBF7EBFBFBF781FC208554
:106DC000012084F83260A18C122921D384F8335039
:106DD000A5841DE003291BD3782A02D203210F20AA
:106DE00001E012210020FCF727FAA085A08DFBF717
:106DF0005AFC00223B46FBF75BFB42464B46FBF747
:106E0000C7FBFBF75DFC20850120A58484F8326078
:106E10000749363181F823506585002805D0BDE843
:106E2000F0470E390020FEF71BBEBDE8F0870000DA
:106E3000E404002000003E4066663640014901201F
:106E4000FEF70EBED0040020FEB5002400948DF89D
:106E50000440ADF80840032269468020FDF714F98C
:106E60003E4D40B10022C8213D4803F07EF96868DC
:106E7000401C6860FEBD9DF801003949394EC0F3E1
:106E800040021C3142F2107742B39DF8003001EB12
:106E9000C2016A7800EB032080B221F8120002A937
:106EA000FEF7ECFEBDF808007080B0FBF7F107FBC1
:106EB00011006421B0FBF1F0ADF8080002A9032035
:106EC000FEF7CEFD6878401CC0B26870042800D37D
:106ED0006C70E878012825D1EC7023E09DF8002043
:106EE00000EB02202A7880B221F8120002A9FEF7F6
:106EF000F5FEBDF808103180401C01D1C819308062
:106F00003088ADF8080002A90220FEF7A9FD287814
:106F1000401CC0B22870042800D32C70E87808B94F
:106F20000120E8700120FFF705FFA878401CC0B2DF
:106F3000A870082800D3AC70E8784FF0000301AACD
:106F400048B1F5218020FDF7EFF8002287210448A1
:106F500003F00BF9FEBDF321F4E70000D800002098
:106F6000D4150020260000202DE9F0413F4C4FF0C1
:106F7000000804F114052078A1880646B9B100EB99
:106F8000400205EBC202527C42B1A2795AB1824260
:106F900009D10621A180FFF773F806E0A4F8048068
:106FA00084F8068003E0491EA180A088B8BB207841
:106FB00000EB400005EBC000816809B160788847AC
:106FC000012000EB400105EBC101497C19B9401CCF
:106FD000C0B20528F5D3052801D020780BE0217830
:106FE000052921D0FFF74CF81EE000EB400105EB2E
:106FF000C101497C19B9401CC0B20528F5D3052848
:1070000003D0761CF0B2052800D3012000EB40012C
:1070100005EBC101497C19B10A21A180E2E703E037
:10702000401CC0B20528F1D3012606EB460005EB53
:10703000C007786978B1FDF7D1FD60B1C7F8148059
:1070400087F81180207800EB400005EBC000C16894
:1070500009B160788847761CF6B2052EE5D3BDE805
:10706000F04100226421024803F07FB82C00002088
:10707000B805002010B50C460A460146812000F0F4
:1070800047F930210120FFF721F905490320087055
:1070900004488168091B81600021017310BD000054
:1070A00058020020DC1A0020FDF7DABF1649CA6832
:1070B00042F48042CA60CA6822F48042CA608A6987
:1070C00042F004028A618A6942F480428A610F496F
:1070D0000A6822F47F6202F596620A600C49B1FBED
:1070E000F0F00C490880081D018842F20C0211439F
:1070F0000180018841F02001018000230522032145
:107100002520FEF72DBF00000010024004080140BA
:10711000006CDC0208380140FEF732B814490A69F5
:1071200042F400320A610A6922F400320A618A6973
:1071300042F004028A61CA6942F40032CA610D4910
:107140000A6822F47F4202F596420A600A49B1FBBE
:10715000F0F00A490880081D018842F20C02114330
:1071600001800123052203212620FEF7F9BE00003D
:10717000001002400008014000366E010844004043
:10718000FCF718BF16490A6942F480220A610A69AD
:1071900022F480220A618A6942F008028A61CA697F
:1071A00042F48022CA610F490A6822F47F4202F544
:1071B00096420A600C49B1FBF0F00C490880081DAA
:1071C000018842F20C0211430180018841F0200144
:1071D00001800123052203212720FEF7C1BE000004
:1071E00000100240040C014000366E0108480040C7
:1071F000C1F30801818070470020FDF7B5BA000097
:107200000449012008600448C16941F40001C161DA
:1072100070470000D8004242001002404FF48051F5
:1072200010B10348016070470148001DFAE70000F3
:1072300010080140FBF726BF0648054902220160FD
:107240000A72064A0449C0E90112086800470000B2
:10725000EC1A00205C030020D00200202C03002048
:1072600010B50222002311461420FEF779FE0023F8
:1072700001220221BDE810401320FEF771BE00007C
:1072800070B50D4D28680D4C208020880C4E31883B
:107290000840000401D5FBF731FF20883188084001
:1072A000400507D54FF6FF30286006484068BDE826
:1072B0007040004770BD0000445C0040B8020020F0
:1072C00068030020D0020020FFF7DABF0549002044
:1072D000086005494FF4044008800249091F08600E
:1072E00000207047445C00406803002070B500F047
:1072F0007F050E462846FCF74FFC04462846FCF75F
:107300003BFC014622463046FDF7F2FE204670BDAA
:1073100070B500F07F040D4616462046FCF756FC7B
:107320000146B2B21646284600F008F8314620461B
:10733000FEF7BEFF002070BDFEE70000084B10B551
:10734000521C520803EB410108D003784478801C9A
:1073500043EA042321F8043B521EF6D110BD00007D
:10736000006000402DE9FC5F3A4D8246AB6828780A
:10737000394C40334FF0000B10B101280CD056E0CF
:1073800054F82A00A1FB0016C5E90A16A2FB000169
:10739000C5E90C0101202870304E314FC5F810B0FE
:1073A00008E02869AA68395CB154401C2861A868C3
:1073B000401CA860A8689842F3D3A8462948D8E999
:1073C0000A270088121847F10007C8E90A27D8E9F8
:1073D0000C31181A61F10001C8E90C0154F82A4077
:1073E000914600232246FAF79DFE1A4314D1C8F8AD
:1073F00008B0A0B2CDE90060B9EB040267F1000368
:107400005046FDF7C4F910F0FF0F05D098F80100C1
:1074100040F0040088F80100134812498268098886
:10742000511A81604FF440510220FEF707FFD5E961
:107430000C10014303D00D480078042807D15C46A6
:10744000C5F808B001210020FEF7B0FF2C70BDE8A0
:10745000FC9F0000A0010020900100207C1600206D
:107460007C1A00205A020020DC1A0020580200205A
:107470000FB4054B10B503A9044A029800F03EF87A
:1074800010BC5DF814FB00008D970008A4030020D9
:107490000FB41CB50A46521ECDE9000207A9054BE0
:1074A0006A46069800F02AF8009A002111701CBC68
:1074B0005DF814FB4778000800487047A8030020D7
:1074C000024A00201107FBF7D2B8000001FDFFFFC0
:1074D00002E008C8121F08C1002AFAD1704770479D
:1074E000002001E001C1121F002AFBD170470000FB
:1074F0000149086070470000A80300202DE9FF4FF4
:107500008BB005468846002667E125287AD10024FD
:107510006D1CB64AA146A24601212B78203B01FAF8
:1075200003F0104202D004436D1CF6E728782A28A5
:1075300010D06FF02F022878A0F13001092915D85A
:1075400009EB890102EB410144F0020400EB01095F
:107550006D1CF0E758F8049BB9F1000F03DA44F40E
:107560000054C9F1000944F002046D1C28782E284B
:1075700017D115F8010F44F004042A280ED06FF03B
:107580002F022878A0F1300109290AD80AEB8A01D4
:1075900002EB410100EB010A6D1CF2E758F804AB65
:1075A0006D1C28786C280FD006DC4C2817D0682872
:1075B0000DD06A2814D104E0742810D07A280FD195
:1075C0000DE044F400140AE044F4801401E044F4B3
:1075D00040146978814202D16D1C04F580146D1C41
:1075E0002878692866D007DC002876D0632828D060
:1075F000642807D15EE005E06E2808D073282AD001
:1076000075287AD0DDE90D129047761CE4E0C4F3CA
:107610000250022809D003280DD0D8F80010042801
:107620000DD00E6008F10408D6E0D8F80010F2176B
:10763000C1E90062F6E7D8F800100E80F2E70E709C
:10764000F0E758F8041B8DF8001000208DF80100B9
:10765000EB46012003E058F804BB4FF0FF30610710
:107660004FF0000701D40AE07F1C57450DDA87422E
:10767000FADB1BF807100029F6D106E07F1C8742D1
:10768000FCDB1BF807100029F8D1DDE90D23A9EB7D
:1076900007008146214600F0BEF83044C61904E0D8
:1076A000DDE90D121BF8010B90477F1EF8D2214631
:1076B00048468CE058F8040BC4F302514FF00A0B13
:1076C000032900D100B2042900D140B2002806DA13
:1076D000C0F100004FF02D0104E082E00DE0210533
:1076E00004D52B218DF82810012103E0E10710D0EB
:1076F0002021F7E708AF089114E058F8040BC4F311
:1077000002514FF00A0B032900D180B2042900D1A5
:10771000C0B20021EEE75946FBF728F801F130012D
:1077200007F8011D0028F6D1ADEB070000F1200B92
:10773000600702D524F4803401E04FF0010ADA45F5
:1077400002DDAAEB0B0000E00020824600EB0B01FB
:1077500008980144A9EB01000990E00306D4DDE993
:107760000D232146099800F056F80644002008E051
:107770000AA8DDE90D1210F809009047761C09F1FE
:107780000100089981468842F2DBE0030CD5DDE96F
:107790000D232146099800F03EF8064404E0DDE997
:1077A0000D1230209047761CBAF10001AAF1010AAF
:1077B000F5DC05E0DDE90D1217F8010B9047761CAA
:1077C000BBF10001ABF1010BF4DC09982146DDE9C6
:1077D0000D2300F00DF806446D1C287800287FF476
:1077E00094AE0FB03046BDE8F08F000009280100CC
:1077F0002DE9F0410446002517461E46880405D4AD
:1078000006E039462020B04705F10105641EF8D591
:107810002846BDE8F0812DE9F04104460025904658
:107820001E46C80301D5302700E02027880405D56F
:1078300006E041463846B04705F10105641EF8D51B
:107840002846BDE8F0814A68002A06D00A68531C21
:107850000B6010704868401E486070472DE9FE4F6D
:10786000824600F120080F461646006931441D4645
:107870004FF00109814202D90520BDE8FE8FD8F8FA
:107880000810404601B18847F8070CD02846394611
:10789000012300906D1C7F1C1A46504602F078FCB4
:1078A000040050D1761E0121504602F055FE04001E
:1078B00049D1AD208DF804000DF1040B30E0B9F191
:1078C000000F13D05C46621C3946504602F00EFC95
:1078D0009AF8350008B1052200E004222878A05467
:1078E000A118687848704FF0000906E028788DF8F4
:1078F0000500687801228DF8060000200090002322
:10790000D8F804404046921C01A9A04704001AD1AF
:10791000504603F063F9040015D1B61EBF1CAD1C20
:10792000022ECCD20021504602F016FE04000AD1ED
:10793000012E0CD101231A4639465046009502F01B
:1079400027FC040003D00021504602F005FED8F8C1
:107950000C10404601B1884720468EE710B504461A
:10796000002084F80402401EC4F82C02204602F0D5
:10797000E1FB08B1032010BDB4F8FE01A0F52A41D7
:10798000553901D0022010BD94F83600D4F83710D4
:1079900040EA01210848B0EB012F08D094F85210BA
:1079A000D4F8532041EA0221B0EB012F01D100208D
:1079B00010BD012010BD00000046415400E0401CF5
:1079C00002780AB18A42FAD1D0B27047F0B50022EB
:1079D000164E144602EB420356F823506DB1076869
:1079E000BD420BD106EB830387685D68BD4205D1BC
:1079F0001B89C588AB4204D000E00124521C032A35
:107A0000E8D3032A01D079B904E05CB9022909D08E
:107A10001220F0BD02EB420006EB80004089B0F579
:107A2000807F01D00020F0BD1020F0BDD81D0020C7
:107A300030B50021064B0C4601EB410253F82250B1
:107A4000854201D143F82240491C0329F4D330BDBB
:107A5000D81D0020426A0068121D490A90F80202EF
:107A6000B1FBF0F002CA21B1884204D3401A121DC2
:107A7000F8E700207047116808447047D0F81422D6
:107A8000891E921E8A4201D800207047D0F8282211
:107A900090F8020201FB002070472DE9F0410546F5
:107AA0000F0006D001F0C2FE02280BD20120BDE873
:107AB000F081D5F80C621EB1D5F81402B04208D896
:107AC000012606E0411CF2D0D5F814128142EED80E
:107AD0003E463446D5F81402641CA04202D8022463
