:020000040800F2
:10000000B8120020210100081B0B0008D70A0008C5
:10001000190B0008DD030008C30E000800000000F3
:100020000000000000000000000000003D0D00087E
:10003000DF030008000000001D0B0008D70D0008BA
:100040003B0100083B0100083B0100083B010008A0
:100050003B0100083B0100083B0100083B01000890
:100060003B0100083B0100083B0100083B01000880
:100070003B0100083B0100083B0100083B01000870
:100080003B0100083B0100083B0100083B01000860
:100090003B0100083B0100083B0100083B01000850
:1000A0003B0100083B0100083B0100083B01000840
:1000B0003B0100083B0100083B0100083B01000830
:1000C0003B0100083B0100083B0100083B01000820
:1000D0003B010008590E00085B0E0008C10E000825
:1000E0003B0100083B0100083B010008DFF80CD091
:1000F00000F0FAF8004800470F140008B81200207A
:10010000EFF30980704780F309887047EFF30880A8
:10011000704780F30888704740BA7047C0BA70478C
:100120000648804706480047FEE7FEE7FEE7FEE791
:10013000FEE7FEE7FEE7FEE7FEE7FEE7090E000842
:10014000ED00000840EA01039B0703D009E008C95D
:10015000121F08C0042AFAD203E011F8013B00F88C
:10016000013B521EF9D27047D2B201E000F8012BD8
:10017000491EFBD270470022F6E710B50446084638
:10018000114602462046FFF7EFFF204610BD0EB590
:1001900040F2334102910021CDE900110A460B469D
:1001A00000F039F803B000BD30B5002904DB4FF092
:1001B0000044404264EB0101002B04DB4FF000449B
:1001C000524264EB03038B4208BF824230BD000001
:1001D00030B50B46014600202022012409E021FA17
:1001E00002F59D4205D303FA02F5491B04FA02F514
:1001F0002844151EA2F10102F1DC30BD10B5002B20
:1002000008DA401C41F1000192185B411A4301D108
:1002100020F0010010BD2DE9F04D92469B4611B132
:10022000B1FA81F202E0B0FA80F22032904600F09A
:100230006DF806460F4640EA0A0041EA0B015246B5
:100240005B46084303D130463946BDE8F08D194678
:1002500052EA010015D0C8F14002504600F065F89E
:1002600004460D4650465946424600F04FF80843B2
:1002700001D0012000E00020044345EAE075264358
:100280002F430A984FEAD625A0EB08000A304FEA20
:1002900046534FF0000245EA47554FEAD72402D5AE
:1002A00000200146D1E7010550196141DDE908450B
:1002B00000196941BDE8F04DA0E770B521F0004399
:1002C00003430CD0C1F30A540026D4EB060566EBB9
:1002D0000603D417AD1AA34102DB0020014670BD0E
:1002E000001C41EB025170BD064C074D06E0E06872
:1002F00040F0010394E8070098471034AC42F6D36D
:10030000FFF7F8FE441E0008641E0008202A04DBE4
:10031000203A00FA02F1002070479140C2F1200318
:1003200020FA03F3194390407047202A04DB203A57
:1003300021FA02F00021704721FA02F3D040C2F105
:1003400020029140084319467047000010B572B66C
:1003500000F0E6FB00F058FD0E490D4808600E481D
:10036000816941F03D0181610C4841680C4A1143AB
:1003700041604FF4E13000F071FD62B609A30CA2B8
:100380000EA113A000F09EFDBDE8104001F070BA70
:1003900000127A000000002000100240000001401E
:1003A0000080000231393A34363A34390000000016
:1003B0004F6374203234203230313700424F4F5473
:1003C0002056302E32335232463158580000000049
:1003D00025732025732025730A000000FEE770476F
:1003E0002DE9F0471D4B01260227186A4FF004083B
:1003F0001B4A516831EA00042DD0DB6901439C0897
:100400009146516000F0F8F90546D9F80400411C06
:1004100003D0C04300F072F90546E04340070ED018
:10042000E00700D10026A00700D40027600701D410
:100430004FF0000842463946304600F0D3FA042D0A
:1004400009D108480168084A01F4E06111430160DC
:10045000BFF3408FFEE7BDE8F087000000200240B8
:100460001C0000200CED00E00400FA0570B5054604
:10047000002404208A0503D0012202EB912606E025
:100480008E0A04E005EB842000F0F4F9641CB44209
:1004900002D20428F6D001E0042801D0012070BD6A
:1004A000002070BD054A022100201160011F51602B
:1004B000034A126A914300D0012070471C000020BB
:1004C000002002400448034941600449416035214D
:1004D000C16070472301674500200240AB89EFCD22
:1004E00030B599B005460C4601F0BEF9C4B16B4673
:1004F0006422294601F0D2F95C21684600F078FCBC
:100500000546642269462046FFF71CFEE06DA842BE
:1005100003D1216EC943884205D004A000F0D2FC6B
:10052000012019B030BD0020FBE700007265616456
:10053000204150502061747472206661696C65645A
:100540000A0000002DE9F04300259BB02F4601F082
:100550008BF9814625481990002625A000F0B2FCB1
:1005600069464FF48020FFF7BBFF18B101201BB094
:10057000BDE8F08322A000F0A5FC11981199800835
:10058000890700D0401C8400FFF79CFF2146199882
:10059000FFF76CFF4FF480581FE04246944203D3AC
:1005A000A4F58054454602E00CB1254600243103F1
:1005B000194B484601F072F9AA08174919A800F02A
:1005C0004BF828B10127394614A000F07BFC06E067
:1005D000214619A000F076FC761C002CDDD11D48C8
:1005E000016941F0800101613846C0E70020000840
:1005F000737461727420757067726164650A0000BB
:10060000636865636B2075706772616465207061F3
:100610007261206F6B0A0000B8000020757067726D
:10062000616465206572726F722C20726573203D63
:100630002025640A0000000070726F206E657874D7
:100640002C20616C69676E53697A65203D202564B2
:100650000A000000002002402DE9F04105460E4648
:1006600017460024DFF83C8015E056F8241028686F
:1006700000F068F9042802D00120BDE8F081286864
:1006800056F824100068884201D00220F5E7286857
:10069000001D2860641CBC4202D229684145E4D98F
:1006A0000020EAE7FBFF01082DE9F04106460F466E
:1006B00001F0DAF8104C0546D7B1642239462046DD
:1006C000FFF740FD5C21204600F092FBE065C0434F
:1006D00020664FF4805422463146284601F051F8F6
:1006E000224631462846BDE8F041034B01F0EEB901
:1006F0000120BDE8F0810000B80000202DE9F0479E
:10070000040004D140F2D63127A000F063FDE0439D
:10071000C4B2C0F30725C0F30746070E4FF40059D3
:10072000484600F0C7F904283BD1DFF8C0802E4AC4
:10073000C8F808202E4AC8F80820D8F8102042F03F
:100740001002C8F81020FF2C06D02A480480484622
:1007500000F0B0F904281BD1FF2D07D02548801CDC
:100760000580484600F0A6F9042811D1FF2E07D0D5
:100770002048001D0680484600F09CF9042807D157
:10078000FF2F07D01B48801D0780484600F092F9D4
:10079000052806D0D8F8102041F6EF731A40C8F8A3
:1007A0001020BDE8F08700002E2E5C4C696272615B
:1007B000726965735C53544D3332463130785F5300
:1007C00074645065726970685F4472697665725CC2
:1007D0007372635C73746D3332663130785F666C4C
:1007E0006173682E6300000023016745002002400A
:1007F000AB89EFCD08F8FF1F70B5A52500F098F87C
:1008000000B100254FF43026304600F053F904289B
:1008100027D1154C1348A0601448A060206940F00F
:1008200020002061206940F040002061304600F047
:1008300041F941F6EF7604280ED1206941F6DF71C7
:1008400008402061206940F01000206108480580C0
:100850004FF4005000F02EF9052802D021693140F4
:10086000216170BD2301674500200240AB89EFCDB7
:1008700000F8FF1F70B505461149A0F100608842DD
:1008800004D340F2A7110FA000F0A4FC4FF43026CF
:10089000304600F00FF9042811D11A4C206940F0BD
:1008A000020020616561206940F04000206130460F
:1008B00000F000F9216941F6FD721140216170BD1F
:1008C000FFFF0F002E2E5C4C6962726172696573C6
:1008D0005C53544D3332463130785F537464506505
:1008E000726970685F4472697665725C7372635C8A
:1008F00073746D3332663130785F666C6173682E65
:10090000630000000020024008490420CA68D207A2
:1009100001D001207047CA68520701D502207047F4
:10092000C968C906FBD503207047000000200240BB
:1009300003490020C969890700D5012070470000DC
:10094000002002402DE9F0410E4604461349A0F173
:100950000060884204D340F2AF2111A000F03AFCBD
:100960004FF40057384600F0A5F8042814D11C4D68
:10097000286940F0010028612680B846384600F01A
:1009800099F8BF1E042804D1300C6080404600F066
:1009900091F8296939402961BDE8F081FFFF0F0016
:1009A0002E2E5C4C69627261726965735C53544DA2
:1009B0003332463130785F537464506572697068C1
:1009C0005F4472697665725C7372635C73746D33D5
:1009D00032663130785F666C6173682E63000000A8
:1009E000002002402DE9F04105460C46164601283C
:1009F00005D025B140F263411AA000F0EBFB022CB8
:100A000005D024B140F2644116A000F0E3FB042EAF
:100A100005D026B140F2654112A000F0DBFB224F69
:100A20002048B8602148B8604FF40058404600F0B4
:100A300041F8042813D1386940F01000386134437C
:100A40001B482C4344F0F8010180404600F032F886
:100A5000052804D0396941F6EF7211403961BDE8CB
:100A6000F08100002E2E5C4C6962726172696573C0
:100A70005C53544D3332463130785F537464506563
:100A8000726970685F4472697665725C7372635CE8
:100A900073746D3332663130785F666C6173682EC3
:100AA000630000002301674500200240AB89EFCDC1
:100AB00002F8FF1F00B50346FFF726FF02E0FFF72D
:100AC00023FF5B1E012803D0002B00D1052000BDB1
:100AD000002BF4D1FAE7FEE70C4910B508680C4A80
:100AE0001040B0F1005F0FD172B64868094C6060E9
:100AF0006068A060002080F314880868FFF709FB95
:100B0000A068BDE81040004710BD000000200008AC
:100B10000000FE2FA4000020FEE770477047000091
:100B20000C48016841F00101016041680A4A114026
:100B300041600168094A11400160016821F4802187
:100B40000160416821F4FE0141604FF41F018160A2
:100B500070470000001002400000FFF8FFFFF6FEA3
:100B600010B59AB04FF4802469462046FFF7B8FCD0
:100B700000280CD113A000F0A5F9FFF7A3FC1598ED
:100B8000012804D1FFF78EFC18B1FFF729FC1AB039
:100B900010BD00201690159069462046FFF784FD91
:100BA00069462046FFF79CFC0BA0119900F08AF9DA
:100BB000FFF7C8FC0028EAD10AA000F083F9FFF78C
:100BC0008BFFE4E7726561642041505020617474CA
:100BD00072206F6B0D0A0000664C656E203D20256B
:100BE000640A000075706772616465206F6B0A00AB
:100BF000F0B5002201274FF00F0E0B8823FA02F305
:100C0000DB072FD0CC78E30604F00F0303D58C78F4
:100C10002344DBB211E00225B5EB141F04D1C468F4
:100C200007FA02F5AC4307E00425B5EB141F04D125
:100C3000C46807FA02F52C43C460082A09D2066882
:100C400094000EFA04FC26EA0C06A3403344036029
:100C500008E09400203C46680EFA04F5AE43A34039
:100C600033444360521CD2B2102AC6D3F0BD0000F8
:100C70002DE9F0470446174699468846234D084615
:100C800000F048F802220020AA46294600F080FB26
:100C900005460E463846FFF77AFA2A463346FFF7EE
:100CA00083FA22D202220020514600F071FB054651
:100CB0000E464846FFF76BFA2A463346FFF774FAAA
:100CC00013D2C8F104008740114807EB090200EB7A
:100CD0009400037804F00305042101EBC5010F25FE
:100CE0008D40AB438A409918017061094FF0E020B4
:100CF00000EB8100D0F8001104F01F0301229A409C
:100D00001143C0F80011BDE8F08700000000F03F7B
:100D100000E400E004280BD806490A684FF6FF03F8
:100D20001A40C0F1070002EB0020034A104408609B
:100D3000704700000CED00E00000FA05704700006D
:100D4000224900200A6842F480320A604FF4A0630E
:100D50000A6800F1010012F4003F01D19842F7D176
:100D60000868800330D51A48026842F01002026019
:100D7000026822F003020260026842F0020202608E
:100D80004868486048684860486840F48060486047
:100D9000486820F47C104860486840F4E8104860D7
:100DA000086840F08070086008688001FCD54868D9
:100DB00020F003004860486840F00200486048683E
:100DC000C0F381000228FAD17047000000100240F1
:100DD00000200240704700F001B80000034841685D
:100DE000491C41600121017070470000140000207F
:100DF000034610B50020024602E09C5C521C2044D1
:100E00008A42FAD310BD00000F4810B5016841F0C6
:100E10000101016041680D4A1140416001680C4ABE
:100E200011400160016821F480210160416821F4D2
:100E3000FE0141604FF41F018160FFF781FF05490A
:100E40004FF00060086010BD001002400000FFF885
:100E5000FFFFF6FE08ED00E07047704714490A698D
:100E600042F400320A610A6922F400320A618A6996
:100E700042F004028A61CA6942F40032CA610D4933
:100E80000A6822F47F4202F596420A600A49B1FBE1
:100E9000F0F00A490880081D018842F20C02114353
:100EA00001800123052203212620FFF7E1BE000077
:100EB000001002400008014000127A00084400407F
:100EC0007047FEE70FB4054B10B503A9044A02981A
:100ED00000F026F810BC5DF814FB0000D9110008E2
:100EE000B0000020024A00201107FFF7E6B9000019
:100EF00001FDFFFF02E008C8121F08C1002AFAD155
:100F000070477047002001E001C1121F002AFBD189
:100F1000704700000149086070470000B4000020DD
:100F20002DE9FF4F8BB005469A460F460026C7E0D5
:100F3000252837D100246D1C654AA14601212B7854
:100F4000203B01FA03F0104202D004436D1CF6E787
:100F500028782E2817D115F8010F44F004042A2808
:100F60000ED06FF02F022878A0F1300109290AD89D
:100F700009EB890102EB410100EB01096D1CF2E76D
:100F800057F8049B6D1C287869283ED006DC0028A1
:100F90006FD063280CD0642804D136E0732810D0B9
:100FA00075284CD052460D99904706F1010686E00F
:100FB00001CF8DF8000000208DF80100E8460120E7
:100FC00003E057F8048B4FF0FF3061074FF0000447
:100FD00001D40AE0641C4C450DDA8442FADB18F8AF
:100FE00004100029F6D106E0641C8442FCDB18F8EA
:100FF00004100029F8D1264404E018F8010B5246E9
:101000000D999047641EF8D259E001CF4FF00A0BBA
:10101000002804DAC0F100004FF02D0102E02105A4
:1010200004D52B218DF82410012104E0E10701D023
:101030002021F7E700210DF1200808910AE001CFF7
:101040004FF00A0BF6E75946FFF7C2F801F13002FC
:1010500008F8012D0028F6D1ADEB080000F1200BB7
:10106000600701D44FF00109D94503DDA9EB0B005E
:1010700001E029E000208146002406E009A852464C
:10108000005D0D999047761C641C08988442F5DB3E
:1010900004E0302052460D999047761CB9F10001CA
:1010A000A9F10109F5DC05E018F8010B52460D998C
:1010B0009047761CBBF10001ABF1010BF4DC6D1C19
:1010C000287800287FF434AF0FB03046BDE8F08FA9
:1010D000092801002DE9FE4F824600F120080F4645
:1010E0001646006931441D464FF00109814202D97C
:1010F0000520BDE8FE8FD8F80810404601B18847AA
:10110000F8070CD028463946012300906D1C7F1C3F
:101110001A46504600F09BF9040050D1761E01217A
:10112000504600F0C7FA040049D1AD208DF8040004
:101130000DF1040B30E0B9F1000F13D05C46621CD6
:101140003946504600F06EF99AF8350008B105228C
:1011500000E004222878A054A118687848704FF065
:10116000000906E028788DF80500687801228DF8DE
:101170000600002000900023D8F804404046921C4E
:1011800001A9A04704001AD1504600F01DFD04003B
:1011900015D1B61EBF1CAD1C022ECCD2002150466C
:1011A00000F088FA04000AD1012E0CD101231A465E
:1011B00039465046009500F04AF9040003D000215A
:1011C000504600F077FAD8F80C10404601B1884735
:1011D00020468EE7FEE70000044AC0F308011180B4
:1011E000111F0A881206FCD5704700000444004015
:1011F0002DE9FE43044600F0FFFB00287ED1206964
:101200004FF0000804F1200530B1A08A20B1A06998
:1012100010B1207F002869D19F218DF8081003218B
:1012200000916E68284601AB012202A9B047002850
:1012300009D19DF8042022739DF8052062739DF862
:1012400006202146A27372D1204600F05BFB00B35A
:10125000C4F80880206D2061B4F84800012816D039
:101260000120A082606DA06194F8580020770120D1
:1012700004EBC002516D31B1A3698B4203D9A16166
:1012800092F858102177401C0428F1D326E0022060
:10129000E7E7DFF8F8C0267B00EB40070CEBC7015F
:1012A0000A79B24217D14A79637B9A4213D18A797B
:1012B000A37B9A420FD100EB40005CF83000A060A5
:1012C0000CEBC700806820618889A0820869A06152
:1012D000087D207702E0401C0B28DDD3206928B36D
:1012E000A08A18B3A06908B3207FF8B1002227496B
:1012F000237B1046783901EBC00600E017E0367911
:101300009E4202D0401C0F28F5D366218DF80410B0
:1013100099218DF80510CDF8008000236F682846CC
:101320004646022201A9B84718B105E00120BDE8F0
:10133000FE83204600F048FC0028F8D1A18A490726
:1013400006D500220121204600F0D5FB0028EED171
:101350002169B1F1807F15D901273946204600F077
:10136000A9F90028E3D1B7208DF8040000960023E6
:10137000666A012201A92846B0470028D7D184F81F
:101380003570D4E784F83560D1E700006C1C0008A4
:101390002DE9F04106460C4640F2FF75174635EA46
:1013A000145030D0002213463046FEF7FDFE2AD0FE
:1013B0003A4630462146FEF780FF06460C4635EA9F
:1013C000145010D0002213463046FEF7EDFE1AD11D
:1013D0000220FFF79FFDFFF785FD0A46214662F3D5
:1013E0001E01BDE8F0810220FFF794FD40F20132BA
:1013F00000204FF0E041FEF760FF0A46214662F30D
:101400001E01BDE8F08130462146BDE8F08110B5EF
:10141000FEF79CFFFFF7DEFCFFF7A2FBFFF75CFB8C
:10142000002010BD30B590F835000C4608B10423FB
:1014300000E00323002007E0191ACD00083D24FA3C
:1014400005F11154401CC0B29842F5D330BD2DE9CE
:10145000F04FC3B0824600F1200988461546006966
:1014600000262944DDF830B11F46814203D905200A
:1014700043B0BDE8F08FD9F808104846E9B3884773
:101480003DE00121504600F015F9060039D1022057
:101490008DF804000DF1050241465046FFF7C2FFEA
:1014A0009AF8350008B1052600E00426B8FBF7F1EC
:1014B00007FB118018B13C1AAC4205D303E0BD42D2
:1014C00001D93C4600E02C4601A82D1BA044304425
:1014D00022465946FEF736FE002032190090D9F810
:1014E00004604846002301A9B047060009D15046D0
:1014F00000F06AFB060004D100E000E0A344002DE8
:10150000BFD10021504600F0D5F8D9F80C1048465C
:1015100001B188473046ABE7F0B589B0054600F128
:1015200044044E6824216846FEF725FE24236A46BB
:101530003146284600F0A3F878BB401CC0B2092809
:10154000FBD39DF80100E0719DF80000002100F040
:1015500003004FF0010C012802D0032854D102E00F
:1015600084F806C000E0A1719DF80000C0F380007F
:1015700010B1012806D102E0A4F804C002E04FF443
:101580008070A0809DF80000C0F3C00010B1012859
:1015900011D103E084F808C00DE035E021729DF818
:1015A0000000C0F3001010B1012804D101E0502068
:1015B00000E0062060729DF80200C0F3410030B1E7
:1015C000012808D00228A17207D0E1721CE084F83B
:1015D0000AC0E17203E084F80AC084F80BC09DF8E9
:1015E0000400DDF8052040EA02209DF80720D2091A
:1015F00002D0012A0FD102E00CEBD0000AE020F06B
:101600000040232803D9E160002009B0F0BDC01ECE
:101610000CFA00F0E060002001466E4606EB400345
:101620001A7F42B10CFA02F504EBC102491C1561A4
:101630005B7F1375C9B2401CC0B20428EED30023EF
:1016400004EBC301086990B1581C0DE004EBC00223
:10165000156945B10E69AE4205D90F7D0D61157D45
:101660000D7516611775401CC0B20428EED35B1CC3
:10167000DBB2042BE4D384F800C00120C5E73EB5FB
:101680005A248DF804400C0C8DF805400C0A8DF896
:1016900006408DF80710FF2100938DF808101346BF
:1016A0000522446A01A92030A0473EBD7820401E93
:1016B000FDD27047FEB504460D0001D0062000E0C3
:1016C00004208DF80400002000900346666A012281
:1016D00001A904F12000B04700280CD102A920463E
:1016E00000F061F9002806D1002D04D09DF8081003
:1016F000890700D40220FEBD7CB5816A064600F150
:10170000200509B12846884701213046FFF7D2FF5E
:10171000040021D1C7208DF80400B08A01072046BB
:101720000DD594218DF8051080218DF806109A2191
:101730008DF807100090002304226C6803E00090ED
:1017400000236C68012201A92846A047040003D1A8
:10175000304600F039FA044600213046FFF7AAFF70
:10176000E96809B12846884720467CBD10B5044683
:10177000FFF73EFD18B1002184F8341010BD01219F
:10178000FAE72DE9FE4F064600F1200A8846144686
:10179000006900272144814202D90520BDE8FE8F5F
:1017A000B8F1000F05D1A04203D13046FFF7A4FFE6
:1017B000F4E7DAF808105046E9B3884746E096F8AF
:1017C000440050B122464146304600F0F8F806EB9E
:1017D000C00090F85890456D02E096F81C90B569ED
:1017E00001213046FFF766FF070031D18DF80490E4
:1017F0000DF1050241463046FFF714FE96F835001C
:1018000008B1052200E0042200200090DAF80470FC
:101810005046002301A9B847070019D1304600F00F
:10182000D3F9070014D1B8FBF5F105FB118038B1ED
:10183000281AA04200E009E00AD2241A404404E039
:10184000AC4205D9641B08EB05008046002CB6D1DC
:1018500000213046FFF72EFFDAF80C10504601B198
:10186000884738469AE7000000487047300000205B
:1018700070B50025084E2C4604EB4400C0EB441024
:1018800006EB80004460FFF771FF00B10546641C61
:10189000F2D0284670BD0000300000202DE9FE4344
:1018A0000546174600F120048846C819296999465B
:1018B000884202D90520BDE8FE83A16809B120460F
:1018C0008847284600F080F9060015D103208DF8DE
:1018D00004000DF1050241462846FFF7A3FD95F8E7
:1018E000350008B1052200E00422009765684B46E8
:1018F00001A92046A8470646E16809B12046884765
:101900003046D8E77FB5002500F1440400950195E5
:1019100006462946257008236A46FFF7B0FEE8BB55
:101920009DF8000053283CD19DF80100462838D18D
:101930009DF80200442834D19DF80300502830D18E
:101940009DF80400A0709DF805206270012A28D837
:101950000821304600950B466A460195FFF78FFE39
:10196000E0B99DF800008DF808009DF801008DF8A1
:1019700009009DF80200019A8DF80A009DF80310F5
:1019800022F07F428DF80B100392012809D8092913
:1019900007D302A93046FFF7BFFD00E001E004B025
:1019A00070BD0020F9E71CB505228DF80420012246
:1019B00000920B46446A01A92030A0471CBD70B5B7
:1019C000054600206B6DB1FBF3F403FB141303B168
:1019D00070BD032305EBC304646D34B1944204D895
:1019E000B1FBF4F604FB16141CB1002BF0D05B1E07
:1019F000F0E7184670BD00002DE9F8430446406842
:101A00004FF0000800284DD1284DE86940F480408F
:101A1000E861A86940F00800A8614FF46040ADF8A3
:101A2000000003208DF802001820214F8DF80300DC
:101A300069463846FFF7DCF8AE14ADF800601020B8
:101A40008DF8030069463846FFF7D2F81848103081
:101A50000660286940F480402861286920F48040AD
:101A60002861144801680A8802F4415202F5417263
:101A70000A808A8B22F400628A8307220A820A88FB
:101A800022F400520A800A8842F040020A800A4981
:101A900061620A49A1620A49C4E90B100948A063BE
:101AA0000948E0634046BDE8F883000000100240AA
:101AB000000C014024000020491B0008411B0008C5
:101AC000451B0008AD160008C0270900F8B50446FC
:101AD0000020A58AEE0706D000934FF480732046BD
:101AE000FFF7B5FCF8BD6D07FCD501B02046BDE899
:101AF000F040FFF7EFBA2DE9FC41164600F1200453
:101B0000002551B150208DF804000095002367682E
:101B1000012201A92046B84702E00121FFF7CAFDD2
:101B200000280BD101208DF804008DF80560009588
:101B300000236568022201A92046A847BDE8FC8170
:101B400072B6704762B670472DE9F0470446089DAB
:101B500026690020776834897C6104464FF47A79DD
:101B600002EB050A29E0944202D211F8018B01E050
:101B70004FF0FF084D46376802E0ADB1A5F1010511
:101B8000B7F808C05FEA8C7CF7D5C0B9A7F80C801D
:101B90004D46376801E03DB16D1EB7F808C05FEAF9
:101BA000CC7CF8D058B901E0042008E0BD8994420B
:101BB000EDB201D303F8015B641CA245D3D872686F
:101BC00031891161BDE8F08738B5C46B05466946B7
:101BD0002846FFF7E8FE9DF8001001F001010143DF
:101BE00006D0A86B1CB100B18047641EEFE704204B
:101BF00038BD0000321E0008010000003A1E000837
:101C000004000000D91D00081C000000131E00087D
:101C10001F000000251E000820000000BA1D00085B
:101C2000370000002C1E000862000000191E00088A
:101C300089000000DD1D00088C0000001F1E000848
:101C4000A10000000B1E0008AD000000E21D00080E
:101C5000BF000000001E0008C8000000CA1D0008E8
:101C6000D5000000F81D0008EF000000BF1D0008AF
:101C70001F260000000020000A00000000020000F3
:101C800081000000E61D0008EF401300000008007E
:101C9000010000000010000020000000AE1D000840
:101CA000BF254100000020000600000000100000D9
:101CB000200000007C1D00082020160000004000CD
:101CC0000100000000000100D8000000901D000885
:101CD0001C30160000004000010000000010000051
:101CE00020000000991D0008C84017000000800077
:101CF000010000000010000020000000CF1D0008BF
:101D0000014015000000200001000000001000004C
:101D100020000000741D000837301400000010007F
:101D2000010000000010000020000000881D0008D5
:101D30008C201300000008000600000000100000C6
:101D400020000000A21D0008BF2541000000200067
:101D5000060000000010000020000000EF1D000839
:101D6000EF401500000020000600000000100000F9
:101D7000200000004132354C303830004D323550B3
:101D800033320053504932004632354C3030340043
:101D9000454E3235513332420047443235513634A4
:101DA0004200504354323556463031364200535388
:101DB00054323556463031364200414D4943004198
:101DC0005434354442313631450049535349005368
:101DD0003235464C3231364B00454F4E0045534D5F
:101DE0005400535354005732355134304256005743
:101DF00032355131364A560057696E626F6E640053
:101E000047696761446576696365004879756E6402
:101E100061690041746D656C00496E74656C0046C3
:101E20007564616E004D6963726F6E0053616E7907
:101E30006F00437970726573730046756A697473D5
:101E400075000000641E000800000020B8000000BB
:101E5000F40E00081C1F0008B8000020001200004B
:101E6000040F000800A24A04000000000000000067
:101E7000010203040607080900000000000000003A
:101E8000000000000000000000380040000C01408D
:101E900000100000EF1D000800000000000000001E
:101EA0000000000000000000000000000000000032
:101EB00000000000831D000800000000000000007A
:101EC0000000000000000000000000000000000012
:101ED0000000000000000000000000000000000002
:101EE00000000000000000000000000000000000F2
:101EF00000000000000000000000000000000000E2
:101F000000000000000000000000000000000000D1
:0C1F1000000000000000000000000000C5
:04000005080000ED02
:00000001FF
