:020000040800F2
:10400000104D002001410008A7730008B1670008A7
:10401000A5730008C34B0008D1A4000800000000ED
:104020000000000000000000000000003D8C0008BF
:104030007954000800000000D17A00089992000825
:104040001B4100081B4100081B4100081B410008E0
:104050001B4100081B4100081B4100081B410008D0
:104060001B4100081B4100081B4100081B410008C0
:104070001B4100081B4100081B4100081B410008B0
:104080001B4100081B4100081B41000819A3000840
:10409000D1A300081B4100081B4100081B41000878
:1040A0001B4100081B4100081B4100081B41000880
:1040B0001B4100081B4100081B4100081B41000870
:1040C0001B4100081B4100081B4100081B41000860
:1040D0001B410008BD9B0008C19B00085D9C0008B7
:1040E0001B4100081B4100081B410008DFF80CD0F1
:1040F00000F02AFC0048004781D30008104D002042
:104100000648804706480047FEE7FEE7FEE7FEE771
:10411000FEE7FEE7FEE7FEE7FEE7FEE70D93000899
:10412000ED4000082DE9F05F0546002092469B46D1
:1041300088460646814640241BE0284641464746BD
:10414000224600F0F6FA52465B46801A994110D397
:1041500010461946224600F0DDFA2D1A67EB0108D9
:104160004F4622460120002100F0D4FA17EB000947
:104170004E41201EA4F10104DFDC484631462A46A8
:104180004346BDE8F09F40EA01039B0703D009E0E6
:1041900008C9121F08C0042AFAD203E011F8013B33
:1041A00000F8013B521EF9D27047D2B201E000F88C
:1041B000012B491EFBD270470022F6E710B50446DA
:1041C0000846114602462046FFF7EFFF204610BD85
:1041D00030B50EE003460A4601E05B1C521C1C7819
:1041E0001578AC4201D1002CF7D115F0FF0F04D0A7
:1041F000401C0278002AEDD1002030BD10B50446E5
:1042000004E00B7800F8013B03B1491C521EF8D2C0
:10421000204610BD0146002000E0401C0A5C002A38
:10422000FBD170470246C9B200E0401C0378002B66
:10423000FBD102E003788B4203D0401E9042F9D2BA
:10424000002070472DE9F0470F469146804604460E
:10425000002614F8015B2DB100F08EFA0068405D75
:10426000C007F6D12B2D02D02D2D18D0641E4A4642
:104270003946204600F084FA27B13968A14201D1BD
:10428000C7F8008071054FF002040BD540420028AA
:1042900003DD06F0DDF90460A007BDE8F08746F411
:1042A0008066E4E70028F8DA06F0D2F904606FF0DF
:1042B0000040F2E7F0B480EA0102D20F4300B3EB12
:1042C000410F02D20346084619464B0042D0C30DA7
:1042D000DDB2C1F3C7542C1B202C35DAC1F3160113
:1042E00041F4000502B16D42C4F1200605FA06F161
:1042F00025412844B3EBD05F23D0C2B1012CA0EB01
:10430000C35009DCF0BC4FF0004202EAC35200F592
:104310000000DBB200F08CBA400000F1807000EBCE
:10432000C350A0F1807040EAD170490009E049080B
:1043300041EAC071A0EBC35000F50000400800EB5B
:10434000C350F0BC00F06BBA5142012303EB4101B2
:10435000801AF6E7F0BC704781F00041AAE780F0D0
:104360000040A7E72DE9FE4F074681EA0300C00F92
:104370000E46019021F0004123F00044B81AA141FB
:1043800005D23846314617461E460B46024623F0F4
:104390000040104304D13846314603B0BDE8F08FE9
:1043A000350DC5F30A00C3F30A510290401A00907C
:1043B000402868DAC3F3130040F4801B019892464A
:1043C00020B10023D2EB030A63EB0B0B0098594694
:1043D000C0F14002504600F09DF980460C46504620
:1043E0005946009A00F0B5F9C0197141EF1785EAF6
:1043F00011533B4340D0019A52B3009A012A11DC79
:104400000022801A4FF0004361EB055103EA055387
:104410008018CDE9002341F580114246234600F083
:1044200041FABAE72E050025401B61EB0601401951
:1044300041F58012001852412818A6F5001343EBED
:10444000020140EAD470294318EB0808644113E0E4
:1044500064084FEA38084FF0000244EAC0744FEA9B
:104460000553801A61EB0301801841F5801149085A
:104470004FEA3000801859414246234603B0BDE858
:10448000F04F00F002BA0198012240000023D0EB67
:10449000020263EBE07301984FEAE074381A66EBAE
:1044A0000401EBE783F000435CE781F0004159E74A
:1044B0002DE9FE4F81EA030421F0004504F0004499
:1044C00023F000414FF0000A009450EA050302D0A7
:1044D00052EA010304D10020014603B0BDE8F08F89
:1044E000C1F30A53C5F30A541C44A0FB02B3C5F33D
:1044F000130545F4801CC1F3130141F480180CFB33
:10450000023300FB083EA4F2F334810A930A41EA25
:104510008C5143EA88530194A1FB03474FEA9C2541
:1045200005FB03734FEA982601FB06373D05260578
:1045300045EA1435BBEB06016EEB0503850E920EC2
:1045400045EA8C1542EA8812A5FB0206261E67EB97
:1045500000070C0D44EA0334A41947EB1350C1F3D0
:1045600013064FF0000319464FEA033343EA16538C
:1045700043EA0403019CE5FB0201A4F10C0402944C
:10458000009C4FEA0632CDE900A400F08BF9A4E7C5
:104590002DE9F04D81EA030404F0004B21F00047BF
:1045A00014464FF0000A23F0004150EA070220D0E1
:1045B00054EA01021DD0C1F30A550246C1F31300AB
:1045C000C7F30A56C7F3130340F4801143F4801372
:1045D000A6EB0508101BD64608F2FD3873EB010068
:1045E00002D308F1010801E092185B41B8F1000F15
:1045F00003DA00200146BDE8F08D00204FF480155D
:10460000064607460EE0B2EB040C73EB010C04D334
:10461000121B064363EB01032F436D084FEA300082
:1046200092185B4150EA050CEDD152EA030012D01A
:1046300082EA040083EA0105284303D100224FF0F7
:10464000004308E0101B8B4102D20122002302E04C
:104650006FF0010253101AEB060047EB085110EB04
:104660000A0041EB0B01BDE8F04D00F00EB99623B6
:104670000022114600F0DCB80EB540F23341029141
:104680000021CDE900110A460B4600F00BF903B0FA
:1046900000BDC1F30A52C1F3130140F2FF3341F4EC
:1046A00080119A4201DA0020704740F233439A4267
:1046B000A2F2334202DC524200F03BB89040704715
:1046C00000F0004230F000400DD0C10D01F56071E6
:1046D00042EA01510022C0F31600520742EAD0021A
:1046E000400711437047002001467047002801DB56
:1046F000C0F10040002901DBC1F100418142704757
:10470000002801DBC0F10040002901DBC1F10041BC
:1047100088427047202A04DB203A00FA02F1002088
:1047200070479140C2F1200320FA03F319439040EF
:104730007047202A04DB203A21FA02F0002170475A
:1047400021FA02F3D040C2F12002914008431946F9
:104750007047202A06DBCB17203A41FA02F043EAE1
:10476000E071704741FA02F3D040C2F1200291405B
:10477000084319467047000000487047CCE900081C
:104780002DE9F05F8246007800278B4615460AF136
:104790000104B946302801D09DB113E014F8010B93
:1047A0000127782803D0582801D045B10AE00DB17F
:1047B000102D07D10027102514F8010B02E0082561
:1047C00000E00A250026B0460EE005FB080005FBC8
:1047D00006F1012701EB10461FFA80F8B6F5803F7D
:1047E00000D3B94614F8010B294600F0BFF80028A1
:1047F000EBDABBF1000F05D00FB1641E00E05446A8
:10480000CBF80040B9F1000F06D005F021FF0221DE
:104810000160C81EBDE8F09F48EA0640FAE700299B
:10482000A8BF7047401C490008BF20F00100704736
:1048300010B4B0FA80FC00FA0CF050EA010404BF96
:1048400010BC704749B1CCF1200421FA04F411FAEC
:104850000CF118BF012121430843A3EB0C01CB1D30
:104860000106000A002BBEBF002010BC704700EB01
:10487000C35010440029A4BF10BC7047401C49001D
:1048800008BF20F0010010BC704710B5002B08DAFB
:10489000401C41F1000192185B411A4301D120F004
:1048A000010010BD2DE9F04D92469B4611B1B1FAC1
:1048B00081F202E0B0FA80F220329046FFF72AFF40
:1048C00006460F4640EA0A0041EA0B0152465B46A3
:1048D000084303D130463946BDE8F08D194652EA07
:1048E000010015D0C8F140025046FFF722FF0446F0
:1048F0000D46504659464246FFF70CFF084301D08B
:10490000012000E00020044345EAE07526432F43E0
:104910000A984FEAD625A0EB08000A304FEA465322
:104920004FF0000245EA47554FEAD72402D5002050
:104930000146D1E7010550196141DDE9084500193B
:104940006941BDE8F04DA0E7064C074D06E0E06880
:1049500040F0010394E8070098471034AC42F6D3C6
:10496000FFF7C8FBA0EA0008C0EA00083A2800D216
:10497000303820F02002412A01D3A2F137008842CA
:1049800001D34FF0FF30704770B501EB020410F80F
:10499000015B15F0070301D110F8013B2A1106D184
:1049A00010F8012B03E010F8016B01F8016B5B1E9E
:1049B000F9D12B0705D40023521E0FD401F8013B77
:1049C000FAE710F8013B02F10202A1EB030303E056
:1049D00013F8015B01F8015B521EF9D5A142D6D351
:1049E000002070BD30B58FB072B602F0DEFC04F06E
:1049F0001BFC04F05DFC01213D2003F047F92F482A
:104A000041682F4A1143416005F030FD4FF41650C4
:104A100005F026F962B600F097F80AA803F0B6F997
:104A200028480E99B1FBF0F50D99B1FBF0F40C9903
:104A3000B1FBF0F30B99B1FBF0F20A99CDE9004517
:104A4000B1FBF0F1204805F0DFFD20A322A225A153
:104A500027A005F0D9FD09F021FA01F057FA02F07C
:104A60005FFF03F0E9FD00F0ABFA01F05BFF08F037
:104A70009FFB02F043FA082002F006FA00200290A1
:104A8000039004900590069007900890099012A357
:104A90001DA2102102A805F0C7FD102211A106A831
:104AA000FFF7ACFB002106AA084602F0B7F802AAFD
:104AB0000021012002F0B2F80FB030BD000001402B
:104AC0000080000240420F003CDF000831383A33DA
:104AD000383A3130000000004A756C2032382032FC
:104AE000303137004150502056312E3133350000DF
:104AF0006170702076657273696F6E3A202573203D
:104B000025732025730D0A002573200010B50400BD
:104B100005D0012C03D0962102A006F0CFF8094859
:104B2000046010BD2E2E5C4C6962726172795C73F8
:104B300072635C73746D3332663130785F626B70B0
:104B40002E63000000860D4210B504F0D8FB054925
:104B5000087008B104A100E006A1BDE8104009A05A
:104B600005F052BD28000020426967456E64696106
:104B70006E0000004C6974746C65456E6469616E0A
:104B8000000000005379732069732025730A000028
:104B900010B578B14FF48054012805D002280FD108
:104BA0001021012004F0EEF82146BDE8104002205B
:104BB00004F0A0B81021BDE81040012004F0E2B8D4
:104BC00010BDFEE7C1B2000A40EA012070470000B4
:104BD00070B5614B614C00205988A4F1400202E09D
:104BE000155C2554401C8842FAD35C48626820302A
:104BF0001F294260A268826007D00220FFF7C8FF29
:104C000000202060607B1A2221E0E17B282901D06E
:104C10002A290AD1D4F81100227D00BA20F0FF0021
:104C200010435860E08A40BA98604D4A206890422C
:104C300052D14C4A607B1268904203D8A27B0AB1E1
:104C4000102A0DD90220FFF7A3FF607B2422052143
:104C500004F028F9BDE870400021012004F002B9F9
:104C6000252958D01ADC152971D00DDC08296ED001
:104C700005DCB9B3032936D004292DD163E00A2914
:104C800065D0122928D132E01A390A2924D2DFE866
:104C900001F03632235E32232323233E8A2956D065
:104CA0000EDC552953D006DC28293CD02A2940D0D7
:104CB0002F2911D143E05A2925D088290CD146E06B
:104CC000A82944D004DC8F2941D09E2904D13EE09C
:104CD000AA293CD0AF293AD00220FFF759FF607BC8
:104CE0002022B4E71BE0BDE8704003F02BBCBDE818
:104CF000704003F045BBBDE8704003F02FBCBDE839
:104D0000704003F077BBBDE8704003F06DBBBDE8B9
:104D1000704003F0E1BBBDE8704003F0A5BBBDE807
:104D2000704003F01FBCD3E90112BDE8704003F0EE
:104D300067BBD3E90112BDE8704003F049BCBDE890
:104D4000704003F02BBCBDE8704003F001BBBDE830
:104D5000704003F02FBB0000F001002064370020FA
:104D600055534243540200202DE9F041184D174C91
:104D7000174F4435174E23E047F6FF702860308800
:104D800000F00F00207007EB8000016889B20A0470
:104D900007D5016840F68F7289B2114001600E4854
:104DA00008E009060CD5016848F60F7289B2114077
:104DB00001600A48217800EB810050F8040C80471C
:104DC000286830800004D7D4BDE8F081F0020020CC
:104DD000005C004050020020340200201802002035
:104DE0002DE9F05F4BF6BF7848F28009454F40F659
:104DF0008F7A454E454D48F60F7B27E0088810F026
:104E00000F0030702BD005EB800001688CB22104BC
:104E10000BD5016889B201EA0A0101603C4831788A
:104E200000EB810050F8040C804720060ED5307846
:104E300005EB8000016889B201EA0B010160354889
:104E4000317800EB810050F8040C80472F48443043
:104E50000068314908800004D0D4BDE8F09F28687C
:104E60003880388800F030007880388800F440506E
:104E70003880286880B200EA080080F4005080F092
:104E8000200040EA090028600888C0060028286839
:104E900080B217DB00EA0B00286001F08BFC24E0F5
:104EA0003988890401D580F400507988C90626D450
:104EB0007988890601D580F0200080B240EA090097
:104EC0002860CAE7010507D5286880B200EA0A0011
:104ED000286003F0EDFF08E00004B7D5286880B231
:104EE00000EA0A00286002F0E7FB2868398880B2EF
:104EF00000EA0800C904D3D580F48050D0E780F0E0
:104F00001000D5E702030020F0020020005C004002
:104F100034020020180200205002002070B5002446
:104F20000C4A04E032F81030401C1C44C0B2122875
:104F3000F8D30846FFF7A0FB05460E462046FFF7CC
:104F40009BFB2A463346FFF723FBFFF7A2FB80B209
:104F500070BD00007C130020074901EB8000016850
:104F6000490408D5016848F68F7289B211404CF2A5
:104F70008002114301607047005C0040074901EB6B
:104F800080000168490608D5016848F68F7289B229
:104F9000114048F2C002114301607047005C0040BC
:104FA000064901EB8000016848F68F6289B2114022
:104FB00048F280021143016070470000005C00402D
:104FC0001CB50121082002F061FE0220ADF80400AA
:104FD00001208DF8060010208DF8070001A90E4869
:104FE00000F096FF0024234622460C490C4800940A
:104FF00002F02CFB0A4800231A460A491C30009490
:1050000002F024FB064800224FF4FA711C3008F02D
:1050100031FA00F08FF81CBD000C014089970008A0
:10502000EC260020B59900082DE9F0470025DFF8AF
:10503000988082462E464FF6FF794846424600E069
:1050400000BF1168890704D40100A0F1010080B2FB
:10505000F6D118B14FF47A7400270CE02C211BA074
:1050600005F0D2FA0320BDE8F0870A2006F049F8DF
:1050700007F10107BFB2D8F80000800704D520006F
:10508000A4F10104A4B2F0D13CB16806050E381FAA
:10509000052808D245F001050DE0352110A005F0E6
:1050A000B3FA0420DFE7082F05D3394611A005F035
:1050B000ABFA0520D7E7761CF6B2082EBDD38AF8E6
:1050C00000500020CFE70000080C01406C696E65BD
:1050D000203D2025642C205044206572720A000077
:1050E0006C696E65203D2025642C2050552065722A
:1050F000720A00006468742062697420657272200C
:10510000636F756E74203D2025640A0008B5022186
:10511000ADF8001001218DF8021038B110208DF883
:1051200003006946024800F0F3FE08BD4820F6E798
:10513000000C014010B50D4CA078002814D120704F
:10514000072060700120FFF7E1FF0948016841F086
:1051500002010160074802F09FFA00220121054880
:1051600008F088F90120A07010BD00008000002028
:10517000100C0140EC2600202DE9F05FDFF89C9038
:10518000DFF89C804FF0300AD9F8001001F11004CC
:10519000088A0E7A08B9042E04D0A588A84216D829
:1051A000042615E01F4A1078012804D00726102194
:1051B000A8F800102CE01C49002009681B4B89B29C
:1051C00003EB41014860A8F800A0107020E002261F
:1051D000854200D90546A8B2A1680746884783469C
:1051E000002001F0DBF801463A46584605F072F916
:1051F0003946002003F0B8FD2088401B20806088DD
:1052000028446080A8F800A009494FF44050088065
:10521000D9F800000672BDE8F09F0000F4020020FB
:1052200004030020EC020020505C004000600040BD
:10523000020300202DE9F047234EDFF890904FF055
:105240003008346834F8100FA168B1B108B3A588EC
:10525000854200D90546A8B207468847824620887D
:10526000401B2080608828446080002001F06CF89A
:1052700001463A46504602F0FFFB208848B11449E7
:105280004FF4405008800021084603F06DFDA9F856
:1052900000802088A188884201D3032001E020B14A
:1052A000052031680872BDE8F08731680620087271
:1052B000084900200968084A89B202EB41014860A8
:1052C000A9F80080EFE70000F402002004030020AA
:1052D00002030020505C0040006000402DE9F041D6
:1052E0005C4C5D4D09262068002729684278062A13
:1052F00005D0AAB1082A4BD00A2A4ED069E002781C
:10530000520666D18078012804D0022804D00328F0
:1053100004D05EE0C96954E0096A52E0496A50E08D
:105320004288A2BBC288022A53D102797ABB027892
:10533000530601D1838833B102F07F02012A04D0E1
:10534000022A0CD045E045493BE08A6940790021BA
:105350009047E0B92068807A0028F4D139E041799B
:1053600001F00F0001F070020B063D4951F82010CA
:1053700003D5C1F30111090102E0C1F301310903B1
:10538000384B1B78834224D90AB90029DBD120E0AD
:10539000007840061DD1344913E0027802F07F0204
:1053A000012A16D1827AA2B1428892B9027982B9D1
:1053B000C288012A0DD18A6940790021904740B9FD
:1053C0002A4931B120684782816100208847002046
:1053D00006E029682068096940788847032808D0D2
:1053E00021680A8AA2F57F43FF3B05D10E72BDE812
:1053F000F08120680672FAE7022808D03AB10878EE
:10540000000620D5C888824205D9088213E04FF0F3
:1054100008000872EBE70ED22868154B90F82C00B4
:10542000824201D21F7006E0B2FBF0F400FB1420B0
:1054300008B901201870286890F82C008882BDE80F
:10544000F041FFF799BE032008720A490003088063
:10545000CDE70000F4020020F8020020719000085F
:10546000005C0040C0020020059000084990000840
:10547000EC02002002030020704701F0F9BE01F0A9
:1054800037BF00002DE9F0410746884608F0BCFA16
:10549000214C0546B8F1000F35D03A0B39461FA014
:1054A00005F0B2F84FF48056234632463946284676
:1054B00008F0C4FA642241462046FEF764FE5C21EF
:1054C000204603F011FFC243C4E9170201461DA0A4
:1054D00005F09AF832463946284608F022FA234663
:1054E00032463946284608F0C1FB23463246394643
:1054F000284608F0A3FAD4E917121CA005F084F896
:105500000020BDE8F0810F2322A2002129A005F090
:105510007BF80120F5E70000EC1600207772697433
:105520006520666C61736841646472203D20307848
:1055300025782C20736563746F72203D2025640AE2
:1055400000000000773A20636865636B203D2030DF
:105550007825782C20636865636B496E7665727375
:1055600065203D20307825780A000000723A2063DB
:105570006865636B203D20307825782C2063686552
:10558000636B496E7665727365203D2030782578AF
:105590000A0000002E2E5C4472697665725C73729C
:1055A000635C463130585F466C6173685F49662EB4
:1055B000630000006572726F72203D2025642C200C
:1055C00066696C65203D2025732C206C696E652012
:1055D0003D2025640A0000002DE9F0419CB0002523
:1055E0001A9501225E495F481B9506F073FD04463B
:1055F00001465DA005F008F84FF480560D2C08D048
:10560000002C16D021465CA004F0FEFF1CB0BDE8C3
:10561000F08160A004F0F8FF32460121504806F006
:10562000BFFA010001D062A0EEE769A004F0ECFF30
:10563000ECE76EA004F0E8FF402000904848714B72
:1056400071A22021083000F035FB70B96D4971A0BE
:1056500004F0DAFF6B49012201F1740006F06AFDE3
:10566000010012D071A004F0CFFF1BAA1AA977A0E5
:1056700006F058F80028C9D175A004F0C5FFDDE98F
:105680001A127BA004F0C0FFC0E70024199508F0AF
:10569000BBF95C4F804674375A4819AB32467C4997
:1056A000743006F05FFE050020D11998F0B1250393
:1056B00032462946404608F034F91998B04206D2DD
:1056C000734AC0F580511044CC22FEF76EFD704B3A
:1056D00032462946404608F0C9FA641CA4B2234663
:1056E000FA686C48199904F08FFFD5E74548743083
:1056F00006F042F8294668A0199A04F085FF199827
:105700000543B2D16CA004F07FFF3E4806F02AFFAB
:10571000002822D06DA23B496EA004F075FF6421E1
:105720006846FEF749FDF868119001201590C01EEB
:10573000169069464FF48020FFF7A4FEFA686BA02C
:10574000199904F061FF77A004F05EFF40F6B830CD
:1057500005F0C8FC01F078F887E781A2DBE70000DC
:1057600006030020B0370020665F6D6F756E7420F1
:105770003D2025640A0000004661744673206D6F69
:10578000756E74206572726F72203D2025640D0A5B
:10579000000000004661744673204572726F722CDF
:1057A00020646F20466F726D61742E2E2E0D0A00DC
:1057B000466C617368204469736B20466F726D613B
:1057C00074204661696C6564203D2025640A0000F0
:1057D000466C617368204469736B20466F726D611B
:1057E000742046696E69736820210A004661744618
:1057F00073206D6F756E7420737563636573730DBD
:105800000A000000E04700207570646174652E6234
:10581000696E000066696E6465642066696C652067
:1058200070617468203D2025730A000063616E2753
:1058300074206F70656E2066696C652C20657272CD
:105840006F72203D2025640A000000003000000037
:10585000726561642066617466732066696C652098
:1058600073697A6520737563636573730D0A00004D
:10587000746F74616C203D20256C64204B422C2099
:1058800066726565203D20256C64204B420A00004D
:10589000EC1600208CE30008726561642066696C78
:1058A000653A20726573203D2025642C20627220A9
:1058B0003D2025640D0A0000726561642066696CF4
:1058C0006520616C6C20646F6E650A006661696CAE
:1058D0006564000064656C6574652066696C6520AC
:1058E000696E2025732025730A00000072656164CB
:1058F0002066696C6520737563636573732C206C17
:10590000656E203D2025642C2066696C655F736997
:105910007A65203D20256C642042797465730D0AF8
:105920000000000077726974652073706920666CEE
:1059300061736820646F6E652C20726561647920E4
:10594000746F206A756D7020746F207468652062B2
:105950006F6F746C6F616465722E2E2E0A000000EA
:105960006F6B0000F0B5C3B0002532A1354800F0E0
:10597000D5F801282DD0334C4FF48076E168B14240
:1059800000D996392F4805F07CFF074601462EA026
:1059900004F03AFED4E9022339462FA004F034FE85
:1059A0009FB900204190409031466846FEF704FCC4
:1059B00041AB32466946234806F0D4FC02000AD0C7
:1059C0004FF4CF712FA004F01FFE1E4805F0D4FE47
:1059D000284643B0F0BD694631A004F015FE5B21B6
:1059E0006846FEF71FFC040021D05D21FEF71AFC7B
:1059F000C8B10A2240A9601CFEF724FC01000CD1AA
:105A0000409A601C824208D1631C28A004F0FCFD6F
:105A10000C4805F0B1FE0020DBE7491C0D4631A023
:105A200004F0F2FDD1E737A004F0EEFDCDE738A099
:105A3000FAE7000073656E736F725F646174612EC4
:105A40007478740054480020312C20726573203D16
:105A50002025640A00000000665F6C7365656B209A
:105A6000726573203D2025642C2066707472203D81
:105A700020256C642C206673697A65203D20256C96
:105A8000640A00006C696E65203D20256420726503
:105A90006164206661696C6564203D2025640A00AC
:105AA000627566203D2025730A000000636F6E76E4
:105AB000657274206661696C65642C20696E64652A
:105AC00078203D2025642C2070456E64203D2030D8
:105AD0007825782C202670315B315D203D20307890
:105AE00025780A0068616420256C64206974656DFE
:105AF00073206F662073656E736F722064617461CA
:105B00000A0000007032206E756C6C0A0000000004
:105B10007031206E756C6C0A00000000F0B59BB00F
:105B200006460F46402235496846FEF72CFB002505
:105B3000694610A806F0CEFB040009D030A26946E1
:105B400031A004F061FD052C04D08CB15D2349E047
:105B500031A2F4E7684605F067FF0200694603D00A
:105B60002EA004F051FD42E034A004F04DFD0125CB
:105B700010A805F014FE6846FEF74CFB2F220DF826
:105B800000206844401C40223946FEF737FB1322B0
:105B90006946304606F0CEFA0446C5B100201A9098
:105BA00016486C38FEF736FB144902461AAB6C39BE
:105BB000304606F02BFD11483238FEF72BFB0F491B
:105BC00002461AAB3239304606F020FD0446304614
:105BD00006F08AFCF2686CB109A11EA004F014FD65
:105BE00054B1702321A2214629A004F00DFD01200B
:105BF0001BB0F0BD08A1F0E70020F9E74CE3000876
:105C00006661696C656400006F70656E206469721E
:105C10002025732025730A006F6B00006372656195
:105C2000746520646972202573206661696C6564FF
:105C30002C20726573203D2025640A006372656123
:105C400074652064697220257320737563636573BE
:105C5000730A0000665F6F70656E2025732C2066E6
:105C600073697A65203D2025640A00002E2E5C436E
:105C70006F6D706F6E656E745C46617446735C73B5
:105C800072635C66617466735F64656D6F2E63003A
:105C90006572726F72203D2025642C2066696C65E8
:105CA000203D2025732C206C696E65203D202564E5
:105CB0000A0000002DE9F04194B0054625481190F6
:105CC0003320129017461E46DDF86880294601A849
:105CD00006F000FB040026D02EE01198007808B1F1
:105CE000119801E00DF135009DF83410C90604D576
:105CF00019A004F089FC04241EE000902B461CA28D
:105D00004146304604F090FC39463046FEF760FAD2
:105D100028B1314618A004F077FC002403E01DA050
:105D200004F072FC04240BA901A806F0B1FB18B919
:105D30009DF835000028D0D101A805F030FD38B11C
:105D400018A11AA004F060FC14B02046BDE8F08150
:105D50001AA1F6E7204800207363616E2066696C23
:105D600065206661696C65642C20646972730A0041
:105D700025732F25730D0A007365617263682066B1
:105D8000696C6520737563636573733A2025730AC4
:105D9000000000006E6F742066696E642066696C96
:105DA000650A00004661696C65640000636C6F738E
:105DB000656469722025730A000000004F4B0000E3
:105DC000F8B50D4601461348FFF7A8FE01281FD07D
:105DD000104C2046E16805F054FDD4E90223014649
:105DE0000DA004F011FC2846FEF714FA0646024600
:105DF0006B462946204606F009FC0446054805F096
:105E0000BBFC324621460FA0009B04F0FDFB204660
:105E1000F8BD000054480020665F6C7365656B2018
:105E2000726573203D2025642C2066707472203DBD
:105E300020256C642C206673697A65203D20256CD2
:105E4000640A0000665F777269746520726573206A
:105E50003D2025642C206C656E203D2025642C207F
:105E60006277203D2025640A0000000010B504463A
:105E7000102805D024B140F22F1106A004F01EFF17
:105E80000D48016821F010010160016821430160A3
:105E900010BD00002E2E5C4C6962726172795C73D9
:105EA00072635C73746D3332663130785F666C6137
:105EB00073682E63000000000020024010B504004B
:105EC00008D0012C06D0022C04D040F2031105A00A
:105ED00004F0F4FE0C49086800F038002043086024
:105EE00010BD00002E2E5C4C6962726172795C7389
:105EF00072635C73746D3332663130785F666C61E7
:105F000073682E630000000000200240FFF764BBAE
:105F10002DE9F0410446464800260D46844215D03E
:105F20004448844212D0444884420FD043488442BB
:105F30000CD04348844209D04248844206D04248AB
:105F4000844203D0B22141A004F0B8FEE87888B1C1
:105F500004280FD028280DD048280BD0142809D0A9
:105F6000102807D01C2805D0182803D0B32137A04B
:105F700004F0A4FE288818B9B42134A004F09EFED1
:105F8000E87800F00F07C0060CD5A878012807D0E4
:105F9000022805D0032803D0BB212CA004F08EFEDC
:105FA000A878074328884FF00F0C10F0FF0F4FF030
:105FB000010E1AD021682A880EFA06F002408242A9
:105FC0000FD1B2000CFA02F3994307FA02F211431F
:105FD000EA78282A02D0482A02D002E0606100E074
:105FE0002061761C082EE6D321602888FF281DD961
:105FF0006268002101F108030EFA03F02B880340C8
:1060000083420FD18E000CFA06F322EA030307FA4B
:1060100006F21A43EB78282B00D16061EB78482B0D
:1060200000D12061491C0829E4D36260BDE8F081F9
:1060300000080140000C0140001001400014014024
:1060400000180140001C0140002001402E2E5C4C35
:106050006962726172795C7372635C73746D3332FE
:10606000663130785F6770696F2E630070B50546E2
:10607000274800260C46854216D02648854213D074
:106080002548854210D0254885420DD024488542B8
:106090000AD02448854207D02348854204D04FF4D3
:1060A0008F7122A004F00AFE012C2AD0022C28D0E5
:1060B000042C26D0082C24D0102C22D0202C20D028
:1060C000402C1ED0802C1CD0B4F5807F19D0B4F5A4
:1060D000007F16D0B4F5806F13D0B4F5006F10D0E8
:1060E000B4F5805F0DD0B4F5005F0AD0B4F5804FF1
:1060F00007D0B4F5004F04D040F21F110BA004F0FC
:10610000DDFDA868204200D00126304670BD0000A9
:1061100000080140000C0140001001400014014043
:1061200000180140001C0140002001402E2E5C4C54
:106130006962726172795C7372635C73746D33321D
:10614000663130785F6770696F2E630070B5044602
:1061500011480D46844216D01048844213D010488E
:10616000844210D00F4884420DD00F4884420AD098
:106170000E48844207D00E48844204D040F2791180
:106180000CA004F09BFD25B94FF4BD7109A004F0EB
:1061900095FD656170BD000000080140000C0140E4
:1061A000001001400014014000180140001C014093
:1061B000002001402E2E5C4C6962726172795C7322
:1061C00072635C73746D3332663130785F67706907
:1061D0006F2E630070B5044611480D46844216D0F8
:1061E0001048844213D01048844210D00F48844293
:1061F0000DD00F4884420AD00E48844207D00E4882
:10620000844204D040F269110CA004F057FD25B976
:106210004FF4B57109A004F051FD256170BD000077
:1062200000080140000C0140001001400014014032
:1062300000180140001C0140002001402E2E5C4C43
:106240006962726172795C7372635C73746D33320C
:10625000663130785F6770696F2E630070B50546F0
:106260002A480C461646854216D02948854213D046
:106270002848854210D0284885420DD027488542BD
:106280000AD02748854207D02648854204D040F2EC
:106290008D1125A004F012FD012C2AD0022C28D04B
:1062A000042C26D0082C24D0102C22D0202C20D036
:1062B000402C1ED0802C1CD0B4F5807F19D0B4F5B2
:1062C000007F16D0B4F5806F13D0B4F5006F10D0F6
:1062D000B4F5805F0DD0B4F5005F0AD0B4F5804FFF
:1062E00007D0B4F5004F04D04FF4C7710EA004F0EE
:1062F000E5FC46B1012E04D040F28F110AA004F053
:10630000DDFC2C6170BD6C6170BD000000080140B7
:10631000000C014000100140001401400018014031
:10632000001C0140002001402E2E5C4C696272610D
:1063300072795C7372635C73746D3332663130787A
:106340005F6770696F2E63000549096889B201EBC8
:10635000C000044901EB4000806880B27047000033
:10636000505C0040006000400549096889B201EBBB
:10637000C000044901EB4000C068C0F30900704749
:10638000505C004000600040034951F82000C0F319
:106390000130000370470000005C004004490968B8
:1063A00089B201EBC000034951F8100080B2704778
:1063B000505C00400060004008B104487047044948
:1063C0000120096808820020704700005402002064
:1063D000F40200200A4810B50168001D0468001D81
:1063E000006808180BD00822064900F011FA054988
:1063F00020460422BDE81040103100F009BA10BD5B
:10640000E8F7FF1FFE01002010B5124C207A90F033
:106410000100207214D010A20D21012000F0FEFB1B
:10642000E0892082FEF728F900220C4BFEF740F8A5
:106430004FF066320A4BFEF7ABF8FEF72AF906E09A
:1064400008A20D21012000F0E9FB002020826082DB
:1064500010BD00003400002043414C0000003E40CD
:10646000666636402020200010B50022022901D2A5
:10647000002010BD401C891E8BB2002104E0445C4A
:10648000491C224492B289B29942F8D3D043401CAD
:10649000C0B210BD70B520498C8BCD8910B10128D8
:1064A0002FD115E0488A38B18A8B824202D9898B74
:1064B000081A00E0002084B200F0D8F9002117A2E9
:1064C000084600F0ABFB204600F036F815A214E0B9
:1064D000088A38B1CA89824202D9C989081A00E0FB
:1064E000002085B200F0C2F900210CA2084600F09D
:1064F00095FB284600F055F80CA20A21002000F078
:106500008DFB0C48007808B100F0DAFC2046BDE8AD
:10651000704000F0ADB80000340000204843484F00
:1065200020000000206D672F6D3300002070706D1B
:10653000202000006200002070B5044605210020E4
:1065400000F072FA42F21070B4FBF0F100FB11405F
:106550004FF47A75B0FBF5F03030C0B200F0BCFA01
:106560002E2000F0B9FAB4FBF5F005FB10406425CD
:10657000B0FBF5F03030C0B200F0AEFAB4FBF5F08D
:1065800005FB10400A25B0FBF5F0303000F0A4FA0E
:10659000B4FBF5F005FB1040BDE87040303000F072
:1065A0009BBA70B504460521002000F03DFA42F286
:1065B0001070B4FBF0F100FB11404FF47A75B0FBA2
:1065C000F5F03030C0B200F087FA2E2000F084FAE7
:1065D000B4FBF5F005FB10406425B0FBF5F030305E
:1065E000C0B200F079FAB4FBF5F005FB10400A25C3
:1065F000B0FBF5F0303000F06FFAB4FBF5F005FBBE
:106600001040BDE87040303000F066BA164A10B550
:10661000948B0100D08902D001291AD10DE0508A53
:1066200038B1918B814202D9918B081A00E0002089
:1066300084B22046FFF780FF0BE0118A39B1D08980
:10664000884202D9D089401A00E0002080B2FFF7CA
:10665000A8FF0648007808B100F032FC2046BDE8EB
:10666000104000F005B80000340000206200002057
:1066700010B5144C502809D213A20021012000F0BB
:10668000CDFA207800281BD0002015E0B0F5FA7F65
:1066900009D210A20021012000F0C0FA20780028C1
:1066A0000ED0012008E00EA20021012000F0B6FA71
:1066B0002078002804D00420BDE8104000F064BB1E
:1066C00010BD000062000020476F6F642020202072
:1066D00020202000556E6865616C74687920200068
:1066E0004261646C79202020202020000178FF295D
:1066F0000CD141780C4A172909D0862906D10221EC
:106700001171C178807801EB002090837047417946
:10671000007901EB002090810120107100221146C8
:10672000024806F0A7BE000034000020A01300209D
:1067300070B51C4C40F22551204603F073FB002835
:1067400026D0204603F058FD174CC0B2A17A002590
:10675000164EFF2903D117281BD0862819D0E18AAD
:10676000402900D3E582E18A7054A072E08A401C7F
:10677000E082E08A09280BD109210C48FFF774FE5A
:10678000317A884203D109210848FFF7AFFFE5823B
:1067900070BDE582E28AFF21B154E18A491CE182A1
:1067A000E1E70000004800403400002034140020DD
:1067B000FEE7000010B5134C2068017A022904D0CE
:1067C000042902D0062905D015E0FEF7D5FC206883
:1067D000007A11E04178052909D10178490606D1EE
:1067E000C07802F035FA08480068006A8047074818
:1067F000006880688047082021680872BDE8104062
:1068000001F068B9F4020020FC020020F802002028
:10681000F0B500230A2630274FF0370C1C460FE056
:10682000B6EB107F02D907EB107501E00CEB107589
:1068300001F8135001EB430500015B1C6C70DBB2E7
:106840009342EDD3F0BD000001F080FA72B6054826
:106850000168054A01F4E06111430160BFF3408F14
:10686000FEE700000CED00E00400FA0510B5012081
:1068700000F0E2F8022004F035FC022000F0DCF821
:10688000BDE81040022004F02DBC00002DE9F843C3
:106890004FF40056ADF8006001208DF80200102082
:1068A000DFF878808DF8030069464046FFF730FB3B
:1068B0001B4F3411ADF8004069463846FFF728FBFE
:1068C0006510ADF8005069463846FFF721FBF0200F
:1068D000ADF8000069463846FFF71AFB0820ADF80E
:1068E000000069463846FFF713FB08213846FFF7DA
:1068F0002DFC012000F024FA29463846FFF76AFCF7
:1069000021463846FFF722FC31464046FFF71EFC81
:10691000F0213846FFF75EFCBDE8F8830010014027
:10692000000C014010B5FFF7B1FF1E2004F0DAFBA8
:106930003C4C002210212046FFF790FC0022202131
:106940002046FFF78BFC012240212046FFF786FC02
:10695000012280212046FFF781FC00F0DBF90A20AC
:1069600004F0C0FB002210212046FFF777FC002234
:1069700020212046FFF772FC012240212046FFF72C
:106980006DFC012280212046FFF768FC00F0C2F96F
:10699000962004F0B6FB002210212046FFF75EFC93
:1069A000002220212046FFF759FC012240212046E9
:1069B000FFF754FC012280212046FFF74FFC00F036
:1069C000A9F9002210212046FFF748FC00222021CF
:1069D0002046FFF743FC012240212046FFF73EFC02
:1069E000002280212046FFF739FC00F093F90A20AD
:1069F00004F078FB282000F01FF80A2004F072FB56
:106A0000012000F019F80A2004F06CFB0C2000F0C3
:106A100013F80A2004F066FBBDE81040062000F0E1
:106A20000BB80000000C014001EB8010C0B240F038
:106A3000800000F001B8000070B50446282803D09B
:106A4000382C01D000F058F94FF400512048FFF7DE
:106A50007DFB204D4FF400712846FFF777FBE209DC
:106A600010212846FFF7FAFBC4F3801220212846A4
:106A7000FFF7F4FBC4F3401240212846FFF7EEFB7A
:106A8000C4F3001280212846FFF7E8FB00F042F92A
:106A9000C4F3C00210212846FFF7E0FBC4F38002D4
:106AA00020212846FFF7DAFBC4F3400240212846A4
:106AB000FFF7D4FBC4F3000280212846FFF7CEFB8A
:106AC00000F028F9BDE870402D2004F01ABB00004A
:106AD00000100140000C01402DE9F041044600F097
:106AE0000BF9244E4FF4005529463046FFF772FB50
:106AF000214F29113846FFF729FBE20910213846BA
:106B0000FFF7ACFBC4F3801220213846FFF7A6FB49
:106B1000C4F3401240213846FFF7A0FBC4F3001233
:106B200080213846FFF79AFB00F0F4F8C4F3C00266
:106B300010213846FFF792FBC4F38002202138462B
:106B4000FFF78CFBC4F3400240213846FFF786FB79
:106B5000C4F3000280213846FFF780FB00F0DAF82A
:106B600029463046FFF7F2FABDE8F0412D2004F047
:106B7000C8BA000000100140000C01402DE9FE4F92
:106B800082468846244900200A276C46B2FBF1F56C
:106B900001FB1522B1FBF7F105F130062654401C2C
:106BA000C0B20A28F2D30025605D302803D16D1CE5
:106BB000EDB20A2DF8D3C5F10A0010F0FF0001D1A3
:106BC00009250120834215D3A3EB000909F0FF0733
:106BD00041465046FFF728FF002604E02020FFF73B
:106BE0007BFF761CF6B2BE42F8D309EB080000F03A
:106BF000FF0802E0C01A2844C5B241465046FFF7DC
:106C000013FF04E0605DFFF767FF6D1CEDB20A2D16
:106C1000F8D3BDE8FE8F000000CA9A3B10B51446B9
:106C2000FFF702FF02E0641CFFF756FF2078002800
:106C3000F9D110BD38B50C4600218DF800106A4618
:106C4000214600F05DFD05461048007818B19DF81A
:106C5000000000F099F80E49C4EBC400421800216E
:106C60000846FFF7DBFF03232A4607210020FFF732
:106C700085FF9DF800000649C0EBC000623901EBBA
:106C8000400200210120FFF7C9FF38BD620000204B
:106C9000DFDF000870B50D460446002110A208464B
:106CA000FFF7BCFF0323224606210020FFF766FF03
:106CB0000DA20A210020FFF7B1FF0DA20021012043
:106CC000FFF7ACFF03232A4606210120FFF756FFFA
:106CD000BDE870400A2104A20120FFF79FBF000019
:106CE000504D322E3520000075672F6D33000000A7
:106CF000504D31302020000010B54FF48071044811
:106D0000FFF724FABDE81040012000F019B8000098
:106D1000000C014070B5094D4FF48074214628469F
:106D2000FFF758FA052004F0ECF921462846FFF752
:106D30000DFABDE87040052004F0E3B9000C0140F5
:106D400008B5F021ADF8001001218DF8021038B11E
:106D500010208DF8030069460248FFF7D9F808BDF6
:106D60004820F6E7000C014010B504460146022019
:106D700000F066F82146002000F062F82146BDE8E8
:106D80001040012000F05CB811B581B0294800F036
:106D900083FC9DF80420012100242748072A21D2E2
:106DA000DFE802F004081313192137000020FFF771
:106DB000DBFF07E00021022000F042F80121084635
:106DC00000F03EF8012100200AE00020FFF7CCFF90
:106DD0000121084604E00020FFF7C6FF0121022040
:106DE00000F02EF81CBD01700020FFF7BDFF01214F
:106DF000084600F025F80121022000F021F80023C8
:106E000001AA0E490B48009400F020FC0022322118
:106E10000CE001700120FFF7A7FF002301AA07493A
:106E20000448009400F012FC00220F21014806F0F3
:106E300021FB1CBD7414002068000020AD6F000809
:106E400058B10F4B012811D0022818D1012902D0C6
:106E5000002202210EE00122FBE7012904D00022DA
:106E60004FF40041074806E00122F9E7012904D068
:106E7000002201211846FFF7F1B90122F9E7704716
:106E8000001401400010014008B5002810D0094945
:106E9000488000200346024600900749074800F05A
:106EA000D5FB0022BDE808403221044806F0E2BAD2
:106EB00008BD000068000020656F000890140020E5
:106EC0000D49888B488A18B18A8B824200D9888BF9
:106ED000888B502801D200200BE0888BC82801D273
:106EE000022006E0888BB0F5FA7F01D2042000E092
:106EF0000620FFF749BF00003400002038B502200B
:106F0000ADF8000010218DF80310134C8DF802002D
:106F100069462046FEF7FCFF4FF40041ADF8001033
:106F200069460E48FEF7F4FF0121ADF800106946EE
:106F30002046FEF7EDFF012000F0ACFD002001F03F
:106F40000FF80020FDF7E2FD002000F0A3FD002077
:106F5000FFF70AFF38BD0000001401400010014097
:106F60007047000010B50F4C607850B10020FFF75B
:106F7000FBFE608868B1002232210B4806F07AFAE5
:106F80000AE00120FFF7F0FE608810B1401E60802B
:106F9000EFE70020FFF7E8FE607880F00100607006
:106FA00010BD0000680000209014002070B500782B
:106FB00000250126134C052828460BD0FFF7D4FEE8
:106FC0002078C8B1257000220F21BDE870400E481E
:106FD00006F050BAFFF7C8FE207818B125700022DD
:106FE0003221F2E7012126700846FFF729FF01212F
:106FF0000220FFF725FFF2E726700120FFF7B4FE1D
:10700000E1E70000680000207414002008B10120AE
:107010007047084840F2BF310022016005494FF433
:107020008050091F086003480349001DC0E9001291
:10703000104670472C01002000F03B0010B508B14D
:10704000012010BD05F03AFD80B210BD10B511460B
:10705000DDE9022308B1012010BD05F065FD002027
:1070600010BD10B51146DDE9022308B1012010BDA5
:1070700005F07EFD002010BD0D4900B509680A78B5
:1070800002F07F02212A08D1FE2806D1488820B9C3
:10709000888810B9C888012801D0022000BD0548A1
:1070A000886100204882FFF787F9002000BD0000BA
:1070B000F4020020B9630008014901F0B7BF0000E5
:1070C00060020020014901F0B1BF00005802002019
:1070D00005490968C978052901D900207047034A84
:1070E00002EBC10101F0A2BFF402002098020020CF
:1070F00009B9002800D00220704700000F4910B5E0
:1071000009680A7802F07F02212A07D1FF2805D1F9
:10711000488818B9888808B9C88808B1022010BD05
:107120000120FDF72BFF0220FDF716FF054904485B
:10713000086005490020087010BD0000F40200201E
:107140005553424364370020F001002070B52F48AA
:107150000025304985722E480968C0794872284652
:1071600001F06EFD4FF40071002001F023FE20219C
:10717000002001F007FE1821002001F08BFD264CB5
:107180000020217801F096FD5821002001F0DCFD5F
:107190000020FDF705FF002001F0C4FD00210120C3
:1071A00001F008FE9821012001F0CEFD20210120F0
:1071B00001F0E8FD0021012001F09CFD00210220EA
:1071C00001F0F8FDD821022001F064FD21780220B1
:1071D00001F070FD4FF44051022001F08BFD0021C1
:1071E000022001F0CFFD2178002001F063FD002096
:1071F00001F098FD002001F02BFD084901200860F6
:107200000849074808600848057070BD9437002099
:107210005EE20008F402002094020020E802002050
:107220005553424364370020F001002070477047F7
:1072300010B5FFF7CFF8054800240068847200F00D
:107240006BFC03F0C7F80248046010BDF402002094
:10725000E8020020044805490068884202D0022064
:10726000FDF796BC70470000643700205553424339
:107270001C4910B5087840F0100008701A4B1878B7
:10728000022819D04FF44054032824D0042801D0F8
:10729000052825D1002018702146022001F02AFD82
:1072A0000220FFF771F8B0F5805F19D12146BDE8E3
:1072B0001040022001F01EBD0C48C27B282A0FD1CD
:1072C0000A7842F002020A70D3E90112407BBDE85D
:1072D000104001F095B80121002001F0C3FDE5E761
:1072E00010BD000039010020F001002064370020AB
:1072F00070B5194E307840F010003070174C0220F5
:10730000A4F14001E57B03F075F815494880087841
:1073100018B1012805D0022006E0BDE87040FDF755
:1073200057BC2A2D0DD00120FDF732FC607B2422B2
:10733000052101F0B7FDBDE870400021022001F0F9
:1073400091BD307840F001003070091D607B06C9A6
:10735000BDE8704001F03CB93901002064370020DD
:10736000F0010020094810B50068807A00280BD091
:107370000749052008600120FDF700FE0220FDF707
:10738000EBFD04490020087010BD0000F40200204D
:10739000E8020020F0010020014904200860704745
:1073A000E8020020FEE7704770474FF48041480331
:1073B00000F080B870B50446C0780F2528B10128C8
:1073C00003D075211EA003F079FC6078102803D348
:1073D00076211BA003F072FCA078102803D377213C
:1073E00017A003F06BFCE07801214FF0E022E0B140
:1073F00019480068637800F4E060C0F5E060000AB6
:10740000C0F10406C540A078B34028401843237853
:10741000124D00015855207800F01F039940400993
:1074200002EB8000C0F8001170BD207800F01F034F
:107430009940400902EB8000C0F8801170BD000047
:107440002E2E5C4C6962726172795C7372635C6D42
:107450006973632E630000000CED00E000E400E0BF
:1074600010B50446B0F5E06F0FD0B4F5C06F0CD086
:10747000B4F5A06F09D0B4F5806F06D0B4F5407FA5
:1074800003D0632103A003F019FC08480443084813
:10749000046010BD2E2E5C4C6962726172795C735F
:1074A00072635C6D6973632E630000000000FA056F
:1074B0000CED00E070B504460D46B0F1005F06D05B
:1074C000B4F1006F03D09F2107A003F0F7FB0C4835
:1074D000854203D3A02104A003F0F0FB0948054036
:1074E00009482543056070BD2E2E5C4C69627261AF
:1074F00072795C7372635C6D6973632E6300000064
:10750000FFFF0F0080FFFF1F08ED00E070B52F4D5B
:107510002868017844784A0606D001F07F000128E7
:1075200028D002282BD035E0092C06D0052C07D016
:10753000032C0ED0012C14D02CE001F0E1FD28E04A
:10754000C1787F292ED8817861BB818851BB807A30
:1075500027E0C17801291DD18088D8B901F0ECFD60
:1075600017E0C178012915D1818899B9407A800640
:107570000AD40FE00B2C0DD101F032FE09E0012CF2
:1075800002D0032C03D005E001F0C6FC01E001F0BD
:10759000E5FD58B10E4800684169E0B2884703280C
:1075A00002D018B108200DE009200BE0094A06209E
:1075B00000211268084B92B203EB42025160074A65
:1075C000302111802968087270BD0000F40200208B
:1075D000F8020020505C00400060004004030020DE
:1075E00001484068704700001400002010B50446B0
:1075F000FFF7F6FFA04201D3012010BD002010BD0F
:1076000010B50446FFF7ECFF204410BD0E4810B53E
:10761000046816E0FFF7E4FF2169884210D3207A5E
:10762000C1070DD0810703D420F00100207204E0CF
:10763000FFF7D6FFE16808442061D4E905108847C8
:107640006468002CE6D110BD2C00002070B5044603
:10765000049EC360C4E905121D46FFF7C1FF28441C
:107660002061267270BD00000A4B19680A4608E0C6
:10767000814205D1087A40F001000872002070476D
:1076800049680029F4D142601860017A41F0010193
:107690000172F3E72C0000200649096806E08142E8
:1076A00003D10A7A22F001020A7249680029F6D150
:1076B000704700002C00002010B50F4C2068007AA5
:1076C000022811D004280FD0032804D0052802D0A6
:1076D000072805D008E0FDF7ADFD2068007A04E03A
:1076E00006480068C0688047082021680872BDE825
:1076F000104000F0EFB90000F4020020F802002072
:107700002DE9F74F05464FF4FA704FF00009854216
:1077100000D90546DFF8F88001294FF000041ED19A
:1077200046462846FCF7A3FF824604EB840006EB9E
:1077300080075046B968FCF7E3FF0BD8F96850465C
:10774000FCF7D4FF06D804EB840006EB80008668C3
:10775000F8681DE0641CE4B2072CE6D352E046460C
:107760002846FCF784FF824604EB840006EB800782
:1077700050463968FCF7C4FF40D879685046FCF79A
:10778000B5FF3BD804EB840006EB80000668786800
:10779000072C37D23146FCF7DFFD074604EB8401A6
:1077A00008EB8100418A008A091A1FFA81FAFCF766
:1077B00063FF804689463846FCF782FF83460F46C2
:1077C0002846FCF754FF3146FCF7C6FDFCF778FF6E
:1077D00005460E465046FCF74FFF2A463346FCF757
:1077E00067FE5A463B46FCF7D3FE42464B46FCF743
:1077F000B9FDFCF74EFF1FFA80F904E0641CE4B207
:10780000072CB1D30024029804704846BDE8FE8FCF
:10781000EDDF000870B50446FFF728F81D4D5CB198
:10782000012C11D0022C30D0032C31D1A889012198
:10783000BDE87040FFF7FEB9FFF792FBA889E98920
:10784000BDE87040FFF726BAFFF78AFBE88A298B6C
:107850000844698B2D8A084484B200210EA2084690
:10786000FFF7DCF905232A4608210020FFF786F9F7
:107870000CA200210120FFF7D1F92246BDE870409B
:10788000052308210120FFF779B9A8890021CFE756
:1078900070BD00005C1300203E20302E33756D203B
:1078A000000000003E20322E35756D2000000000E3
:1078B00070B51A4C58B1012815D0022829D00328D8
:1078C0002AD1A0890121BDE87040FFF7B3B9FFF7C5
:1078D00047FBA289032306210020FFF74FF9E28925
:1078E0000323062110E0FFF73BFBE08A218B0844CD
:1078F000618B228A084485B2052308210020FFF706
:107900003DF905232A460821BDE870400120FFF714
:1079100035B9A0890021D6E770BD00005C130020B6
:1079200038B5002423462246114912480094FFF737
:107930008DFE0022C8210F4805F09CFD0D48002354
:107940001A460D4938380094FFF780FE0948002395
:107950001A460A491C380094FFF778FEBDE8384003
:10796000044800224FF448711C3805F083BD000024
:10797000099A0008D813002041960008599B000876
:10798000F0B502780023422A02D042784D2A30D145
:10799000184F7A7812B17A78521E7A70C278847849
:1079A000DFF854C002EB0422ACF802200CF104060C
:1079B000002200EB42046579247905EB042426F8C3
:1079C0001240521CD2B20E2AF3D3891C8AB2002173
:1079D00004E0445C491C23449BB2C9B29142F8D3F1
:1079E000BCF81E00984201D1012038707878401C04
:1079F0007870F0BD340000205C13002070B51B4C83
:107A000040F22551204602F00DFA002825D02046EC
:107A100002F0F2FB164CC0B2627A00251549422AE8
:107A200001D14D281AD0A28A402A00D3A582A28A69
:107A30008854A28A521CA2826072A08A03280CD9A0
:107A4000C8788978A28A00EB012081B2081D904293
:107A500003D10848FFF794FFA58270BDA582A38AD1
:107A60004222CA54A28A521CA282E0E70038014096
:107A700034000020F4130020054B521C520803EB85
:107A8000410104D008C920F8023B521EFAD17047C8
:107A90000060004010B5040005D0012C03D07F2108
:107AA00002A003F00BF90948046210BD2E2E5C4CB5
:107AB0006962726172795C7372635C73746D333284
:107AC000663130785F7077722E63000000000E42DE
:107AD000704700000C4810B590F82C10002001F001
:107AE000E9F80A480068007A082802D0092809D075
:107AF00006E007494FF480500880064910200880AE
:107B0000002010BD012010BD68020020F4020020FA
:107B1000020300200403002010B5012002F0F0FB56
:107B20000648012101600021054A0160031D19601A
:107B30004FF4E05111800160002010BD405C004016
:107B40000003002070B51F4C40F225552946204601
:107B500002F068F9F8B1204602F04EFB1A4AC3B2AF
:107B60009088D188401C00F03F0088420BD1A2F1E0
:107B70000C00418809B90121418000222946204694
:107B800002F0DAF907E01068918843549088401CAD
:107B900000F03F00908040F227752946204602F011
:107BA00041F900280CD002F04BFC02F075FC0128D2
:107BB00006D129462046BDE87040012202F0BCB93A
:107BC00070BD0000004400407800002070B50446FD
:107BD0000C480D46044200D124B940F269410AA084
:107BE00003F06CF8104E4DB1012D04D040F26A4103
:107BF00005A003F063F8F069204301E0F069A043B9
:107C0000F06170BD003601812E2E5C4C696272619C
:107C100072795C7372635C73746D33326631307881
:107C20005F7263632E6300000010024070B504466B
:107C30000C480D46044200D124B940F2C3410AA0C9
:107C400003F03CF8104E4DB1012D04D040F2C44178
:107C500005A003F033F83069204301E03069A04308
:107C6000306170BD003601812E2E5C4C69627261FC
:107C700072795C7372635C73746D33326631307821
:107C80005F7263632E6300000010024070B504460B
:107C90000C480D46044200D124B940F24A410AA0E2
:107CA00003F00CF8104E4DB1012D04D040F24B41C1
:107CB00005A003F003F8B069204301E0B069A043D8
:107CC000B06170BD0200C0FF2E2E5C4C6962726113
:107CD00072795C7372635C73746D333266313078C1
:107CE0005F7263632E6300000010024070B50446AB
:107CF0000C480D46044200D124B940F2A4410AA028
:107D000002F0DCFF104E4DB1012D04D040F2A54130
:107D100005A002F0D3FFF068204301E0F068A04323
:107D2000F06070BD0200C0FF2E2E5C4C6962726173
:107D300072795C7372635C73746D33326631307860
:107D40005F7263632E630000001002400C480168FC
:107D500041F00101016041680A4A11404160016837
:107D6000094A11400160016821F4802101604168E5
:107D700021F4FE0141604FF41F0181607047000053
:107D8000001002400000FFF8FFFFF6FE214A10B588
:107D90005168214B11F00C0103D0042901D00829AE
:107DA00001D0036012E05168536801F470114FF084
:107DB000020413F4803F04EB914102D053689B030B
:107DC00001D5164B00E0144B594301605168144B28
:107DD00001F0F00109095C5C0168E1404160546810
:107DE00004F4E064240A1C5D21FA04F484605468FD
:107DF00004F46054E40A1B5DD940C1605268084B2A
:107E000002F44042920B1B1F9A5CB1FBF2F101613C
:107E100010BD00000010024000127A0000093D0071
:107E20000400002070B500250446212818D0312C0C
:107E300016D0392C14D0412C12D0612C10D07A2CB1
:107E40000ED07B2C0CD07C2C0AD07D2C08D07E2C24
:107E500006D07F2C04D040F234510BA002F02EFF4C
:107E60006009114901280BD002280BD0486A04F0A0
:107E70001F0101228A40024200D00125284670BD20
:107E80000868F4E7086AF2E72E2E5C4C69627261BA
:107E900072795C7372635C73746D333266313078FF
:107EA0005F7263632E630000001002400248406866
:107EB00000F00C00704700000010024010B50400F4
:107EC00014D0802C12D0902C10D0A02C0ED0B02C1E
:107ED0000CD0C02C0AD0D02C08D0E02C06D0F02C2E
:107EE00004D04FF4197105A002F0E8FE0B49486870
:107EF00020F0F0002043486010BD00002E2E5C4CA6
:107F00006962726172795C7372635C73746D33322F
:107F1000663130785F7263632E63000000100240A8
:107F200010B5040006D0012C04D040F2651103A066
:107F300002F0C4FE0948046010BD00002E2E5C4C07
:107F40006962726172795C7372635C73746D3332EF
:107F5000663130785F7263632E6300000000424236
:107F600010B5040008D0012C06D0042C04D04FF426
:107F7000507109A002F0A2FE0F480021017000F824
:107F80002019012C05D0042C02D1052180F82010E5
:107F900010BD0121FAE700002E2E5C4C696272616F
:107FA00072795C7372635C73746D333266313078EE
:107FB0005F7263632E6300002010024010B504005E
:107FC00010D0B4F5806F0DD0B4F5A06F0AD0B4F521
:107FD000C06F07D0B4F5E06F04D040F27E2105A059
:107FE00002F06CFE0B49486820F4E06020434860D2
:107FF00010BD00002E2E5C4C6962726172795C7358
:1080000072635C73746D3332663130785F726363B0
:108010002E6300000010024010B5040010D0B4F52B
:10802000806F0DD0B4F5A06F0AD0B4F5C06F07D043
:10803000B4F5E06F04D04FF4267105A002F03EFEC7
:108040000B49486820F4605040EAC400486010BD05
:108050002E2E5C4C6962726172795C7372635C7320
:10806000746D3332663130785F7263632E63000063
:108070000010024010B5040006D0012C04D04FF4CB
:10808000CA7103A002F01AFE0948046610BD000080
:108090002E2E5C4C6962726172795C7372635C73E0
:1080A000746D3332663130785F7263632E63000023
:1080B0000000424270B505000C460AD0B5F5803F7D
:1080C00007D0B5F5403F04D040F27F111DA002F06B
:1080D000F5FD74B3B4F5802F2BD0B4F5002F28D064
:1080E000B4F5402F25D0B4F5801F22D0B4F5A01FE1
:1080F0001FD0B4F5C01F1CD0B4F5E01F19D0B4F5E3
:10810000001F16D0B4F5101F13D0B4F5201F10D0E7
:10811000B4F5301F0DD0B4F5401F0AD0B4F5501F90
:1081200007D0B4F5601F04D04FF4C07105A002F071
:10813000C5FD0C494868254320F47C1005434D607B
:1081400070BD00002E2E5C4C6962726172795C73A6
:1081500072635C73746D3332663130785F7263635F
:108160002E6300000010024010B5040008D0012C5E
:1081700006D0022C04D04FF40E7105A002F09EFD33
:108180000B49486820F003002043486010BD000000
:108190002E2E5C4C6962726172795C7372635C73DF
:1081A000746D3332663130785F7263632E63000022
:1081B0000010024010B5040006D0012C04D040F29B
:1081C000DB2103A002F07AFD0948046010BD000025
:1081D0002E2E5C4C6962726172795C7372635C739F
:1081E000746D3332663130785F7263632E630000E2
:1081F000D80042427CB5344D0446344E287810B144
:1082000001280CD053E056F82400A1FB0013C5E967
:108210000613A2FB0010C5E9081001202870686849
:108220002B4958B1E86840220144812002F0F4F85B
:10823000686840386860E86840301AE056F8240002
:1082400080B2CDE90010D5E906232046FEF7FEFEF8
:1082500010F0FF0F03D0687840F0080068704022EB
:108260001B49812002F0D8F856F824004038686095
:108270004020E8604021012000F076FD30210120FF
:1082800000F080FDD5E906014022821841F100008E
:10829000C5E90620D5E908026FF03F01411842F117
:1082A000FF30C5E908100B48816840398160D5E985
:1082B0000801084307D16860E860C5E90600064A7E
:1082C0000321117028707CBD380100202801002096
:1082D0002427002084370020F001002070B5184CBE
:1082E0001A4454F82040A2420DD92A2902D1022072
:1082F000FCF74EFC0020FCF74BFC124A0521212024
:108300009170107311E0114D0F4C55F82000A268C8
:108310005843824211D02A290DD00020FCF738FCA6
:10832000607B2422052100F0BDFD0021012000F02A
:1083300099FD002070BD0220F0E7012070BD000013
:108340002C010020C90100206437002028010020F2
:1083500010B5FEF75BFE00280ED008483A22022135
:10836000407B00F09FFD0121084600F07BFDBDE849
:1083700010400020FCF70CBC10BD0000643700204A
:1083800008490A7CD20702D00748052105E030B130
:108390000648C97C242900D9242101F0F5BB0448F2
:1083A000F7E70000643700207001002099010020E9
:1083B0007501002010B50B4CA06810B1207B0006A1
:1083C00001D5002000E00220FCF7E2FB607B2022C8
:1083D000052100F067FD0021BDE81040012000F0FC
:1083E00041BD0000643700200821014801F0CCBBEA
:1083F000C10100200421014801F0C6BBBD010020DD
:108400002DE9F041164C80460D462078164630B1D5
:10841000022823D14046BDE8F041FFF7EBBE114FE3
:1084200013460A46787B2821FFF758FF002815D00D
:10843000387B00064FF0020003D5207032462946F3
:10844000E8E7FCF7A5FB787B2422052100F02AFD54
:10845000BDE8F0410121084600F004BDBDE8F0810F
:10846000F00100206437002010B50446FEF7CEFD71
:1084700070B115483A220221407B00F013FD012122
:10848000084600F0EFFCBDE810400020FCF780BB80
:108490000E480F4950F82420521E100E0870100C80
:1084A0004870100A88700B48CA7050F82400020EF9
:1084B0000A71020C4A71020A8A71C871BDE8104043
:1084C0000821034801F060BB643700202C01002024
:1084D000DB0100202801002010B50446FEF796FDC0
:1084E00070B114483A220221407B00F0DBFC0121EC
:1084F000084600F0B7FCBDE810400020FCF748BB80
:108500000D480E4950F82420100E0871100C4871C7
:10851000100A88710A48CA7150F82400020C4A7285
:10852000020A8A72C872BDE810400C21034801F0AB
:108530002BBB0000643700202C010020E301002049
:10854000280100200348C17C122900D912210248C9
:1085500001F01ABB64370020C9010020012100206E
:1085600000F080BC10B5FEF751FD70B10A483A2208
:108570000221407B00F096FC0121084600F072FCCD
:10858000BDE810400020FCF703BB0121BDE810400E
:10859000002000F067BC00006437002010B50B4CD1
:1085A000A06828B9207C400702D40121002009E0FE
:1085B0000220FCF7EDFA607B2422052100F072FC1A
:1085C00000210120BDE8104000F04CBC64370020C1
:1085D00070B5174D13462A7832B1012A26D1BDE86D
:1085E00070401A4601F08ABF124C0A462A21607B6D
:1085F000FFF774FE002819D0207B000608D4012064
:108600002870BDE870404FF44051022000F072BB6A
:108610000020FCF7BDFA607B2422052100F042FC1B
:10862000BDE870400021012000F01CBC70BD0000BE
:10863000F00100206437002010B516210648FBF732
:10864000BBFDFDF78FF9054948600146BDE81040C4
:1086500003A001F0D9BF0000441300201C0000203B
:10866000696E69743A20746F74616C5F6974656DCA
:1086700073203D20256C640A0000000010B50246FE
:108680001E48052A17D2DFE802F00306090C0F0086
:108690000988418111E0098881810EE00988C18142
:1086A0000BE00988018208E00B68C0F802304968D5
:1086B000C0F8061001E0052A04D2817C0123934012
:1086C00019438174817C41F0120181741F2912D1F8
:1086D0000B4CA068FEF78AFF68B14FF47A70FEF782
:1086E0008FFFA060FEF77CFF014606A001F08CFF23
:1086F00010A000F0C5F8002010BD000044130020B9
:108700001C000020726561647920746F20776972A3
:108710007465206461746120706F696E7420746F79
:108720002066696C652C207469636B203D20256C84
:10873000640A000073656E736F725F646174612E0A
:10874000747874002DE9F04F168885B004000F4648
:10875000154656D0002F54D0002D52D0FEF740FFC2
:108760004FF06408B0FBF8F0DFF8A89000903846AE
:1087700029A23146D9F8043001F056FF218A86B289
:10878000B1FBF8F2288808FB1218801B1FFA80FE44
:10879000E0890A21B0FBF1F201FB120202F1300A7A
:1087A0004FF47A72B0FBF2F302FB1300B0FBF1FC62
:1087B000A089B0FBF2F102FB11016089CDE902CA88
:1087C000B0FBF2F302FB130B42F21073B0FBF3F4B5
:1087D00003FB1400B0FBF2F3CDE900B13033B8195C
:1087E00011A2CDF81080714601F01EFFD9F80410D7
:1087F0003044491CC9F804102880002005B0BDE8A9
:10880000F08F542310A2002114A001F0FDFE0120DE
:10881000F4E700001C0000205B253035645D20205B
:10882000256C64207320200025632E2530336420BE
:1088300020253364202020202533642E256320202A
:1088400025326425250D0A002E2E5C557365725C59
:108850007372635C534452522E6300006572726FF0
:1088600072203D2025642C2066696C65203D202502
:10887000732C206C696E65203D2025640A00000081
:108880002DE9F8431D4D80461D4E28880027C0F570
:108890008051ADF8001031186A4606F58050FFF798
:1088A00051FF04462888BDF80020104480B2C0F56E
:1088B000805189B2288091421DD206F6FE740229A9
:1088C00007D930444FF02002A1F10201FBF76DFC03
:1088D00000E005D14FF002020AA12046FBF78EFC12
:1088E00007494046FDF76CFA04464FF480510448AE
:1088F000FBF762FC2F802046BDE8F8831C000020B7
:10890000440300200D0A000070B504460F480D46D0
:1089100084420AD00E48844207D00E48844204D0D4
:1089200040F29A210CA002F0C9F955B1012D04D0F2
:1089300040F29B2108A002F0C1F9208840F40050C9
:1089400002E0208820F40050208070BD00300140FB
:1089500000380040003C00402E2E5C4C6962726181
:1089600072795C7372635C73746D33326631307824
:108970005F7370692E63000070B504460F480D46A2
:1089800084420AD00E48844207D00E48844204D064
:108990004FF4D7710CA002F091F955B1012D04D01C
:1089A00040F2AF1108A002F089F9208840F04000A1
:1089B00002E0208820F04000208070BD003001409F
:1089C00000380040003C00402E2E5C4C6962726111
:1089D00072795C7372635C73746D333266313078B4
:1089E0005F7370692E6300002DE9F041174D184E3A
:1089F000184F0446A84207D0B44205D0BC4203D069
:108A00007A2115A002F05AF9AC420AD101210C03D7
:108A10002046FFF76BF92046BDE8F0410021FFF743
:108A200065B9B44202D101218C0303E0BC420AD1F2
:108A30000121CC032046FFF7F9F82046BDE8F041BC
:108A40000021FFF7F3B8BDE8F081000000300140DD
:108A500000380040003C00402E2E5C4C6962726180
:108A600072795C7372635C73746D33326631307823
:108A70005F7370692E63000070B5054615480026C7
:108A80000C4685420AD01448854207D013488542D7
:108A900004D040F2023112A002F010F9802C12D062
:108AA000402C10D0202C0ED0102C0CD0082C0AD02A
:108AB000042C08D0022C06D0012C04D040F2033143
:108AC00007A002F0FBF82889204200D0012630469A
:108AD00070BD00000030014000380040003C004004
:108AE0002E2E5C4C6962726172795C7372635C7386
:108AF000746D3332663130785F7370692E630000B5
:108B000070B5054642480C46854209D04148854229
:108B100006D04148854203D0A32140A002F0CEF800
:108B2000208860B1B0F5806F09D0B0F5004F06D055
:108B3000B0F5404F03D0A62138A002F0BFF86088FE
:108B4000B0F5827F04D018B1A72134A002F0B6F8A6
:108B5000A088B0F5006F04D018B1A8212FA002F0B2
:108B6000ADF8E08828B1022803D0A9212BA002F09B
:108B7000A5F8208928B1012803D0AA2127A002F056
:108B80009DF86089B0F5007F04D018B1AB2123A017
:108B900002F094F8A08988B108280FD010280DD0D1
:108BA00018280BD0202809D0282807D0302805D035
:108BB000382803D0AC2119A002F080F8E08928B150
:108BC000802803D0AD2115A002F078F8208A18B9CA
:108BD000AE2112A002F072F8288821886288E3880A
:108BE0001143A28800F441501A43114322891143D2
:108BF00062891143A2891143E2891143014329800B
:108C0000A88B20F40060A883208A288270BD000011
:108C10000030014000380040003C00402E2E5C4CEB
:108C20006962726172795C7372635C73746D333202
:108C3000663130785F7370692E6300007047000002
:108C4000024920F00700086070470000505C0040B7
:108C5000F0B50E490E4E48F68F770D78002148F298
:108C6000800C0AE0CAB206EB82031C68A4B23C4046
:108C7000144344EA0C041C60491CA942F2D3044981
:108C800040F080004C310860F0BD0000C0020020C0
:108C9000005C0040054A21F00101126892B202EB2B
:108CA000C000034A02EB400081607047505C004006
:108CB000006000400D4A12683E2992B202EBC000EB
:108CC0000B4A02EB400209D94809C90601D1401EEE
:108CD00080B24FF4004141EA802005E04808C9070E
:108CE00001D0401C80B2800210607047505C004090
:108CF0000C6000400A4A02EB800210684BF68F734A
:108D000080B200EA0300CB0401D580F480508904CE
:108D100001D580F4005048F280010843106070478C
:108D2000005C0040074901EB800001684BF68F7240
:108D300089B2114081F4405148F280021143016030
:108D400070470000005C0040054A21F001011268F4
:108D500092B202EBC000034A42F8101070470000C4
:108D6000505C004000600040044A126892B202EB7E
:108D7000C000034A02EB400041607047505C004075
:108D8000006000400A4A02EB8002106848F6BF7398
:108D900080B200EA0300CB0601D580F010008906FE
:108DA00001D580F0200048F2800108431060704730
:108DB000005C0040054A02EB8000026848F68F1311
:108DC00092B21A400A43026070470000005C004003
:108DD000224900200A6842F480320A604FF4A063FE
:108DE0000A6800F1010012F4003F01D19842F7D166
:108DF0000868800330D51A48026842F01002026009
:108E0000026822F003020260026842F0020202607D
:108E10004868486048684860486840F48060486036
:108E2000486820F47C104860486840F4E8104860C6
:108E3000086840F08070086008688001FCD54868C8
:108E400020F003004860486840F00200486048682D
:108E5000C0F381000228FAD17047000000100240E0
:108E60000020024010B50D4A0C460B4911601073EA
:108E70000D220A49812001F0CFFA09480521002C72
:108E8000017007D0042101703021BDE8104001209D
:108E9000FFF778BF10BD00005553425384370020C0
:108EA000F00100200148817002737047C901002061
:108EB00070B516480068174D81B2154800EB4101A6
:108EC000896889B200EB41042868017A09290FD02A
:108ED0002178017061784170A088FBF773FE2968E2
:108EE00048802089FBF76EFE29688880A089C880A9
:108EF000286801210172C08828B1FCF7EFF9BDE8AC
:108F00007040FEF7E7BDFEF701FBF8E7505C00405C
:108F100000600040F40200202DE9F041344801686F
:108F2000087810F07F0002D0022805D05EE0487A71
:108F300000F0DF00487247E04888002856D10879E1
:108F4000002853D14A792C4D22F080001306294C79
:108F500055F8203003D5C3F301131B0102E0C3F31E
:108F600001331B032678044686423FD97BB3897AB6
:108F700069B311060ED555F82010C1F3011101296E
:108F80001ED1E0B20446FBF7F9FF30212046FFF77F
:108F9000F9FE15E005EB80042168C1F301310129D8
:108FA0000ED14BF68F7648F2800788B1C0B2FBF73E
:108FB000D3FF206880B2304080F4405038432060B6
:108FC0000E480068406980470020BDE8F0810DE050
:108FD0000B4890F82C100020FFF76CFE286880B238
:108FE000304080F4405038432860E9E70220ECE745
:108FF000F4020020C0020020005C0040FC020020BF
:109000006802002010B5074C30B1074800680068BE
:10901000804720680A3010BD2168012008820020A6
:1090200010BD0000F4020020FC020020054A136875
:109030005A8A10B10868104470478888801A1882CC
:1090400000207047F402002010B5074C30B10748EB
:1090500000688068804720680C3010BD21680120BE
:109060000882002010BD0000F4020020FC02002055
:109070001F4910B5096860B11E48002202800A78B5
:1090800053060AD002F07F02012A16D0022A16D017
:1090900001E002200882002010BD497A8A06027889
:1090A00002D542F0020201E002F0FD024906027020
:1090B000D1B210D401F0FE010FE00E4810BD4A7984
:1090C00002F00F0113060C4A52F8211007D5C1F324
:1090D000011106E0017841F00101017003E0C1F3E4
:1090E00001310129F6D00548006800698047E4E7AE
:1090F000F4020020EE020020005C0040FC02002090
:109100000A4810B500680A4AC1785278914203D8DB
:1091100082780AB982880AB1022010BD817205489E
:10912000006840688047002010BD0000F402002065
:10913000C0020020FC020020064810B50068417AF9
:1091400041F02001417204480068C0698047002056
:1091500010BD0000F4020020FC02002070B51C4885
:1091600002681C48517921F0800500EB85000B0650
:10917000036821F0800403D5C3F301131B0102E04F
:10918000C3F301331B03144D2D78A54211D9548824
:109190007CB973B1927A62B109060029016848F27C
:1091A000800289B207DA48F6BF73194081F01001D6
:1091B00006E0022070BD4BF68F73194081F4805198
:1091C000114301600548006880698047002070BD38
:1091D000F4020020005C0040C0020020FC020020DD
:1091E00010B50E4C0E4A20681268C1789269407919
:1091F000904721688A7A22B118B9087908B9887825
:1092000008B1022010BD07480068C0688047206888
:109210004179C172C1780173002010BDF4020020B1
:10922000F8020020FC02002010B5FEF78FFD01209F
:10923000FEF776FE2120FEF7F5FD0028FAD010207B
:10924000FCF714FE0220FCF739FE0020FEF736FE84
:109250000020FEF7E1FE4FF48060FEF7AFFE4FF412
:1092600020110020FEF726FF0120FEF703FF392022
:10927000FEF7D8FD0028FAD00220FEF775FFFEF7B2
:1092800015FE0828FBD103490148086010BD000005
:10929000006CDC0294000020AFF3008003484168BA
:1092A000491C41600121017070470000140000203A
:1092B0000B4864210068B0FBF1F0B0F1807F0DD263
:1092C00020F07F414FF0E020491E4161054AF02126
:1092D000117000218161072101617047FEE70000E4
:1092E0009400002023ED00E0034610B50020024664
:1092F00002E09C5C521C20448A42FAD310BD342008
:10930000122801D000207047012070470F4810B587
:10931000016841F00101016041680D4A114041605E
:1093200001680C4A11400160016821F4802101604C
:10933000416821F4FE0141604FF41F018160FFF795
:1093400047FD05494FF00060086010BD0010024065
:109350000000FFF8FFFFF6FE08ED00E070B50446E0
:1093600024480D46844234D0B4F1804F31D0224895
:1093700084422ED0214884422BD02148844228D0D8
:109380002048844225D02048844222D01F4884426D
:109390001FD01F4884421CD01E48844219D01E484A
:1093A000844216D01D48844213D01D48844210D0F8
:1093B0001C4884420DD01C4884420AD01B48844279
:1093C00007D01B48844204D040F2293119A001F093
:1093D00075FC55B1012D04D040F22A3115A001F0E1
:1093E0006DFC208840F0010002E0208820F00100A0
:1093F000208070BD002C01400004004000080040A7
:10940000000C0040001000400014004000340140F7
:10941000004C014000500140005401400018004041
:10942000001C00400020004000400140004401407A
:10943000004801402E2E5C4C6962726172795C7347
:1094400072635C73746D3332663130785F74696D4A
:109450002E6300002DE9F05F444FDFF81481DFF840
:109460001491DFF814A1DFF814B1454E04460D46FF
:10947000B8422ED0B4F1804F2BD0444529D04C4572
:1094800027D0544525D05C4523D03E48844220D087
:10949000B4421ED03C4884421BD03C48844218D081
:1094A0003B48844215D03B48844212D03A4884421B
:1094B0000FD03A4884420CD03948844209D0394808
:1094C000844206D03848844203D0E72137A001F017
:1094D000F5FB688858B1102809D0202807D040280B
:1094E00005D0602803D0E82130A001F0E7FBE88830
:1094F00048B1B0F5807F06D0B0F5007F03D0E921F8
:109500002AA001F0DBFB2088BC420AD0B44208D07C
:10951000B4F1804F05D0444503D04C4501D05445AB
:1095200003D120F07001688808435C4506D01549D6
:109530008C4203D020F44071E88808432080A8883A
:10954000A08528882085BC420AD0B44208D014489F
:10955000844205D01348844202D01348844201D18A
:10956000287A20860120A082BDE8F09F002C0140CF
:109570000004004000080040000C004000100040C3
:109580000034014000140040004C014000500140F4
:109590000054014000180040001C00400020004022
:1095A0000040014000440140004801402E2E5C4C28
:1095B0006962726172795C7372635C73746D333269
:1095C000663130785F74696D2E6300004FF6FF716D
:1095D000818000210180C1804180017270472DE9A6
:1095E000F0410E46044600210846FDF71DFA6427A7
:1095F000B4FBF7F007FB10400A25B0FBF5F0303064
:10960000FDF76AFAB4FBF5F005FB10403030FDF7CA
:1096100063FA0A210020FDF707FAB6FBF7F007FB13
:109620001060B0FBF5F03030FDF756FAB6FBF5F000
:1096300005FB1060BDE8F0413030FDF74DBA000089
:109640002DE9F05FFDF7CCFF6421B0FBF1F7374C5B
:10965000A589DFF8DC8098F8000030B1FDF7C0FF85
:10966000A289014633A000F0CFFF3A49012031F82A
:10967000102001EB400323F8022C401CC0B212283A
:10968000F5D34D84A078401CA070E0780126002519
:109690000028DFF8C490DFF8C4B0A0784FF0663A35
:1096A0001BD0082813D903210F20FBF737FCE081DA
:1096B000E089FAF7E1FF00224B46FAF7F9FE52463D
:1096C0005B46FAF765FFFAF7E4FFA0836671A078BE
:1096D00012281ED3E570A5701BE0032819D3782F3C
:1096E00002D203210F2001E012210020FBF716FC1B
:1096F000E081E089FAF7C0FF00224B46FAF7D8FE76
:1097000052465B46FAF744FFFAF7C3FFA083A57001
:10971000667198F8000020B1A28BE18910A000F0DA
:1097200073FF2571A581BDE8F09F00003400002083
:10973000630000207469636B203D20256C642C203D
:109740006E65775F707062203D2025642075672FFD
:109750006D330A007C13002000003E4066663640F0
:10976000617665725F707062203D2025642C2061F7
:109770007665725F6D617373203D20256420756787
:109780002F6D330A000000002DE9F043664C89B0CC
:109790004FF001082078F0B1012870D1634E022704
:1097A000277030684FF47A7940F00200306027204B
:1097B00001F0A7FC0020FBF7A9FC5C494FF6FF7203
:1097C000002510464FF0040C08390B689B0712D592
:1097D000401EFAD210E0554884F80080001D016850
:1097E00041F00201016009B00022BDE8F04302210E
:1097F0004F4803F03FBE20B10868800777D4104679
:1098000003E084F801C088E000BF0B689B0702D426
:10981000401EF9D200E040B184F801808DF81C5060
:10982000306840F00200306002E0032044E000BFF6
:109830000868800702D5521EF9D201E0002AE0D064
:1098400004A8FBF7F1FB082608B1762304E003A87F
:10985000FBF7EAFB38B1782336A200213BA000F0E9
:10986000D3FE667059E006A8FBF7DEFB08B17A2349
:10987000F2E705A8FBF7D8FB10B17C23ECE74DE03D
:1098800007A8FBF7D1FB08B17E23E5E79DF8103070
:109890009DF80C009DF8186019189DF8147031445B
:1098A00039449DF81C20C9B2914207D08DE8C1000F
:1098B0002F4800F0A9FE062060702EE06068FDF7DA
:1098C00095FEC0B14846FDF79BFE606029480078D0
:1098D00088B1FDF785FE01469DF814209DF818001B
:1098E000CDE900029DF80C309DF8102000E018E052
:1098F00021A000F089FE0C489DF810100C3001707A
:109900009DF80C1041709DF8181081709DF814108E
:10991000C1709DF81C1001716570A57009B0BDE89B
:10992000F0836770F9E7000080000020100C014010
:10993000EC2600202E2E5C4472697665725C737290
:10994000635C44485431312E630000006572726FCD
:1099500072203D2025642C2066696C65203D202501
:10996000732C206C696E65203D2025640A00000080
:109970007CE00008630000207469636B203D2025B3
:109980006C642C20646874206F6B3A20485F482018
:109990003D2025642C20485F4C203D2025642C2050
:1099A000545F48203D2025642C20545F4C203D20EE
:1099B00025640A0038B5124C6078C0B9A068FDF77C
:1099C00015FEA0B1C820FDF71BFEA06004F10C003D
:1099D0006946807800EB80004000ADF8000002206E
:1099E000FEF74CFE04F10C010320FEF747FEFBF7E7
:1099F000A1FBBDE8384000223221024803F03ABD05
:109A00008000002008270020F8B5424C207800266E
:109A100038B12670E07A012825D003F0C3FBFDF7AA
:109A200047FF607900286ED06671E0793A4D60B3E7
:109A3000E671A079E8B1A878208328786083FCF7E4
:109A400015FF2978A878FFF7CAFD34A2032100206A
:109A5000FDF7E4F832A207210020FDF7DFF80C2122
:109A600030A200200EE003F09DFBFDF7D3FEE6726E
:109A7000D7E703F097FBFCF70DFD207AA0B12AA2EF
:109A80000D210120FDF7CAF80EE0A07908B3A878EF
:109A9000218B884203D12978628B914204D02083A4
:109AA00029786183FFF79BFD206AFDF7A9FD50B37C
:109AB000FDF796FD41F27071884224D9A08BADF874
:109AC0000000608A68B1A18B814207D9A18B081A76
:109AD00005E003F067FBFCF799FDE5E70020ADF832
