:020000040800F2
:10000000B8140020210100082F100008E90F000893
:100010002D100008E1030008C719000800000000C7
:10002000000000000000000000000000AD17000804
:10003000E303000800000000311000084119000827
:100040003B0100083B0100083B0100083B010008A0
:100050003B0100083B0100083B0100083B01000890
:100060003B0100083B0100083B0100083B01000880
:100070003B0100083B0100083B0100083B01000870
:100080003B0100083B0100083B0100083B01000860
:100090003B0100083B0100083B0100083B01000850
:1000A0003B0100083B0100083B0100083B01000840
:1000B0003B0100083B0100083B0100083B01000830
:1000C0003B0100083B0100083B0100083B01000820
:1000D0003B010008C1190008C3190008C519000830
:1000E0003B0100083B0100083B010008DFF80CD091
:1000F00000F016F90048004755200008B814002009
:10010000EFF30980704780F309887047EFF30880A8
:10011000704780F30888704740BA7047C0BA70478C
:100120000648804706480047FEE7FEE7FEE7FEE791
:10013000FEE7FEE7FEE7FEE7FEE7FEE771190008CF
:10014000ED00000840EA01039B0703D009E008C95D
:10015000121F08C0042AFAD203E011F8013B00F88C
:10016000013B521EF9D27047D2B201E000F8012BD8
:10017000491EFBD270470022F6E710B50446084638
:10018000114602462046FFF7EFFF204610BD0EB590
:1001900040F2334102910021CDE900110A460B469D
:1001A00000F054F803B000BD30B5002904DB4FF077
:1001B0000044404264EB0101002B04DB4FF000449B
:1001C000524264EB03038B4208BF824230BD000001
:1001D0002DE9F05F0546002092469B46884606467C
:1001E000814640241BE0284641464746224600F00F
:1001F000B8F852465B46801A994110D3104619460A
:10020000224600F09FF82D1A67EB01084F46224660
:100210000120002100F096F817EB00094E41201E46
:10022000A4F10104DFDC484631462A464346BDE8D6
:10023000F09F10B5002B08DA401C41F10001921824
:100240005B411A4301D120F0010010BD2DE9F04DB2
:1002500092469B4611B1B1FA81F202E0B0FA80F207
:100260002032904600F06EF806460F4640EA0A003B
:1002700041EA0B0152465B46084303D130463946FA
:10028000BDE8F08D194652EA010015D0C8F14002D0
:10029000504600F066F804460D4650465946424620
:1002A00000F050F8084301D0012000E00020044392
:1002B00045EAE07526432F430A984FEAD625A0EB7E
:1002C00008000A304FEA46534FF0000245EA47550E
:1002D0004FEAD72402D500200146D1E70105501985
:1002E0006141DDE9084500196941BDE8F04DA0E72D
:1002F00070B521F0004303430CD0C1F30A5400262B
:10030000D4EB060566EB0603D417AD1AA34102DB56
:100310000020014670BD001C41EB025170BD000081
:10032000064C074D06E0E06840F0010394E8070042
:1003300098471034AC42F6D3FFF7DCFE5C2B000884
:100340007C2B0008202A04DB203A00FA02F100206E
:1003500070479140C2F1200320FA03F31943904003
:100360007047202A04DB203A21FA02F0002170476E
:1003700021FA02F3D040C2F120029140084319460D
:100380007047000010B572B600F054FE01F0F0FAAC
:100390000E4C0D48206001F09BFA0D48816941F038
:1003A0003D0181610B4841680B4A1143416020685F
:1003B0004FF4E1324108094801F082F962B6BDE824
:1003C000104002F081B8000000127A000000002006
:1003D0000010024000000140008000020044004084
:1003E000FEE770472DE9F04701274FF002084FF074
:1003F000040900F055FC234E05467068A8433FD021
:1004000000F048FC044670682843706000F09CFBD4
:1004100005467068401C09D064221BA121A001F090
:10042000D3FA7068C04300F011FB0546E043400773
:100430000FD0E00700D10027A00701D44FF000083B
:10044000600701D44FF000094A464146384600F0A3
:10045000FDFC042D04D01FA0BDE8F04701F0B4BAA4
:1004600027A001F0B1FA2E4801F0AEFA2D4801683C
:100470002D4A01F4E06111430160BFF3408FFEE7B4
:100480002AA0E9E71C0000202E2E5C557365725CE3
:100490007372635C463130585F466C6173685F49C4
:1004A000662E6300656E61626C65207772697465A3
:1004B0002070726F74656374696F6E2066696C6515
:1004C000203D2025732C206C696E65203D2025641D
:1004D0000A0000004572726F723A20466C617368C0
:1004E00020777269746520756E70726F74656374BD
:1004F000696F6E206661696C65642E2E2E0D0A0090
:1005000057726974652050726F74656374696F6E99
:100510002064697361626C65642E2E2E0D0A0000E2
:10052000242800080CED00E00400FA05466C617315
:1005300068206D656D6F7279206E6F7420777269B7
:1005400074652070726F7465637465640D0A0000D1
:1005500070B50546002404208A0503D0012202EB71
:10056000912606E08E0A04E005EB842000F02AFBC9
:10057000641CB44202D20428F6D001E0042801D061
:10058000012070BD002070BD70B50B4C042000250B
:1005900020606FF00F00606000F082FB61688143B3
:1005A00004D006A001F010FA012502E00CA001F031
:1005B0000BFA284670BD00001C00002053544D3338
:1005C000324631305820464C4153482057726974A6
:1005D000652050726F74656374696F6E0A00000065
:1005E00053544D33324631305820464C4153482005
:1005F0004E6F2057726974652050726F7465637412
:10060000696F6E0A0000000010B500F013FCBDE831
:100610001040352000F0EAB970B59AB006460C4695
:1006200001F04EFF05461CB3320B314614A001F019
:10063000CBF96B4664223146284601F05BFF5C2112
:10064000684601F089F90546642269462046FFF7AD
:1006500079FDE26DAA4203D1206EC04382420DD0E3
:1006600029461048236E01F0AFF901201AB070BD81
:100670004FF487730CA2002112A0F4E70020F5E7E5
:100680007265616420666C61736841646472203DC8
:1006900020307825782C20736563746F72203D209C
:1006A00025640A00702800082E2E5C557365725C64
:1006B0007372635C463130585F466C6173685F49A2
:1006C000662E63006572726F72203D2025642C20B7
:1006D00066696C65203D2025732C206C696E652051
:1006E0003D2025640A0000002DE9F04300259BB061
:1006F0002F4601F0E5FE81462A48199000262AA0DF
:1007000001F062F969464FF48020FFF785FF50B190
:1007100040F22F1328A200212EA001F055F901204C
:100720001BB0BDE8F08334A001F04EF91198119987
:100730008008890700D0401C8400FFF765FF214630
:100740001998FFF705FF4FF480581FE04246944286
:1007500003D3A4F58054454602E00CB1254600249D
:1007600031032B4B484601F0C5FEAA08284919A8B9
:1007700000F08CF828B10127394626A001F024F9B1
:1007800006E021462AA001F01FF9761C002CDDD1DD
:1007900000F08CFA27B921462CA0119A01F014F927
:1007A0003846BDE7004000087374617274207570AC
:1007B00067726164650A00002E2E5C557365725C79
:1007C0007372635C463130585F466C6173685F4991
:1007D000662E63006572726F72203D2025642C20A6
:1007E00066696C65203D2025732C206C696E652040
:1007F0003D2025640A000000636865636B20757006
:1008000067726164652070617261206F6B0A00001D
:10081000B800002075706772616465206572726F40
:10082000722C20726573203D2025640A00000000B0
:1008300070726F206E6578742C20616C69676E53DE
:10084000697A65203D2025640A00000070726F6798
:1008500072616D6D20737563636573732C20616CB9
:1008600069676E53697A65203D20256C6420427962
:100870007465732C2066696C6553697A65203D2028
:10088000256C642042797465730D0A002DE9F041EE
:1008900005460E4617460024DFF83C8015E056F862
:1008A0002410286800F040FA042802D00120BDE896
:1008B000F081286856F824100068884201D0022090
:1008C000F5E72868001D2860641CBC4202D2296834
:1008D0004145E4D90020EAE7FBFF01082DE9F0419A
:1008E00006460F4601F0ECFD184C0546002F23D0BC
:1008F000320B314616A001F067F8642239462046D3
:10090000FFF720FC5C21204601F026F8C243C4E931
:100910001702014618A001F057F84FF48054224600
:100920003146284601F059FD224631462846BDE8A9
:10093000F041064B01F0E2BEF7231CA2002122A0E9
:1009400001F042F80120BDE8F0810000B80000206D
:10095000777269746520666C6173684164647220A3
:100960003D20307825782C20736563746F72203DAC
:100970002025640A00000000666C6173684174748D
:100980007220636865636B53756D203D2030782558
:10099000782C20636865636B53756D496E7665725C
:1009A0007365203D20307825780A00002E2E5C5596
:1009B0007365725C7372635C463130585F466C617C
:1009C00073685F49662E63006572726F72203D2006
:1009D00025642C2066696C65203D2025732C206CD5
:1009E000696E65203D2025640A00000010B50446AC
:1009F00030F0350000D124B940F2B65102A001F028
:100A0000F9F91148C46010BD2E2E5C4C6962726108
:100A1000726965735C53544D3332463130785F539D
:100A200074645065726970685F4472697665725C5F
:100A30007372635C73746D3332663130785F666CE9
:100A40006173682E63000000002002402DE9F0472A
:100A5000040004D140F2D63127A001F0CBF9E043E5
:100A6000C4B2C0F30725C0F30746070E4FF4005980
:100A7000484600F053FA04283BD1DFF8C0802E4AE4
:100A8000C8F808202E4AC8F80820D8F8102042F0EC
:100A90001002C8F81020FF2C06D02A4804804846CF
:100AA00000F03CFA04281BD1FF2D07D02548801CFC
:100AB0000580484600F032FA042811D1FF2E07D0F5
:100AC0002048001D0680484600F028FA042807D177
:100AD000FF2F07D01B48801D0780484600F01EFAF4
:100AE000052806D0D8F8102041F6EF731A40C8F850
:100AF0001020BDE8F08700002E2E5C4C6962726108
:100B0000726965735C53544D3332463130785F53AC
:100B100074645065726970685F4472697665725C6E
:100B20007372635C73746D3332663130785F666CF8
:100B30006173682E630000002301674500200240B6
:100B4000AB89EFCD08F8FF1F70B5A52500F098F828
:100B500000B100254FF43026304600F0DFF90428BC
:100B600027D1154C1348A0601448A060206940F0BC
:100B700020002061206940F040002061304600F0F4
:100B8000CDF941F6EF7604280ED1206941F6DF71E8
:100B900008402061206940F010002061084805806D
:100BA0004FF4005000F0BAF9052802D02169314015
:100BB000216170BD2301674500200240AB89EFCD64
:100BC00000F8FF1F70B505461149A0F1006088428A
:100BD00004D340F2A7110FA001F00CF94FF4302616
:100BE000304600F09BF9042811D11A4C206940F0DE
:100BF000020020616561206940F0400020613046BC
:100C000000F08CF9216941F6FD721140216170BD3F
:100C1000FFFF0F002E2E5C4C696272617269657372
:100C20005C53544D3332463130785F5374645065B1
:100C3000726970685F4472697665725C7372635C36
:100C400073746D3332663130785F666C6173682E11
:100C5000630000000020024008490420CA68D2074F
:100C600001D001207047CA68520701D502207047A1
:100C7000C968C906FBD50320704700000020024068
:100C800003490020C969890700D501207047000089
:100C9000002002400148C0698008704700200240DF
:100CA0000148006A704700000020024002480169C4
:100CB00041F08001016170470020024010B50446F8
:100CC000102805D024B140F22F1106A001F092F8AF
:100CD0001448016821F0100101600168214301609E
:100CE00010BD00002E2E5C4C6962726172696573E2
:100CF0005C53544D3332463130785F5374645065E1
:100D0000726970685F4472697665725C7372635C65
:100D100073746D3332663130785F666C6173682E40
:100D200063000000002002402DE9F0410E46044619
:100D30001349A0F10060884204D340F2AF2111A012
:100D400001F058F84FF40057384600F0E7F804284F
:100D500014D11C4D286940F0010028612680B84656
:100D6000384600F0DBF8BF1E042804D1300C608048
:100D7000404600F0D3F8296939402961BDE8F08187
:100D8000FFFF0F002E2E5C4C696272617269657301
:100D90005C53544D3332463130785F537464506540
:100DA000726970685F4472697665725C7372635CC5
:100DB00073746D3332663130785F666C6173682EA0
:100DC000630000000020024010B5040008D0012C90
:100DD00006D0022C04D040F2031105A001F00AF85D
:100DE0001349086800F038002043086010BD000077
:100DF0002E2E5C4C69627261726965735C53544D4E
:100E00003332463130785F5374645065726970686C
:100E10005F4472697665725C7372635C73746D3380
:100E200032663130785F666C6173682E6300000053
:100E30000020024003480249416003494160704775
:100E40002301674500200240AB89EFCD2DE9F04139
:100E500005460C461646012805D025B140F26341EF
:100E60001AA000F0C7FF022C05D024B140F2644163
:100E700016A000F0BFFF042E05D026B140F2654158
:100E800012A000F0B7FF224F2048B8602148B86098
:100E90004FF40058404600F041F8042813D1386957
:100EA00040F01000386134431B482C4344F0F801F3
:100EB0000180404600F032F8052804D0396941F637
:100EC000EF7211403961BDE8F08100002E2E5C4CBC
:100ED00069627261726965735C53544D3332463195
:100EE00030785F5374645065726970685F447269EA
:100EF0007665725C7372635C73746D333266313025
:100F0000785F666C6173682E63000000230167459B
:100F100000200240AB89EFCD02F8FF1F00B5034669
:100F2000FFF79AFE02E0FFF797FE5B1E012803D051
:100F3000002B00D1052000BD002BF4D1FAE7000002
:100F400070B5044611480D46844216D010488442BC
:100F500013D01048844210D00F4884420DD00F485F
:100F600084420AD00E48844207D00E48844204D0FE
:100F700040F269110CA000F03DFF25B94FF4B571A6
:100F800009A000F037FF256170BD00000008014096
:100F9000000C014000100140001401400018014005
:100FA000001C0140002001402E2E5C4C69627261E1
:100FB000726965735C53544D3332463130785F53F8
:100FC00074645065726970685F4472697665725CBA
:100FD0007372635C73746D3332663130785F67703F
:100FE000696F2E6300000000FEE700000C4910B599
:100FF00008680C4A1040B0F1005F0FD172B6486823
:10100000094C60606068A060002080F31488086864
:10101000FFF77FF8A068BDE81040004710BD000052
:10102000004000080000FE2FA4000020FEE77047EB
:10103000704700000C48016841F0010101604168FF
:101040000A4A114041600168094A11400160016883
:1010500021F480210160416821F4FE0141604FF4D8
:101060001F01816070470000001002400000FFF87F
:10107000FFFFF6FE70B500250446212818D0312C5C
:1010800016D0392C14D0412C12D0612C10D07A2CCF
:101090000ED07B2C0CD07C2C0AD07D2C08D07E2C42
:1010A00006D07F2C04D040F234510BA000F0A2FEF9
:1010B0006009184901280BD002280BD0486A04F0B7
:1010C0001F0101228A40024200D00125284670BD3E
:1010D0000868F4E7086AF2E72E2E5C4C69627261D8
:1010E000726965735C53544D3332463130785F53C7
:1010F00074645065726970685F4472697665725C89
:101100007372635C73746D3332663130785F72630F
:10111000632E6300001002400248406800F00C009B
:10112000704700000010024010B5040014D0802C5D
:1011300012D0902C10D0A02C0ED0B02C0CD0C02CE3
:101140000AD0D02C08D0E02C06D0F02C04D04FF4DC
:10115000197105A000F04EFE1249486820F0F00019
:101160002043486010BD00002E2E5C4C6962726105
:10117000726965735C53544D3332463130785F5336
:1011800074645065726970685F4472697665725CF8
:101190007372635C73746D3332663130785F72637F
:1011A000632E63000010024010B5040006D0012C2D
:1011B00004D040F2651103A000F01CFE104804604A
:1011C00010BD00002E2E5C4C6962726172696573FD
:1011D0005C53544D3332463130785F5374645065FC
:1011E000726970685F4472697665725C7372635C81
:1011F00073746D3332663130785F7263632E6300CF
:101200000000424210B5040010D0B4F5806F0DD03C
:10121000B4F5A06F0AD0B4F5C06F07D0B4F5E06F95
:1012200004D040F27E2105A000F0E4FD1249486898
:1012300020F4E0602043486010BD00002E2E5C4C7E
:1012400069627261726965735C53544D3332463121
:1012500030785F5374645065726970685F44726976
:101260007665725C7372635C73746D3332663130B1
:10127000785F7263632E63000010024010B50400B3
:1012800010D0B4F5806F0DD0B4F5A06F0AD0B4F5CE
:10129000C06F07D0B4F5E06F04D04FF4267105A0FD
:1012A00000F0A8FD1249486820F4605040EAC400EC
:1012B000486010BD2E2E5C4C696272617269657364
:1012C0005C53544D3332463130785F53746450650B
:1012D000726970685F4472697665725C7372635C90
:1012E00073746D3332663130785F7263632E6300DE
:1012F0000010024010B5040006D0012C04D04FF4B9
:10130000CA7103A000F076FD1048046610BD00000D
:101310002E2E5C4C69627261726965735C53544D28
:101320003332463130785F53746450657269706847
:101330005F4472697665725C7372635C73746D335B
:1013400032663130785F7263632E63000000424280
:1013500070B505000C460AD0B5F5803F07D0B5F54D
:10136000403F04D040F27F111DA000F043FD74B354
:10137000B4F5802F2BD0B4F5002F28D0B4F5402F32
:1013800025D0B4F5801F22D0B4F5A01F1FD0B4F52E
:10139000C01F1CD0B4F5E01F19D0B4F5001F16D043
:1013A000B4F5101F13D0B4F5201F10D0B4F5301FC2
:1013B0000DD0B4F5401F0AD0B4F5501F07D0B4F5D6
:1013C000601F04D04FF4C07105A000F013FD134955
:1013D0004868254320F47C1005434D6070BD000033
:1013E0002E2E5C4C69627261726965735C53544D58
:1013F0003332463130785F53746450657269706877
:101400005F4472697665725C7372635C73746D338A
:1014100032663130785F7263632E630000100240E1
:1014200010B5040008D0012C06D0022C04D04FF4D3
:101430000E7105A000F0DEFC1249486820F00300A0
:101440002043486010BD00002E2E5C4C6962726122
:10145000726965735C53544D3332463130785F5353
:1014600074645065726970685F4472697665725C15
:101470007372635C73746D3332663130785F72639C
:10148000632E63000010024010B59AB04FF4802420
:1014900069462046FFF7C0F800280CD113A000F0E1
:1014A00093FAFFF7B1F81598012804D1FFF76CF80B
:1014B00018B1FEF797FF1AB010BD002016901590D6
:1014C00069462046FFF70AFA69462046FFF7A4F866
:1014D0000BA0119900F078FAFFF706F90028EAD17D
:1014E0000AA000F071FAFFF781FDE4E7726561641C
:1014F000204150502061747472206F6B0D0A0000FF
:10150000664C656E203D2025640A00007570677288
:10151000616465206F6B0A00F0B5002201274FF06F
:101520000F0E0B8823FA02F3DB072FD0CC78E306EB
:1015300004F00F0303D58C782344DBB211E00225BD
:10154000B5EB141F04D1C46807FA02F5AC4307E0F9
:101550000425B5EB141F04D1C46807FA02F52C4327
:10156000C460082A09D2066894000EFA04FC26EA30
:101570000C06A3403344036008E09400203C466816
:101580000EFA04F5AE43A34033444360521CD2B27A
:10159000102AC6D3F0BD00002DE9F04704461746D7
:1015A00099468846234D084600F048F8022200205C
:1015B000AA46294600F00EFD05460E463846FEF7BF
:1015C000E6FD2A463346FEF7EFFD22D20222002036
:1015D000514600F0FFFC05460E464846FEF7D7FD93
:1015E0002A463346FEF7E0FD13D2C8F104008740D7
:1015F000114807EB090200EB9400037804F003059F
:10160000042101EBC5010F258D40AB438A40991899
:10161000017061094FF0E02000EB8100D0F800116B
:1016200004F01F0301229A401143C0F80011BDE8E5
:10163000F08700000000F03F00E400E004280BD831
:1016400006490A684FF6FF031A40C0F1070002EB93
:101650000020034A10440860704700000CED00E0D1
:101660000000FA05018821F480610180018841F4BD
:1016700000710180018841F480710180018841F08E
:1016800004010180018821F400610180018821F0BA
:1016900002010180018821F001010180018821F00F
:1016A00038010180018821F080010180018841F02A
:1016B00040010180018821F4005101807047000041
:1016C000F0B4344D0024344BA84218D19D69252430
:1016D00045F004059D61314D2E6826F47F6606F5C0
:1016E0000B662E609D6945F480459D61DD6845F47B
:1016F0008045DD60DD6825F48045DD6036E0284DFD
:10170000A84218D19D69262445F004059D61234D0A
:101710002D1F2E6826F47F4606F50B462E60DD69E8
:1017200045F40035DD611D6945F400351D611D6915
:1017300025F4003519E01B4DA84217D19D692724D7
:1017400045F008059D61184D2E6826F47F4606F584
:101750000B462E60DD6945F48025DD611D6945F489
:1017600080251D611D6925F480251D61B1FBF2F105
:101770000181818942F20C0211438181818941F406
:10178000907181812046F0BC01231A460321FFF7A6
:1017900003BF00000038014000100240040801406F
:1017A0000044004000480040040C01407047000025
:1017B000224900200A6842F480320A604FF4A06394
:1017C0000A6800F1010012F4003F01D19842F7D1FC
:1017D0000868800330D51A48026842F0100202609F
:1017E000026822F003020260026842F00202026014
:1017F0004868486048684860486840F480604860CD
:10180000486820F47C104860486840F4E81048605C
:10181000086840F08070086008688001FCD548685E
:1018200020F003004860486840F0020048604868C3
:10183000C0F381000228FAD1704700000010024076
:101840000020024008B509A000F0BEF80BA30EA2CC
:1018500010A116A000F0B8F810208302C105009076
:10186000194A1A4800F0B0F808BD00000D0A555397
:1018700041525431204F4B20210D0A0031373A3468
:10188000333A3330000000004175672020312032A8
:1018900030313700424F4F54204446552056302EA9
:1018A000323252324634585800000000424F4F54F2
:1018B0002056455253494F4E3A2025732025732018
:1018C00025730D0A00000000FF3F0008402A0008B1
:1018D00010B5FFF7AFFB0120FFF766FC2120FFF7F3
:1018E000C9FB0028FAD01020FFF7E8F90220FFF723
:1018F0006BFA0020FFF718FC0020FFF7BFFC4FF445
:101900008060FFF77FFC4FF420110020FFF720FDDF
:101910000120FFF7EFFC3920FFF7ACFB0028FAD0DD
:101920000220FFF77DFDFFF7F7FB0828FBD10349F5
:101930000148086010BD0000006CDC0200000020BF
:10194000AFF3008003484168491C416001210170E8
:101950007047000014000020034610B50020024626
:1019600002E09C5C521C20448A42FAD310BD000065
:101970000F4810B5016841F00101016041680D4A4E
:101980001140416001680C4A11400160016821F476
:1019900080210160416821F4FE0141604FF41F0184
:1019A0008160FFF705FF05494FF00060086010BD3A
:1019B000001002400000FFF8FFFFF6FE08ED00E017
:1019C000704770477047FEE70FB4054B10B503A989
:1019D000044A029800F026F810BC5DF814FB0000E1
:1019E0001D1E0008B0000020024A00201107FEF76B
:1019F0007FBC000001FDFFFF02E008C8121F08C104
:101A0000002AFAD170477047002001E001C1121F7F
:101A1000002AFBD1704700000149086070470000B0
:101A2000B40000202DE9FF4F8DB004469B460F46C1
:101A3000002641E1252801D00F9963E00025641CB0
:101A4000A14AA84601212378203B01FA03F0104265
:101A500002D00543641CF6E720782E2817D114F82D
:101A6000010F45F004052A280ED06FF02F022078D0
:101A7000A0F1300109290AD808EB880102EB4101E5
:101A800000EB0108641CF2E757F8048B641C207813
:101A90006C280DD004DC4C2812D06A2811D104E047
:101AA00074280DD07A280CD10AE045F4001507E01F
:101AB000617845F48015814202D1641C05F58015DA
:101AC000641C94F800C0BCF1690F4DD00CDCBCF173
:101AD000000F6ED0BCF1580F6FD0BCF1630F16D061
:101AE000BCF1640F0CD13FE0BCF1700F6AD0BCF1C7
:101AF000730F15D0BCF1750F5DD0BCF1780F5CD0C1
:101B00000F9960465A46904706F10106D3E001CF8F
:101B10008DF8000000208DF80100E946012003E067
:101B200057F8049B4FF0FF3069074FF0000501D4D0
:101B30000AE06D1C45450DDA8542FADB19F80510FF
:101B40000029F6D106E06D1C8542FCDB19F8051072
:101B50000029F8D12E4404E019F8010B5A460F99D8
:101B600090476D1EF8D2A6E00A200021CDE90801B9
:101B7000C5F3025002280AD001CFC11700290DDA9F
:101B80000023D0EB030063EB01012D2209E007F1F4
:101B9000070727F00707F7E80201EFE72A0504D552
:101BA0002B228DF82820012230E0EA072ED02022B7
:101BB000F7E785E001E00A2000E010200021CDE9F0
:101BC000080107E01020002145F00405CDE90801D7
:101BD0004FF00808C5F3025002281CD001CF0021A5
:101BE0004FF0000A2A0712D5BCF1700F19D0DDE9B9
:101BF000083283F01003134309D150EA010206D0E2
:101C000030228DF828208DF829C002229246BCF19E
:101C1000580F10D00AE0FF1D27F00707F7E8020170
:101C2000DEE740228DF828204FF0010A27A20DF1AF
:101C300020090B9209E02AA2F9E7DDE90823FEF763
:101C4000C7FA0B9B9B5C09F8013D50EA0102F4D1F5
:101C5000ADEB090000F120000890680701D44FF0B7
:101C600001080899884502DDA8EB010000E000208A
:101C70008046002506E00AA85A46405D0F99904725
:101C8000761C6D1C5545F6DB04E030205A460F9952
:101C90009047761CB8F10001A8F10108F5DC05E0D9
:101CA00019F8010B5A460F999047761C0899481E5F
:101CB00008900029F4DC641C207800287FF4BAAE78
:101CC00011B03046BDE8F08F0928010030313233C1
:101CD0003435363738396162636465660000000068
:101CE0003031323334353637383941424344454652
:101CF000000000002DE9FE4F824600F120080F464B
:101D00001646006931441D464FF00109814202D94F
:101D10000520BDE8FE8FD8F80810404601B188477D
:101D2000F8070CD028463946012300906D1C7F1C13
:101D30001A46504600F0B7F9040050D1761E012132
:101D4000504600F0E3FA040049D1AD208DF80400BC
:101D50000DF1040B30E0B9F1000F13D05C46621CAA
:101D60003946504600F08AF99AF8350008B1052244
:101D700000E004222878A054A118687848704FF039
:101D8000000906E028788DF80500687801228DF8B2
:101D90000600002000900023D8F804404046921C22
:101DA00001A9A04704001AD1504600F026FD040006
:101DB00015D1B61EBF1CAD1C022ECCD20021504640
:101DC00000F0A4FA04000AD1012E0CD101231A4616
:101DD00039465046009500F066F9040003D0002112
:101DE000504600F093FAD8F80C10404601B18847ED
:101DF00020468EE70A46014601A0FFF7E5FDFEE713
:101E0000617373657274206661696C6564206174C6
:101E10002025733A2564200D0A000000044AC0F30F
:101E200008011180111F0A881206FCD570470000B6
:101E3000044400402DE9FE43044600F009FC00285C
:101E40007ED120694FF0000804F1200530B1A08A4E
:101E500020B1A06910B1207F002869D19F218DF8A1
:101E60000810032100916E68284601AB012202A9E7
:101E7000B047002809D19DF8042022739DF8052061
:101E800062739DF806202146A27372D1204600F0AD
:101E900065FB00B3C4F80880206D2061B4F84800E9
:101EA000012816D00120A082606DA06194F858002E
:101EB0002077012004EBC002516D31B1A3698B4240
:101EC00003D9A16192F858102177401C0428F1D35E
:101ED00026E00220E7E7DFF8F8C0267B00EB4007AA
:101EE0000CEBC7010A79B24217D14A79637B9A4257
:101EF00013D18A79A37B9A420FD100EB40005CF8A2
:101F00003000A0600CEBC700806820618889A08247
:101F10000869A061087D207702E0401C0B28DDD312
:101F2000206928B3A08A18B3A06908B3207FF8B14C
:101F300000222749237B1046783901EBC00600E0D8
:101F400017E036799E4202D0401C0F28F5D3662157
:101F50008DF8041099218DF80510CDF8008000232C
:101F60006F6828464646022201A9B84718B105E025
:101F70000120BDE8FE83204600F03FFC0028F8D198
:101F8000A18A490706D500220121204600F0CBFB9B
:101F90000028EED12169B1F1807F15D9012739469A
:101FA000204600F0B3F90028E3D1B7208DF80400F3
:101FB00000960023666A012201A92846B04700283E
:101FC000D7D184F83570D4E784F83560D1E70000C4
:101FD000382900082DE9F04106460C4640F2FF750D
:101FE000174635EA145030D0002213463046FEF72B
:101FF000DBF82AD03A4630462146FEF779F9064604
:102000000C4635EA145010D0002213463046FEF735
:10201000CBF81AD10220FFF7FFFCFFF7E5FC0A46D8
:10202000214662F31E01BDE8F0810220FFF7F4FCB7
:1020300040F2013200204FF0E041FEF759F90A4624
:10204000214662F31E01BDE8F08130462146BDE81D
:10205000F081000010B5FEF795F9FFF7F3FBFFF7ED
:1020600013FA03A0FFF7B0FCFEF7C0FF002010BD7D
:102070006E6F206E6577206170700A0030B590F841
:1020800035000C4608B1042300E00323002007E0DC
:10209000191ACD00083D24FA05F11154401CC0B2B4
:1020A0009842F5D330BD2DE9F04FC3B0824600F120
:1020B000200988461546006900262944DDF830B11C
:1020C0001F46814203D9052043B0BDE8F08FD9F8FF
:1020D00008104846E9B388473DE00121504600F02A
:1020E00015F9060039D102208DF804000DF1050222
:1020F00041465046FFF7C2FF9AF8350008B1052661
:1021000000E00426B8FBF7F107FB118018B13C1A78
:10211000AC4205D303E0BD4201D93C4600E02C4669
:1021200001A82D1BA044304422465946FEF70AF868
:10213000002032190090D9F804604846002301A914
:10214000B047060009D1504600F057FB060004D105
:1021500000E000E0A344002DBFD10021504600F074
:10216000D5F8D9F80C10484601B188473046ABE79E
:10217000F0B589B0054600F144044E682421684654
:10218000FDF7F9FF24236A463146284600F0A3F8FC
:1021900078BB401CC0B20928FBD39DF80100E07158
:1021A0009DF80000002100F003004FF0010C012811
:1021B00002D0032854D102E084F806C000E0A171E7
:1021C0009DF80000C0F3800010B1012806D102E0A4
:1021D000A4F804C002E04FF48070A0809DF80000D5
:1021E000C0F3C00010B1012811D103E084F808C089
:1021F0000DE035E021729DF80000C0F3001010B131
:10220000012804D101E0502000E0062060729DF812
:102210000200C0F3410030B1012808D00228A172A9
:1022200007D0E1721CE084F80AC0E17203E084F890
:102230000AC084F80BC09DF80400DDF8052040EAD0
:1022400002209DF80720D20902D0012A0FD102E016
:102250000CEBD0000AE020F00040232803D9E16015
:10226000002009B0F0BDC01E0CFA00F0E0600020B4
:1022700001466E4606EB40031A7F42B10CFA02F5A6
:1022800004EBC102491C15615B7F1375C9B2401C88
:10229000C0B20428EED3002304EBC301086990B157
:1022A000581C0DE004EBC002156945B10E69AE4241
:1022B00005D90F7D0D61157D0D7516611775401CD3
:1022C000C0B20428EED35B1CDBB2042BE4D384F849
:1022D00000C00120C5E73EB55A248DF804400C0C1F
:1022E0008DF805400C0A8DF806408DF80710FF2187
:1022F00000938DF8081013460522446A01A9203086
:10230000A0473EBD7820401EFDD27047FEB5044672
:102310000D0001D0062000E004208DF8040000200C
:1023200000900346666A012201A904F12000B0472B
:1023300000280CD102A9204600F061F9002806D13E
:10234000002D04D09DF80810890700D40220FEBD9E
:102350007CB5816A064600F1200509B12846884708
:1023600001213046FFF7D2FF040021D1C7208DF8AC
:102370000400B08A010720460DD594218DF8051080
:1023800080218DF806109A218DF807100090002307
:1023900004226C6803E0009000236C68012201A90C
:1023A0002846A047040003D1304600F026FA044630
:1023B00000213046FFF7AAFFE96809B1284688479F
:1023C00020467CBD10B50446FFF734FD18B100214E
:1023D00084F8341010BD0121FAE72DE9FE4F0646BE
:1023E00000F1200A884614460069002721448142F2
:1023F00002D90520BDE8FE8FB8F1000F05D1A0423B
:1024000003D13046FFF7A4FFF4E7DAF8081050468E
:10241000E9B3884746E096F8440050B12246414669
:10242000304600F0F8F806EBC00090F85890456D83
:1024300002E096F81C90B56901213046FFF766FF6F
:10244000070031D18DF804900DF105024146304668
:10245000FFF714FE96F8350008B1052200E00422CB
:1024600000200090DAF804705046002301A9B84714
:10247000070019D1304600F0C0F9070014D1B8FBAD
:10248000F5F105FB118038B1281AA04200E009E0FF
:102490000AD2241A404404E0AC4205D9641B08EB7C
:1024A00005008046002CB6D100213046FFF72EFFF4
:1024B000DAF80C10504601B1884738469AE7000018
:1024C000004870473000002070B50025084E2C46AB
:1024D00004EB4400C0EB441006EB80004460FFF7BF
:1024E00071FF00B10546641CF2D0284670BD0000A3
:1024F000300000202DE9FE430546174600F1200478
:102500008846C81929699946884202D90520BDE83C
:10251000FE83A16809B120468847284600F06DF97E
:10252000060015D103208DF804000DF10502414687
:102530002846FFF7A3FD95F8350008B1052200E015
:102540000422009765684B4601A92046A847064625
:10255000E16809B1204688473046D8E77FB50025B5
:1025600000F144040095019506462946257008238C
:102570006A46FFF7B0FEE8BB9DF8000053283CD147
:102580009DF80100462838D19DF80200442834D136
:102590009DF80300502830D19DF80400A0709DF8EC
:1025A00005206270012A28D80821304600950B4684
:1025B0006A460195FFF78FFEE0B99DF800008DF89F
:1025C00008009DF801008DF809009DF80200019AAD
:1025D0008DF80A009DF8031022F07F428DF80B1051
:1025E0000392012809D8092907D302A93046FFF729
:1025F000BFFD00E001E004B070BD0020F9E71CB5AC
:1026000005228DF80420012200920B46446A01A99C
:102610002030A0471CBD70B5054600206B6DB1FB96
:10262000F3F403FB141303B170BD032305EBC304E0
:10263000646D34B1944204D8B1FBF4F604FB161473
:102640001CB1002BF0D05B1EF0E7184670BD0000F7
:102650002DE9F843044640684FF00008D8BB1F4DF1
:10266000E86940F48040E861A86940F00800A8618A
:102670004FF46040ADF8000003208DF802001820F0
:10268000174F8DF8030069463846FEF745FFAE1434
:10269000ADF8006010208DF8030069463846FEF75B
:1026A0003BFF0F4810300660286940F480402861E5
:1026B000286920F4804028610A4D2868FEF7D2FF7F
:1026C000094860620948A0620948C4E90B05094845
:1026D000A0630948E0634046BDE8F883001002406B
:1026E000000C014024000020792700087127000811
:1026F0007527000805230008C0270900F8B504461F
:102700000020A58AEE0706D000934FF48073204680
:10271000FFF7C9FCF8BD6D07FCD501B02046BDE848
:10272000F040FFF7E7BA2DE9FC41164600F120041E
:10273000002551B150208DF80400009500236768F2
:10274000012201A92046B84702E00121FFF7DEFD82
:1027500000280BD101208DF804008DF8056000954C
:1027600000236568022201A92046A847BDE8FC8134
:1027700072B6704762B670472DE9F0470669089D4A
:1027800000277468308960613C464FF47A7902EB27
:10279000050A29E0944202D211F8018B01E04FF0C2
:1027A000FF084D46306802E0ADB1A5F10105B0F873
:1027B00008C05FEA8C7CF7D5C7B9A0F80C80484602
:1027C000356801E038B1401EB5F808C05FEACC7C3E
:1027D000F8D05FB901E0042708E0A8899442C0B2AC
:1027E00001D303F8010B641CA245D3D8318970686A
:1027F000FEF7A6FB3846BDE8F08738B5C46B054642
:1028000069462846FFF7FBFE9DF8001001F0010124
:10281000014306D0A86B1CB100B18047641EEFE7EE
:10282000042038BD2E2E2E616E64206120537973F2
:1028300074656D2052657365742077696C6C2062D5
:10284000652067656E65726174656420746F2072BF
:10285000652D6C6F616420746865206E6577206FEC
:102860007074696F6E2062797465730D0A000000E0
:1028700072656164204150502061747472206661F9
:10288000696C65642C206E657753756D203D203032
:102890007825782C20636865636B53756D203D2027
:1028A000307825782C20636865636B53756D496EAD
:1028B0007665727365203D20307825780D0A00001A
:1028C0004B2B000801000000532B000804000000FF
:1028D000F22A00081C0000002C2B00081F0000003A
:1028E0003E2B000820000000D32A0008370000001B
:1028F000452B000862000000322B00088900000010
:10290000F62A00088C000000382B0008A100000007
:10291000242B0008AD000000FB2A0008BF000000C7
:10292000192B0008C8000000E32A0008D5000000A9
:10293000112B0008EF000000D82A00081F26000015
:10294000000020000A0000000002000081000000DA
:10295000FF2A0008EF4013000000080001000000FB
:102960000010000020000000C72A0008BF25410019
:102970000000200006000000001000002000000001
:10298000952A0008202016000000400001000000E9
:1029900000000100D8000000A92A00081C30160021
:1029A00000004000010000000010000020000000B6
:1029B000B22A0008C8401700000080000100000093
:1029C0000010000020000000E82A00080140150067
:1029D00000002000010000000010000020000000A6
:1029E0008D2A00083730140000001000010000009C
:1029F0000010000020000000A12A00088C20130015
:102A00000000080006000000001000002000000088
:102A1000BB2A0008BF25410000002000060000007E
:102A20000010000020000000082B0008EF401500F7
:102A30000000200006000000001000002000000040
:102A4000626F6F74207374617274206164647220A9
:102A50003D203078256C782C20656E64206164649C
:102A600072203D203078256C782C20626F6F7420A6
:102A700073697A65203D203078256C78204279741E
:102A8000657328256C64204B42290D0A00413235BC
:102A90004C303830004D32355033320053504932CB
:102AA000004632354C30303400454E3235513332E9
:102AB0004200474432355136344200504354323597
:102AC0005646303136420053535432355646303133
:102AD000364200414D494300415434354442313679
:102AE0003145004953534900533235464C32313653
:102AF0004B00454F4E0045534D540053535400571F
:102B000032355134304256005732355131364A56FB
:102B10000057696E626F6E6400476967614465764D
:102B2000696365004879756E6461690041746D651B
:102B30006C00496E74656C00467564616E004D6989
:102B400063726F6E0053616E796F004379707265C6
:102B500073730046756A6974737500007C2B0008F6
:102B600000000020B8000000F8190008342C00080C
:102B7000B800002000140000081A000800A24A044F
:102B8000000000000000000001020304060708091D
:102B90000000000000000000000000000000000035
:102BA00000380040000C014000100000082B000815
:102BB0000000000000000000000000000000000015
:102BC0000000000000000000000000009C2A000837
:102BD00000000000000000000000000000000000F5
:102BE00000000000000000000000000000000000E5
:102BF00000000000000000000000000000000000D5
:102C000000000000000000000000000000000000C4
:102C100000000000000000000000000000000000B4
:102C200000000000000000000000000000000000A4
:042C300000000000A0
:04000005080000ED02
:00000001FF
