:020000040800F2
:10400000104D002001410008D3760008C96A00085D
:10401000D1760008774C000889AB0008000000004A
:104020000000000000000000000000006D9000088B
:104030004555000800000000017F000809980008AD
:104040001B4100081B4100081B4100081B410008E0
:104050001B4100081B4100081B4100081B410008D0
:104060001B4100081B4100081B4100081B410008C0
:104070001B4100081B4100081B4100081B410008B0
:104080001B4100081B4100081B4100086DA90008E6
:1040900025AA00081B4100081B4100081B4100081D
:1040A0001B4100081B4100081B4100081B41000880
:1040B0001B4100081B4100081B4100081B41000870
:1040C0001B4100081B4100081B4100081B41000860
:1040D0001B410008F1A1000895A2000831A30008C7
:1040E0001B4100081B4100081B410008DFF80CD0F1
:1040F00000F06CFC0048004761DE0008104D002015
:104100000648804706480047FEE7FEE7FEE7FEE771
:10411000FEE7FEE7FEE7FEE7FEE7FEE77D98000824
:10412000ED4000082DE9F05F0546002092469B46D1
:1041300088460646814640241BE0284641464746BD
:10414000224600F020FB52465B46801A994110D36C
:1041500010461946224600F007FB2D1A67EB0108AE
:104160004F4622460120002100F0FEFA17EB00091D
:104170004E41201EA4F10104DFDC484631462A46A8
:104180004346BDE8F09F40EA01039B0703D009E0E6
:1041900008C9121F08C0042AFAD203E011F8013B33
:1041A00000F8013B521EF9D27047D2B201E000F88C
:1041B000012B491EFBD270470022F6E710B50446DA
:1041C0000846114602462046FFF7EFFF204610BD85
:1041D00030B50EE003460A4601E05B1C521C1C7819
:1041E0001578AC4201D1002CF7D115F0FF0F04D0A7
:1041F000401C0278002AEDD1002030BD10B50446E5
:1042000004E00B7800F8013B03B1491C521EF8D2C0
:10421000204610BD0146002000E0401C0A5C002A38
:10422000FBD170470246C9B200E0401C0378002B66
:10423000FBD102E003788B4203D0401E9042F9D2BA
:10424000002070472DE9F0470F469146804604460E
:10425000002614F8015B2DB100F0B8FA0068405D4B
:10426000C007F6D12B2D02D02D2D18D0641E4A4642
:104270003946204600F0AEFA27B13968A14201D193
:10428000C7F8008071054FF002040BD540420028AA
:1042900003DD06F039FD0460A007BDE8F08746F4B1
:1042A0008066E4E70028F8DA06F02EFD04606FF07F
:1042B0000040F2E7F0B480EA0102D20F4300B3EB12
:1042C000410F02D20346084619464B0042D0C30DA7
:1042D000DDB2C1F3C7542C1B202C35DAC1F3160113
:1042E00041F4000502B16D42C4F1200605FA06F161
:1042F00025412844B3EBD05F23D0C2B1012CA0EB01
:10430000C35009DCF0BC4FF0004202EAC35200F592
:104310000000DBB200F0B6BA400000F1807000EBA4
:10432000C350A0F1807040EAD170490009E049080B
:1043300041EAC071A0EBC35000F50000400800EB5B
:10434000C350F0BC00F095BA5142012303EB410188
:10435000801AF6E7F0BC704781F00041AAE780F0D0
:104360000040A7E72DE9FE4F074681EA0300C00F92
:104370000E46019021F0004123F00044B81AA141FB
:1043800005D23846314617461E460B46024623F0F4
:104390000040104304D13846314603B0BDE8F08FE9
:1043A000350DC5F30A00C3F30A510290401A00907C
:1043B000402868DAC3F3130040F4801B019892464A
:1043C00020B10023D2EB030A63EB0B0B0098594694
:1043D000C0F14002504600F0C7F980460C465046F6
:1043E0005946009A00F0DFF9C0197141EF1785EACC
:1043F00011533B4340D0019A52B3009A012A11DC79
:104400000022801A4FF0004361EB055103EA055387
:104410008018CDE9002341F580114246234600F083
:104420006BFABAE72E050025401B61EB0601401927
:1044300041F58012001852412818A6F5001343EBED
:10444000020140EAD470294318EB0808644113E0E4
:1044500064084FEA38084FF0000244EAC0744FEA9B
:104460000553801A61EB0301801841F5801149085A
:104470004FEA3000801859414246234603B0BDE858
:10448000F04F00F02CBA0198012240000023D0EB3D
:10449000020263EBE07301984FEAE074381A66EBAE
:1044A0000401EBE783F000435CE781F0004159E74A
:1044B0002DE9FE4F81EA030421F0004504F0004499
:1044C00023F000414FF0000A009450EA050302D0A7
:1044D00052EA010304D10020014603B0BDE8F08F89
:1044E000C1F30A53C5F30A541C44A0FB02B3C5F33D
:1044F000130545F4801CC1F3130141F480180CFB33
:10450000023300FB083EA4F2F334810A930A41EA25
:104510008C5143EA88530194A1FB03474FEA9C2541
:1045200005FB03734FEA982601FB06373D05260578
:1045300045EA1435BBEB06016EEB0503850E920EC2
:1045400045EA8C1542EA8812A5FB0206261E67EB97
:1045500000070C0D44EA0334A41947EB1350C1F3D0
:1045600013064FF0000319464FEA033343EA16538C
:1045700043EA0403019CE5FB0201A4F10C0402944C
:10458000009C4FEA0632CDE900A400F0B5F9A4E79B
:104590002DE9F04D81EA030404F0004B21F00047BF
:1045A00014464FF0000A23F0004150EA070220D0E1
:1045B00054EA01021DD0C1F30A550246C1F31300AB
:1045C000C7F30A56C7F3130340F4801143F4801372
:1045D000A6EB0508101BD64608F2FD3873EB010068
:1045E00002D308F1010801E092185B41B8F1000F15
:1045F00003DA00200146BDE8F08D00204FF480155D
:10460000064607460EE0B2EB040C73EB010C04D334
:10461000121B064363EB01032F436D084FEA300082
:1046200092185B4150EA050CEDD152EA030012D01A
:1046300082EA040083EA0105284303D100224FF0F7
:10464000004308E0101B8B4102D20122002302E04C
:104650006FF0010253101AEB060047EB085110EB04
:104660000A0041EB0B01BDE8F04D00F038B996238C
:104670000022114600F006B90EB540F23341029116
:104680000021CDE900110A460B4600F035F903B0D0
:1046900000BDC1F30A52C1F3130140F2FF3341F4EC
:1046A00080119A4201DA0020704740F233439A4267
:1046B000A2F2334202DC524200F065B890407047EB
:1046C00000F0004230F000400DD0C10D01F56071E6
:1046D00042EA01510022C0F31600520742EAD0021A
:1046E00040071143704700200146704730B500294C
:1046F00004DB4FF00044404264EB0101002B04DB7B
:104700004FF00044524264EB0303994208BF9042C9
:1047100030BD0000002801DBC0F10040002901DBB2
:10472000C1F1004181427047002801DBC0F1004027
:10473000002901DBC1F100418842704730B50B46CA
:10474000014600202022012409E021FA02F59D42C1
:1047500005D303FA02F5491B04FA02F52844151E95
:10476000A2F10102F1DC30BD202A04DB203A00FA7C
:1047700002F1002070479140C2F1200320FA03F3B8
:10478000194390407047202A04DB203A21FA02F0B6
:104790000021704721FA02F3D040C2F1200291407B
:1047A000084319467047202A06DBCB17203A41FA06
:1047B00002F043EAE071704741FA02F3D040C2F1DF
:1047C0002002914008431946704700000048704796
:1047D00058F500082DE9F05F8246007800278B46E7
:1047E00015460AF10104B946302801D09DB113E005
:1047F00014F8010B0127782803D0582801D045B1BF
:104800000AE00DB1102D07D10027102514F8010B77
:1048100002E0082500E00A250026B0460EE005FB70
:10482000080005FB06F1012701EB10461FFA80F88E
:10483000B6F5803F00D3B94614F8010B294600F0C5
:10484000D7F80028EBDABBF1000F05D00FB1641EDA
:1048500000E05446CBF80040B9F1000F06D006F056
:1048600053FA02210160C81EBDE8F09F48EA0640E5
:10487000FAE70029A8BF7047401C490008BF20F094
:104880000100704710B4B0FA80FC00FA0CF050EA56
:10489000010404BF10BC704749B1CCF1200421FAD7
:1048A00004F411FA0CF118BF012121430843A3EBD2
:1048B0000C01CB1D0106000A002BBEBF002010BC5E
:1048C000704700EBC35010440029A4BF10BC7047D0
:1048D000401C490008BF20F0010010BC704710B513
:1048E000002B08DA401C41F1000192185B411A4389
:1048F00001D120F0010010BD2DE9F04D92469B46FC
:1049000011B1B1FA81F202E0B0FA80F220329046A1
:10491000FFF72AFF06460F4640EA0A0041EA0B016C
:1049200052465B46084303D130463946BDE8F08D18
:10493000194652EA010015D0C8F140025046FFF76F
:1049400022FF04460D46504659464246FFF70CFFEB
:10495000084301D0012000E00020044345EAE0754F
:1049600026432F430A984FEAD625A0EB08000A30C9
:104970004FEA46534FF0000245EA47554FEAD72425
:1049800002D500200146D1E7010550196141DDE95A
:10499000084500196941BDE8F04DA0E7C1F30A528E
:1049A000C1F3130140F2FF3341F480119A4202DA5D
:1049B00000200146704740F233439A42A2F233424C
:1049C00002DC5242FFF7DFBEFFF7CEBE064C074DBA
:1049D00006E0E06840F0010394E8070098471034CF
:1049E000AC42F6D3FFF786FB2CF600084CF6000825
:1049F0003A2800D2303820F02002412A01D3A2F117
:104A00003700884201D34FF0FF30704770B501EB9B
:104A1000020410F8015B15F0070301D110F8013B07
:104A20002A1106D110F8012B03E010F8016B01F8F0
:104A3000016B5B1EF9D12B0705D40023521E0FD446
:104A400001F8013BFAE710F8013B02F10202A1EB89
:104A5000030303E013F8015B01F8015B521EF9D573
:104A6000A142D6D3002070BD30B587B072B602F037
:104A700032FE04F091FE04F0D3FE01213D2003F04C
:104A80001DFB22484168224A1143416006F018F894
:104A90004FF41654204605F0ADFB204605F04AFCC5
:104AA00062B600F0ABF802A803F088FB194806993B
:104AB000B1FBF0F50599B1FBF0F40499CDE900459F
:104AC000B1FBF0F30399B1FBF0F20299B1FBF0F105
:104AD000114806F0F5F811A313A216A119A006F0CB
:104AE000EFF809F04BFF01F039FB03F0BDFF00F0D8
:104AF000C1FA02F0A3F803F0D3F809F0C5F802F008
:104B000089FB082002F04AFB07B030BD00000140DD
:104B10000080000240420F001CEA000831303A32A7
:104B2000353A3536000000004175672032322032B8
:104B3000303137004150502056312E3133392E3329
:104B4000000000006170702076657273696F6E3AC4
:104B50002025732025732025730D0A0000B589B028
:104B60000020009001900290039004900590069020
:104B700007900BA30DA21021684606F0B1F8102291
:104B80000BA104A8FFF73AFB002104AA084602F093
:104B9000D1F96A460021012002F0CCF909B000BD2C
:104BA00041756720323220323031370025732000C2
:104BB0004150502056312E3133392E330000000041
:104BC00010B5040005D0012C03D0962102A006F0F8
:104BD000EFFD0948046010BD2E2E5C4C69627261C5
:104BE00072795C7372635C73746D333266313078E2
:104BF0005F626B702E63000000860D4210B504F0FA
:104C000036FE0549087008B104A100E006A1BDE820
:104C1000104009A006F054B82800002042696745FA
:104C20006E6469616E0000004C6974746C65456E59
:104C30006469616E00000000537973206973202558
:104C4000730A000010B578B14FF48054012805D0E4
:104C500002280FD11021012004F04CFB2146BDE8B1
:104C60001040022004F0FEBA1021BDE810400120DF
:104C700004F040BB10BDFEE7C1B2000A40EA0120CB
:104C80007047000070B5614B614C00205988A4F159
:104C9000400202E0155C2554401C8842FAD35C486F
:104CA000626820301F294260A268826007D002201B
:104CB000FFF7C8FF00202060607B1A2221E0E17B23
:104CC000282901D02A290AD1D4F81100227D00BA5E
:104CD00020F0FF0010435860E08A40BA98604D4AC7
:104CE0002068904252D14C4A607B1268904203D8AF
:104CF000A27B0AB1102A0DD90220FFF7A3FF607B27
:104D00002422052104F086FBBDE87040002101202B
:104D100004F060BB252958D01ADC152971D00DDCB0
:104D200008296ED005DCB9B3032936D004292DD16A
:104D300063E00A2965D0122928D132E01A390A29FC
:104D400024D2DFE801F03632235E32232323233ED0
:104D50008A2956D00EDC552953D006DC28293CD0B0
:104D60002A2940D02F2911D143E05A2925D088295A
:104D70000CD146E0A82944D004DC8F2941D09E29DB
:104D800004D13EE0AA293CD0AF293AD00220FFF757
:104D900059FF607B2022B4E71BE0BDE8704003F0C0
:104DA000E9BDBDE8704003F003BDBDE8704003F00D
:104DB000EDBDBDE8704003F035BDBDE8704003F0C7
:104DC0002BBDBDE8704003F09FBDBDE8704003F00F
:104DD00063BDBDE8704003F0DDBDD3E90112BDE85D
:104DE000704003F025BDD3E90112BDE8704003F027
:104DF00007BEBDE8704003F0E9BDBDE8704003F0B8
:104E0000BFBCBDE8704003F0EDBC000028020020EC
:104E100064370020555342438C0200202DE9F041B5
:104E2000184D174C174F4435174E23E047F6FF70C7
:104E30002860308800F00F00207007EB80000168C8
:104E400089B20A0407D5016840F68F7289B2114011
:104E500001600E4808E009060CD5016848F60F729B
:104E600089B2114001600A48217800EB810050F8B6
:104E7000040C8047286830800004D7D4BDE8F08156
:104E800028030020005C0040880200206C02002003
:104E9000500200202DE9F05F4BF6BF7848F2800900
:104EA000454F40F68F7A454E454D48F60F7B27E03B
:104EB000088810F00F0030702BD005EB80000168DF
:104EC0008CB221040BD5016889B201EA0A010160A4
:104ED0003C48317800EB810050F8040C80472006F4
:104EE0000ED5307805EB8000016889B201EA0B012C
:104EF00001603548317800EB810050F8040C8047A0
:104F00002F4844300068314908800004D0D4BDE8FF
:104F1000F09F28683880388800F030007880388822
:104F200000F440503880286880B200EA080080F41D
:104F3000005080F0200040EA090028600888C00680
:104F40000028286880B217DB00EA0B00286001F017
:104F5000BDFD24E03988890401D580F400507988AA
:104F6000C90626D47988890601D580F0200080B250
:104F700040EA09002860CAE7010507D5286880B221
:104F800000EA0A00286004F04BFA08E00004B7D5F4
:104F9000286880B200EA0A00286002F035FD28681F
:104FA000398880B200EA0800C904D3D580F4805063
:104FB000D0E780F01000D5E73A0300202803002056
:104FC000005C00406C02002050020020880200209B
:104FD00070B500240C4A04E032F81030401C1C4428
:104FE000C0B21228F8D30846FFF746FB05460E4626
:104FF0002046FFF741FB2A463346FFF7C9FAFFF781
:1050000048FB80B270BD0000B4130020074901EBDB
:1050100080000168490408D5016848F68F7289B29A
:1050200011404CF28002114301607047005C004067
:10503000074901EB80000168490608D5016848F678
:105040008F7289B2114048F2C0021143016070476B
:10505000005C0040064901EB8000016848F68F6261
:1050600089B2114048F2800211430160704700008C
:10507000005C00401CB50121082003F01FF802204D
:10508000ADF8040001208DF8060010208DF807000F
:1050900001A90E4801F064F80024234622460C4979
:1050A0000C48009402F07AFC0A4800231A460A4988
:1050B0001C30009402F072FC064800224FF4FA7192
:1050C0001C3008F047FF00F09BF81CBD000C0140AD
:1050D000F19D0008EC2600201DA000082DE9F047F6
:1050E0000025DFF8988082462E464FF6FF79484625
:1050F000424600E000BF1168890704D40100A0F116
:10510000010080B2F6D118B14FF47A7400270CE098
:105110002C211BA005F0D4FD0320BDE8F0870A2058
:1051200006F069FD07F10107BFB2D8F8000080075B
:1051300004D52000A4F10104A4B2F0D13CB168066A
:10514000050E381F052808D245F001050DE0352170
:1051500010A005F0B5FD0420DFE7082F05D3394680
:1051600011A005F0ADFD0520D7E7761CF6B2082E9C
:10517000BDD38AF800500020CFE70000080C0140A2
:105180006C696E65203D2025642C2050442065729A
:10519000720A00006C696E65203D2025642C205049
:1051A00055206572720A0000646874206269742078
:1051B00065727220636F756E74203D2025640A004D
:1051C00008B50221ADF8001001218DF8021038B1A8
:1051D00010208DF803006946024800F0C1FF08BDA9
:1051E0004820F6E7000C014010B5044C84F8390063
:1051F0004FF47A7002F0ACFBE06310BD4800002071
:1052000010B50D4CA078002814D1207007206070D4
:105210000120FFF7D5FF0948016841F00201016054
:10522000074802F0E1FB00220121054808F092FE48
:105230000120A07010BD0000B8000020100C01403B
:10524000EC2600202DE9F05FDFF89C90DFF89C80D1
:105250004FF0300AD9F8001001F11004088A0E7AD4
:1052600008B9042E04D0A588A84216D8042615E053
:105270001F4A1078012804D007261021A8F8001032
:105280002CE01C49002009681B4B89B203EB41014B
:105290004860A8F800A0107020E00226854200D9DE
:1052A0000546A8B2A168074688478346002001F05A
:1052B0009DF901463A46584605F068FC39460020FB
:1052C00004F00AF82088401B208060882844608011
:1052D000A8F800A009494FF440500880D9F8000010
:1052E0000672BDE8F09F00002C0300203C03002064
:1052F00024030020505C0040006000403A0300207E
:105300002DE9F047234EDFF890904FF030083468D5
:1053100034F8100FA168B1B108B3A588854200D94F
:105320000546A8B20746884782462088401B208051
:10533000608828446080002001F02EF901463A463A
:10534000504602F0B1FD208848B114494FF4405056
:1053500008800021084603F0BFFFA9F800802088DC
:10536000A188884201D3032001E020B105203168E3
:105370000872BDE8F08731680620087208490020ED
:105380000968084A89B202EB41014860A9F8008027
:10539000EFE700002C0300203C0300203A0300202C
:1053A000505C0040006000402DE9F0415C4C5D4DD8
:1053B00009262068002729684278062A05D0AAB164
:1053C000082A4BD00A2A4ED069E00278520666D1EC
:1053D0008078012804D0022804D0032804D05EE09D
:1053E000C96954E0096A52E0496A50E04288A2BBA8
:1053F000C288022A53D102797ABB0278530601D1BE
:10540000838833B102F07F02012A04D0022A0CD033
:1054100045E045493BE08A69407900219047E0B981
:105420002068807A0028F4D139E0417901F00F003A
:1054300001F070020B063D4951F8201003D5C1F36D
:105440000111090102E0C1F301310903384B1B7856
:10545000834224D90AB90029DBD120E00078400634
:105460001DD1344913E0027802F07F02012A16D1DF
:10547000827AA2B1428892B9027982B9C288012A9D
:105480000DD18A6940790021904740B92A4931B14C
:1054900020684782816100208847002006E0296853
:1054A0002068096940788847032808D021680A8A5B
:1054B000A2F57F43FF3B05D10E72BDE8F081206865
:1054C0000672FAE7022808D03AB10878000620D51B
:1054D000C888824205D9088213E04FF0080008729C
:1054E000EBE70ED22868154B90F82C00824201D2CF
:1054F0001F7006E0B2FBF0F400FB142008B9012095
:105500001870286890F82C008882BDE8F041FFF7F9
:1055100099BE032008720A4900030880CDE7000005
:105520002C03002030030020E1950008005C0040BF
:10553000F802002075950008B995000824030020A2
:105540003A030020704702F029B802F067B8000063
:105550007FB5044608F0C8FF1249DCB16B46102243
:1055600008F0DCFF0821684604F076F90146DDE921
:105570000223DDE90005C4E900058A42C4E90223EB
:1055800002D1D84382420AD0074805F099FB012096
:1055900004B070BD602305A200210CA0F5E7002037
:1055A000F6E7000064000400B0EA00082E2E5C4418
:1055B00072697665725C7372635C463130585F461F
:1055C0006C6173685F49662E630000006572726FDC
:1055D00072203D2025642C2066696C65203D2025C5
:1055E000732C206C696E65203D2025640A00000044
:1055F0002DE9F0410746884608F076FF214C054624
:10560000B8F1000F35D03A0B39461FA005F058FB12
:105610004FF48056234632463946284608F07EFF2E
:10562000642241462046FEF7AEFD5C21204604F090
:1056300013F9C243C4E9170201461DA005F040FB5F
:1056400032463946284608F0DCFE234632463946C3
:10565000284609F07BF8234632463946284608F0AA
:105660005DFFD4E917121CA005F02AFB0020BDE85D
:10567000F0810F2322A2002129A005F021FB0120A7
:10568000F5E70000EC160020777269746520666CFF
:1056900061736841646472203D20307825782C2045
:1056A000736563746F72203D2025640A000000005A
:1056B000773A20636865636B203D20307825782C2D
:1056C00020636865636B496E7665727365203D2063
:1056D000307825780A000000723A20636865636BB1
:1056E000203D20307825782C20636865636B496EF7
:1056F0007665727365203D20307825780A000000B9
:105700002E2E5C4472697665725C7372635C4631FE
:1057100030585F466C6173685F49662E6300000015
:105720006572726F72203D2025642C2066696C655D
:10573000203D2025732C206C696E65203D2025645A
:105740000A0000002DE9F041074608F0CDFE1A4C92
:105750004FF480264FF480580546A4F16403424676
:10576000314608F0DBFE0FCF84E80F000821204609
:1057700004F072F8C243C4E9020201460FA005F02A
:105780009FFA42463146284608F03BFEA4F16403E6
:1057900042463146284608F0D9FFA4F16403424648
:1057A0003146284608F0BAFED4E902120FA005F0EF
:1057B00087FA0020BDE8F08150170020535953208C
:1057C000454E5620773A20636865636B203D203054
:1057D0007825782C20636865636B496E76657273F3
:1057E00065203D20307825780A0000005359532069
:1057F000454E5620723A20636865636B203D203029
:105800007825782C20636865636B496E76657273C2
:1058100065203D20307825780A0000002DE9F04110
:105820009CB000251A9501225E495F481B9507F040
:10583000CBF9044601465DA005F042FA4FF48056CC
:105840000D2C08D0002C16D021465CA005F038FAAB
:105850001CB0BDE8F08160A005F032FA32460121AB
:10586000504806F017FF010001D062A0EEE769A0E2
:1058700005F026FAECE76EA005F022FA4020009031
:105880004848714B71A22021083000F033FB70B9F9
:105890006D4970A005F014FA6B49012201F1740002
:1058A00007F0C2F9010012D070A005F009FA1BAA96
:1058B0001AA976A006F0B0FC0028C9D174A005F0A2
:1058C000FFF9DDE91A127AA005F0FAF9C0E7002421
:1058D000199508F009FE5C4F804674375A4819AB99
:1058E00032467B49743007F0B7FA050020D1199889
:1058F000F0B1250332462946404608F082FD19984A
:10590000B04206D2724AC0F580511044CC22FEF754
:105910004CFC6F4B32462946404608F017FF641C8A
:10592000A4B22346FA686B48199905F0C9F9D5E77E
:105930004548743006F09AFC294667A0199A05F08C
:10594000BFF919980543B2D16BA005F0B9F93E48EB
:1059500007F082FB002822D06CA23B496DA005F025
:10596000AFF964216846FEF727FCF8681190012022
:105970001590C01E169069464FF48020FFF738FE40
:10598000FA686AA0199905F09BF976A005F098F9D4
:1059900040F6B83006F020F901F0E2F887E780A27F
:1059A000DBE700003E030020B0370020665F6D6F2C
:1059B000756E74203D2025640A000000466174461F
:1059C00073206D6F756E74206572726F72203D204A
:1059D00025640D0A0000000046617446732045727C
:1059E000726F722C20646F20466F726D61742E2E60
:1059F0002E0D0A00466C617368204469736B204663
:105A00006F726D6174204661696C6564203D20256C
:105A1000640A0000466C617368204469736B204619
:105A20006F726D61742046696E69736820210A0087
:105A30004661744673206D6F756E74207375636371
:105A40006573730D0A000000E04700207570646103
:105A50007465000066696E6465642066696C652023
:105A600070617468203D2025730A000063616E2711
:105A700074206F70656E2066696C652C206572728B
:105A80006F72203D2025640A0000000030000000F5
:105A9000726561642066617466732066696C652056
:105AA00073697A6520737563636573730D0A00000B
:105AB000746F74616C203D20256C64204B422C2057
:105AC00066726565203D20256C64204B420A00000B
:105AD000EC16002018EF0008726561642066696C9E
:105AE000653A20726573203D2025642C2062722067
:105AF0003D2025640D0A0000726561642066696CB2
:105B00006520616C6C20646F6E650A006661696C6B
:105B10006564000064656C6574652066696C652069
:105B2000696E2025732025730A0000007265616488
:105B30002066696C6520737563636573732C206CD4
:105B4000656E203D2025642C2066696C655F736955
:105B50007A65203D20256C642042797465730D0AB6
:105B60000000000077726974652073706920666CAC
:105B700061736820646F6E652C20726561647920A2
:105B8000746F206A756D7020746F20746865206270
:105B90006F6F746C6F616465722E2E2E0A000000A8
:105BA0006F6B0000F0B5C3B0002532A1354800F09E
:105BB000D5F801282DD0334C4FF48076E168B142FE
:105BC00000D996392F4806F0D6FB074601462EA08D
:105BD00005F076F8D4E9022339462FA005F070F8D5
:105BE0009FB900204190409031466846FEF7E4FAA4
:105BF00041AB32466946234807F02EF902000AD02D
:105C000040F29F112FA005F05BF81E4806F02EFB16
:105C1000284643B0F0BD694631A005F051F85B213C
:105C20006846FEF7FFFA040021D05D21FEF7FAFA7C
:105C3000C8B10A2240A9601CFEF704FB01000CD188
:105C4000409A601C824208D1631C28A005F038F8F5
:105C50000C4806F00BFB0020DBE7491C0D4631A089
:105C600005F02EF8D1E737A005F02AF8CDE738A0E7
:105C7000FAE7000073656E736F725F646174612E82
:105C80007478740054480020312C20726573203DD4
:105C90002025640A00000000665F6C7365656B2058
:105CA000726573203D2025642C2066707472203D3F
:105CB00020256C642C206673697A65203D20256C54
:105CC000640A00006C696E65203D202564207265C1
:105CD0006164206661696C6564203D2025640A006A
:105CE000627566203D2025730A000000636F6E76A2
:105CF000657274206661696C65642C20696E6465E8
:105D000078203D2025642C2070456E64203D203095
:105D10007825782C202670315B315D203D2030784D
:105D200025780A0068616420256C64206974656DBB
:105D300073206F662073656E736F72206461746187
:105D40000A0000007032206E756C6C0A00000000C2
:105D50007031206E756C6C0A00000000F0B59BB0CD
:105D600006460F46402235496846FEF70CFA0025E4
:105D7000694610A807F028F8040009D030A2694647
:105D800031A004F09DFF052C04D08CB15D2349E0C7
:105D900031A2F4E7684606F0C1FB0200694603D071
:105DA0002EA004F08DFF42E034A004F089FF01250D
:105DB00010A806F06EFA6846FEF72CFA2F220DF8AE
:105DC00000206844401C40223946FEF717FA13228F
:105DD0006946304606F028FF0446C5B100201A90F7
:105DE00016486C38FEF716FA144902461AAB6C399D
:105DF000304607F085F911483238FEF70BFA0F49A3
:105E000002461AAB3239304607F07AF9044630467A
:105E100007F0E4F8F2686CB109A11EA004F050FF8D
:105E200054B1702321A2214629A004F049FF01208A
:105E30001BB0F0BD08A1F0E70020F9E7D8EE00089C
:105E40006661696C656400006F70656E20646972DC
:105E50002025732025730A006F6B00006372656153
:105E6000746520646972202573206661696C6564BD
:105E70002C20726573203D2025640A0063726561E1
:105E8000746520646972202573207375636365737C
:105E9000730A0000665F6F70656E2025732C2066A4
:105EA00073697A65203D2025640A00002E2E5C432C
:105EB0006F6D706F6E656E745C46617446735C7373
:105EC00072635C66617466735F64656D6F2E6300F8
:105ED0006572726F72203D2025642C2066696C65A6
:105EE000203D2025732C206C696E65203D202564A3
:105EF0000A0000002DE9F04194B0054628481190B1
:105F00003320129017461E46DDF86880294601A806
:105F100006F05AFF04002CD034E01198007808B144
:105F2000119801E00DF135009DF83410C90604D533
:105F30001CA004F0C5FE042424E000902B461FA200
:105F40004146304604F0CCFE39463046FEF740F973
:105F500004461CA13046FEF73BF934B128B1314666
:105F600019A004F0ADFE002403E01EA004F0A8FE7A
:105F700004240BA901A807F005F818B99DF835000D
:105F80000028CAD101A806F084F938B119A11BA0D4
:105F900004F096FE14B02046BDE8F0811BA1F6E7A0
:105FA000204800207363616E2066696C652066611D
:105FB000696C65642C20646972730A0025732F254F
:105FC000730D0A0062696E00736561726368206612
:105FD000696C6520737563636573733A2025730A72
:105FE000000000006E6F742066696E642066696C44
:105FF000650A00004661696C65640000636C6F733C
:10600000656469722025730A000000004F4B000090
:10601000F8B50D4601461348FFF7A0FE01281FD032
:10602000104C2046E16806F0A6F9D4E902230146A7
:106030000DA004F045FE2846FEF7ECF806460246A1
:106040006B462946204607F05BF80446054806F0F3
:106050000DF9324621460FA0009B04F031FE204688
:10606000F8BD000054480020665F6C7365656B20C6
:10607000726573203D2025642C2066707472203D6B
:1060800020256C642C206673697A65203D20256C80
:10609000640A0000665F7772697465207265732018
:1060A0003D2025642C206C656E203D2025642C202D
:1060B0006277203D2025640A0000000010B50446E8
:1060C000102805D024B140F22F1106A005F070FB76
:1060D0000D48016821F01001016001682143016051
:1060E00010BD00002E2E5C4C6962726172795C7387
:1060F00072635C73746D3332663130785F666C61E5
:1061000073682E63000000000020024010B50400F8
:1061100008D0012C06D0022C04D040F2031105A0B7
:1061200005F046FB0C49086800F038002043086081
:1061300010BD00002E2E5C4C6962726172795C7336
:1061400072635C73746D3332663130785F666C6194
:1061500073682E630000000000200240FFF75EBB62
:106160002DE9F0410446464800260D46844215D0EC
:106170004448844212D0444884420FD04348844269
:106180000CD04348844209D04248844206D0424859
:10619000844203D0B22141A005F00AFBE87888B11F
:1061A00004280FD028280DD048280BD0142809D057
:1061B000102807D01C2805D0182803D0B32137A0F9
:1061C00005F0F6FA288818B9B42134A005F0F0FAE1
:1061D000E87800F00F07C0060CD5A878012807D092
:1061E000022805D0032803D0BB212CA005F0E0FA3B
:1061F000A878074328884FF00F0C10F0FF0F4FF0DE
:10620000010E1AD021682A880EFA06F00240824256
:106210000FD1B2000CFA02F3994307FA02F21143CC
:10622000EA78282A02D0482A02D002E0606100E021
:106230002061761C082EE6D321602888FF281DD90E
:106240006268002101F108030EFA03F02B88034075
:1062500083420FD18E000CFA06F322EA030307FAF9
:1062600006F21A43EB78282B00D16061EB78482BBB
:1062700000D12061491C0829E4D36260BDE8F081A7
:1062800000080140000C01400010014000140140D2
:1062900000180140001C0140002001402E2E5C4CE3
:1062A0006962726172795C7372635C73746D3332AC
:1062B000663130785F6770696F2E630070B5054690
:1062C000274800260C46854216D02648854213D022
:1062D0002548854210D0254885420DD02448854266
:1062E0000AD02448854207D02348854204D04FF481
:1062F0008F7122A005F05CFA012C2AD0022C28D044
:10630000042C26D0082C24D0102C22D0202C20D0D5
:10631000402C1ED0802C1CD0B4F5807F19D0B4F551
:10632000007F16D0B4F5806F13D0B4F5006F10D095
:10633000B4F5805F0DD0B4F5005F0AD0B4F5804F9E
:1063400007D0B4F5004F04D040F21F110BA005F0A8
:106350002FFAA868204200D00126304670BD000008
:1063600000080140000C01400010014000140140F1
:1063700000180140001C0140002001402E2E5C4C02
:106380006962726172795C7372635C73746D3332CB
:10639000663130785F6770696F2E630070B50446B0
:1063A00011480D46844216D01048844213D010483C
:1063B000844210D00F4884420DD00F4884420AD046
:1063C0000E48844207D00E48844204D040F279112E
:1063D0000CA005F0EDF925B94FF4BD7109A005F049
:1063E000E7F9656170BD000000080140000C014044
:1063F000001001400014014000180140001C014041
:10640000002001402E2E5C4C6962726172795C73CF
:1064100072635C73746D3332663130785F677069B4
:106420006F2E630070B5044611480D46844216D0A5
:106430001048844213D01048844210D00F48844240
:106440000DD00F4884420AD00E48844207D00E482F
:10645000844204D040F269110CA005F0A9F925B9D5
:106460004FF4B57109A005F0A3F9256170BD0000D6
:1064700000080140000C01400010014000140140E0
:1064800000180140001C0140002001402E2E5C4CF1
:106490006962726172795C7372635C73746D3332BA
:1064A000663130785F6770696F2E630070B505469E
:1064B0002A480C461646854216D02948854213D0F4
:1064C0002848854210D0284885420DD0274885426B
:1064D0000AD02748854207D02648854204D040F29A
:1064E0008D1125A005F064F9012C2AD0022C28D0AA
:1064F000042C26D0082C24D0102C22D0202C20D0E4
:10650000402C1ED0802C1CD0B4F5807F19D0B4F55F
:10651000007F16D0B4F5806F13D0B4F5006F10D0A3
:10652000B4F5805F0DD0B4F5005F0AD0B4F5804FAC
:1065300007D0B4F5004F04D04FF4C7710EA005F09A
:1065400037F946B1012E04D040F28F110AA005F0B0
:106550002FF92C6170BD6C6170BD00000008014016
:10656000000C0140001001400014014000180140DF
:10657000001C0140002001402E2E5C4C69627261BB
:1065800072795C7372635C73746D33326631307828
:106590005F6770696F2E63000549096889B201EB76
:1065A000C000044901EB4000806880B270470000E1
:1065B000505C0040006000400549096889B201EB69
:1065C000C000044901EB4000C068C0F309007047F7
:1065D000505C004000600040034951F82000C0F3C7
:1065E0000130000370470000005C00400449096866
:1065F00089B201EBC000034951F8100080B2704726
:10660000505C00400060004008B1044870470449F5
:106610000120096808820020704700008C020020D9
:106620002C0300200A4810B50168001D0468001DF5
:10663000006808180BD00822064900F075FA0549D1
:1066400020460422BDE81040103100F06DBA10BDA4
:10665000E8F7FF1F360200207FB5234D2878012878
:1066600041D122A004F02CFB234C207880F00100C3
:10667000207014F834090028A87919D0012801D015
:106680001EA200E01EA20D21012000F053FCA08DEF
:10669000E085E08DFDF7F0FF00221A4BFDF708FFC3
:1066A0004FF06632184BFDF773FFFDF7F2FF09E07C
:1066B00008B116A200E016A20D21012000F03AFC5C
:1066C0000020E08520866846FEF742FF94F83400FB
:1066D0008DF80000208EADF80600E08DADF80400C6
:1066E0006846FFF72FF87FBD360000204843484F2B
:1066F0002043414C0A000000E813002043414C00B5
:106700004326480000003E40666636402020480090
:106710002020200010B50022022901D2002010BD47
:10672000401C891E8BB2002104E0445C491C2244B9
:1067300092B289B29942F8D3D043401CC0B210BD86
:1067400070B5284E348DB58D10B101282FD115E0CC
:10675000308E38B1308EA04202D2308E201A00E046
:10676000002084B200F00EFA00211FA2084600F0BB
:10677000E1FB204600F04CF81DA214E0F08D38B18A
:10678000F08DA84202D2F08D281A00E0002085B2D8
:1067900000F0F8F9002114A2084600F0CBFB2846CF
:1067A00000F06BF814A20A21002000F0C3FB96F859
:1067B000340018B112488079012811D096F83400BD
:1067C00020B110A20D21012000F0B4FB0E4800788A
:1067D00008B100F0FFFC2046BDE8704000F0CAB8E8
:1067E0000AA2EFE7B41300204843484F20000000FE
:1067F000206D672F6D3300002070706D2020000029
:106800003600002043414C009900002043264800F8
:1068100070B504460521002000F092FA42F2107093
:10682000B4FBF0F100FB11404FF47A75B0FBF5F0CA
:106830003030C0B200F0DCFA2E2000F0D9FAB4FB00
:10684000F5F005FB10406425B0FBF5F03030C0B228
:1068500000F0CEFAB4FBF5F005FB10400A25B0FBC2
:10686000F5F0303000F0C4FAB4FBF5F005FB104051
:10687000BDE87040303000F0BBBA70B50446052169
:10688000002000F05DFA42F21070B4FBF0F100FB62
:1068900011404FF47A75B0FBF5F03030C0B200F023
:1068A000A7FA2E2000F0A4FAB4FBF5F005FB104087
:1068B0006425B0FBF5F03030C0B200F099FAB4FBBB
:1068C000F5F005FB10400A25B0FBF5F0303000F084
:1068D0008FFAB4FBF5F005FB1040BDE87040303096
:1068E00000F086BA70B51E4D01002C8DA88D02D027
:1068F00001291AD10DE0288E38B1288EA04202D28B
:10690000288E201A00E0002084B22046FFF780FF86
:106910000BE0E98D39B1E98D814202D2E98D401A4F
:1069200000E0002080B2FFF7A8FF95F8340018B10E
:106930000C488079012811D095F8340020B10AA2C2
:106940000D21012000F0F6FA0848007808B100F0A7
:1069500041FC2046BDE8704000F00CB804A2EFE70F
:10696000B41300203600002043414C009900002061
:106970004326480010B5144C502809D213A2002118
:10698000012000F0D7FA207800281BD0002015E065
:10699000B0F5FA7F09D210A20021012000F0CAFA56
:1069A000207800280ED0012008E00EA2002101204E
:1069B00000F0C0FA2078002804D00420BDE8104080
:1069C00000F06CBB10BD000099000020476F6F64A1
:1069D0002020202020202000556E6865616C74689E
:1069E000792020004261646C792020202020200042
:1069F0000178FF290FD141780E4A172902F1360399
:106A00000AD0862907D1022183F82710C17880781F
:106A100001EB0020D08470474179007901EB002020
:106A20005085012083F82700002202481146883053
:106A300007F090BAB413002070B5204C40F22551F5
:106A4000204603F059FD00282FD0204603F03EFFDA
:106A50001B4CC0B294F826100025FF2903D117283B
:106A600024D0862822D0A18C242900D3A584A18CEF
:106A70006218491CA184107084F82600A08C092893
:106A800013D109210E48FFF745FE217A88420BD128
:106A90000C4E012070764FF4967000F059FFF061B3
:106AA00009210748FFF7A4FFA58470BDA584A18C28
:106AB000FF226318491CA1841A70D8E700480040DF
:106AC000EA13002048000020FEE7000010B5134C38
:106AD0002068017A022904D0042902D0062905D0B1
:106AE00015E0FEF7AFFB2068007A11E04178052938
:106AF00009D10178490606D1C07802F061FB084847
:106B00000068006A8047074800688068804708205E
:106B100021680872BDE8104001F0F4B92C03002090
:106B20003403002030030020F0B500230A2630276C
:106B30004FF0370C1C460FE0B6EB107F02D907EB85
:106B4000107501E00CEB107501F8135001EB4305D3
:106B500000015B1C6C70DBB29342EDD3F0BD000012
:106B600001F00CFB72B605480168054A01F4E061CA
:106B700011430160BFF3408FFEE700000CED00E021
:106B80000400FA0510B5012000F0E2F8022005F03B
:106B900023F8022000F0DCF8BDE81040022005F0E8
:106BA0001BB800002DE9F8434FF40056ADF8006023
:106BB00001208DF802001020DFF878808DF80300A6
:106BC00069464046FFF7CCFA1B4F3411ADF8004040
:106BD00069463846FFF7C4FA6510ADF800506946BB
:106BE0003846FFF7BDFAF020ADF800006946384698
:106BF000FFF7B6FA0820ADF8000069463846FFF7FF
:106C0000AFFA08213846FFF7C9FB012000F022FA4D
:106C100029463846FFF706FC21463846FFF7BEFBFB
:106C200031464046FFF7BAFBF0213846FFF7FAFB42
:106C3000BDE8F88300100140000C014010B5FFF7DB
:106C4000B1FF1E2004F0C8FF3C4C0022102120465A
:106C5000FFF72CFC002220212046FFF727FC012211
:106C600040212046FFF722FC012280212046FFF729
:106C70001DFC00F0D9F90A2004F0AEFF002210211B
:106C80002046FFF713FC002220212046FFF70EFCD0
:106C9000012240212046FFF709FC012280212046E5
:106CA000FFF704FC00F0C0F9962004F0A4FF0022D6
:106CB00010212046FFF7FAFB002220212046FFF793
:106CC000F5FB012240212046FFF7F0FB0122802145
:106CD0002046FFF7EBFB00F0A7F900221021204629
:106CE000FFF7E4FB002220212046FFF7DFFB012213
:106CF00040212046FFF7DAFB002280212046FFF7E3
:106D0000D5FB00F091F90A2004F066FF282000F07E
:106D10001FF80A2004F060FF012000F019F80A2093
:106D200004F05AFF0C2000F013F80A2004F054FF7E
:106D3000BDE81040062000F00BB80000000C014038
:106D400001EB8010C0B240F0800000F001B80000FC
:106D500070B50446282803D0382C01D000F056F92D
:106D60004FF400512048FFF719FB204D4FF40071FC
:106D70002846FFF713FBE20910212846FFF796FB90
:106D8000C4F3801220212846FFF790FBC4F3401281
:106D900040212846FFF78AFBC4F3001280212846D1
:106DA000FFF784FB00F040F9C4F3C002102128462D
:106DB000FFF77CFBC4F3800220212846FFF776FB17
:106DC000C4F3400240212846FFF770FBC4F30002E1
:106DD00080212846FFF76AFB00F026F9BDE87040E5
:106DE000412004F008BF000000100140000C0140E9
:106DF0002DE9F041044600F009F9244E4FF4005506
:106E000029463046FFF70EFB214F29113846FFF780
:106E1000C5FAE20910213846FFF748FBC4F3801297
:106E200020213846FFF742FBC4F340124021384688
:106E3000FFF73CFBC4F3001280213846FFF736FB16
:106E400000F0F2F8C4F3C00210213846FFF72EFB21
:106E5000C4F3800220213846FFF728FBC4F3400228
:106E600040213846FFF722FBC4F300028021384658
:106E7000FFF71CFB00F0D8F829463046FFF78EFAE2
:106E8000BDE8F041412004F0B6BE00000010014012
:106E9000000C01402DE9FE4F82468846244900201F
:106EA0000A276C46B2FBF1F501FB1522B1FBF7F1A5
:106EB00005F130062654401CC0B20A28F2D3002542
:106EC000605D302803D16D1CEDB20A2DF8D3C5F1F9
:106ED0000A0010F0FF0001D109250120834215D3DB
:106EE000A3EB000909F0FF0741465046FFF728FFD2
:106EF000002604E02020FFF77BFF761CF6B2BE429E
:106F0000F8D309EB080000F0FF0802E0C01A28449B
:106F1000C5B241465046FFF713FF04E0605DFFF73E
:106F200067FF6D1CEDB20A2DF8D3BDE8FE8F00009F
:106F300000CA9A3B10B51446FFF702FF02E0641C3A
:106F4000FFF756FF20780028F9D110BD38B50C4660
:106F500000218DF800106A46214600F079FD0546B3
:106F60000F48007818B19DF8000000F097F80D491F
:106F7000C4EBC400421800210846FFF7DBFF0323DF
:106F80002A4607210020FFF785FF06489DF80010DC
:106F9000703800EB011200210120FFF7CBFF38BD54
:106FA000990000206EEB000870B50D4604460021E4
:106FB00010A20846FFF7BEFF032322460621002049
:106FC000FFF768FF0DA20A210020FFF7B3FF0DA213
:106FD00000210120FFF7AEFF03232A4606210120EE
:106FE000FFF758FFBDE870400A2104A20120FFF717
:106FF000A1BF0000504D322E3520000075672F6D67
:1070000033000000504D31302020000010B54FF407
:1070100080710448FFF7C2F9BDE81040012000F07C
:1070200019B80000000C014070B5094D4FF4807490
:1070300021462846FFF7F6F9052004F0DCFD21463D
:107040002846FFF7ABF9BDE87040052004F0D3BD3A
:10705000000C014008B5F021ADF8001001218DF8B9
:10706000021038B110208DF8030069460248FFF77E
:1070700077F808BD4820F6E7000C014010B504463B
:107080000146022000F066F82146002000F062F878
:107090002146BDE81040012000F05CB811B581B078
:1070A000294800F0A1FC9DF8042001210024274874
:1070B000072A21D2DFE802F0040813131921370050
:1070C0000020FFF7DBFF07E00021022000F042F87C
:1070D0000121084600F03EF8012100200AE00020CE
:1070E000FFF7CCFF0121084604E00020FFF7C6FFB0
:1070F0000121022000F02EF81CBD01700020FFF7D6
:10710000BDFF0121084600F025F80121022000F012
:1071100021F8002301AA0E490B48009400F03EFC20
:10712000002232210CE001700120FFF7A7FF0023AD
:1071300001AA07490448009400F030FC00220F2106
:10714000014806F007FF1CBD741400209E000020BB
:10715000D972000858B10F4B012811D0022818D15C
:10716000012902D0002202210EE00122FBE70129C1
:1071700004D000224FF40041074806E00122F9E75D
:10718000012904D0002201211846FFF78FB90122FE
:10719000F9E77047001401400010014008B50028CD
:1071A00010D0094948800020034602460090074954
:1071B000074800F0F3FB0022BDE8084032210448F4
:1071C00006F0C8BE08BD00009E00002091720008B5
:1071D000901400200E48018D018E29B1018D028E80
:1071E000914201D9018D018E018D502901D20020DB
:1071F0000BE0018DC82901D2022006E0008DB0F518
:10720000FA7F01D2042000E00620FFF747BF00000C
:10721000B413002038B50220ADF8000010218DF81D
:107220000310134C8DF8020069462046FEF798FFC4
:107230004FF40041ADF8001069460E48FEF790FF8C
:107240000121ADF8001069462046FEF789FF0120B4
:1072500000F038FE002001F09BF80020FDF7B0FCA4
:10726000002000F02FFE0020FFF708FF38BD0000CF
:10727000001401400010014010B5044800F0B4FBB8
:10728000BDE810400020FFF7F9BE00007414002094
:1072900010B50F4C607850B10020FFF7EFFE60880A
:1072A00068B1002232210B4806F054FE0AE00120AA
:1072B000FFF7E4FE608810B1401E6080EFE7002019
:1072C000FFF7DCFE607880F00100607010BD000008
:1072D0009E0000209014002070B500780025012643
:1072E000134C052828460BD0FFF7C8FE2078C8B1FC
:1072F000257000220F21BDE870400E4806F02ABE1E
:10730000FFF7BCFE207818B1257000223221F2E789
:10731000012126700846FFF71DFF01210220FFF71B
:1073200019FFF2E726700120FFF7A8FEE1E7000051
:107330009E0000207414002008B101207047084806
:1073400040F2BF310022016005494FF48050091F0F
:10735000086003480349001DC0E900121046704749
:107360006401002000F03B0010B508B1012010BD01
:1073700006F01EF980B210BD10B51146DDE90223FA
:1073800008B1012010BD06F049F9002010BD10B56C
:107390001146DDE9022308B1012010BD06F062F9B3
:1073A000002010BD0D4900B509680A7802F07F027F
:1073B000212A08D1FE2806D1488820B9888810B92A
:1073C000C888012801D0022000BD0548886100203E
:1073D0004882FFF719F9002000BD00002C030020AF
:1073E00009660008014902F0D9B80000980200209F
:1073F000014902F0D3B80000900200200549096855
:10740000C978052901D900207047034A02EBC10160
:1074100002F0C4B82C030020D002002009B90028D3
:1074200000D00220704700000F4910B509680A78A3
:1074300002F07F02212A07D1FF2805D1488818B918
:10744000888808B9C88808B1022010BD0120FDF75E
:10745000EFFD0220FDF7DAFD054904480860054903
:107460000020087010BD00002C030020555342433B
:10747000643700202802002070B52F4800253049CD
:1074800085722E480968C0794872284601F090FE3E
:107490004FF40071002001F045FF2021002001F091
:1074A00029FF1821002001F0ADFE264C0020217894
:1074B00001F0B8FE5821002001F0FEFE0020FDF78B
:1074C000C9FD002001F0E6FE0021012001F02AFFA5
:1074D0009821012001F0F0FE2021012001F00AFF97
:1074E0000021012001F0BEFE0021022001F01AFF60
:1074F000D821022001F086FE2178022001F092FEC0
:107500004FF44051022001F0ADFE0021022001F0B5
:10751000F1FE2178002001F085FE002001F0BAFE86
:10752000002001F04DFE0849012008600849074885
:1075300008600848057070BD94370020EAED000827
:107540002C030020CC02002020030020555342438E
:1075500064370020280200207047704710B5FFF7FD
:1075600061F8054800240068847200F0EDFC03F027
:107570005BFA0248046010BD2C03002020030020A9
:10758000044805490068884202D00220FDF75ABB32
:107590007047000064370020555342431C4910B522
:1075A000087840F0100008701A4B1878022819D09B
:1075B0004FF44054032824D0042801D0052825D1B5
:1075C000002018702146022001F04CFE0220FFF737
:1075D00003F8B0F5805F19D12146BDE810400220C4
:1075E00001F040BE0C48C27B282A0FD10A7842F035
:1075F00002020A70D3E90112407BBDE8104001F09D
:1076000017B90121002001F0E5FEE5E710BD0000FB
:1076100071010020280200206437002070B5194E47
:10762000307840F010003070174C0220A4F1400177
:10763000E57B03F009FA15494880087818B101285C
:1076400005D0022006E0BDE87040FDF71BBB2A2DE7
:107650000DD00120FDF7F6FA607B2422052101F010
:10766000D9FEBDE870400021022001F0B3BE3078A1
:1076700040F001003070091D607B06C9BDE8704014
:1076800001F0BEB9710100206437002028020020FB
:10769000094810B50068807A00280BD007490520FA
:1076A00008600120FDF7C4FC0220FDF7AFFC04498F
:1076B0000020087010BD00002C03002020030020D3
:1076C00028020020014904200860704720030020A0
:1076D000FEE7704770474FF48041480300F080B8E0
:1076E00070B50446C0780F2528B1012803D0752154
:1076F0001EA004F05DF86078102803D376211BA04B
:1077000004F056F8A078102803D3772117A004F0CE
:107710004FF8E07801214FF0E022E0B1194800680D
:10772000637800F4E060C0F5E060000AC0F1040690
:10773000C540A078B340284018432378124D00017B
:107740005855207800F01F039940400902EB800053
:10775000C0F8001170BD207800F01F039940400967
:1077600002EB8000C0F8801170BD00002E2E5C4C32
:107770006962726172795C7372635C6D6973632EA6
:10778000630000000CED00E000E400E010B50446EA
:10779000B0F5E06F0FD0B4F5C06F0CD0B4F5A06FAA
:1077A00009D0B4F5806F06D0B4F5407F03D06321D3
:1077B00003A003F0FDFF084804430848046010BD1F
:1077C0002E2E5C4C6962726172795C7372635C6DBF
:1077D0006973632E630000000000FA050CED00E001
:1077E00070B504460D46B0F1005F06D0B4F1006FED
:1077F00003D09F2107A003F0DBFF0C48854203D391
:10780000A02104A003F0D4FF0948054009482543FE
:10781000056070BD2E2E5C4C6962726172795C737A
:1078200072635C6D6973632E63000000FFFF0F00DD
:1078300080FFFF1F08ED00E070B52F4D286801782C
:1078400044784A0606D001F07F00012828D002289B
:107850002BD035E0092C06D0052C07D0032C0ED0F8
:10786000012C14D02CE001F003FF28E0C1787F291F
:107870002ED8817861BB818851BB807A27E0C1789E
:1078800001291DD18088D8B901F00EFF17E0C17819
:10789000012915D1818899B9407A80060AD40FE070
:1078A0000B2C0DD101F054FF09E0012C02D0032C68
:1078B00003D005E001F0E8FD01E001F007FF58B159
:1078C0000E4800684169E0B28847032802D018B129
:1078D00008200DE009200BE0094A0620002112686B
:1078E000084B92B203EB42025160074A30211180EB
:1078F0002968087270BD00002C03002030030020AE
:10790000505C0040006000403C03002010B5FFF7D1
:1079100039F90021BDE8104001A20846FFF70ABB73
:107920004E6F2053656E736F720000007047000049
:1079300001484068704700001400002010B504465C
:10794000FFF7F6FFA04201D3012010BD002010BDBB
:1079500010B50446FFF7ECFF204410BD0E4810B5EB
:10796000046816E0FFF7E4FF2169884210D3207A0B
:10797000C1070DD0810703D420F00100207204E07C
:10798000FFF7D6FFE16808442061D4E90510884775
:107990006468002CE6D110BD2C00002070B50446B0
:1079A000049EC360C4E905121D46FFF7C1FF2844C9
:1079B0002061267270BD00000A4B19680A4608E073
:1079C000814205D1087A40F001000872002070471A
:1079D00049680029F4D142601860017A41F0010140
:1079E0000172F3E72C0000200649096806E0814295
:1079F00003D10A7A22F001020A7249680029F6D1FD
:107A0000704700002C00002010B50F4C2068007A51
:107A1000022811D004280FD0032804D0052802D052
:107A2000072805D008E0FDF76BFC2068007A04E029
:107A300006480068C0688047082021680872BDE8D1
:107A4000104000F05FBA00002C030020300300203B
:107A50002DE9F74F05464FF4FA704FF000098542C3
:107A600000D90546DFF8F88001294FF000041ED147
:107A700046462846FCF7FBFD824604EB840006EBF5
:107A800080075046B968FCF74FFE0BD8F96850469E
:107A9000FCF740FE06D804EB840006EB8000866805
:107AA000F8681DE0641CE4B2072CE6D352E04646B9
:107AB0002846FCF7DCFD824604EB840006EB8007D9
:107AC00050463968FCF730FE40D879685046FCF7DC
:107AD00021FE3BD804EB840006EB80000668786842
:107AE000072C37D23146FCF737FC074604EB8401FC
:107AF00008EB8100418A008A091A1FFA81FAFCF713
:107B0000BBFD804689463846FCF7DAFD83460F46C2
:107B10002846FCF7ACFD3146FCF71EFCFCF7D0FD17
:107B200005460E465046FCF7A7FD2A463346FCF7AD
:107B3000BFFC5A463B46FCF72BFD42464B46FCF742
:107B400011FCFCF7A6FD1FFA80F904E0641CE4B206
:107B5000072CB1D30024029804704846BDE8FE8F7C
:107B60007CEB000870B50446FFF70CF8214D34B1EA
:107B7000012C0BD0022C29D0032C2ED129E0FFF7A9
:107B80007BFBA889E989FFF70FFA26E0FFF774FB72
:107B9000E88A298B0844698B2D8A084484B2002125
:107BA00015A20846FFF7C6F905232A46082100203A
:107BB000FFF770F913A200210120FFF7BBF905239D
:107BC000224608210120FFF765F906E0A889002177
:107BD00001E0A8890121FFF7B9F90D488079022851
:107BE00006D1BDE870400F210AA20120FFF7A2B91B
:107BF00070BD0000941300203E20302E33756D20A0
:107C0000000000003E20322E35756D20000000007F
:107C1000360000204800000070B51E4C30B101282D
:107C200010D0022823D0032828D123E0FFF724FB1B
:107C3000A289032306210020FFF72CF9E289032300
:107C4000062110E0FFF718FBE08A218B0844618BC6
:107C5000228A084485B2052308210020FFF71AF97B
:107C600005232A4608210120FFF714F906E0A08920
:107C7000002101E0A0890121FFF768F90648807919
:107C8000022806D1BDE870400F2104A20120FFF7B1
:107C900051B970BD94130020360000204800000048
:107CA00070B586B036212648FCF786FA244D0120AF
:107CB00085F8330001A8FDF74BFC224E002450B399
:107CC00021A002F0FDFF01940294039401A8049402
:107CD000FDF738FDB4711A4800231A461F49A43035
:107CE0000094FFF75BFE164800224FF44871A43061
:107CF00006F030F9042030700820B080B07901F02F
:107D0000B7F90F4800231A46154988300094FFF749
:107D100045FE06B070BD9DF805209DF8041011A029
:107D200002F0CEFF9DF8040085F83400BDF80A008B
:107D30002886BDF80800E8859DF80500B071CAE7FF
:107D4000B41300203600002072656164205359533B
:107D500020454E56206572720A00000079A0000886
:107D6000A59C0008726561642053595320454E5606
:107D7000204F4B3A2063616C203D2025642C206805
:107D80006F6C64203D2025640A000000F0B5027885
:107D90000023422A02D042784D2A33D11A4F3A7832
:107DA00012B13A78521E3A70C2788478DFF85CC01B
:107DB00002EB0422ACF802200CF10406002200EBD6
:107DC00042046579247905EB042426F81240521CFC
:107DD000D2B20E2AF3D3891C8AB2002104E0445C9B
:107DE000491C23449BB2C9B29142F8D3BCF81E008F
:107DF000984204D1054901207E3181F82700387866
:107E0000401C3870F0BD00003400002094130020A6
:107E10002DE9F041214C40F22551204602F06CFB47
:107E2000002830D0204602F051FD1D4CC0B294F81D
:107E300026100025422901D14D2826D0A18C2429C5
:107E400000D3A584A18C6218491CA184107084F809
:107E50002600A08C032816D9E078A17800EB012039
:107E6000A18C86B2301D81420DD10E4F012087F8C2
:107E700029004FF49670FFF76BFDF8623146084811
:107E8000FFF784FFA584BDE8F081A584A18C422280
:107E90006318491CA1841A70D4E70000003801401F
:107EA0001214002048000020054B521C520803EB1E
:107EB000410104D008C920F8023B521EFAD1704794
:107EC0000060004010B5040005D0012C03D07F21D4
:107ED00002A003F06DFC0948046210BD2E2E5C4C1C
:107EE0006962726172795C7372635C73746D333250
:107EF000663130785F7077722E63000000000E42AA
:107F0000704700000C4810B590F82C10002001F0CC
:107F100089F90A480068007A082802D0092809D09F
:107F200006E007494FF48050088006491020088079
:107F3000002010BD012010BDA00200202C03002055
:107F40003A0300203C03002010B5012002F002FD9E
:107F50000648012101600021054A0160031D1960E6
:107F60004FF4E05111800160002010BD405C0040E2
:107F70003803002070B51F4C40F225552946204695
:107F800002F0BAFAF8B1204602F0A0FC1A4AC3B2D5
:107F90009088D188401C00F03F0088420BD1A2F1AC
:107FA0000C00418809B90121418000222946204660
:107FB00002F02CFB07E01068918843549088401C25
:107FC00000F03F00908040F227752946204602F0DD
:107FD00093FA00280CD002F05DFD02F0B9FD0128F3
:107FE00006D129462046BDE87040012202F00EBBB2
:107FF00070BD000000440040B000002070B5044691
:108000000C480D46044200D124B940F269410AA04F
:1080100003F0CEFB104E4DB1012D04D040F26A4169
:1080200005A003F0C5FBF069204301E0F069A0431F
:10803000F06170BD003601812E2E5C4C6962726168
:1080400072795C7372635C73746D3332663130784D
:108050005F7263632E6300000010024070B5044637
:108060000C480D46044200D124B940F2C3410AA095
:1080700003F09EFB104E4DB1012D04D040F2C441DF
:1080800005A003F095FB3069204301E03069A0436F
:10809000306170BD003601812E2E5C4C69627261C8
:1080A00072795C7372635C73746D333266313078ED
:1080B0005F7263632E6300000010024070B50446D7
:1080C0000C480D46044200D124B940F24A410AA0AE
:1080D00003F06EFB104E4DB1012D04D040F24B4128
:1080E00005A003F065FBB069204301E0B069A0433F
:1080F000B06170BD0200C0FF2E2E5C4C69627261DF
:1081000072795C7372635C73746D3332663130788C
:108110005F7263632E6300000010024070B5044676
:108120000C480D46044200D124B940F2A4410AA0F3
:1081300003F03EFB104E4DB1012D04D040F2A5419D
:1081400005A003F035FBF068204301E0F068A04390
:10815000F06070BD0200C0FF2E2E5C4C696272613F
:1081600072795C7372635C73746D3332663130782C
:108170005F7263632E630000001002400C480168C8
:1081800041F00101016041680A4A11404160016803
:10819000094A11400160016821F4802101604168B1
:1081A00021F4FE0141604FF41F018160704700001F
:1081B000001002400000FFF8FFFFF6FE214A10B554
:1081C0005168214B11F00C0103D0042901D008297A
:1081D00001D0036012E05168536801F470114FF050
:1081E000020413F4803F04EB914102D053689B03D7
:1081F00001D5164B00E0144B594301605168144BF4
:1082000001F0F00109095C5C0168E14041605468DB
:1082100004F4E064240A1C5D21FA04F484605468C8
:1082200004F46054E40A1B5DD940C1605268084BF5
:1082300002F44042920B1B1F9A5CB1FBF2F1016108
:1082400010BD00000010024000127A0000093D003D
:108250000400002070B500250446212818D0312CD8
:1082600016D0392C14D0412C12D0612C10D07A2C7D
:108270000ED07B2C0CD07C2C0AD07D2C08D07E2CF0
:1082800006D07F2C04D040F234510BA003F090FABA
:108290006009114901280BD002280BD0486A04F06C
:1082A0001F0101228A40024200D00125284670BDEC
:1082B0000868F4E7086AF2E72E2E5C4C6962726186
:1082C00072795C7372635C73746D333266313078CB
:1082D0005F7263632E630000001002400248406832
:1082E00000F00C00704700000010024010B50400C0
:1082F00014D0802C12D0902C10D0A02C0ED0B02CEA
:108300000CD0C02C0AD0D02C08D0E02C06D0F02CF9
:1083100004D04FF4197105A003F04AFA0B494868DC
:1083200020F0F0002043486010BD00002E2E5C4C71
:108330006962726172795C7372635C73746D3332FB
:10834000663130785F7263632E6300000010024074
:1083500010B5040006D0012C04D040F2651103A032
:1083600003F026FA0948046010BD00002E2E5C4C74
:108370006962726172795C7372635C73746D3332BB
:10838000663130785F7263632E6300000000424202
:1083900010B5040008D0012C06D0042C04D04FF4F2
:1083A000507109A003F004FA0F480021017000F891
:1083B0002019012C05D0042C02D1052180F82010B1
:1083C00010BD0121FAE700002E2E5C4C696272613B
:1083D00072795C7372635C73746D333266313078BA
:1083E0005F7263632E6300002010024010B504002A
:1083F00010D0B4F5806F0DD0B4F5A06F0AD0B4F5ED
:10840000C06F07D0B4F5E06F04D040F27E2105A024
:1084100003F0CEF90B49486820F4E060204348603F
:1084200010BD00002E2E5C4C6962726172795C7323
:1084300072635C73746D3332663130785F7263637C
:108440002E6300000010024010B5040010D0B4F5F7
:10845000806F0DD0B4F5A06F0AD0B4F5C06F07D00F
:10846000B4F5E06F04D04FF4267105A003F0A0F935
:108470000B49486820F4605040EAC400486010BDD1
:108480002E2E5C4C6962726172795C7372635C73EC
:10849000746D3332663130785F7263632E6300002F
:1084A0000010024010B5040006D0012C04D04FF497
:1084B000CA7103A003F07CF90948046610BD0000EE
:1084C0002E2E5C4C6962726172795C7372635C73AC
:1084D000746D3332663130785F7263632E630000EF
:1084E0000000424270B505000C460AD0B5F5803F49
:1084F00007D0B5F5403F04D040F27F111DA003F036
:1085000057F974B3B4F5802F2BD0B4F5002F28D0D1
:10851000B4F5402F25D0B4F5801F22D0B4F5A01FAC
:108520001FD0B4F5C01F1CD0B4F5E01F19D0B4F5AE
:10853000001F16D0B4F5101F13D0B4F5201F10D0B3
:10854000B4F5301F0DD0B4F5401F0AD0B4F5501F5C
:1085500007D0B4F5601F04D04FF4C07105A003F03C
:1085600027F90C494868254320F47C1005434D60E9
:1085700070BD00002E2E5C4C6962726172795C7372
:1085800072635C73746D3332663130785F7263632B
:108590002E6300000010024010B5040008D0012C2A
:1085A00006D0022C04D04FF40E7105A003F000F9A0
:1085B0000B49486820F003002043486010BD0000CC
:1085C0002E2E5C4C6962726172795C7372635C73AB
:1085D000746D3332663130785F7263632E630000EE
:1085E0000010024010B5040006D0012C04D040F267
:1085F000DB2103A003F0DCF80948046010BD000093
:108600002E2E5C4C6962726172795C7372635C736A
:10861000746D3332663130785F7263632E630000AD
:10862000D80042427CB5344D0446344E287810B10F
:1086300001280CD053E056F82400A1FB0013C5E933
:108640000613A2FB0010C5E9081001202870686815
:108650002B4958B1E86840220144812002F006FA13
:10866000686840386860E86840301AE056F82400CE
:1086700080B2CDE90010D5E906232046FEF77CFE46
:1086800010F0FF0F03D0687840F0080068704022B7
:108690001B49812002F0EAF956F82400403868604E
:1086A0004020E8604021012000F016FE302101202A
:1086B00000F020FED5E906014022821841F10000B9
:1086C000C5E90620D5E908026FF03F01411842F1E3
:1086D000FF30C5E908100B48816840398160D5E951
:1086E0000801084307D16860E860C5E90600064A4A
:1086F0000321117028707CBD7001002060010020F2
:1087000024270020843700202802002070B5184C50
:108710001A4454F82040A2420DD92A2902D102203D
:10872000FCF790FA0020FCF78DFA124A052121206F
:108730009170107311E0114D0F4C55F82000A26894
:108740005843824211D02A290DD00020FCF77AFA32
:10875000607B2422052100F05DFE0021012000F055
:1087600039FE002070BD0220F0E7012070BD00003E
:108770006401002001020020643700206001002015
:1087800010B5FEF7D9FD00280ED008483A22022184
:10879000407B00F03FFE0121084600F01BFEBDE8D3
:1087A00010400020FCF74EBA10BD000064370020D6
:1087B00008490A7CD20702D00748052105E030B1FC
:1087C0000648C97C242900D9242101F0F7BC0448BB
:1087D000F7E7000064370020A8010020D101002045
:1087E000AD01002010B50B4CA06810B1207B000635
:1087F00001D5002000E00220FCF724FA607B202253
:10880000052100F007FE0021BDE81040012000F026
:10881000E1BD0000643700200821014801F0CEBC12
:10882000F90100200421014801F0C8BCF501002035
:108830002DE9F041164C80460D462078164630B1A1
:10884000022823D14046BDE8F041FFF7EBBE114FAF
:1088500013460A46787B2821FFF758FF002815D0D9
:10886000387B00064FF0020003D5207032462946BF
:10887000E8E7FCF7E7F9787B2422052100F0CAFD40
:10888000BDE8F0410121084600F0A4BDBDE8F0813B
:10889000280200206437002010B50446FEF74CFD86
:1088A00070B115483A220221407B00F0B3FD01214E
:1088B000084600F08FFDBDE810400020FCF7C2B96B
:1088C0000E480F4950F82420521E100E0870100C4C
:1088D0004870100A88700B48CA7050F82400020EC5
:1088E0000A71020C4A71020A8A71C871BDE810400F
:1088F0000821034801F062BC6437002064010020B5
:10890000130200206001002010B50446FEF714FD9C
:1089100070B114483A220221407B00F07BFD012116
:10892000084600F057FDBDE810400020FCF78AB96A
:108930000D480E4950F82420100E0871100C487193
:10894000100A88710A48CA7150F82400020C4A7251
:10895000020A8A72C872BDE810400C21034801F077
:108960002DBC000064370020640100201B020020A1
:10897000600100200348C17C122900D9122102485D
:1089800001F01CBC643700200102002001210020FE
:1089900000F020BD10B5FEF7CFFC70B10A483A22B6
:1089A0000221407B00F036FD0121084600F012FD57
:1089B000BDE810400020FCF745B90121BDE810409A
:1089C000002000F007BD00006437002010B50B4CFC
:1089D000A06828B9207C400702D40121002009E0CA
:1089E0000220FCF72FF9607B2422052100F012FD04
:1089F00000210120BDE8104000F0ECBC64370020ED
:108A000070B5174D13462A7832B1012A26D1BDE838
:108A100070401A4602F0CEB8124C0A462A21607BFA
:108A2000FFF774FE002819D0207B000608D401202F
:108A30002870BDE870404FF44051022000F012BC95
:108A40000020FCF7FFF8607B2422052100F0E2FC07
:108A5000BDE870400021012000F0BCBC70BD0000EA
:108A6000280200206437002010B516210648FBF7C5
:108A7000A3FBFDF797F8054948600146BDE81040A3
:108A800003A002F01DB900007C1300201C00002090
:108A9000696E69743A20746F74616C5F6974656D96
:108AA00073203D20256C640A0000000010B50246CA
:108AB0001E48052A17D2DFE802F00306090C0F0052
:108AC0000988418111E0098881810EE00988C1810E
:108AD0000BE00988018208E00B68C0F802304968A1
:108AE000C0F8061001E0052A04D2817C01239340DE
:108AF00019438174817C41F0100181741F2912D1C6
:108B00000B4CA068FEF71AFF68B140F2DC50FEF78C
:108B10001FFFA060FEF70CFF014606A002F0D0F890
:108B200010A000F0C5F8002010BD00007C1300204C
:108B30001C000020726561647920746F207769726F
:108B40007465206461746120706F696E7420746F45
:108B50002066696C652C207469636B203D20256C50
:108B6000640A000073656E736F725F646174612ED6
:108B7000747874002DE9F04F168885B004000F4614
:108B8000154656D0002F54D0002D52D0FEF7D0FEFF
:108B90004FF06408B0FBF8F0DFF8A890009038467A
:108BA00029A23146D9F8043002F09AF8218A86B217
:108BB000B1FBF8F2288808FB1218801B1FFA80FE10
:108BC000E0890A21B0FBF1F201FB120202F1300A46
:108BD0004FF47A72B0FBF2F302FB1300B0FBF1FC2E
:108BE000A089B0FBF2F102FB11016089CDE902CA54
:108BF000B0FBF2F302FB130B42F21073B0FBF3F481
:108C000003FB1400B0FBF2F3CDE900B13033B81927
:108C100011A2CDF81080714602F062F8D9F8041064
:108C20003044491CC9F804102880002005B0BDE874
:108C3000F08F542310A2002114A002F041F801206B
:108C4000F4E700001C0000205B253035645D202027
:108C5000256C64207320200025632E25303364208A
:108C600020253364202020202533642E25632020F6
:108C700025326425250D0A002E2E5C557365725C25
:108C80007372635C534452522E6300006572726FBC
:108C900072203D2025642C2066696C65203D2025CE
:108CA000732C206C696E65203D2025640A0000004D
:108CB0002DE9F8431D4D80461D4E28880027C0F53C
:108CC0008051ADF8001031186A4606F58050FFF764
:108CD00051FF04462888BDF80020104480B2C0F53A
:108CE000805189B2288091421DD206F6FE74022975
:108CF00007D930444FF02002A1F10201FBF755FAE9
:108D000000E005D14FF002020AA12046FBF776FAF7
:108D100007494046FDF77CF904464FF4805104486A
:108D2000FBF74AFA2F802046BDE8F8831C0000209C
:108D30007C0300200D0A000070B504460F480D4664
:108D400084420AD00E48844207D00E48844204D0A0
:108D500040F29A210CA002F02BFD55B1012D04D058
:108D600040F29B2108A002F023FD208840F400502F
:108D700002E0208820F40050208070BD00300140C7
:108D800000380040003C00402E2E5C4C696272614D
:108D900072795C7372635C73746D333266313078F0
:108DA0005F7370692E63000070B504460F480D466E
:108DB00084420AD00E48844207D00E48844204D030
:108DC0004FF4D7710CA002F0F3FC55B1012D04D083
:108DD00040F2AF1108A002F0EBFC208840F0400008
:108DE00002E0208820F04000208070BD003001406B
:108DF00000380040003C00402E2E5C4C69627261DD
:108E000072795C7372635C73746D3332663130787F
:108E10005F7370692E6300002DE9F041174D184E05
:108E2000184F0446A84207D0B44205D0BC4203D034
:108E30007A2115A002F0BCFCAC420AD101210C033E
:108E40002046FFF76BF92046BDE8F0410021FFF70F
:108E500065B9B44202D101218C0303E0BC420AD1BE
:108E60000121CC032046FFF7F9F82046BDE8F04188
:108E70000021FFF7F3B8BDE8F081000000300140A9
:108E800000380040003C00402E2E5C4C696272614C
:108E900072795C7372635C73746D333266313078EF
:108EA0005F7370692E63000070B505461548002693
:108EB0000C4685420AD01448854207D013488542A3
:108EC00004D040F2023112A002F072FC802C12D0C9
:108ED000402C10D0202C0ED0102C0CD0082C0AD0F6
:108EE000042C08D0022C06D0012C04D040F203310F
:108EF00007A002F05DFC2889204200D00126304600
:108F000070BD00000030014000380040003C0040CF
:108F10002E2E5C4C6962726172795C7372635C7351
:108F2000746D3332663130785F7370692E63000080
:108F300070B5054642480C46854209D041488542F5
:108F400006D04148854203D0A32140A002F030FC66
:108F5000208860B1B0F5806F09D0B0F5004F06D021
:108F6000B0F5404F03D0A62138A002F021FC608864
:108F7000B0F5827F04D018B1A72134A002F018FC0C
:108F8000A088B0F5006F04D018B1A8212FA002F07E
:108F90000FFCE08828B1022803D0A9212BA002F001
:108FA00007FC208928B1012803D0AA2127A002F0BC
:108FB000FFFB6089B0F5007F04D018B1AB2123A07E
:108FC00002F0F6FBA08988B108280FD010280DD038
:108FD00018280BD0202809D0282807D0302805D001
:108FE000382803D0AC2119A002F0E2FBE08928B1B7
:108FF000802803D0AD2115A002F0DAFB208A18B931
:10900000AE2112A002F0D4FB288821886288E38870
:109010001143A28800F441501A431143228911439D
:1090200062891143A2891143E289114301432980D6
:10903000A88B20F40060A883208A288270BD0000DD
:109040000030014000380040003C00402E2E5C4CB7
:109050006962726172795C7372635C73746D3332CE
:10906000663130785F7370692E63000070470000CE
:1090700030B40B4C03462046217804F112054078A9
:1090800005EB0112994208D09072A17005EB031113
:109090002370887A6070096800E0516830BC084726
:1090A000360000201FB5194C194A2046A1790078D6
:1090B00009B181420CD0A071012801D015A20CE0A9
:1090C00092F8340008B114A200E014A20D2105E0CA
:1090D0000021A171012811D011A20F210120FDF75B
:1090E00029FF6846FCF734FAA1798DF801100DA02C
:1090F00001F0E6FD6846FCF725FB1FBD92F8340041
:1091000008B10CA2E2E70CA2E0E700003600002064
:10911000B4130020480000004326480020204800E7
:10912000200000007361766520686F6C64203D202C
:1091300025640A0043414C002020200001490520FD
:10914000888070473600002070B5104CA088052834
:1091500001D20520A08060780C4D401CC0B2607028
:109160002278123505EB0211097A884201D90020D4
:109170006070C1B206A001F0A3FD2178607805EB14
:1091800001110968BDE87040084700003600002062
:1091900073756220737461203D2025642C206D61FD
:1091A0007374657220737461203D2025640A000089
:1091B000024920F00700086070470000505C004042
:1091C000F0B50E490E4E48F68F770D78002148F223
:1091D000800C0AE0CAB206EB82031C68A4B23C40D1
:1091E000144344EA0C041C60491CA942F2D304490C
:1091F00040F080004C310860F0BD0000F802002013
:10920000005C0040054A21F00101126892B202EBB5
:10921000C000034A02EB400081607047505C004090
:10922000006000400D4A12683E2992B202EBC00075
:109230000B4A02EB400209D94809C90601D1401E78
:1092400080B24FF4004141EA802005E04808C90798
:1092500001D0401C80B2800210607047505C00401A
:109260000C6000400A4A02EB800210684BF68F73D4
:1092700080B200EA0300CB0401D580F48050890459
:1092800001D580F4005048F2800108431060704717
:10929000005C0040074901EB800001684BF68F72CB
:1092A00089B2114081F4405148F2800211430160BB
:1092B00070470000005C0040054A21F0010112687F
:1092C00092B202EBC000034A42F81010704700004F
:1092D000505C004000600040044A126892B202EB09
:1092E000C000034A02EB400041607047505C004000
:1092F000006000400A4A02EB8002106848F6BF7323
:1093000080B200EA0300CB0601D580F01000890688
:1093100001D580F0200048F28001084310607047BA
:10932000005C0040054A02EB8000026848F68F139B
:1093300092B21A400A43026070470000005C00408D
:10934000224900200A6842F480320A604FF4A06388
:109350000A6800F1010012F4003F01D19842F7D1F0
:109360000868800330D51A48026842F01002026093
:10937000026822F003020260026842F00202026008
:109380004868486048684860486840F480604860C1
:10939000486820F47C104860486840F4E810486051
:1093A000086840F08070086008688001FCD5486853
:1093B00020F003004860486840F0020048604868B8
:1093C000C0F381000228FAD170470000001002406B
:1093D0000020024010B50D4A0C460B491160107375
:1093E0000D220A49812001F041FB09480521002C8A
:1093F000017007D0042101703021BDE81040012028
:10940000FFF778BF10BD000055534253843700204A
:109410002802002001488170027370470102002079
:1094200070B516480068174D81B2154800EB410130
:10943000896889B200EB41042868017A09290FD0B4
:109440002178017061784170A088FBF715FC2968CC
:1094500048802089FBF710FC29688880A089C88093
:10946000286801210172C08828B1FBF79DFFBDE883
:109470007040FEF747BDFEF7DFF9F8E7505C0040AB
:10948000006000402C0300202DE9F04134480168C1
:10949000087810F07F0002D0022805D05EE0487AFC
:1094A00000F0DF00487247E04888002856D108796C
:1094B000002853D14A792C4D22F080001306294C04
:1094C00055F8203003D5C3F301131B0102E0C3F3A9
:1094D00001331B032678044686423FD97BB3897A41
:1094E00069B311060ED555F82010C1F301110129F9
:1094F0001ED1E0B20446FBF79BFD30212046FFF76A
:10950000F9FE15E005EB80042168C1F30131012962
:109510000ED14BF68F7648F2800788B1C0B2FBF7C8
:1095200075FD206880B2304080F4405038432060A0
:109530000E480068406980470020BDE8F0810DE0DA
:109540000B4890F82C100020FFF76CFE286880B2C2
:10955000304080F4405038432860E9E70220ECE7CF
:109560002C030020F8020020005C0040340300209F
:10957000A002002010B5074C30B107480068006811
:10958000804720680A3010BD216801200882002031
:1095900010BD00002C03002034030020054A13688E
:1095A0005A8A10B10868104470478888801A188257
:1095B000002070472C03002010B5074C30B107483D
:1095C00000688068804720680C3010BD2168012049
:1095D0000882002010BD00002C030020340300206E
:1095E0001F4910B5096860B11E48002202800A7840
:1095F00053060AD002F07F02012A16D0022A16D0A2
:1096000001E002200882002010BD497A8A06027813
:1096100002D542F0020201E002F0FD0249060270AA
:10962000D1B210D401F0FE010FE00E4810BD4A790E
:1096300002F00F0113060C4A52F8211007D5C1F3AE
:10964000011106E0017841F00101017003E0C1F36E
:1096500001310129F6D00548006800698047E4E738
:109660002C03002026030020005C0040340300206F
:109670000A4810B500680A4AC1785278914203D866
:1096800082780AB982880AB1022010BD8172054829
:10969000006840688047002010BD00002C030020B7
:1096A000F802002034030020064810B50068417A13
:1096B00041F02001417204480068C06980470020E1
:1096C00010BD00002C0300203403002070B51C489E
:1096D00002681C48517921F0800500EB85000B06DB
:1096E000036821F0800403D5C3F301131B0102E0DA
:1096F000C3F301331B03144D2D78A54211D95488AF
:109700007CB973B1927A62B109060029016848F206
:10971000800289B207DA48F6BF73194081F0100160
:1097200006E0022070BD4BF68F73194081F4805122
:10973000114301600548006880698047002070BDC2
:109740002C030020005C0040F802002034030020BD
:1097500010B50E4C0E4A20681268C17892694079A3
:10976000904721688A7A22B118B9087908B98878AF
:1097700008B1022010BD07480068C0688047206813
:109780004179C172C1780173002010BD2C03002003
:10979000300300203403002010B5FEF7EFFC012059
:1097A000FEF7D6FD2120FEF755FD0028FAD0102047
:1097B000FCF784FC0220FCF7A9FC0020FEF796FDD4
:1097C0000020FEF741FE4FF48060FEF70FFE4FF4DD
:1097D00020110020FEF786FE0120FEF763FE3920EF
:1097E000FEF738FD0028FAD00220FEF7D5FEFEF77E
:1097F00075FD0828FBD103490148086010BD000031
:10980000006CDC02CC000020AFF30080034841680C
:10981000491C4160012101707047000014000020C4
:109820000B4864210068B0FBF1F0B0F1807F0DD2ED
:1098300020F07F414FF0E020491E4161054AF021B0
:10984000117000218161072101617047FEE700006E
:10985000CC00002023ED00E0034610B500200246B6
:1098600002E09C5C521C20448A42FAD310BD342092
:10987000122801D000207047012070470F4810B512
:10988000016841F00101016041680D4A11404160E9
:1098900001680C4A11400160016821F480210160D7
:1098A000416821F4FE0141604FF41F018160FFF720
:1098B00047FD05494FF00060086010BD00100240F0
:1098C0000000FFF8FFFFF6FE08ED00E070B504466B
:1098D00024480D46844234D0B4F1804F31D0224820
:1098E00084422ED0214884422BD02148844228D063
:1098F0002048844225D02048844222D01F488442F8
:109900001FD01F4884421CD01E48844219D01E48D4
:10991000844216D01D48844213D01D48844210D082
:109920001C4884420DD01C4884420AD01B48844203
:1099300007D01B48844204D040F2293119A001F01D
:1099400037FF55B1012D04D040F22A3115A001F0A6
:109950002FFF208840F0010002E0208820F0010065
:10996000208070BD002C0140000400400008004031
:10997000000C004000100040001400400034014082
:10998000004C0140005001400054014000180040CC
:10999000001C004000200040004001400044014005
:1099A000004801402E2E5C4C6962726172795C73D2
:1099B00072635C73746D3332663130785F74696DD5
:1099C0002E6300002DE9F05F444FDFF81481DFF8CB
:1099D0001491DFF814A1DFF814B1454E04460D468A
:1099E000B8422ED0B4F1804F2BD0444529D04C45FD
:1099F00027D0544525D05C4523D03E48844220D012
:109A0000B4421ED03C4884421BD03C48844218D00B
:109A10003B48844215D03B48844212D03A488442A5
:109A20000FD03A4884420CD03948844209D0394892
:109A3000844206D03848844203D0E72137A001F0A1
:109A4000B7FE688858B1102809D0202807D04028D0
:109A500005D0602803D0E82130A001F0A9FEE888F5
:109A600048B1B0F5807F06D0B0F5007F03D0E92182
:109A70002AA001F09DFE2088BC420AD0B44208D042
:109A8000B4F1804F05D0444503D04C4501D0544536
:109A900003D120F07001688808435C4506D0154961
:109AA0008C4203D020F44071E88808432080A888C5
:109AB000A08528882085BC420AD0B44208D014482A
:109AC000844205D01348844202D01348844201D115
:109AD000287A20860120A082BDE8F09F002C01405A
