:020000040800F2
:10400000684C0020014100089B6A000869610008B3
:10401000996A0008E7490008A99600080000000016
:10402000000000000000000000000000CD8100083A
:10403000E5500008000000004571000829880008CC
:104040001B4100081B4100081B4100081B410008E0
:104050001B4100081B4100081B4100081B410008D0
:104060001B4100081B4100081B4100081B410008C0
:104070001B4100081B4100081B4100081B410008B0
:104080001B4100081B4100081B410008F194000877
:10409000A99500081B4100081B4100081B410008AE
:1040A0001B4100081B4100081B4100081B41000880
:1040B0001B4100081B4100081B4100081B41000870
:1040C0001B4100081B4100081B4100081B41000860
:1040D0001B410008958D0008998D0008358E000859
:1040E0001B4100081B4100081B410008DFF80CD0F1
:1040F00000F08EFB0048004769C40008684C0020AF
:104100000648804706480047FEE7FEE7FEE7FEE771
:10411000FEE7FEE7FEE7FEE7FEE7FEE79D88000814
:10412000ED4000082DE9F05F0546002092469B46D1
:1041300088460646814640241BE0284641464746BD
:10414000224600F0AEFA52465B46801A994110D3DF
:1041500010461946224600F095FA2D1A67EB010821
:104160004F4622460120002100F08CFA17EB00098F
:104170004E41201EA4F10104DFDC484631462A46A8
:104180004346BDE8F09F40EA01039B0703D009E0E6
:1041900008C9121F08C0042AFAD203E011F8013B33
:1041A00000F8013B521EF9D27047D2B201E000F88C
:1041B000012B491EFBD270470022F6E710B50446DA
:1041C0000846114602462046FFF7EFFF204610BD85
:1041D00030B50EE003460A4601E05B1C521C1C7819
:1041E0001578AC4201D1002CF7D115F0FF0F04D0A7
:1041F000401C0278002AEDD1002030BD10B50446E5
:1042000004E00B7800F8013B03B1491C521EF8D2C0
:10421000204610BD0146002000E0401C0A5C002A38
:10422000FBD17047F0B480EA0102D20F4300B3EB38
:10423000410F02D20346084619464B0042D0C30D37
:10424000DDB2C1F3C7542C1B202C35DAC1F31601A3
:1042500041F4000502B16D42C4F1200605FA06F1F1
:1042600025412844B3EBD05F23D0C2B1012CA0EB91
:10427000C35009DCF0BC4FF0004202EAC35200F523
:104280000000DBB200F038BA400000F1807000EBB3
:10429000C350A0F1807040EAD170490009E049089C
:1042A00041EAC071A0EBC35000F50000400800EBEC
:1042B000C350F0BC00F017BA5142012303EB410197
:1042C000801AF6E7F0BC704781F00041AAE780F061
:1042D0000040A7E72DE9FE4F074681EA0300C00F23
:1042E0000E46019021F0004123F00044B81AA1418C
:1042F00005D23846314617461E460B46024623F085
:104300000040104304D13846314603B0BDE8F08F79
:10431000350DC5F30A00C3F30A510290401A00900C
:10432000402868DAC3F3130040F4801B01989246DA
:1043300020B10023D2EB030A63EB0B0B0098594624
:10434000C0F14002504600F09DF980460C465046B0
:104350005946009A00F0B5F9C0197141EF1785EA86
:1043600011533B4340D0019A52B3009A012A11DC09
:104370000022801A4FF0004361EB055103EA055318
:104380008018CDE9002341F580114246234600F014
:10439000EDF9BAE72E050025401B61EB0601401937
:1043A00041F58012001852412818A6F5001343EB7E
:1043B000020140EAD470294318EB0808644113E075
:1043C00064084FEA38084FF0000244EAC0744FEA2C
:1043D0000553801A61EB0301801841F580114908EB
:1043E0004FEA3000801859414246234603B0BDE8E9
:1043F000F04F00F0AEB90198012240000023D0EB4D
:10440000020263EBE07301984FEAE074381A66EB3E
:104410000401EBE783F000435CE781F0004159E7DA
:104420002DE9FE4F81EA030421F0004504F0004429
:1044300023F000414FF0000A009450EA050302D037
:1044400052EA010304D10020014603B0BDE8F08F19
:10445000C1F30A53C5F30A541C44A0FB02B3C5F3CD
:10446000130545F4801CC1F3130141F480180CFBC3
:10447000023300FB083EA4F2F334810A930A41EAB6
:104480008C5143EA88530194A1FB03474FEA9C25D2
:1044900005FB03734FEA982601FB06373D05260509
:1044A00045EA1435BBEB06016EEB0503850E920E53
:1044B00045EA8C1542EA8812A5FB0206261E67EB28
:1044C00000070C0D44EA0334A41947EB1350C1F361
:1044D00013064FF0000319464FEA033343EA16531D
:1044E00043EA0403019CE5FB0201A4F10C040294DD
:1044F000009C4FEA0632CDE900A400F037F9A4E7AA
:104500002DE9F04D81EA030404F0004B21F000474F
:1045100014464FF0000A23F0004150EA070220D071
:1045200054EA01021DD0C1F30A550246C1F313003B
:10453000C7F30A56C7F3130340F4801143F4801302
:10454000A6EB0508101BD64608F2FD3873EB0100F8
:1045500002D308F1010801E092185B41B8F1000FA5
:1045600003DA00200146BDE8F08D00204FF48015ED
:10457000064607460EE0B2EB040C73EB010C04D3C5
:10458000121B064363EB01032F436D084FEA300013
:1045900092185B4150EA050CEDD152EA030012D0AB
:1045A00082EA040083EA0105284303D100224FF088
:1045B000004308E0101B8B4102D20122002302E0DD
:1045C0006FF0010253101AEB060047EB085110EB95
:1045D0000A0041EB0B01BDE8F04D00F0BAB896239C
:1045E0000022114600F088B80EB540F23341029126
:1045F0000021CDE900110A460B4600F0B7F803B0E0
:1046000000BDC1F30A52C1F3130140F2FF3341F47C
:1046100080119A4201DA0020704740F233439A42F7
:10462000A2F2334202DC524200F03BB890407047A5
:1046300000F0004230F000400DD0C10D01F5607176
:1046400042EA01510022C0F31600520742EAD002AA
:10465000400711437047002001467047002801DBE6
:10466000C0F10040002901DBC1F1004181427047E7
:10467000002801DBC0F10040002901DBC1F100414D
:1046800088427047202A04DB203A00FA02F1002019
:1046900070479140C2F1200320FA03F31943904080
:1046A0007047202A04DB203A21FA02F000217047EB
:1046B00021FA02F3D040C2F120029140084319468A
:1046C0007047202A06DBCB17203A41FA02F043EA72
:1046D000E071704741FA02F3D040C2F120029140EC
:1046E0000843194670470029A8BF7047401C49007D
:1046F00008BF20F00100704710B4B0FA80FC00FA47
:104700000CF050EA010404BF10BC704749B1CCF171
:10471000200421FA04F411FA0CF118BF01212143FD
:104720000843A3EB0C01CB1D0106000A002BBEBF02
:10473000002010BC704700EBC35010440029A4BFF8
:1047400010BC7047401C490008BF20F0010010BC9D
:10475000704710B5002B08DA401C41F10001921897
:104760005B411A4301D120F0010010BD2DE9F04D4D
:1047700092469B4611B1B1FA81F202E0B0FA80F2A2
:1047800020329046FFF77EFF06460F4640EA0A00B9
:1047900041EA0B0152465B46084303D13046394695
:1047A000BDE8F08D194652EA010015D0C8F140026B
:1047B0005046FFF776FF04460D465046594642469E
:1047C000FFF760FF084301D0012000E00020044310
:1047D00045EAE07526432F430A984FEAD625A0EB19
:1047E00008000A304FEA46534FF0000245EA4755A9
:1047F0004FEAD72402D500200146D1E70105501920
:104800006141DDE9084500196941BDE8F04DA0E7C7
:10481000064C074D06E0E06840F0010394E807000D
:1048200098471034AC42F6D3FFF764FC44DA000832
:1048300064DA000870B501EB020410F8015B15F0B2
:10484000070301D110F8013B2A1106D110F8012B02
:1048500003E010F8016B01F8016B5B1EF9D12B0727
:1048600005D40023521E0FD401F8013BFAE710F8DB
:10487000013B02F10202A1EB030303E013F8015B29
:1048800001F8015B521EF9D5A142D6D3002070BDBC
:1048900030B587B072B602F002F903F08DFF03F075
:1048A000CFFF01213D2002F02BFD1D4841681D4A2C
:1048B0001143416004F0C6FE4FF4165004F0BCFAF8
:1048C00062B600F053F802A802F09AFD1648069965
:1048D000B1FBF0F50599B1FBF0F40499CDE9004581
:1048E000B1FBF0F30399B1FBF0F20299B1FBF0F1E7
:1048F0000E4804F075FF0EA310A213A115A004F03A
:104900006FFF08F03FFB4FF47A7005F0D3FC01F025
:1049100039F802F06FFB03F09BF907B030BD0000DF
:10492000000001400080000240420F0024D0000837
:1049300031393A34303A3331000000004A756E2084
:1049400031362032303137004150502056312E312F
:10495000323700006170702076657273696F6E3A4D
:104960002025732025732025730D0A0010B503F050
:104970008EFF0549087008B104A100E006A1BDE85A
:10498000104009A004F02CBF2000002042696745B8
:104990006E6469616E0000004C6974746C65456EEC
:1049A0006469616E000000005379732069732025EB
:1049B000730A000010B578B14FF48054012805D077
:1049C00002280FD11021012003F0A4FC2146BDE8EC
:1049D0001040022003F056BC1021BDE81040012019
:1049E00003F098BC10BDFEE7C1B2000A40EA012006
:1049F0007047000070B5614B614C00205988A4F1EC
:104A0000400202E0155C2554401C8842FAD35C4801
:104A1000626820301F294260A268826007D00220AD
:104A2000FFF7C8FF00202060607B1A2221E0E17BB5
:104A3000282901D02A290AD1D4F81100227D00BAF0
:104A400020F0FF0010435860E08A40BA98604D4A59
:104A50002068904252D14C4A607B1268904203D841
:104A6000A27B0AB1102A0DD90220FFF7A3FF607BB9
:104A70002422052103F0DEFCBDE870400021012066
:104A800003F0B8BC252958D01ADC152971D00DDCEB
:104A900008296ED005DCB9B3032936D004292DD1FD
:104AA00063E00A2965D0122928D132E01A390A298F
:104AB00024D2DFE801F03632235E32232323233E63
:104AC0008A2956D00EDC552953D006DC28293CD043
:104AD0002A2940D02F2911D143E05A2925D08829ED
:104AE0000CD146E0A82944D004DC8F2941D09E296E
:104AF00004D13EE0AA293CD0AF293AD00220FFF7EA
:104B000059FF607B2022B4E71BE0BDE8704003F052
:104B100025B8BDE8704002F03FBFBDE8704003F02B
:104B200029B8BDE8704002F071BFBDE8704002F0E6
:104B300067BFBDE8704002F0DBBFBDE8704002F027
:104B40009FBFBDE8704003F019B8D3E90112BDE87A
:104B5000704002F061BFD3E90112BDE8704003F07C
:104B600043B8BDE8704003F025B8BDE8704002F0DE
:104B7000FBBEBDE8704002F029BF0000C801002064
:104B8000BC360020555342432C0200202DE9F04151
:104B9000184D174C174F4435174E23E047F6FF705A
:104BA0002860308800F00F00207007EB800001685B
:104BB00089B20A0407D5016840F68F7289B21140A4
:104BC00001600E4808E009060CD5016848F60F722E
:104BD00089B2114001600A48217800EB810050F849
:104BE000040C8047286830800004D7D4BDE8F081E9
:104BF000C8020020005C0040280200200C020020B7
:104C0000F00100202DE9F05F4BF6BF7848F28009F3
:104C1000454F40F68F7A454E454D48F60F7B27E0CD
:104C2000088810F00F0030702BD005EB8000016871
:104C30008CB221040BD5016889B201EA0A01016036
:104C40003C48317800EB810050F8040C8047200686
:104C50000ED5307805EB8000016889B201EA0B01BE
:104C600001603548317800EB810050F8040C804732
:104C70002F4844300068314908800004D0D4BDE892
:104C8000F09F28683880388800F0300078803888B5
:104C900000F440503880286880B200EA080080F4B0
:104CA000005080F0200040EA090028600888C00613
:104CB0000028286880B217DB00EA0B00286001F0AA
:104CC00055FA24E03988890401D580F400507988A8
:104CD000C90626D47988890601D580F0200080B2E3
:104CE00040EA09002860CAE7010507D5286880B2B4
:104CF00000EA0A00286003F0A3FB08E00004B7D52F
:104D0000286880B200EA0A00286002F03FF82868AC
:104D1000398880B200EA0800C904D3D580F48050F5
:104D2000D0E780F01000D5E7DA020020C8020020AA
:104D3000005C00400C020020F0010020280200204E
:104D400070B500240C4A04E032F81030401C1C44BA
:104D5000C0B20C28F8D30846FFF746FC05460E46BD
:104D60002046FFF741FC2A463346FFF7C9FBFFF711
:104D700048FC80B270BD000050130020074901EBD1
:104D800080000168490408D5016848F68F7289B22D
:104D900011404CF28002114301607047005C0040FA
:104DA000074901EB80000168490608D5016848F60B
:104DB0008F7289B2114048F2C002114301607047FE
:104DC000005C0040064901EB8000016848F68F62F4
:104DD00089B2114048F2800211430160704700001F
:104DE000005C00402DE9F05FDFF89C90DFF89C80CC
:104DF0004FF0300AD9F8001001F11004088A0E7A39
:104E000008B9042E04D0A588A84216D8042615E0B7
:104E10001F4A1078012804D007261021A8F8001096
:104E20002CE01C49002009681B4B89B203EB4101AF
:104E30004860A8F800A0107020E00226854200D942
:104E40000546A8B2A168074688478346002000F0BF
:104E5000F1FF01463A46584604F028FC3946002046
:104E600003F04AFA2088401B208060882844608034
:104E7000A8F800A009494FF440500880D9F8000074
:104E80000672BDE8F09F0000CC020020DC0200208A
:104E9000C4020020505C004000600040DA020020A4
:104EA0002DE9F047234EDFF890904FF0300834683A
:104EB00034F8100FA168B1B108B3A588854200D9B4
:104EC0000546A8B20746884782462088401B2080B6
:104ED000608828446080002000F082FF01463A4646
:104EE000504602F021F9208848B114494FF440504F
:104EF00008800021084603F0FFF9A9F80080208807
:104F0000A188884201D3032001E020B10520316847
:104F10000872BDE8F0873168062008720849002051
:104F20000968084A89B202EB41014860A9F800808B
:104F3000EFE70000CC020020DC020020DA020020B3
:104F4000505C0040006000402DE9F0415C4C5D4D3C
:104F500009262068002729684278062A05D0AAB1C8
:104F6000082A4BD00A2A4ED069E00278520666D150
:104F70008078012804D0022804D0032804D05EE001
:104F8000C96954E0096A52E0496A50E04288A2BB0C
:104F9000C288022A53D102797ABB0278530601D122
:104FA000838833B102F07F02012A04D0022A0CD098
:104FB00045E045493BE08A69407900219047E0B9E6
:104FC0002068807A0028F4D139E0417901F00F009F
:104FD00001F070020B063D4951F8201003D5C1F3D2
:104FE0000111090102E0C1F301310903384B1B78BB
:104FF000834224D90AB90029DBD120E00078400699
:105000001DD1344913E0027802F07F02012A16D143
:10501000827AA2B1428892B9027982B9C288012A01
:105020000DD18A6940790021904740B92A4931B1B0
:1050300020684782816100208847002006E02968B7
:105040002068096940788847032808D021680A8ABF
:10505000A2F57F43FF3B05D10E72BDE8F0812068C9
:105060000672FAE7022808D03AB10878000620D57F
:10507000C888824205D9088213E04FF00800087200
:10508000EBE70ED22868154B90F82C00824201D233
:105090001F7006E0B2FBF0F400FB142008B90120F9
:1050A0001870286890F82C008882BDE8F041FFF75E
:1050B00099BE032008720A4900030880CDE700006A
:1050C000CC020020D002002001860008005C0040D5
:1050D0009802002095850008D9850008C4020020A8
:1050E000DA020020704701F03DBC01F07BBC0000FB
:1050F0002DE9F0410746884607F0FAFC214C0546A9
:10510000B8F1000F35D03A0B39461FA004F068FB08
:105110004FF48056234632463946284607F002FDB2
:10512000642241462046FFF72EF85C21204603F01A
:10513000A3FBC243C4E9170201461DA004F050FBC3
:1051400032463946284607F060FC23463246394647
:10515000284607F0FFFD234632463946284607F029
:10516000E1FCD4E917121CA004F03AFB0020BDE8D2
:10517000F0810F2322A2002129A004F031FB01209D
:10518000F5E700007C160020777269746520666C74
:1051900061736841646472203D20307825782C204A
:1051A000736563746F72203D2025640A000000005F
:1051B000773A20636865636B203D20307825782C32
:1051C00020636865636B496E7665727365203D2068
:1051D000307825780A000000723A20636865636BB6
:1051E000203D20307825782C20636865636B496EFC
:1051F0007665727365203D20307825780A000000BE
:105200002E2E5C4472697665725C7372635C463103
:1052100030585F466C6173685F49662E630000001A
:105220006572726F72203D2025642C2066696C6562
:10523000203D2025732C206C696E65203D2025645F
:105240000A0000002DE9F0419CB000251A950122CA
:105250005E495F481B9506F025F8044601465DA0AF
:1052600004F0BEFA4FF480560D2C08D0002C16D056
:1052700021465CA004F0B4FA1CB0BDE8F08160A047
:1052800004F0AEFA32460121504805F071FD0100EC
:1052900001D062A0EEE769A004F0A2FAECE76EA0EC
:1052A00004F09EFA402000904848714B71A22021E2
:1052B000083000F03BFA70B96D4971A004F090FA23
:1052C0006B49012201F1740006F01CF8010012D0B4
:1052D00071A004F085FA1BAA1AA977A005F00AFBB1
:1052E0000028C9D175A004F07BFADDE91A127BA071
:1052F00004F076FAC0E70024199507F0F9FB5C4F3B
:10530000804674375A4819AB32467C49743006F0EF
:1053100011F9050020D11998F0B12503324629462C
:10532000404607F072FB1998B04206D2734AC0F5A6
:1053300080511044CC22FEF738FF704B324629468C
:10534000404607F007FD641CA4B22346FA686C4887
:10535000199904F045FAD5E74548743005F0F4FA98
:10536000294668A0199A04F03BFA19980543B2D16E
:105370006CA004F035FA3E4806F0DCF9002822D093
:105380006DA23B496EA004F02BFA64216846FEF73B
:1053900013FFF868119001201590C01E1690694601
:1053A0004FF48020FFF7A4FEFA686BA0199904F06F
:1053B00017FA77A004F014FA40F6B83004F07AFF38
:1053C00000F01EFF87E781A2DBE70000DE0200207D
:1053D00008370020665F6D6F756E74203D20256470
:1053E0000A0000004661744673206D6F756E74206C
:1053F0006572726F72203D2025640D0A0000000066
:105400004661744673204572726F722C20646F205F
:10541000466F726D61742E2E2E0D0A00466C6173FC
:1054200068204469736B20466F726D617420466119
:10543000696C6564203D2025640A0000466C617338
:1054400068204469736B20466F726D6174204669F1
:105450006E69736820210A004661744673206D6F7F
:10546000756E7420737563636573730D0A000000B5
:10547000384700205570646174652E62696E0000C3
:1054800066696E6465642066696C65207061746825
:10549000203D2025730A000063616E2774206F7021
:1054A000656E2066696C652C206572726F72203D96
:1054B0002025640A0000000030000000726561646D
:1054C0002066617466732066696C652073697A650D
:1054D00020737563636573730D0A0000746F7461E4
:1054E0006C203D20256C64204B422C206672656543
:1054F000203D20256C64204B420A00007C160020D1
:10550000B8D30008726561642066696C653A2072E0
:105510006573203D2025642C206272203D20256487
:105520000D0A0000726561642066696C6520616C1B
:105530006C20646F6E650A006661696C65640000CA
:1055400064656C6574652066696C6520696E2025EC
:10555000732025730A000000726561642066696C1F
:105560006520737563636573732C206C656E203DD5
:105570002025642C2066696C655F73697A65203D1F
:1055800020256C642042797465730D0A00000000C8
:1055900077726974652073706920666C6173682026
:1055A000646F6E652C20726561647920746F206A67
:1055B000756D7020746F2074686520626F6F746CF5
:1055C0006F616465722E2E2E0A0000006F6B000062
:1055D00070B59AB005460E46402226496846FEF749
:1055E000D2FD694610A805F05DFF040009D022A293
:1055F000694623A004F0F4F8052C04D084B15523A7
:105600002BE023A2F4E7684605F0F6FA02006946AB
:1056100003D020A004F0E4F824E026A004F0E0F891
:105620006846FEF7F7FD2F220DF800206844401C65
:1056300040223146FEF7E2FD12226946284605F077
:1056400061FE0446284606F037F8EA686CB10AA104
:105650001EA004F0C5F854B15F2322A221462AA05F
:1056600004F0BEF801201AB070BD09A1F0E70020D7
:10567000F9E7000078D300086661696C6564000092
:105680006F70656E206469722025732025730A008F
:105690006F6B000063726561746520646972202518
:1056A00073206661696C65642C20726573203D20EF
:1056B00025640A006372656174652064697220253F
:1056C0007320737563636573730A0000665F6F70A0
:1056D000656E2025732C206673697A65203D202530
:1056E000640A00002E2E5C436F6D706F6E656E74E1
:1056F0005C46617446735C7372635C666174667366
:105700005F64656D6F2E63006572726F72203D205D
:1057100025642C2066696C65203D2025732C206C47
:10572000696E65203D2025640A0000002DE9F041E6
:1057300094B00546254811903320129017461E4616
:10574000DDF86880294601A805F0ACFE040026D0EB
:105750002EE01198007808B1119801E00DF13500A4
:105760009DF83410C90604D519A004F039F80424B2
:105770001EE000902B461CA24146304604F040F843
:1057800039463046FEF724FD28B1314618A004F012
:1057900027F8002403E01DA004F022F804240BA93C
:1057A00001A805F05DFF18B99DF835000028D0D19B
:1057B00001A805F0DCF838B118A11AA004F010F81F
:1057C00014B02046BDE8F0811AA1F6E77847002022
:1057D0007363616E2066696C65206661696C6564DF
:1057E0002C20646972730A0025732F25730D0A003B
:1057F0007365617263682066696C652073756363A5
:105800006573733A2025730A000000006E6F7420E0
:1058100066696E642066696C650A00004661696CA1
:1058200065640000636C6F73656469722025730A98
:10583000000000004F4B000038B50D4601461348EC
:10584000FFF7C6FE01281FD0104C2046E16805F086
:1058500000F9D4E9022301460DA003F0C1FF284658
:10586000FEF7D8FC044602466B462946074805F079
:10587000B5FF0546054805F067F8224629460FA002
:10588000009B03F0ADFF002038BD0000AC470020B6
:10589000665F6C7365656B20726573203D202564BF
:1058A0002C2066707472203D20256C642C20667359
:1058B000697A65203D20256C640A0000665F777276
:1058C00069746520726573203D2025642C206C6509
:1058D0006E203D2025642C206277203D2025640A1F
:1058E0000000000010B50446102805D024B140F295
:1058F0002F1106A004F0CAFA0D48016821F010012A
:10590000016001682143016010BD00002E2E5C4C37
:105910006962726172795C7372635C73746D333245
:10592000663130785F666C6173682E63000000003A
:105930000020024010B5040008D0012C06D0022C33
:1059400004D040F2031105A004F0A0FA0C49086845
:1059500000F038002043086010BD00002E2E5C4C83
:105960006962726172795C7372635C73746D3332F5
:10597000663130785F666C6173682E6300000000EA
:105980000020024010B503A003F02AFFBDE810403C
:10599000FFF758BC66617466732064656D6F207490
:1059A0006573740D0A0000002DE9F0410446464875
:1059B00000260D46844215D04448844212D0444803
:1059C00084420FD0434884420CD04348844209D0DB
:1059D0004248844206D04248844203D0B22141A0CA
:1059E00004F054FAE87888B104280FD028280DD0A4
:1059F00048280BD0142809D0102807D01C2805D01F
:105A0000182803D0B32137A004F040FA288818B929
:105A1000B42134A004F03AFAE87800F00F07C00689
:105A20000CD5A878012807D0022805D0032803D078
:105A3000BB212CA004F02AFAA878074328884FF04D
:105A40000F0C10F0FF0F4FF0010E1AD021682A88BA
:105A50000EFA06F0024082420FD1B2000CFA02F3B5
:105A6000994307FA02F21143EA78282A02D0482A19
:105A700002D002E0606100E02061761C082EE6D3CF
:105A800021602888FF281DD96268002101F10803E0
:105A90000EFA03F02B88034083420FD18E000CFADC
:105AA00006F322EA030307FA06F21A43EB78282BDF
:105AB00000D16061EB78482B00D12061491C082996
:105AC000E4D36260BDE8F08100080140000C0140B1
:105AD000001001400014014000180140001C01406A
:105AE000002001402E2E5C4C6962726172795C73F9
:105AF00072635C73746D3332663130785F677069DE
:105B00006F2E630070B50546274800260C46854277
:105B100016D02648854213D02548854210D0254806
:105B200085420DD0244885420AD02448854207D0BA
:105B30002348854204D04FF48F7122A004F0A6F9C7
:105B4000012C2AD0022C28D0042C26D0082C24D0BA
:105B5000102C22D0202C20D0402C1ED0802C1CD0E9
:105B6000B4F5807F19D0B4F5007F16D0B4F5806FFE
:105B700013D0B4F5006F10D0B4F5805F0DD0B4F53C
:105B8000005F0AD0B4F5804F07D0B4F5004F04D0C1
:105B900040F21F110BA004F079F9A868204200D050
:105BA0000126304670BD000000080140000C014095
:105BB000001001400014014000180140001C014089
:105BC000002001402E2E5C4C6962726172795C7318
:105BD00072635C73746D3332663130785F677069FD
:105BE0006F2E630070B5044611480D46844216D0EE
:105BF0001048844213D01048844210D00F48844289
:105C00000DD00F4884420AD00E48844207D00E4877
:105C1000844204D040F279110CA004F037F925B980
:105C20004FF4BD7109A004F031F9656170BD000049
:105C300000080140000C0140001001400014014028
:105C400000180140001C0140002001402E2E5C4C39
:105C50006962726172795C7372635C73746D333202
:105C6000663130785F6770696F2E630070B50446E7
:105C700011480D46844216D01048844213D0104873
:105C8000844210D00F4884420DD00F4884420AD07D
:105C90000E48844207D00E48844204D040F2691175
:105CA0000CA004F0F3F825B94FF4B57109A004F085
:105CB000EDF8256170BD000000080140000C0140B6
:105CC000001001400014014000180140001C014078
:105CD000002001402E2E5C4C6962726172795C7307
:105CE00072635C73746D3332663130785F677069EC
:105CF0006F2E630070B505462A480C46164685424D
:105D000016D02948854213D02848854210D028480B
:105D100085420DD0274885420AD02748854207D0C2
:105D20002648854204D040F28D1125A004F0AEF83B
:105D3000012C2AD0022C28D0042C26D0082C24D0C8
:105D4000102C22D0202C20D0402C1ED0802C1CD0F7
:105D5000B4F5807F19D0B4F5007F16D0B4F5806F0C
:105D600013D0B4F5006F10D0B4F5805F0DD0B4F54A
:105D7000005F0AD0B4F5804F07D0B4F5004F04D0CF
:105D80004FF4C7710EA004F081F846B1012E04D083
:105D900040F28F110AA004F079F82C6170BD6C619B
:105DA00070BD000000080140000C014000100140DF
:105DB0000014014000180140001C01400020014077
:105DC0002E2E5C4C6962726172795C7372635C73D3
:105DD000746D3332663130785F6770696F2E63009F
:105DE0000549096889B201EBC000044901EB400094
:105DF000806880B270470000505C00400060004046
:105E00000549096889B201EBC000044901EB400073
:105E1000C068C0F309007047505C0040006000405B
:105E2000034951F82000C0F301300003704700001F
:105E3000005C00400449096889B201EBC0000349D5
:105E400051F8100080B27047505C00400060004084
:105E500008B10448704704490120096808820020FD
:105E6000704700002C020020CC0200200A4810B528
:105E70000168001D0468001D006808180BD0082286
:105E8000064900F0A1F9054920460422BDE810406A
:105E9000103100F099B910BDE8F7FF1FD6010020BE
:105EA00010B50022022901D2002010BD401C891E1D
:105EB0008BB2002104E0445C491C224492B289B2B6
:105EC0009942F8D3D043401CC0B210BD70B5174CF6
:105ED00010B1012825D110E0658A00F0A3F9002156
:105EE000084600F0AEF9002111A2084600F0A2FA1F
:105EF000284600F029F810A20FE0A58900F092F9D9
:105F00000021084600F09DF9002109A2084600F092
:105F100091FA284600F04DF809A20A21002000F06D
:105F200089FA608ABDE8704000F078B82C00002043
:105F30004843484F20000000206D672F6D3300005C
:105F40002070706D2020000070B5044605210020EF
:105F500000F077F942F21070B4FBF0F100FB114051
:105F60004FF47A75B0FBF5F03030C0B200F0C0F9F4
:105F70002E2000F0BDF9B4FBF5F005FB10406425C0
:105F8000B0FBF5F03030C0B200F0B2F9B4FBF5F080
:105F900005FB10400A25B0FBF5F0303000F0A8F901
:105FA000B4FBF5F005FB1040BDE87040303000F068
:105FB0009FB970B504460521002000F042F942F275
:105FC0001070B4FBF0F100FB11404FF47A75B0FB98
:105FD000F5F03030C0B200F08BF92E2000F088F9D7
:105FE000B4FBF5F005FB10406425B0FBF5F0303054
:105FF000C0B200F07DF9B4FBF5F005FB10400A25B6
:10600000B0FBF5F0303000F073F9B4FBF5F005FBB0
:106010001040BDE87040303000F06AB910B5144C43
:10602000502809D213A20021012000F003FA2078A1
:1060300000281BD0002015E0B0F5FA7F09D211A28C
:106040000021012000F0F6F9207800280ED0012070
:1060500008E010A20021012000F0ECF920780028CF
:1060600004D00420BDE8104000F09ABA10BD000032
:106070004E000020476F6F64202020202020202029
:1060800020200000556E6865616C746879202020BE
:10609000202000005665727920556E6865616C7429
:1060A000687900000178FF290CD141780C4A172942
:1060B00009D0862906D102211171C178807801EBBF
:1060C0000020508270474179007901EB0020508117
:1060D0000120107100221146024806F03FBA00006C
:1060E0002C0000206813002070B51C4C40F2255194
:1060F000204602F083FF002826D0204603F068F9EE
:10610000174CC0B2E1790025164EFF2903D117289C
:106110001BD0862819D0218A402900D32582218AC4
:106120007054E071208A401C2082208A09280BD1FB
:1061300009210C48FFF7B4FE317A884203D10921C6
:106140000848FFF7AFFF258270BD2582228AFF2114
:10615000B154218A491C2182E1E700000048004037
:106160002C000020E0130020FEE7000010B5134CC7
:106170002068017A022904D0042902D0062905D01A
:1061800015E0FEF72FFE2068007A11E0417805291E
:1061900009D10178490606D1C07802F021F80848F3
:1061A0000068006A804707480068806880470820C8
:1061B00021680872BDE8104000F0C6BFCC02002084
:1061C000D4020020D0020020F0B500230A26302798
:1061D0004FF0370C1C460FE0B6EB107F02D907EBEF
:1061E000107501E00CEB107501F8135001EB43053D
:1061F00000015B1C6C70DBB29342EDD3F0BD00007C
:1062000001F0DEF872B605480168054A01F4E06164
:1062100011430160BFF3408FFEE700000CED00E08A
:106220000400FA0510B5012000F012F8022004F075
:1062300041F8022000F00CF8BDE81040022004F004
:1062400039B801EB8010C0B240F08000AFF300809D
:1062500070B50446282803D0382C01D000F058F936
:106260004FF400512048FFF7BDFC204D4FF4007162
:106270002846FFF7B7FCE20910212846FFF73AFD50
:10628000C4F3801220212846FFF734FDC4F34012E6
:1062900040212846FFF72EFDC4F300128021284636
:1062A000FFF728FD00F042F9C4F3C0021021284690
:1062B000FFF720FDC4F3800220212846FFF71AFDD6
:1062C000C4F3400240212846FFF714FDC4F3000246
:1062D00080212846FFF70EFD00F028F9BDE8704048
:1062E0002D2003F0F6BF000000100140000C01401B
:1062F0002DE9F041044600F00BF9244E4FF400550F
:1063000029463046FFF7B2FC214F29113846FFF7E6
:1063100069FCE20910213846FFF7ECFCC4F3801257
:1063200020213846FFF7E6FCC4F3401240213846EE
:10633000FFF7E0FCC4F3001280213846FFF7DAFCD7
:1063400000F0F4F8C4F3C00210213846FFF7D2FC85
:10635000C4F3800220213846FFF7CCFCC4F340028E
:1063600040213846FFF7C6FCC4F3000280213846BE
:10637000FFF7C0FC00F0DAF829463046FFF732FCA0
:10638000BDE8F0412D2003F0A4BF00000010014043
:10639000000C01402DE9FE4F82468846244900202A
:1063A0000A276C46B2FBF1F501FB1522B1FBF7F1B0
:1063B00005F130062654401CC0B20A28F2D300254D
:1063C000605D302803D16D1CEDB20A2DF8D3C5F104
:1063D0000A0010F0FF0001D109250120834215D3E6
:1063E000A3EB000909F0FF0741465046FFF729FFDC
:1063F000002604E02020FFF77BFF761CF6B2BE42A9
:10640000F8D309EB080000F0FF0802E0C01A2844A6
:10641000C5B241465046FFF714FF04E0605DFFF748
:1064200067FF6D1CEDB20A2DF8D3BDE8FE8F0000AA
:1064300000CA9A3B10B51446FFF703FF02E0641C44
:10644000FFF756FF20780028F9D110BD38B50C466B
:1064500000218DF800106A46214600F0BBFC05467D
:106460001048007818B19DF8000000F099F80E4926
:10647000C4EBC400421800210846FFF7DBFF0323EA
:106480002A4607210020FFF785FF9DF800000649F6
:10649000C0EBC000623901EB400200210120FFF790
:1064A000C9FF38BD4E000020C7D0000870B50D46AA
:1064B0000446002110A20846FFF7BCFF0323224632
:1064C00006210020FFF766FF0DA20A210020FFF73A
:1064D000B1FF0DA200210120FFF7ACFF03232A46E4
:1064E00006210120FFF756FFBDE870400A2104A2F3
:1064F0000120FFF79FBF0000504D322E35200000D5
:1065000075672F6D33000000504D313020200000A2
:1065100010B54FF480710448FFF764FBBDE81040EC
:10652000012000F019B80000000C014070B5094DC1
:106530004FF4807421462846FFF798FB052003F0AE
:10654000C8FE21462846FFF74DFBBDE870400520F8
:1065500003F0BFBE000C014008B5F021ADF80010FB
:1065600001218DF8021038B110208DF80300694622
:106570000248FFF719FA08BD4820F6E7000C014071
:1065800010B504460146022000F066F821460020BE
:1065900000F062F82146BDE81040012000F05CB830
:1065A00011B581B0294800F0E1FB9DF804200121DC
:1065B00000242748072A21D2DFE802F00408131339
:1065C000192137000020FFF7DBFF07E00021022040
:1065D00000F042F80121084600F03EF801210020B9
:1065E0000AE00020FFF7CCFF0121084604E000206C
:1065F000FFF7C6FF0121022000F02EF81CBD01703C
:106600000020FFF7BDFF0121084600F025F8012119
:10661000022000F021F8002301AA0E490B48009443
:1066200000F07EFB002232210CE001700120FFF718
:10663000A7FF002301AA07490448009400F070FB5B
:1066400000220F21014805F089FF1CBD2014002005
:1066500052000020A166000858B10E4B012810D04E
:10666000022816D1012902D0002202210CE00122C9
:10667000FBE721B100224FF40041074805E0012269
:10668000F9E721B1002201211846FFF733BB0122AF
:10669000F9E7704700140140001001407047000006
:1066A00070B5007800250126134C052828460BD02C
:1066B000FFF766FF2078C8B1257000220F21BDE8E2
:1066C00070400E4805F04ABFFFF75AFF207818B116
:1066D000257000223221F2E7012126700846FFF7DB
:1066E000BBFF01210220FFF7B7FFF2E72670012070
:1066F000FFF746FFE1E700005200002020140020D1
:1067000008B101207047084840F2BF110022016023
:1067100005494FF48050091F086003480349001DD4
:10672000C0E90012104670470401002000F01B0071
:1067300010B508B1012010BD05F0A8FA80B210BD57
:1067400010B51146DDE9022308B1012010BD05F0A6
:10675000D3FA002010BD10B51146DDE9022308B1BF
:10676000012010BD05F0ECFA002010BD0D4900B568
:1067700009680A7802F07F02212A08D1FE2806D192
:10678000488820B9888810B9C888012801D002201B
:1067900000BD0548886100204882FFF759FB0020B2
:1067A00000BD0000CC020020515E0008014901F04C
:1067B00005BF000038020020014901F0FFBE0000C3
:1067C0003002002005490968C978052901D900204F
:1067D0007047034A02EBC10101F0F0BECC02002079
:1067E0007002002009B9002800D002207047000084
:1067F0000F4910B509680A7802F07F02212A07D1F3
:10680000FF2805D1488818B9888808B9C88808B110
:10681000022010BD0120FEF7C3FA0220FEF7AEFAF7
:1068200005490448086005490020087010BD0000B3
:10683000CC02002055534243BC360020C801002042
:1068400070B52F480025304985722E480968C079F7
:106850004872284601F0BCFC4FF40071002001F0A2
:1068600071FD2021002001F055FD1821002001F0CC
:10687000D9FC264C0020217801F0E4FC58210020AE
:1068800001F02AFD0020FEF79DFA002001F012FD24
:106890000021012001F056FD9821012001F01CFD8E
:1068A0002021012001F036FD0021012001F0EAFC49
:1068B0000021022001F046FDD821022001F0B2FCA7
:1068C0002178022001F0BEFC4FF44051022001F07B
:1068D000D9FC0021022001F01DFD2178002001F0EB
:1068E000B1FC002001F0E6FC002001F079FC084931
:1068F000012008600849074808600848057070BD15
:10690000EC360020F6D20008CC0200206C020020F9
:10691000C002002055534243BC360020C80100206D
:106920007047704710B5FFF7A1FA054800240068CA
:10693000847200F02BFC02F039FE0248046010BDA6
:10694000CC020020C00200200448054900688842AB
:1069500002D00220FEF72EB870470000BC3600209F
:10696000555342431C4910B5087840F01000087098
:106970001A4B1878022819D04FF44054032824D019
:10698000042801D0052825D10020187021460220B6
:1069900001F078FC0220FFF743FAB0F5805F19D1CF
:1069A0002146BDE81040022001F06CBC0C48C27BBF
:1069B000282A0FD10A7842F002020A70D3E90112A4
:1069C000407BBDE8104001F027B80121002001F014
:1069D00011FDE5E710BD000011010020C8010020F5
:1069E000BC36002070B5194E307840F01000307081
:1069F000174C0220A4F14001E57B02F0E7FD1549A8
:106A00004880087818B1012805D0022006E0BDE8CA
:106A10007040FDF7EFBF2A2D0DD00120FDF7CAFF12
:106A2000607B2422052101F005FDBDE870400021B6
:106A3000022001F0DFBC307840F001003070091D09
:106A4000607B06C9BDE8704001F0CEB8110100209E
:106A5000BC360020C8010020094810B50068807AC3
:106A600000280BD00749052008600120FEF798F99F
:106A70000220FEF783F904490020087010BD0000D1
:106A8000CC020020C0020020C801002001490420DF
:106A900008607047C0020020FEE7704770474FF45F
:106AA0008041480300F080B870B50446C0780F25D7
:106AB00028B1012803D075211EA003F0E7F9607802
:106AC000102803D376211BA003F0E0F9A07810284A
:106AD00003D3772117A003F0D9F9E07801214FF013
:106AE000E022E0B119480068637800F4E060C0F586
:106AF000E060000AC0F10406C540A078B340284019
:106B000018432378124D00015855207800F01F03D8
:106B10009940400902EB8000C0F8001170BD207858
:106B200000F01F039940400902EB8000C0F880117B
:106B300070BD00002E2E5C4C6962726172795C73CC
:106B400072635C6D6973632E630000000CED00E0FE
:106B500000E400E010B50446B0F5E06F0FD0B4F5E6
:106B6000C06F0CD0B4F5A06F09D0B4F5806F06D01B
:106B7000B4F5407F03D0632103A003F087F90848F0
:106B800004430848046010BD2E2E5C4C696272619B
:106B900072795C7372635C6D6973632E63000000CD
:106BA0000000FA050CED00E070B504460D46B0F1AA
:106BB000005F06D0B4F1006F03D09F2107A003F05F
:106BC00065F90C48854203D3A02104A003F05EF9C7
:106BD0000948054009482543056070BD2E2E5C4CD0
:106BE0006962726172795C7372635C6D6973632E42
:106BF00063000000FFFF0F0080FFFF1F08ED00E0B3
:106C000070B52F4D2868017844784A0606D001F007
:106C10007F00012828D002282BD035E0092C06D08F
:106C2000052C07D0032C0ED0012C14D02CE001F041
:106C30002FFD28E0C1787F292ED8817861BB81881B
:106C400051BB807A27E0C17801291DD18088D8B94D
:106C500001F03AFD17E0C178012915D1818899B971
:106C6000407A80060AD40FE00B2C0DD101F080FD94
:106C700009E0012C02D0032C03D005E001F014FC44
:106C800001E001F033FD58B10E4800684169E0B2FF
:106C90008847032802D018B108200DE009200BE036
:106CA000094A062000211268084B92B203EB420207
:106CB0005160074A302111802968087270BD0000B8
:106CC000CC020020D0020020505C00400060004058
:106CD000DC020020014840687047000014000020DA
:106CE0000E4810B5046816E0FFF7F4FF21698842EA
:106CF00010D3207AC1070DD0810703D420F0010002
:106D0000207204E0FFF7E6FFE16808442061D4E95F
:106D1000051088476468002CE6D110BD24000020CF
:106D200070B50446049EC360C4E905121D46FFF712
:106D3000D1FF28442061267270BD00000A4B1968FB
:106D40000A4608E0814205D1087A40F00100087245
:106D50000020704749680029F4D142601860017A28
:106D600041F001010172F3E724000020064909689F
:106D700006E0814203D10A7A22F001020A724968D0
:106D80000029F6D1704700002400002010B50F4CF8
:106D90002068007A022811D004280FD0032804D0DC
:106DA000052802D0072805D008E0FEF779F820680A
:106DB000007A04E006480068C0688047082021681F
:106DC0000872BDE8104000F0BFB90000CC020020FE
:106DD000D00200202DE9F74F05464FF4FA704FF02E
:106DE0000009854200D90546DFF8F88001294FF0F7
:106DF00000041ED146462846FDF7F1FB824604EB0F
:106E0000840006EB80075046B968FDF731FC0BD8CB
:106E1000F9685046FDF722FC06D804EB840006EB27
:106E200080008668F8681DE0641CE4B2072CE6D395
:106E300052E046462846FDF7D2FB824604EB84002A
:106E400006EB800750463968FDF712FC40D8796898
:106E50005046FDF703FC3BD804EB840006EB8000B2
:106E600006687868072C37D23146FDF72DFA0746B9
:106E700004EB840108EB8100418A008A091A1FFA99
:106E800081FAFDF7B1FB804689463846FDF7D0FB15
:106E900083460F462846FDF7A2FB3146FDF714FA5C
:106EA000FDF7C6FB05460E465046FDF79DFB2A46FC
:106EB0003346FDF7B5FA5A463B46FDF721FB4246FD
:106EC0004B46FDF707FAFDF79CFB1FFA80F904E03B
:106ED000641CE4B2072CB1D3002402980470484625
:106EE000BDE8FE8FD5D0000870B50446FFF79AF9CB
:106EF0001D4D5CB1012C11D0022C30D0032C31D1AE
:106F0000A8890121BDE87040FFF7A0BAFFF7C6FBD2
:106F1000A889E989BDE87040FFF7C8BAFFF7BEFB52
:106F2000E88A298B0844698B2D8A084484B20021A1
:106F30000EA20846FFF77EFA05232A460821002004
:106F4000FFF728FA0CA200210120FFF773FA22466E
:106F5000BDE87040052308210120FFF71BBAA8896E
:106F60000021CFE770BD0000301300203E20302EFE
:106F700033756D20000000003E20322E35756D20E7
:106F80000000000070B51A4C58B1012815D0022835
:106F900029D003282AD1A0890121BDE87040FFF73C
:106FA00055BAFFF77BFBA289032306210020FFF7D8
:106FB000F1F9E2890323062110E0FFF76FFBE08A75
:106FC000218B0844618B228A084485B2052308215D
:106FD0000020FFF7DFF905232A460821BDE87040AD
:106FE0000120FFF7D7B9A0890021D6E770BD0000C6
:106FF0003013002038B500242346224609490A48A8
:107000000094FFF78DFE0022C821074805F0A6FA7C
:10701000054800231A4605491C380094FFF780FEF6
:1070200038BD0000C58C000884130020718B000857
:10703000F0B502780023422A02D042784D2A30D19E
:10704000184F7A7812B17A78521E7A70C2788478A2
:10705000DFF854C002EB0422ACF802200CF1040665
:10706000002200EB42046579247905EB042426F81C
:107070001240521CD2B20E2AF3D3891C8AB20021CC
:1070800004E0445C491C23449BB2C9B29142F8D34A
:10709000BCF81E00984201D1012038707878401C5D
:1070A0007870F0BD2C0000203013002070B51B4C10
:1070B00040F22551204601F0A1FF002825D02046AE
:1070C00002F086F9164CC0B2A27900251549422A71
:1070D00001D14D281AD0E289402A00D3E581E28906
:1070E0008854E289521CE281A071E08903280CD9FE
:1070F000C8788978E28900EB012081B2081D9042AE
:1071000003D10848FFF794FFE58170BDE581E3896D
:107110004222CA54E289521CE281E0E70038014071
:107120002C000020A0130020054B521C520803EB3A
:10713000410104D008C920F8023B521EFAD1704721
:1071400000600040704700000C4810B590F82C100B
:10715000002001F077F80A480068007A082802D079
:10716000092809D006E007494FF4805008800649F5
:1071700010200880002010BD012010BD400200201A
:10718000CC020020DA020020DC02002010B5012031
:1071900002F0A2F90648012101600021054A0160C0
:1071A000031D19604FF4E05111800160002010BDF3
:1071B000405C0040D802002070B51F4C40F22555BD
:1071C0002946204601F01AFFF8B1204602F000F9E6
:1071D0001A4AC3B29088D188401C00F03F00884210
:1071E0000BD1A2F10C00418809B901214180002294
:1071F0002946204601F08CFF07E01068918843542F
:107200009088401C00F03F00908040F2277529468E
:10721000204601F0F3FE00280CD002F0FDF902F048
:1072200027FA012806D129462046BDE870400122F0
:1072300001F06EBF70BD00000044004060000020FF
:1072400070B504460C480D46044200D124B940F202
:1072500069410AA002F01AFE104E4DB1012D04D072
:1072600040F26A4105A002F011FEF069204301E0FE
:10727000F069A043F06170BD003601812E2E5C4C98
:107280006962726172795C7372635C73746D3332BC
:10729000663130785F7263632E6300000010024035
:1072A00070B504460C480D46044200D124B940F2A2
:1072B000C3410AA002F0EAFD104E4DB1012D04D0E9
:1072C00040F2C44105A002F0E1FD3069204301E035
:1072D0003069A043306170BD003601812E2E5C4CB8
:1072E0006962726172795C7372635C73746D33325C
:1072F000663130785F7263632E63000000100240D5
:1073000070B504460C480D46044200D124B940F241
:107310004A410AA002F0BAFD104E4DB1012D04D031
:1073200040F24B4105A002F0B1FDB069204301E0FD
:10733000B069A043B06170BD0200C0FF2E2E5C4C4E
:107340006962726172795C7372635C73746D3332FB
:10735000663130785F7263632E6300000010024074
:1073600070B504460C480D46044200D124B940F2E1
:10737000A4410AA002F08AFD104E4DB1012D04D0A7
:1073800040F2A54105A002F081FDF068204301E034
:10739000F068A043F06070BD0200C0FF2E2E5C4C70
:1073A0006962726172795C7372635C73746D33329B
:1073B000663130785F7263632E6300000010024014
:1073C0000C48016841F00101016041680A4A11401E
:1073D00041600168094A11400160016821F480217F
:1073E0000160416821F4FE0141604FF41F0181609A
:1073F00070470000001002400000FFF8FFFFF6FE9B
:10740000214A10B55168214B11F00C0103D0042919
:1074100001D0082901D0036012E05168536801F4DB
:1074200070114FF0020413F4803F04EB914102D03D
:1074300053689B0301D5164B00E0144B5943016080
:107440005168144B01F0F00109095C5C0168E140EE
:107450004160546804F4E064240A1C5D21FA04F4D9
:107460008460546804F46054E40A1B5DD940C16030
:107470005268084B02F44042920B1B1F9A5CB1FB0E
:10748000F2F1016110BD00000010024000127A000C
:1074900000093D000400002070B5002504462128A5
:1074A00018D0312C16D0392C14D0412C12D0612C8C
:1074B00010D07A2C0ED07B2C0CD07C2C0AD07D2CBA
:1074C00008D07E2C06D07F2C04D040F234510BA083
:1074D00002F0DCFC6009114901280BD002280BD016
:1074E000486A04F01F0101228A40024200D00125AF
:1074F000284670BD0868F4E7086AF2E72E2E5C4C57
:107500006962726172795C7372635C73746D333239
:10751000663130785F7263632E63000000100240B2
:107520000248406800F00C00704700000010024064
:1075300010B5040014D0802C12D0902C10D0A02CA8
:107540000ED0B02C0CD0C02C0AD0D02C08D0E02CFF
:1075500006D0F02C04D04FF4197105A002F096FC6F
:107560000B49486820F0F0002043486010BD00003F
:107570002E2E5C4C6962726172795C7372635C730B
:10758000746D3332663130785F7263632E6300004E
:107590000010024010B5040006D0012C04D040F2C7
:1075A000651103A002F072FC0948046010BD0000E0
:1075B0002E2E5C4C6962726172795C7372635C73CB
:1075C000746D3332663130785F7263632E6300000E
:1075D0000000424210B5040010D0B4F5806F0DD009
:1075E000B4F5A06F0AD0B4F5C06F07D0B4F5E06F62
:1075F00004D040F27E2105A002F048FC0B49486807
:1076000020F4E0602043486010BD00002E2E5C4C4A
:107610006962726172795C7372635C73746D333228
:10762000663130785F7263632E63000000100240A1
:1076300010B5040010D0B4F5806F0DD0B4F5A06F74
:107640000AD0B4F5C06F07D0B4F5E06F04D04FF4A2
:10765000267105A002F01AFC0B49486820F460501E
:1076600040EAC400486010BD2E2E5C4C6962726115
:1076700072795C7372635C73746D33326631307827
:107680005F7263632E6300000010024010B50400B7
:1076900006D0012C04D04FF4CA7103A002F0F6FB0F
:1076A0000948046610BD00002E2E5C4C69627261B0
:1076B00072795C7372635C73746D333266313078E7
:1076C0005F7263632E6300000000424270B50500E4
:1076D0000C460AD0B5F5803F07D0B5F5403F04D041
:1076E00040F27F111DA002F0D1FB74B3B4F5802FDE
:1076F0002BD0B4F5002F28D0B4F5402F25D0B4F509
:10770000801F22D0B4F5A01F1FD0B4F5C01F1CD01D
:10771000B4F5E01F19D0B4F5001F16D0B4F5101F52
:1077200013D0B4F5201F10D0B4F5301F0DD0B4F530
:10773000401F0AD0B4F5501F07D0B4F5601F04D025
:107740004FF4C07105A002F0A1FB0C494868254325
:1077500020F47C1005434D6070BD00002E2E5C4C63
:107760006962726172795C7372635C73746D3332D7
:10777000663130785F7263632E6300000010024050
:1077800010B5040008D0012C06D0022C04D04FF410
:107790000E7105A002F07AFB0B49486820F0030047
:1077A0002043486010BD00002E2E5C4C696272615F
:1077B00072795C7372635C73746D333266313078E6
:1077C0005F7263632E6300000010024010B5040076
:1077D00006D0012C04D040F2DB2103A002F056FBBE
:1077E0000948046010BD00002E2E5C4C6962726175
:1077F00072795C7372635C73746D333266313078A6
:107800005F7263632E630000D80042427CB5344D42
:107810000446344E287810B101280CD053E056F8B5
:107820002400A1FB0013C5E90613A2FB0010C5E963
:1078300008100120287068682B4958B1E868402278
:107840000144812001F0D4FE686840386860E8682F
:1078500040301AE056F8240080B2CDE90010D5E996
:1078600006232046FEF76CFF10F0FF0F03D0687868
:1078700040F00800687040221B49812001F0B8FEEA
:1078800056F82400403868604020E860402101201C
:1078900000F032FD3021012000F03CFDD5E9060169
:1078A0004022821841F10000C5E90620D5E908020E
:1078B0006FF03F01411842F1FF30C5E908100B4855
:1078C000816840398160D5E90801084307D16860C3
:1078D000E860C5E90600064A0321117028707CBDE6
:1078E00010010020000100207C260020DC36002052
:1078F000C801002070B5184C1A4454F82040A24228
:107900000DD92A2902D10220FDF754F80020FDF7F5
:1079100051F8124A052121209170107311E0114D88
:107920000F4C55F82000A2685843824211D02A29F2
:107930000DD00020FDF73EF8607B2422052100F0E9
:1079400079FD0021012000F055FD002070BD0220CE
:10795000F0E7012070BD000004010020A10100201B
:10796000BC3600200001002010B5FEF7C9FE00283B
:107970000ED008483A220221407B00F05BFD012135
:10798000084600F037FDBDE810400020FDF712B8B2
:1079900010BD0000BC36002008490A7CD20702D086
:1079A0000748052105E030B10648C97C242900D9E3
:1079B000242101F0D5B90448F7E70000BC360020C7
:1079C00048010020710100204D01002010B50B4C32
:1079D000A06810B1207B000601D5002000E0022045
:1079E000FCF7E8FF607B2022052100F023FD002149
:1079F000BDE81040012000F0FDBC0000BC360020B6
:107A00000821014801F0ACB9990100200421014886
:107A100001F0A6B9950100202DE9F041164C8046F1
:107A20000D462078164630B1022823D14046BDE8E5
:107A3000F041FFF7EBBE114F13460A46787B282131
:107A4000FFF758FF002815D0387B00064FF00200E2
:107A500003D5207032462946E8E7FCF7ABFF787B78
:107A60002422052100F0E6FCBDE8F0410121084692
:107A700000F0C0BCBDE8F081C8010020BC36002089
:107A800010B50446FEF73CFE70B115483A220221BB
:107A9000407B00F0CFFC0121084600F0ABFCBDE8C4
:107AA00010400020FCF786BF0E480F4950F82420F4
:107AB000521E100E0870100C4870100A88700B4887
:107AC000CA7050F82400020E0A71020C4A71020AB0
:107AD0008A71C871BDE810400821034801F040B91F
:107AE000BC36002004010020B3010020000100206A
:107AF00010B50446FEF704FE70B114483A22022184
:107B0000407B00F097FC0121084600F073FCBDE8C3
:107B100010400020FCF74EBF0D480E4950F82420BD
:107B2000100E0871100C4871100A88710A48CA7149
:107B300050F82400020C4A72020A8A72C872BDE828
:107B400010400C21034801F00BB90000BC360020A6
:107B500004010020BB010020000100200348C17C7B
:107B6000122900D91221024801F0FAB8BC360020CF
:107B7000A10100200121002000F03CBC10B5FEF75F
:107B8000BFFD70B10A483A220221407B00F052FC4E
:107B90000121084600F02EFCBDE810400020FCF753
:107BA00009BF0121BDE81040002000F023BC000007
:107BB000BC36002010B50B4CA06828B9207C4007CB
:107BC00002D40121002009E00220FCF7F3FE607BD3
:107BD0002422052100F02EFC00210120BDE81040E8
:107BE00000F008BCBC36002070B5174D13462A784B
:107BF00032B1012A26D1BDE870401A4601F06ABDB3
:107C0000124C0A462A21607BFFF774FE002819D027
:107C1000207B000608D401202870BDE870404FF496
:107C20004051022000F02EBB0020FCF7C3FE607B19
:107C30002422052100F0FEFBBDE870400021012058
:107C400000F0D8BB70BD0000C8010020BC36002089
:107C500016210148FCF7B0BA1813002010B5134ADA
:107C6000052817D2DFE800F00306090C0F00098889
:107C7000518111E0098891810EE00988D1810BE0E2
:107C80000988118208E00B68C2F802304968C2F81E
:107C9000061001E0052804D2917C0123834019439A
:107CA000917403A000F0B4F8002010BD1813002058
:107CB00073656E736F725F646174612E74787400A3
:107CC0002DE9F04F0F46118887B00400154654D0B7
:107CD000002F52D0002D50D020790DF10808267ABF
:107CE000E379A279A8E84D00E278A078CDE9000216
:107CF000264A3846538826A201F082FD86B228889B
:107D00006421801B1FFA80FB208A4FF00A0CB0FB15
:107D1000F1F201FB120AE0894FF47A72B0FBFCF138
:107D2000B0FBF2F30CFB110102FB1300B0FBFCF8FB
:107D3000A0893031B0FBF2F302FB130C6089CDE96E
:107D40000281B0FBF2F302FB130942F21073B0FBA5
:107D5000F3F403FB1400B0FBF2F3CDE9009C3033E5
:107D6000B81915A2CDF810A0594601F049FD3044CC
:107D70002880002007B0BDE8F08F532316A2002111
:107D80001AA001F02DFD0120F4E700001C000020E6
:107D90005B253035645D2020253032642D2530325E
:107DA000642D2530326420253032643A2530326427
:107DB0003A2530326420200025632E25303364209C
:107DC00020253364202020202533642E25632020A5
:107DD00025326425250D0A002E2E5C557365725CD4
:107DE0007372635C534452522E6300006572726F6B
:107DF00072203D2025642C2066696C65203D20257D
:107E0000732C206C696E65203D2025640A000000FB
:107E10002DE9F8431D4D80461D4E28880027C0F5EA
:107E20008051ADF8001031186A4606F58050FFF712
:107E300047FF04462888BDF80020104480B2C0F5F2
:107E4000805189B2288091421DD206F6FE74022923
:107E500007D930444FF02002A1F10201FCF7A5F947
:107E600000E005D14FF002020AA12046FCF7C6F956
:107E700007494046FDF7E0FC04464FF480510448B2
:107E8000FCF79AF92F802046BDE8F8831C000020FB
:107E9000180300200D0A000070B504460F480D4677
:107EA00084420AD00E48844207D00E48844204D04F
:107EB00040F29A210CA001F0E9FF55B1012D04D048
:107EC00040F29B2108A001F0E1FF208840F400501F
:107ED00002E0208820F40050208070BD0030014076
:107EE00000380040003C00402E2E5C4C69627261FC
:107EF00072795C7372635C73746D3332663130789F
:107F00005F7370692E63000070B504460F480D461C
:107F100084420AD00E48844207D00E48844204D0DE
:107F20004FF4D7710CA001F0B1FF55B1012D04D071
:107F300040F2AF1108A001F0A9FF208840F04000F6
:107F400002E0208820F04000208070BD0030014019
:107F500000380040003C00402E2E5C4C696272618B
:107F600072795C7372635C73746D3332663130782E
:107F70005F7370692E6300002DE9F041174D184EB4
:107F8000184F0446A84207D0B44205D0BC4203D0E3
:107F90007A2115A001F07AFFAC420AD101210C032D
:107FA0002046FFF7DDF92046BDE8F0410021FFF74C
:107FB000D7B9B44202D101218C0303E0BC420AD1FB
:107FC0000121CC032046FFF76BF92046BDE8F041C4
:107FD0000021FFF765B9BDE8F081000000300140E5
:107FE00000380040003C00402E2E5C4C69627261FB
:107FF00072795C7372635C73746D3332663130789E
:108000005F7370692E63000070B505461548002641
:108010000C4685420AD01448854207D01348854251
:1080200004D040F2023112A001F030FF802C12D0B7
:10803000402C10D0202C0ED0102C0CD0082C0AD0A4
:10804000042C08D0022C06D0012C04D040F20331BD
:1080500007A001F01BFF2889204200D001263046EE
:1080600070BD00000030014000380040003C00407E
:108070002E2E5C4C6962726172795C7372635C7300
:10808000746D3332663130785F7370692E6300002F
:1080900070B5054642480C46854209D041488542A4
:1080A00006D04148854203D0A32140A001F0EEFE56
:1080B000208860B1B0F5806F09D0B0F5004F06D0D0
:1080C000B0F5404F03D0A62138A001F0DFFE608854
:1080D000B0F5827F04D018B1A72134A001F0D6FEFC
:1080E000A088B0F5006F04D018B1A8212FA001F02E
:1080F000CDFEE08828B1022803D0A9212BA001F0F1
:10810000C5FE208928B1012803D0AA2127A001F0AB
:10811000BDFE6089B0F5007F04D018B1AB2123A06B
:1081200001F0B4FEA08988B108280FD010280DD026
:1081300018280BD0202809D0282807D0302805D0AF
:10814000382803D0AC2119A001F0A0FEE08928B1A5
:10815000802803D0AD2115A001F098FE208A18B91F
:10816000AE2112A001F092FE288821886288E3885F
:108170001143A28800F441501A431143228911434C
:1081800062891143A2891143E28911430143298085
:10819000A88B20F40060A883208A288270BD00008C
:1081A0000030014000380040003C00402E2E5C4C66
:1081B0006962726172795C7372635C73746D33327D
:1081C000663130785F7370692E630000704700007D
:1081D000024920F00700086070470000505C004032
:1081E000F0B50E490E4E48F68F770D78002148F213
:1081F000800C0AE0CAB206EB82031C68A4B23C40C1
:10820000144344EA0C041C60491CA942F2D30449FB
:1082100040F080004C310860F0BD00009802002062
:10822000005C0040054A21F00101126892B202EBA5
:10823000C000034A02EB400081607047505C004080
:10824000006000400D4A12683E2992B202EBC00065
:108250000B4A02EB400209D94809C90601D1401E68
:1082600080B24FF4004141EA802005E04808C90788
:1082700001D0401C80B2800210607047505C00400A
:108280000C6000400A4A02EB800210684BF68F73C4
:1082900080B200EA0300CB0401D580F48050890449
:1082A00001D580F4005048F2800108431060704707
:1082B000005C0040074901EB800001684BF68F72BB
:1082C00089B2114081F4405148F2800211430160AB
:1082D00070470000005C0040054A21F0010112686F
:1082E00092B202EBC000034A42F81010704700003F
:1082F000505C004000600040044A126892B202EBF9
:10830000C000034A02EB400041607047505C0040EF
:10831000006000400A4A02EB8002106848F6BF7312
:1083200080B200EA0300CB0601D580F01000890678
:1083300001D580F0200048F28001084310607047AA
:10834000005C0040054A02EB8000026848F68F138B
:1083500092B21A400A43026070470000005C00407D
:10836000224900200A6842F480320A604FF4A06378
:108370000A6800F1010012F4003F01D19842F7D1E0
:108380000868800330D51A48026842F01002026083
:10839000026822F003020260026842F002020260F8
:1083A0004868486048684860486840F480604860B1
:1083B000486820F47C104860486840F4E810486041
:1083C000086840F08070086008688001FCD5486843
:1083D00020F003004860486840F0020048604868A8
:1083E000C0F381000228FAD170470000001002405B
:1083F0000020024010B50D4A0C460B491160107365
:108400000D220A49812001F0F3F809480521002CCA
:10841000017007D0042101703021BDE81040012017
:10842000FFF778BF10BD000055534253DC360020E3
:10843000C80100200148817002737047A10100202B
:1084400070B516480068174D81B2154800EB410120
:10845000896889B200EB41042868017A09290FD0A4
:108460002178017061784170A088FCF7BDFA296815
:1084700048802089FCF7B8FA29688880A089C880DC
:10848000286801210172C08828B1FCF75DFDBDE8B4
:108490007040FEF759BEFEF7B3FBF8E7505C0040B2
:1084A00000600040CC0200202DE9F0413448016812
:1084B000087810F07F0002D0022805D05EE0487AEC
:1084C00000F0DF00487247E04888002856D108795C
:1084D000002853D14A792C4D22F080001306294CF4
:1084E00055F8203003D5C3F301131B0102E0C3F399
:1084F00001331B032678044686423FD97BB3897A31
:1085000069B311060ED555F82010C1F301110129E8
:108510001ED1E0B20446FCF743FC30212046FFF7B1
:10852000F9FE15E005EB80042168C1F30131012952
:108530000ED14BF68F7648F2800788B1C0B2FCF7B7
:108540001DFC206880B2304080F4405038432060E9
:108550000E480068406980470020BDE8F0810DE0CA
:108560000B4890F82C100020FFF76CFE286880B2B2
:10857000304080F4405038432860E9E70220ECE7BF
:10858000CC02002098020020005C0040D4020020B1
:108590004002002010B5074C30B107480068006861
:1085A000804720680A3010BD216801200882002021
:1085B00010BD0000CC020020D4020020054A136840
:1085C0005A8A10B10868104470478888801A188247
:1085D00000207047CC02002010B5074C30B107488E
:1085E00000688068804720680C3010BD2168012039
:1085F0000882002010BD0000CC020020D402002020
:108600001F4910B5096860B11E48002202800A782F
:1086100053060AD002F07F02012A16D0022A16D091
:1086200001E002200882002010BD497A8A06027803
:1086300002D542F0020201E002F0FD02490602709A
:10864000D1B210D401F0FE010FE00E4810BD4A79FE
:1086500002F00F0113060C4A52F8211007D5C1F39E
:10866000011106E0017841F00101017003E0C1F35E
:1086700001310129F6D00548006800698047E4E728
:10868000CC020020C6020020005C0040D402002082
:108690000A4810B500680A4AC1785278914203D856
:1086A00082780AB982880AB1022010BD8172054819
:1086B000006840688047002010BD0000CC02002008
:1086C00098020020D4020020064810B50068417AC4
:1086D00041F02001417204480068C06980470020D1
:1086E00010BD0000CC020020D402002070B51C4850
:1086F00002681C48517921F0800500EB85000B06CB
:10870000036821F0800403D5C3F301131B0102E0C9
:10871000C3F301331B03144D2D78A54211D954889E
:108720007CB973B1927A62B109060029016848F2F6
:10873000800289B207DA48F6BF73194081F0100150
:1087400006E0022070BD4BF68F73194081F4805112
:10875000114301600548006880698047002070BDB2
:10876000CC020020005C004098020020D4020020CF
:1087700010B50E4C0E4A20681268C1789269407993
:10878000904721688A7A22B118B9087908B988789F
:1087900008B1022010BD07480068C0688047206803
:1087A0004179C172C1780173002010BDCC02002054
:1087B000D0020020D402002010B5FEF701FE0120F7
:1087C000FEF7E8FE2120FEF767FE0028FAD0102011
:1087D000FDF788F80220FDF7ADF80020FEF7A8FEAF
:1087E0000020FEF725FF4FF48060FEF7F3FE4FF404
:1087F00020110020FEF76AFF0120FEF747FF392015
:10880000FEF74AFE0028FAD00220FEF7B9FFFEF775
:1088100087FE0828FBD103490148086010BD00000D
:10882000006CDC0268000020AFF300800348416860
:10883000491C4160012101707047000014000020B4
:108840000B4864210068B0FBF1F0B0F1807F0DD2DD
:1088500020F07F414FF0E020491E4161054AF021A0
:10886000117000218161072101617047FEE700005E
:108870006800002023ED00E0034610B5002002460A
:1088800002E09C5C521C20448A42FAD310BD342082
:10889000122801D000207047012070470F4810B502
:1088A000016841F00101016041680D4A11404160D9
:1088B00001680C4A11400160016821F480210160C7
:1088C000416821F4FE0141604FF41F018160FFF710
:1088D00047FD05494FF00060086010BD00100240E0
:1088E0000000FFF8FFFFF6FE08ED00E070B504465B
:1088F00024480D46844234D0B4F1804F31D0224810
:1089000084422ED0214884422BD02148844228D052
:108910002048844225D02048844222D01F488442E7
:108920001FD01F4884421CD01E48844219D01E48C4
:10893000844216D01D48844213D01D48844210D072
:108940001C4884420DD01C4884420AD01B488442F3
:1089500007D01B48844204D040F2293119A001F00D
:1089600095FA55B1012D04D040F22A3115A001F03D
:108970008DFA208840F0010002E0208820F00100FC
:10898000208070BD002C0140000400400008004021
:10899000000C004000100040001400400034014072
:1089A000004C0140005001400054014000180040BC
:1089B000001C0040002000400040014000440140F5
:1089C000004801402E2E5C4C6962726172795C73C2
:1089D00072635C73746D3332663130785F74696DC5
:1089E0002E6300002DE9F05F444FDFF81481DFF8BB
:1089F0001491DFF814A1DFF814B1454E04460D467A
:108A0000B8422ED0B4F1804F2BD0444529D04C45EC
:108A100027D0544525D05C4523D03E48844220D001
:108A2000B4421ED03C4884421BD03C48844218D0FB
:108A30003B48844215D03B48844212D03A48844295
:108A40000FD03A4884420CD03948844209D0394882
:108A5000844206D03848844203D0E72137A001F091
:108A600015FA688858B1102809D0202807D0402866
:108A700005D0602803D0E82130A001F007FAE8888B
:108A800048B1B0F5807F06D0B0F5007F03D0E92172
:108A90002AA001F0FBF92088BC420AD0B44208D0D9
:108AA000B4F1804F05D0444503D04C4501D0544526
:108AB00003D120F07001688808435C4506D0154951
:108AC0008C4203D020F44071E88808432080A888B5
:108AD000A08528882085BC420AD0B44208D014481A
:108AE000844205D01348844202D01348844201D105
:108AF000287A20860120A082BDE8F09F002C01404A
:108B00000004004000080040000C0040001000403D
:108B10000034014000140040004C0140005001406E
:108B20000054014000180040001C0040002000409C
:108B30000040014000440140004801402E2E5C4CA2
:108B40006962726172795C7372635C73746D3332E3
:108B5000663130785F74696D2E6300004FF6FF71E7
:108B6000818000210180C180418001727047000036
:108B70002DE9F047FEF7AEF86421B0FBF1F7374C72
:108B80006589FEF7A7F86289014635A000F028FE46
:108B90003B49012031F8102001EB400323F8022C5F
:108BA000401CC0B20C28F5D3CD82A078401CA07028
:108BB000E078012600250028DFF8C880DFF8C8A08B
:108BC000A0784FF066391BD0082813D9042108205B
:108BD000FCF7B6F8A081A089FBF706FD002243460A
:108BE000FBF71EFC4A465346FBF78AFCFBF709FDE0
:108BF00060826671A0780C281ED3E570A5701BE01A
:108C0000032819D3782F02D20821042001E00C2177
:108C10000020FCF795F8A081A089FBF7E5FC002275
:108C20004346FBF7FDFB4A465346FBF769FCFBF75F
:108C3000E8FC6082A5706671257165816079002805
:108C400009D0FEF747F8638A0146A289BDE8F047DC
:108C50000EA000F0C5BDBDE8F08700002C0000208C
:108C60007469636B203D20256C642C206E65775FF2
:108C7000707062203D2025642075672F6D330A00D7
:108C80005013002000003E40666636407469636BF6
:108C9000203D20256C642C20617665725F707062C7
:108CA000203D2025642070706D2C20617665725FF8
:108CB0006D617373203D2025642075672F6D330A25
:108CC0000000000070B5244D2878002438B12C70C5
:108CD000687A01280FD003F04DFBFEF753F968794D
:108CE00090B36C71287A01280BD003F043FB70B16C
:108CF000012813D10FE003F03DFBFEF7F5F86C728D
:108D0000EDE703F037FBFDF7E1F82C7209E0688A24
:108D1000FDF71AF902E0A889FDF74BF9688AFDF71B
:108D20007DF9FDF7D7FF6421B0FBF1F4052C07D9DD
:108D30006869844204D0084900201231FEF78EFF92
:108D40006869844200D06C61BDE870400022232134
:108D5000024803F003BC00002C0000208413002014
:108D600010B50C460A460146812000F041FC302136
:108D70000120FFF7CFFA05490320087004488168F5
:108D8000091B81600021017310BD0000C801002093
:108D9000DC360020FEF78AB9FEF70EBAF0B50746BA
:108DA00087B001210420FEF7ABFA01214804FEF749
:108DB00047FA0424ADF8104018208DF813001B4E1C
:108DC00003258DF8125004A93046FCF7EDFD08206C
:108DD000ADF810008DF8134004A93046FCF7E4FD0F
:108DE00026208DF814008DF8155002208DF81600FD
:108DF00001208DF8170005A8FDF756FE0020ADF8FC
:108E00000400ADF80600ADF80800ADF80C000C2029
:108E1000074CADF80A0000976946204600F0FCF9BF
:108E20000121204600F0A6F807B0F0BD000801407F
:108E300000440040FDF758B9F0B50546012187B060
:108E40008804FEF7FDF94FF48060ADF8100018209B
:108E50008DF813001D4F03268DF8126004A93846C3
:108E6000FCF7A2FDF814ADF8100004248DF81340AF
:108E700004A93846FCF798FD27208DF814008DF8DA
:108E8000156001218DF816108DF8171005A8FDF753
:108E90000BFE0020ADF80800ADF80A40ADF8040064
:108EA0000B4CADF80600ADF80C0000956946204665
:108EB00000F0B2F9012240F22551204600F028F9D5
:108EC0000121204600F056F807B0F0BD000C01402B
:108ED000004800402DE9F041184E194FDFF864803A
:108EE00004460D46B0420ED0BC420CD044450AD0D8
:108EF0001548844207D01548844204D040F29E3180
:108F000013A000F0C3FF35F4587000D125B940F22A
:108F10009F310FA000F0BAFFA8050AD5B44208D0CF
:108F2000BC4206D0444504D040F2A33108A000F072
:108F3000ADFFE8432080BDE8F0810000003801402B
:108F40000044004000480040004C004000500040F9
:108F50002E2E5C4C6962726172795C7372635C7311
:108F6000746D3332663130785F75736172742E635D
:108F70000000000070B5044612480D46844210D02F
:108F8000114884420DD0114884420AD010488442CE
:108F900007D01048844204D04FF4B1710EA000F005
:108FA00075FF55B1012D04D040F263110AA000F005
:108FB0006DFFA08940F4005002E0A08920F4005029
:108FC000A08170BD003801400044004000480040CE
:108FD000004C0040005000402E2E5C4C69627261D3
:108FE00072795C7372635C73746D3332663130789E
:108FF0005F75736172742E63000000002DE9F04705
:10900000354F0026DFF8D480DFF8D4A005460C46A3
:10901000B8420ED045450CD055450AD0314885425E
:1090200007D03148854204D040F2C1312FA000F072
:109030002DFF282C32D0A4F5E06040F66A192738BD
:109040001FD0A4F5C06026381BD0A4F5A060253839
:1090500017D0A4F58060243813D0A4F500604638FA
:109060000FD04C450DD0B4F5587F17D0B4F5187F0C
:1090700014D0B4F5B07F11D040F2C2311BA000F083
:1090800005FF4C450AD1BD4208D0454506D055459F
:1090900004D040F2C63115A000F0F8FE04F01F0223
:1090A0000123C4F3421103FA02F0012910D002296E
:1090B00010D0A98A2A8801424FEA142003FA00F34B
:1090C00002EA030201D002B101263046BDE8F08772
:1090D000A989EFE7298AEDE7003801400044004004
:1090E00000480040004C0040005000402E2E5C4CD8
:1090F0006962726172795C7372635C73746D33322E
:10910000663130785F75736172742E630000000001
:109110002DE9F047324FDFF8CC90DFF8CCA00546C0
:109120000C461646B8420ED04D450CD055450AD0D7
:109130002E48854207D02E48854204D040F289113E
:109140002CA000F0A3FE40F66A18282C1CD0A4F531
:10915000E060273818D0A4F5C060263814D0A4F5F4
:10916000A060253810D0A4F5806024380CD0A4F578
:109170000060463808D0444506D0602C04D04FF437
:10918000C5711CA000F082FE36B1012E04D040F261
:109190008B1118A000F07AFE44450AD1BD4208D0D8
:1091A0004D4506D0554504D040F28F1111A000F076
:1091B0006DFE04F01F020120C4F34211904001290A
:1091C00006D0022906D0143529682EB1014304E0E7
:1091D0000C35F9E71035F7E781432960BDE8F087E2
:1091E000003801400044004000480040004C00406E
:1091F000005000402E2E5C4C6962726172795C7383
:1092000072635C73746D3332663130785F7573618D
:1092100072742E63000000002DE9F0435D4E5E4F36
:10922000DFF8788185B004460D46B0420DD0BC42CF
:109230000BD0444509D05A48844206D0594884424C
:1092400003D0B82158A000F021FE28685F49401ED5
:10925000884203D3B92154A000F018FEA8884FF427
:10926000805928B1484503D0BA214FA000F00EFE26
:10927000E88858B1484509D0B0F5005F06D0B0F590
:10928000405F03D0BB2148A000F000FE288948B110
:10929000B0F5806F06D0B0F5C06F03D0BC2142A0FE
:1092A00000F0F4FD688930F00C0100D118B9BD213F
:1092B0003DA000F0EBFDA889C0B1B0F5807F0BD0D8
:1092C000B0F5007F08D0B0F5407F05D0BE2136A0B4
:1092D00000F0DCFDA88948B1B44207D0BC4205D0FB
:1092E000444503D0C22130A000F0D0FD208A4CF6C6
:1092F000FF710840E98801432182A0894EF6F311ED
:109300000840A9882A8911436A8902431143A1812F
:10931000A08A4FF6FF410840A9890143A18268460F
:10932000FEF76EF8B44201D1039800E00298A189DB
:109330000904002900EBC00101EB0010296802DAE2
:109340004FEA410101E04FEA8101B0FBF1F16422F3
:10935000B1FBF2F04FEA00104FEA10136FF018055E
:109360006B4301EB8301A3891D044FF0320306D543
:1093700003EBC101B1FBF2F101F0070105E003EBE2
:109380000111B1FBF2F101F00F010143218105B0A0
:10939000BDE8F08300380140004400400048004030
:1093A000004C0040005000402E2E5C4C69627261FF
:1093B00072795C7372635C73746D333266313078CA
:1093C0005F75736172742E630000000020AA440070
:1093D00010B504460B48844210D00B4884420DD08F
:1093E0000A4884420AD00A48844207D00948844285
:1093F00004D04FF4197108A000F048FDA088C0F314
:10940000080010BD00380140004400400048004002
:10941000004C0040005000402E2E5C4C696272618E
:1094200072795C7372635C73746D33326631307859
:109430005F75736172742E630000000070B504469E
:1094400010480D46844210D00F4884420DD00F487A
:1094500084420AD00E48844207D00E48844204D089
:1094600040F253210CA000F011FDB5F5007F04D3AC
:109470004FF4157108A000F009FDC5F30800A080A5
:1094800070BD00000038014000440040004800402A
:10949000004C0040005000402E2E5C4C696272610E
:1094A00072795C7372635C73746D333266313078D9
:1094B0005F75736172742E63000000000020FDF779
:1094C00037B910B50120FEF781F90121BDE8104040
:1094D000C805FDF7B5BE0000044A00284FF48051CE
:1094E000104601D0FCF7C2BBFCF77CBB0008014072
:1094F000FBF74CBB06480549022201600A72064A86
:109500000449C0E90112086800470000EC36002059
:10951000CC020020400200209C02002038B54FF40D
:10952000A060FDF717FB14208DF8000002208DF8D5
:10953000010000258DF8025001248DF80340684693
:10954000FDF7B2FA13208DF800008DF801408DF878
:1095500002508DF803406846FDF7A6FA38BD0000BA
:1095600070B50D4D28680D4C208020880C4E318838
:109570000840000401D5FBF745FB208831880840EE
:10958000400507D54FF6FF30286006484068BDE823
:109590007040004770BD0000445C0040280200207D
:1095A000D802002040020020FFF7DABF0549002062
:1095B000086005494FF4044008800249091F08600B
:1095C00000207047445C0040D802002070B500F0D5
:1095D0007F050E462846FCF713FC04462846FCF798
:1095E000FFFB014622463046FDF79EFD204670BD3A
:1095F00070B500F07F040D4616462046FCF71AFCB5
:109600000146B2B21646284600F050F831462046D0
:10961000FEF772FE002070BD10B5094C002240F22A
:1096200027712046FFF774FD002240F22661204694
:10963000FFF76EFD2046BDE810404021FFF74ABC11
:109640000044004010B54FF4E130FFF7A7FB074995
:109650000548086000208880C880034A403A0831E5
:109660000A608880C88010BD7C140020580000204B
:109670000B488288C388011F9A4202D100200870DB
:10968000704701220A700168C288895C054A11800E
:10969000C188491CC1F30801C18001207047000046
:1096A0005800002004440040FEE70000084B10B5BD
:1096B000521C520803EB410108D003784478801C07
:1096C00043EA042321F8043B521EF6D110BD0000EA
:1096D000006000402DE9FC5F3A4D8246AB68287877
:1096E000394C40334FF0000B10B101280CD056E03C
:1096F00054F82A00A1FB0016C5E90A16A2FB0001D6
:10970000C5E90C0101202870304E314FC5F810B06A
:1097100008E02869AA68395CB154401C2861A8682F
:10972000401CA860A8689842F3D3A8462948D8E905
:109730000A270088121847F10007C8E90A27D8E964
:109740000C31181A61F10001C8E90C0154F82A40E3
:10975000914600232246FAF7E5FC1A4314D1C8F8D3
:1097600008B0A0B2CDE90060B9EB040267F10003D4
:109770005046FCF7F0FF10F0FF0F05D098F80100FD
:1097800040F0040088F801001348124982680988F3
:10979000511A81604FF440510220FEF773FDD5E964
:1097A0000C10014303D00D480078042807D15C4613
:1097B000C5F808B001210020FEF71CFE2C70BDE8A2
:1097C000FC9F000010010020000100207C260020EA
:1097D0007C360020CA010020DC360020C8010020B1
:1097E0000FB4054B10B503A9044A029800F07CF8A9
:1097F00010BC5DF814FB000059BE000814030020E3
:109800000FB41CB50A46521ECDE9000207A9054B4C
:109810006A46069800F068F8009A002111701CBC96
:109820005DF814FB5F9D000802E008C8121F08C124
:10983000002AFAD170477047002001E001C1121FD1
:10984000002AFBD1704700003EB501210846FDF714
:10985000F7FC6846FFF782F90E484FF47A714FF033
:1098600080440068B0FBF1F0401EADF800004FF6F8
:10987000FF70ADF804000020ADF80600ADF802005E
:1098800069462046FFF7AEF801212046FFF72EF883
:109890003EBD0000680000203EB501210846FDF7EE
:1098A000CFFC6846FFF75AF90D480E494FF0804447
:1098B0000068B0FBF1F0401EADF800004FF6FF70FD
:1098C000ADF804000020ADF80600ADF802006946CE
:1098D0002046FFF787F801212046FFF707F83EBD35
:1098E0006800002040420F002DE9FF4F8DB0054673
:1098F0000F460026E9E1252879D100246D1CF74A9E
:10990000A246A14601212B78203B01FA03F0104228
:1099100002D004436D1CF6E728782A2810D06FF097
:109920002F022878A0F13001092915D80AEB8A0105
:1099300002EB410144F0020400EB010A6D1CF0E768
:1099400057F804ABBAF1000F03DA44F40054CAF13B
:10995000000A44F002046D1C28782E2817D115F84F
:10996000010F44F004042A280ED06FF02F0228784B
:10997000A0F1300109290AD809EB890102EB410164
:1099800000EB01096D1CF2E757F8049B6D1C287869
:109990006C280FD006DC4C2817D068280DD06A2818
:1099A00014D104E0742810D07A280FD10DE044F4CB
:1099B00000140AE044F4801401E044F4401469788F
:1099C000814202D16D1C04F580146D1C95F800C015
:1099D000BCF16E0F2AD012DCBCF1630F3CD007DC67
:1099E000BCF1000F76D0BCF1580F19D1A7E018E0F8
:1099F000BCF1640F6FD0BCF1690F11D16BE0BCF109
:109A0000730F32D006DCBCF16F0F71D0BCF1700F58
:109A100006D196E0BCF1750F6BD0BCF1780F69D020
:109A20006046DDE90F129047761C4DE1C4F3025009
:109A3000022806D003280AD0042801CF0AD00660E5
:109A400042E101CF4FEAE671C0E900613CE101CF9C
:109A5000068039E1067037E101CF8DF80000002063
:109A60008DF80100EB46012003E057F804BB4FF0EE
:109A7000FF3061074FF0000102D40DE008F1010151
:109A8000884649450FDA8045F8DB1BF808100029A5
:109A9000F4D108E008F1010188468142FADB1BF8A5
:109AA00008100029F6D1DDE90F23AAEB0800814652
:109AB000214600F03CF9304400EB080604E0DDE903
:109AC0000F121BF8010B9047B8F10108F7D221469D
:109AD0004846F4E0FDE00A21C4F302524FF0000BC7
