:020000040800F2
:10400000E84C002001410008B3710008AD650008CC
:10401000B1710008CB4B000865A200080000000049
:10402000000000000000000000000000518A0008AD
:104030008154000800000000E5780008AD900008F9
:104040001B4100081B4100081B4100081B410008E0
:104050001B4100081B4100081B4100081B410008D0
:104060001B4100081B4100081B4100081B410008C0
:104070001B4100081B4100081B4100081B410008B0
:104080001B4100081B4100081B410008ADA00008AF
:1040900065A100081B4100081B4100081B410008E6
:1040A0001B4100081B4100081B4100081B41000880
:1040B0001B4100081B4100081B4100081B41000870
:1040C0001B4100081B4100081B4100081B41000860
:1040D0001B410008B198000855990008F1990008A3
:1040E0001B4100081B4100081B410008DFF80CD0F1
:1040F00000F02AFC004800472DD10008E84C0020C1
:104100000648804706480047FEE7FEE7FEE7FEE771
:10411000FEE7FEE7FEE7FEE7FEE7FEE72191000887
:10412000ED4000082DE9F05F0546002092469B46D1
:1041300088460646814640241BE0284641464746BD
:10414000224600F0F6FA52465B46801A994110D397
:1041500010461946224600F0DDFA2D1A67EB0108D9
:104160004F4622460120002100F0D4FA17EB000947
:104170004E41201EA4F10104DFDC484631462A46A8
:104180004346BDE8F09F40EA01039B0703D009E0E6
:1041900008C9121F08C0042AFAD203E011F8013B33
:1041A00000F8013B521EF9D27047D2B201E000F88C
:1041B000012B491EFBD270470022F6E710B50446DA
:1041C0000846114602462046FFF7EFFF204610BD85
:1041D00030B50EE003460A4601E05B1C521C1C7819
:1041E0001578AC4201D1002CF7D115F0FF0F04D0A7
:1041F000401C0278002AEDD1002030BD10B50446E5
:1042000004E00B7800F8013B03B1491C521EF8D2C0
:10421000204610BD0146002000E0401C0A5C002A38
:10422000FBD170470246C9B200E0401C0378002B66
:10423000FBD102E003788B4203D0401E9042F9D2BA
:10424000002070472DE9F0470F469146804604460E
:10425000002614F8015B2DB100F08EFA0068405D75
:10426000C007F6D12B2D02D02D2D18D0641E4A4642
:104270003946204600F084FA27B13968A14201D1BD
:10428000C7F8008071054FF002040BD540420028AA
:1042900003DD06F0A7F80460A007BDE8F08746F448
:1042A0008066E4E70028F8DA06F09CF804606FF016
:1042B0000040F2E7F0B480EA0102D20F4300B3EB12
:1042C000410F02D20346084619464B0042D0C30DA7
:1042D000DDB2C1F3C7542C1B202C35DAC1F3160113
:1042E00041F4000502B16D42C4F1200605FA06F161
:1042F00025412844B3EBD05F23D0C2B1012CA0EB01
:10430000C35009DCF0BC4FF0004202EAC35200F592
:104310000000DBB200F08CBA400000F1807000EBCE
:10432000C350A0F1807040EAD170490009E049080B
:1043300041EAC071A0EBC35000F50000400800EB5B
:10434000C350F0BC00F06BBA5142012303EB4101B2
:10435000801AF6E7F0BC704781F00041AAE780F0D0
:104360000040A7E72DE9FE4F074681EA0300C00F92
:104370000E46019021F0004123F00044B81AA141FB
:1043800005D23846314617461E460B46024623F0F4
:104390000040104304D13846314603B0BDE8F08FE9
:1043A000350DC5F30A00C3F30A510290401A00907C
:1043B000402868DAC3F3130040F4801B019892464A
:1043C00020B10023D2EB030A63EB0B0B0098594694
:1043D000C0F14002504600F09DF980460C46504620
:1043E0005946009A00F0B5F9C0197141EF1785EAF6
:1043F00011533B4340D0019A52B3009A012A11DC79
:104400000022801A4FF0004361EB055103EA055387
:104410008018CDE9002341F580114246234600F083
:1044200041FABAE72E050025401B61EB0601401951
:1044300041F58012001852412818A6F5001343EBED
:10444000020140EAD470294318EB0808644113E0E4
:1044500064084FEA38084FF0000244EAC0744FEA9B
:104460000553801A61EB0301801841F5801149085A
:104470004FEA3000801859414246234603B0BDE858
:10448000F04F00F002BA0198012240000023D0EB67
:10449000020263EBE07301984FEAE074381A66EBAE
:1044A0000401EBE783F000435CE781F0004159E74A
:1044B0002DE9FE4F81EA030421F0004504F0004499
:1044C00023F000414FF0000A009450EA050302D0A7
:1044D00052EA010304D10020014603B0BDE8F08F89
:1044E000C1F30A53C5F30A541C44A0FB02B3C5F33D
:1044F000130545F4801CC1F3130141F480180CFB33
:10450000023300FB083EA4F2F334810A930A41EA25
:104510008C5143EA88530194A1FB03474FEA9C2541
:1045200005FB03734FEA982601FB06373D05260578
:1045300045EA1435BBEB06016EEB0503850E920EC2
:1045400045EA8C1542EA8812A5FB0206261E67EB97
:1045500000070C0D44EA0334A41947EB1350C1F3D0
:1045600013064FF0000319464FEA033343EA16538C
:1045700043EA0403019CE5FB0201A4F10C0402944C
:10458000009C4FEA0632CDE900A400F08BF9A4E7C5
:104590002DE9F04D81EA030404F0004B21F00047BF
:1045A00014464FF0000A23F0004150EA070220D0E1
:1045B00054EA01021DD0C1F30A550246C1F31300AB
:1045C000C7F30A56C7F3130340F4801143F4801372
:1045D000A6EB0508101BD64608F2FD3873EB010068
:1045E00002D308F1010801E092185B41B8F1000F15
:1045F00003DA00200146BDE8F08D00204FF480155D
:10460000064607460EE0B2EB040C73EB010C04D334
:10461000121B064363EB01032F436D084FEA300082
:1046200092185B4150EA050CEDD152EA030012D01A
:1046300082EA040083EA0105284303D100224FF0F7
:10464000004308E0101B8B4102D20122002302E04C
:104650006FF0010253101AEB060047EB085110EB04
:104660000A0041EB0B01BDE8F04D00F00EB99623B6
:104670000022114600F0DCB80EB540F23341029141
:104680000021CDE900110A460B4600F00BF903B0FA
:1046900000BDC1F30A52C1F3130140F2FF3341F4EC
:1046A00080119A4201DA0020704740F233439A4267
:1046B000A2F2334202DC524200F03BB89040704715
:1046C00000F0004230F000400DD0C10D01F56071E6
:1046D00042EA01510022C0F31600520742EAD0021A
:1046E000400711437047002001467047002801DB56
:1046F000C0F10040002901DBC1F100418142704757
:10470000002801DBC0F10040002901DBC1F10041BC
:1047100088427047202A04DB203A00FA02F1002088
:1047200070479140C2F1200320FA03F319439040EF
:104730007047202A04DB203A21FA02F0002170475A
:1047400021FA02F3D040C2F12002914008431946F9
:104750007047202A06DBCB17203A41FA02F043EAE1
:10476000E071704741FA02F3D040C2F1200291405B
:1047700008431946704700000048704724E80008C5
:104780002DE9F05F8246007800278B4615460AF136
:104790000104B946302801D09DB113E014F8010B93
:1047A0000127782803D0582801D045B10AE00DB17F
:1047B000102D07D10027102514F8010B02E0082561
:1047C00000E00A250026B0460EE005FB080005FBC8
:1047D00006F1012701EB10461FFA80F8B6F5803F7D
:1047E00000D3B94614F8010B294600F0BFF80028A1
:1047F000EBDABBF1000F05D00FB1641E00E05446A8
:10480000CBF80040B9F1000F06D005F0EBFD022116
:104810000160C81EBDE8F09F48EA0640FAE700299B
:10482000A8BF7047401C490008BF20F00100704736
:1048300010B4B0FA80FC00FA0CF050EA010404BF96
:1048400010BC704749B1CCF1200421FA04F411FAEC
:104850000CF118BF012121430843A3EB0C01CB1D30
:104860000106000A002BBEBF002010BC704700EB01
:10487000C35010440029A4BF10BC7047401C49001D
:1048800008BF20F0010010BC704710B5002B08DAFB
:10489000401C41F1000192185B411A4301D120F004
:1048A000010010BD2DE9F04D92469B4611B1B1FAC1
:1048B00081F202E0B0FA80F220329046FFF72AFF40
:1048C00006460F4640EA0A0041EA0B0152465B46A3
:1048D000084303D130463946BDE8F08D194652EA07
:1048E000010015D0C8F140025046FFF722FF0446F0
:1048F0000D46504659464246FFF70CFF084301D08B
:10490000012000E00020044345EAE07526432F43E0
:104910000A984FEAD625A0EB08000A304FEA465322
:104920004FF0000245EA47554FEAD72402D5002050
:104930000146D1E7010550196141DDE9084500193B
:104940006941BDE8F04DA0E7064C074D06E0E06880
:1049500040F0010394E8070098471034AC42F6D3C6
:10496000FFF7C8FBF8E8000818E900083A2800D269
:10497000303820F02002412A01D3A2F137008842CA
:1049800001D34FF0FF30704770B501EB020410F80F
:10499000015B15F0070301D110F8013B2A1106D184
:1049A00010F8012B03E010F8016B01F8016B5B1E9E
:1049B000F9D12B0705D40023521E0FD401F8013B77
:1049C000FAE710F8013B02F10202A1EB030303E056
:1049D00013F8015B01F8015B521EF9D5A142D6D351
:1049E000002070BD30B58FB072B602F0E4FB04F069
:1049F00025FB04F067FB01213D2003F051F831480D
:104A00004168314A1143416005F0FAFB4FF41654F6
:104A1000204604F04FFF204604F0ECFF62B600F0A1
:104A200097F80AA803F0BCF828480E99B1FBF0F5F6
:104A30000D99B1FBF0F40C99B1FBF0F30B99B1FBBC
:104A4000F0F20A99CDE90045B1FBF0F1204805F0FC
:104A5000A5FC20A322A225A127A005F09FFC09F018
:104A6000F3F801F0ADFA02F061FE03F0EFFC00F0A4
:104A7000ABFA01F055FE08F065FA02F03BF90820A8
:104A800002F0FEF80020029003900490059006903A
:104A900007900890099012A31DA2102102A805F00A
:104AA0008DFC102211A106A8FFF7A8FB002106AA81
:104AB000084601F0B1FF02AA0021012001F0ACFF7D
:104AC0000FB030BD000001400080000240420F00E6
:104AD000E8DC000831393A31363A3139000000005B
:104AE000417567202031203230313700415050204D
:104AF00056312E31333950006170702076657273F3
:104B0000696F6E3A2025732025732025730D0A00E6
:104B10002573200010B5040005D0012C03D0962188
:104B200002A005F095FF0948046010BD2E2E5C4CD4
:104B30006962726172795C7372635C73746D333233
:104B4000663130785F626B702E63000000860D4224
:104B500010B504F0DEFA0549087008B104A100E0C0
:104B600006A1BDE8104009A005F018BC28000020EF
:104B7000426967456E6469616E0000004C69747437
:104B80006C65456E6469616E0000000053797320A6
:104B900069732025730A000010B578B14FF4805472
:104BA000012805D002280FD11021012003F0F4FFC5
:104BB0002146BDE81040022003F0A6BF1021BDE849
:104BC0001040012003F0E8BF10BDFEE7C1B2000AAB
:104BD00040EA01207047000070B5614B614C002035
:104BE0005988A4F1400202E0155C2554401C88421B
:104BF000FAD35C48626820301F294260A268826054
:104C000007D00220FFF7C8FF00202060607B1A2237
:104C100021E0E17B282901D02A290AD1D4F811000A
:104C2000227D00BA20F0FF0010435860E08A40BAAD
:104C300098604D4A2068904252D14C4A607B12687D
:104C4000904203D8A27B0AB1102A0DD90220FFF7A7
:104C5000A3FF607B2422052104F02EF8BDE87040FC
:104C60000021012004F008B8252958D01ADC1529A4
:104C700071D00DDC08296ED005DCB9B3032936D01C
:104C800004292DD163E00A2965D0122928D132E008
:104C90001A390A2924D2DFE801F03632235E3223A2
:104CA0002323233E8A2956D00EDC552953D006DC17
:104CB00028293CD02A2940D02F2911D143E05A2954
:104CC00025D088290CD146E0A82944D004DC8F29BE
:104CD00041D09E2904D13EE0AA293CD0AF293AD048
:104CE0000220FFF759FF607B2022B4E71BE0BDE8FC
:104CF000704003F031BBBDE8704003F04BBABDE833
:104D0000704003F035BBBDE8704003F07DBABDE8EC
:104D1000704003F073BABDE8704003F0E7BABDE835
:104D2000704003F0ABBABDE8704003F025BBD3E997
:104D30000112BDE8704003F06DBAD3E90112BDE87D
:104D4000704003F04FBBBDE8704003F031BBBDE8DD
:104D5000704003F007BABDE8704003F035BA0000B8
:104D6000E801002040370020555342434C02002008
:104D70002DE9F041184D174C174F4435174E23E0DD
:104D800047F6FF702860308800F00F00207007EBB6
:104D90008000016889B20A0407D5016840F68F7265
:104DA00089B2114001600E4808E009060CD501687F
:104DB00048F60F7289B2114001600A48217800EB71
:104DC000810050F8040C8047286830800004D7D454
:104DD000BDE8F081E8020020005C004048020020AD
:104DE0002C020020100200202DE9F05F4BF6BF7866
:104DF00048F28009454F40F68F7A454E454D48F6BA
:104E00000F7B27E0088810F00F0030702BD005EBE7
:104E1000800001688CB221040BD5016889B201EAD7
:104E20000A0101603C48317800EB810050F8040C25
:104E3000804720060ED5307805EB8000016889B2E6
:104E400001EA0B0101603548317800EB810050F830
:104E5000040C80472F484430006831490880000422
:104E6000D0D4BDE8F09F28683880388800F0300042
:104E70007880388800F440503880286880B200EA92
:104E8000080080F4005080F0200040EA090028600B
:104E90000888C0060028286880B217DB00EA0B00EB
:104EA000286001F085FB24E03988890401D580F46D
:104EB00000507988C90626D47988890601D580F002
:104EC000200080B240EA09002860CAE7010507D542
:104ED000286880B200EA0A00286003F0F3FE08E0C8
:104EE0000004B7D5286880B200EA0A00286002F002
:104EF000E9FA2868398880B200EA0800C904D3D5E5
:104F000080F48050D0E780F01000D5E7FA0200204E
:104F1000E8020020005C00402C020020100200206B
:104F20004802002070B500240C4A04E032F810302A
:104F3000401C1C44C0B21228F8D30846FFF79CFB63
:104F400005460E462046FFF797FB2A463346FFF7F5
:104F50001FFBFFF79EFB80B270BD000074130020A2
:104F6000074901EB80000168490408D5016848F64B
:104F70008F7289B211404CF2800211430160704778
:104F8000005C0040074901EB80000168490608D534
:104F9000016848F68F7289B2114048F2C00211438D
:104FA00001607047005C0040064901EB8000016829
:104FB00048F68F6289B2114048F2800211430160C5
:104FC00070470000005C00401CB50121082002F081
:104FD00067FD0220ADF8040001208DF806001020C6
:104FE0008DF8070001A90E4800F0ECFF00242346CD
:104FF00022460C490C48009402F02EFA0A4800237D
:105000001A460A491C30009402F026FA064800228B
:105010004FF4FA711C3008F003F900F08FF81CBD52
:10502000000C01403D950008C82600206997000843
:105030002DE9F0470025DFF8988082462E464FF68E
:10504000FF794846424600E000BF1168890704D452
:105050000100A0F1010080B2F6D118B14FF47A74CA
:1050600000270CE02C211BA005F098F90320BDE8D7
:10507000F0870A2005F00FFF07F10107BFB2D8F84B
:105080000000800704D52000A4F10104A4B2F0D1EF
:105090003CB16806050E381F052808D245F0010509
:1050A0000DE0352110A005F079F90420DFE7082F85
:1050B00005D3394611A005F071F90520D7E7761C14
:1050C000F6B2082EBDD38AF800500020CFE70000CA
:1050D000080C01406C696E65203D2025642C205031
:1050E00044206572720A00006C696E65203D2025BF
:1050F000642C205055206572720A00006468742088
:105100006269742065727220636F756E74203D2031
:1051100025640A0008B50221ADF8001001218DF8C0
:10512000021038B110208DF803006946024800F0E3
:1051300049FF08BD4820F6E7000C014010B50D4CB2
:10514000A078002814D12070072060700120FFF79C
:10515000E1FF0948016841F002010160074802F0DF
:10516000A1F900220121054808F05AF80120A07099
:1051700010BD000078000020100C0140C82600205F
:105180002DE9F05FDFF89C90DFF89C804FF0300A4B
:10519000D9F8001001F11004088A0E7A08B9042E1B
:1051A00004D0A588A84216D8042615E01F4A107816
:1051B000012804D007261021A8F800102CE01C4973
:1051C000002009681B4B89B203EB41014860A8F835
:1051D00000A0107020E00226854200D90546A8B242
:1051E000A168074688478346002001F031F901464F
:1051F0003A46584605F038F83946002003F0BEFC20
:105200002088401B2080608828446080A8F800A087
:1052100009494FF440500880D9F800000672BDE8F3
:10522000F09F0000EC020020FC020020E4020020BD
:10523000505C004000600040FA0200202DE9F04779
:10524000234EDFF890904FF03008346834F8100F98
:10525000A168B1B108B3A588854200D90546A8B2B6
:105260000746884782462088401B20806088284463
:105270006080002001F0C2F801463A46504602F034
:1052800005FB208848B114494FF4405008800021A4
:10529000084603F073FCA9F800802088A1888842A2
:1052A00001D3032001E020B1052031680872BDE878
:1052B000F087316806200872084900200968084A0A
:1052C00089B202EB41014860A9F80080EFE70000D5
:1052D000EC020020FC020020FA020020505C00409A
:1052E000006000402DE9F0415C4C5D4D09262068CE
:1052F000002729684278062A05D0AAB1082A4BD08F
:105300000A2A4ED069E00278520666D180780128D8
:1053100004D0022804D0032804D05EE0C96954E018
:10532000096A52E0496A50E04288A2BBC288022A58
:1053300053D102797ABB0278530601D1838833B105
:1053400002F07F02012A04D0022A0CD045E0454930
:105350003BE08A69407900219047E0B92068807A73
:105360000028F4D139E0417901F00F0001F070021A
:105370000B063D4951F8201003D5C1F30111090175
:1053800002E0C1F301310903384B1B78834224D971
:105390000AB90029DBD120E0007840061DD134494C
:1053A00013E0027802F07F02012A16D1827AA2B1BC
:1053B000428892B9027982B9C288012A0DD18A69DC
:1053C00040790021904740B92A4931B1206847828D
:1053D000816100208847002006E02968206809696B
:1053E00040788847032808D021680A8AA2F57F43BD
:1053F000FF3B05D10E72BDE8F08120680672FAE726
:10540000022808D03AB10878000620D5C888824220
:1054100005D9088213E04FF008000872EBE70ED2BE
:105420002868154B90F82C00824201D21F7006E0CC
:10543000B2FBF0F400FB142008B9012018702868B2
:1054400090F82C008882BDE8F041FFF799BE032058
:1054500008720A4900030880CDE70000EC02002032
:10546000F0020020858E0008005C0040B802002099
:10547000198E00085D8E0008E4020020FA02002068
:10548000704701F0FBBD01F039BE00007FB5044656
:1054900008F090F91249DCB16B46102208F0A4F92B
:1054A0000821684603F02AFE0146DDE90223DDE912
:1054B0000005C4E900058A42C4E9022302D1D843A9
:1054C00082420AD0074804F069FF012004B070BD91
:1054D000602305A200210CA0F5E70020F6E70000FC
:1054E000640004007CDD00082E2E5C447269766541
:1054F000725C7372635C463130585F466C617368EE
:105500005F49662E630000006572726F72203D2055
:1055100025642C2066696C65203D2025732C206C49
:10552000696E65203D2025640A0000002DE9F041E8
:105530000746884608F03EF9214C0546B8F1000FB1
:1055400035D03A0B39461FA004F028FF4FF480569F
:10555000234632463946284608F046F96422414639
:105560002046FEF710FE5C21204603F0C7FDC24333
:10557000C4E9170201461DA004F010FF3246394667
:10558000284608F0A4F8234632463946284608F053
:1055900043FA234632463946284608F025F9D4E92D
:1055A00017121CA004F0FAFE0020BDE8F0810F23C2
:1055B00022A2002129A004F0F1FE0120F5E700005D
:1055C000C8160020777269746520666C6173684143
:1055D000646472203D20307825782C2073656374D4
:1055E0006F72203D2025640A00000000773A206396
:1055F0006865636B203D20307825782C20636865D2
:10560000636B496E7665727365203D20307825782E
:105610000A000000723A20636865636B203D203009
:105620007825782C20636865636B496E76657273A4
:1056300065203D20307825780A0000002E2E5C443D
:1056400072697665725C7372635C463130585F468E
:105650006C6173685F49662E630000006572726F4B
:1056600072203D2025642C2066696C65203D202534
:10567000732C206C696E65203D2025640A000000B3
:105680002DE9F0419CB000251A9501225E495F4842
:105690001B9506F0E9FB044601465DA004F07EFE82
:1056A0004FF480560D2C08D0002C16D021465CA05B
:1056B00004F074FE1CB0BDE8F08160A004F06EFE42
:1056C00032460121504806F035F9010001D062A0B0
:1056D000EEE769A004F062FEECE76EA004F05EFE67
:1056E000402000904848714B71A22021083000F002
:1056F00033FB70B96D4970A004F050FE6B49012274
:1057000001F1740006F0E0FB010012D070A004F07B
:1057100045FE1BAA1AA976A005F0CEFE0028C9D125
:1057200074A004F03BFEDDE91A127AA004F036FE04
:10573000C0E70024199508F03DF85C4F80467437A7
:105740005A4819AB32467B49743006F0D5FC050047
:1057500020D11998F0B1250332462946404607F07A
:10576000B6FF1998B04206D2724AC0F58051104473
:10577000CC22FEF71AFD6F4B32462946404608F010
:105780004BF9641CA4B22346FA686B48199904F0DB
:1057900005FED5E74548743005F0B8FE294667A0F8
:1057A000199A04F0FBFD19980543B2D16BA004F0DF
:1057B000F5FD3E4806F0A0FD002822D06CA23B4932
:1057C0006DA004F0EBFD64216846FEF7F5FCF86877
:1057D000119001201590C01E169069464FF480204C
:1057E000FFF7A4FEFA686AA0199904F0D7FD76A025
:1057F00004F0D4FD40F6B83005F03EFB00F022FF87
:1058000087E780A2DBE70000FE0200208C37002043
:10581000665F6D6F756E74203D2025640A00000080
:105820004661744673206D6F756E74206572726F79
:1058300072203D2025640D0A000000004661744678
:1058400073204572726F722C20646F20466F726DE8
:1058500061742E2E2E0D0A00466C61736820446917
:10586000736B20466F726D6174204661696C65646C
:10587000203D2025640A0000466C6173682044695D
:10588000736B20466F726D61742046696E69736830
:1058900020210A004661744673206D6F756E742076
:1058A000737563636573730D0A000000BC470020C5
:1058B000757064617465000066696E646564206675
:1058C000696C652070617468203D2025730A0000B2
:1058D00063616E2774206F70656E2066696C652C3D
:1058E000206572726F72203D2025640A000000005E
:1058F0003000000072656164206661746673206622
:10590000696C652073697A65207375636365737369
:105910000D0A0000746F74616C203D20256C6420BA
:105920004B422C2066726565203D20256C64204B1F
:10593000420A0000C8160020E4E1000872656164B4
:105940002066696C653A20726573203D2025642CC1
:10595000206272203D2025640D0A0000726561649A
:105960002066696C6520616C6C20646F6E650A004E
:105970006661696C6564000064656C6574652066C9
:10598000696C6520696E2025732025730A0000006C
:10599000726561642066696C652073756363657305
:1059A000732C206C656E203D2025642C2066696C6C
:1059B000655F73697A65203D20256C6420427974A7
:1059C00065730D0A000000007772697465207370BA
:1059D0006920666C61736820646F6E652C20726547
:1059E00061647920746F206A756D7020746F207403
:1059F000686520626F6F746C6F616465722E2E2E05
:105A00000A0000006F6B0000F0B5C3B0002532A1A2
:105A1000354800F0D5F801282DD0334C4FF480766E
:105A2000E168B14200D996392F4805F0F4FD0746E8
:105A300001462EA004F0B2FCD4E9022339462FA07F
:105A400004F0ACFC9FB9002041904090314668467C
:105A5000FEF7B2FB41AB32466946234806F04CFBE9
:105A600002000AD040F29F112FA004F097FC1E48BC
:105A700005F04CFD284643B0F0BD694631A004F066
:105A80008DFC5B216846FEF7CDFB040021D05D2133
:105A9000FEF7C8FBC8B10A2240A9601CFEF7D2FB82
:105AA00001000CD1409A601C824208D1631C28A0DE
:105AB00004F074FC0C4805F029FD0020DBE7491CCC
:105AC0000D4631A004F06AFCD1E737A004F066FC73
:105AD000CDE738A0FAE7000073656E736F725F64FC
:105AE0006174612E7478740030480020312C20726B
:105AF0006573203D2025640A00000000665F6C731A
:105B000065656B20726573203D2025642C206670CE
:105B10007472203D20256C642C206673697A6520A0
:105B20003D20256C640A00006C696E65203D2025CF
:105B3000642072656164206661696C6564203D2043
:105B400025640A00627566203D2025730A00000066
:105B5000636F6E76657274206661696C65642C2073
:105B6000696E646578203D2025642C2070456E6444
:105B7000203D20307825782C202670315B315D2047
:105B80003D20307825780A0068616420256C642007
:105B90006974656D73206F662073656E736F722014
:105BA000646174610A0000007032206E756C6C0ACA
:105BB000000000007031206E756C6C0A000000005F
:105BC000F0B59BB006460F46402235496846FEF7C1
:105BD000DAFA0025694610A806F046FA040009D052
:105BE00030A2694631A004F0D9FB052C04D08CB159
:105BF0005D2349E031A2F4E7684605F0DFFD0200CD
:105C0000694603D02EA004F0C9FB42E034A004F0A2
:105C1000C5FB012510A805F08CFC6846FEF7FAFAD2
:105C20002F220DF800206844401C40223946FEF720
:105C3000E5FA13226946304606F046F90446C5B136
:105C400000201A9016486C38FEF7E4FA1449024610
:105C50001AAB6C39304606F0A3FB11483238FEF718
:105C6000D9FA0F4902461AAB3239304606F098FB92
:105C70000446304606F002FBF2686CB109A11EA092
:105C800004F08CFB54B1702321A2214629A004F01A
:105C900085FB01201BB0F0BD08A1F0E70020F9E76B
:105CA000A4E100086661696C656400006F70656E50
:105CB000206469722025732025730A006F6B000031
:105CC0006372656174652064697220257320666162
:105CD000696C65642C20726573203D2025640A0080
:105CE0006372656174652064697220257320737521
:105CF00063636573730A0000665F6F70656E2025CD
:105D0000732C206673697A65203D2025640A0000A3
:105D10002E2E5C436F6D706F6E656E745C466174A1
:105D200046735C7372635C66617466735F64656D11
:105D30006F2E63006572726F72203D2025642C20E7
:105D400066696C65203D2025732C206C696E65208A
:105D50003D2025640A0000002DE9F04194B005467D
:105D6000284811903320129017461E46DDF86880AF
:105D7000294601A806F078F904002CD034E01198E7
:105D8000007808B1119801E00DF135009DF834104C
:105D9000C90604D51CA004F001FB042424E00090F3
:105DA0002B461FA24146304604F008FB39463046D8
:105DB000FEF70EFA04461CA13046FEF709FA34B18C
:105DC00028B1314619A004F0E9FA002403E01EA02E
:105DD00004F0E4FA04240BA901A806F023FA18B988
:105DE0009DF835000028CAD101A805F0A2FB38B102
:105DF00019A11BA004F0D2FA14B02046BDE8F0812E
:105E00001BA1F6E7FC4700207363616E2066696C96
:105E100065206661696C65642C20646972730A0090
:105E200025732F25730D0A0062696E007365617218
:105E300063682066696C6520737563636573733A84
:105E40002025730A000000006E6F742066696E647E
:105E50002066696C650A00004661696C6564000033
:105E6000636C6F73656469722025730A000000001B
:105E70004F4B0000F8B50D4601461348FFF7A0FE52
:105E800001281FD0104C2046E16805F0C4FBD4E97E
:105E9000022301460DA004F081FA2846FEF7BAF964
:105EA000064602466B462946204606F079FA044625
:105EB000054805F02BFB324621460FA0009B04F05D
:105EC0006DFA2046F8BD000030480020665F6C7314
:105ED00065656B20726573203D2025642C206670FB
:105EE0007472203D20256C642C206673697A6520CD
:105EF0003D20256C640A0000665F77726974652036
:105F0000726573203D2025642C206C656E203D2039
:105F100025642C206277203D2025640A00000000C3
:105F200010B50446102805D024B140F22F1106A068
:105F300004F08EFD0D48016821F010010160016838
:105F40002143016010BD00002E2E5C4C696272611D
:105F500072795C7372635C73746D3332663130785E
:105F60005F666C6173682E630000000000200240D1
:105F700010B5040008D0012C06D0022C04D040F249
:105F8000031105A004F064FD0C49086800F0380016
:105F90002043086010BD00002E2E5C4C69627261C7
:105FA00072795C7372635C73746D3332663130780E
:105FB0005F666C6173682E63000000000020024081
:105FC000FFF75EBB2DE9F0410446464800260D462A
:105FD000844215D04448844212D0444884420FD0B1
:105FE000434884420CD04348844209D0424884420A
:105FF00006D04248844203D0B22141A004F028FDDB
:10600000E87888B104280FD028280DD048280BD074
:10601000142809D0102807D01C2805D0182803D030
:10602000B32137A004F014FD288818B9B42134A096
:1060300004F00EFDE87800F00F07C0060CD5A87834
:10604000012807D0022805D0032803D0BB212CA0AB
:1060500004F0FEFCA878074328884FF00F0C10F0DE
:10606000FF0F4FF0010E1AD021682A880EFA06F0B1
:10607000024082420FD1B2000CFA02F3994307FAB0
:1060800002F21143EA78282A02D0482A02D002E01C
:10609000606100E02061761C082EE6D3216028882C
:1060A000FF281DD96268002101F108030EFA03F0F0
:1060B0002B88034083420FD18E000CFA06F322EAAC
:1060C000030307FA06F21A43EB78282B00D160612C
:1060D000EB78482B00D12061491C0829E4D3626089
:1060E000BDE8F08100080140000C014000100140B3
:1060F0000014014000180140001C01400020014034
:106100002E2E5C4C6962726172795C7372635C738F
:10611000746D3332663130785F6770696F2E63005B
:1061200070B50546274800260C46854216D02648FD
:10613000854213D02548854210D0254885420DD090
:10614000244885420AD02448854207D02348854206
:1061500004D04FF48F7122A004F07AFC012C2AD0D5
:10616000022C28D0042C26D0082C24D0102C22D08D
:10617000202C20D0402C1ED0802C1CD0B4F5807F49
:1061800019D0B4F5007F16D0B4F5806F13D0B4F5F4
:10619000006F10D0B4F5805F0DD0B4F5005F0AD069
:1061A000B4F5804F07D0B4F5004F04D040F21F1172
:1061B0000BA004F04DFCA868204200D00126304618
:1061C00070BD000000080140000C014000100140BB
:1061D0000014014000180140001C01400020014053
:1061E0002E2E5C4C6962726172795C7372635C73AF
:1061F000746D3332663130785F6770696F2E63007B
:1062000070B5044611480D46844216D010488442A9
:1062100013D01048844210D00F4884420DD00F484C
:1062200084420AD00E48844207D00E48844204D0EB
:1062300040F279110CA004F00BFC25B94FF4BD71AC
:1062400009A004F005FC656170BD00000008014074
:10625000000C0140001001400014014000180140F2
:10626000001C0140002001402E2E5C4C69627261CE
:1062700072795C7372635C73746D3332663130783B
:106280005F6770696F2E630070B5044611480D4654
:10629000844216D01048844213D01048844210D053
:1062A0000F4884420DD00F4884420AD00E488442E1
:1062B00007D00E48844204D040F269110CA004F0CB
:1062C000C7FB25B94FF4B57109A004F0C1FB2561E6
:1062D00070BD000000080140000C014000100140AA
:1062E0000014014000180140001C01400020014042
:1062F0002E2E5C4C6962726172795C7372635C739E
:10630000746D3332663130785F6770696F2E630069
:1063100070B505462A480C461646854216D02948CF
:10632000854213D02848854210D0284885420DD098
:10633000274885420AD02748854207D0264885420B
:1063400004D040F28D1125A004F082FB012C2AD04C
:10635000022C28D0042C26D0082C24D0102C22D09B
:10636000202C20D0402C1ED0802C1CD0B4F5807F57
:1063700019D0B4F5007F16D0B4F5806F13D0B4F502
:10638000006F10D0B4F5805F0DD0B4F5005F0AD077
:10639000B4F5804F07D0B4F5004F04D04FF4C77167
:1063A0000EA004F055FB46B1012E04D040F28F112F
:1063B0000AA004F04DFB2C6170BD6C6170BD000043
:1063C00000080140000C0140001001400014014091
:1063D00000180140001C0140002001402E2E5C4CA2
:1063E0006962726172795C7372635C73746D33326B
:1063F000663130785F6770696F2E63000549096800
:1064000089B201EBC000044901EB4000806880B212
:1064100070470000505C004000600040054909687A
:1064200089B201EBC000044901EB4000C068C0F331
:1064300009007047505C004000600040034951F87B
:106440002000C0F30130000370470000005C0040F2
:106450000449096889B201EBC000034951F81000F2
:1064600080B27047505C00400060004008B10448B2
:106470007047044901200968088200207047000025
:106480004C020020EC0200200A4810B50168001DF3
:106490000468001D006808180BD00822064900F0A7
:1064A000B5F8054920460422BDE81040103100F03F
:1064B000ADB810BDE8F7FF1FF601002010B50022AF
:1064C000022901D2002010BD401C891E8BB2002180
:1064D00004E0445C491C224492B289B29942F8D348
:1064E000D043401CC0B210BD0178FF290CD14178C7
:1064F0000C4A172909D0862906D102211171C178C9
:10650000807801EB0020D08270474179007901EB5F
:10651000002050810120107100221146024806F02F
:106520007FBE0000340000209813002070B51C4C82
:1065300040F22551204603F03FFB002826D020469C
:1065400003F024FD174CC0B2217A0025164EFF2916
:1065500003D117281BD0862819D0A18A402900D33F
:10656000A582A18A70542072A08A401CA082A08AB1
:1065700009280BD109210C48FFF7A0FF317A884286
:1065800003D109210848FFF7AFFFA58270BDA5829E
:10659000A28AFF21B154A18A491CA182E1E700002F
:1065A000004800403400002010140020FEE70000E6
:1065B00010B5134C2068017A022904D0042902D0B6
:1065C000062905D015E0FEF7DBFD2068007A11E012
:1065D0004178052909D10178490606D1C07802F031
:1065E00041FA08480068006A8047074800688068E8
:1065F0008047082021680872BDE8104001F074B996
:10660000EC020020F4020020F0020020F0B500238C
:106610000A2630274FF0370C1C460FE0B6EB107FF0
:1066200002D907EB107501E00CEB107501F813505F
:1066300001EB430500015B1C6C70DBB29342EDD3B0
:10664000F0BD000001F08CFA72B605480168054AF9
:1066500001F4E06111430160BFF3408FFEE70000E9
:106660000CED00E00400FA0510B5012000F0E2F89E
:10667000022004F001FC022000F0DCF8BDE810402C
:10668000022004F0F9BB00002DE9F8434FF4005656
:10669000ADF8006001208DF802001020DFF878804E
:1066A0008DF8030069464046FFF78CFC1B4F341100
:1066B000ADF8004069463846FFF784FC6510ADF838
:1066C000005069463846FFF77DFCF020ADF8000029
:1066D00069463846FFF776FC0820ADF800006946A9
:1066E0003846FFF76FFC08213846FFF789FD012087
:1066F00000F022FA29463846FFF7C6FD2146384603
:10670000FFF77EFD31464046FFF77AFDF02138461F
:10671000FFF7BAFDBDE8F88300100140000C01400E
:1067200010B5FFF7B1FF1E2004F0A6FB3C4C002281
:1067300010212046FFF7ECFD002220212046FFF724
:10674000E7FD012240212046FFF7E2FD01228021E2
:106750002046FFF7DDFD00F0D9F90A2004F08CFB9C
:10676000002210212046FFF7D3FD002220212046E1
:10677000FFF7CEFD012240212046FFF7C9FD01228F
:1067800080212046FFF7C4FD00F0C0F9962004F0F8
:1067900082FB002210212046FFF7BAFD00222021B3
:1067A0002046FFF7B5FD012240212046FFF7B0FD4E
:1067B000012280212046FFF7ABFD00F0A7F900225F
:1067C00010212046FFF7A4FD002220212046FFF7DC
:1067D0009FFD012240212046FFF79AFD00228021E3
:1067E0002046FFF795FD00F091F90A2004F044FBE4
:1067F000282000F01FF80A2004F03EFB012000F0E2
:1068000019F80A2004F038FB0C2000F013F80A20D5
:1068100004F032FBBDE81040062000F00BB8000089
:10682000000C014001EB8010C0B240F0800000F08D
:1068300001B8000070B50446282803D0382C01D0D8
:1068400000F056F94FF400512048FFF7D9FC204DD5
:106850004FF400712846FFF7D3FCE20910212846C7
:10686000FFF756FDC4F3801220212846FFF750FDA4
:10687000C4F3401240212846FFF74AFDC4F300123A
:1068800080212846FFF744FD00F040F9C4F3C00220
:1068900010212846FFF73CFDC4F380022021284642
:1068A000FFF736FDC4F3400240212846FFF730FDD4
:1068B000C4F3000280212846FFF72AFD00F026F9E4
:1068C000BDE870402D2004F0E6BA00000010014041
:1068D000000C01402DE9F041044600F009F9244E76
:1068E0004FF4005529463046FFF7CEFC214F2911C1
:1068F0003846FFF785FCE20910213846FFF708FD0E
:10690000C4F3801220213846FFF702FDC4F3401281
:1069100040213846FFF7FCFCC4F3001280213846C2
:10692000FFF7F6FC00F0F2F8C4F3C002102138467D
:10693000FFF7EEFCC4F3800220213846FFF7E8FCA5
:10694000C4F3400240213846FFF7E2FCC4F30002E2
:1069500080213846FFF7DCFC00F0D8F829463046A5
:10696000FFF74EFCBDE8F0412D2004F094BA000082
:1069700000100140000C01402DE9FE4F8246884680
:10698000244900200A276C46B2FBF1F501FB1522D1
:10699000B1FBF7F105F130062654401CC0B20A28BD
:1069A000F2D30025605D302803D16D1CEDB20A2DB5
:1069B000F8D3C5F10A0010F0FF0001D1092501202C
:1069C000834215D3A3EB000909F0FF074146504667
:1069D000FFF728FF002604E02020FFF77BFF761C4E
:1069E000F6B2BE42F8D309EB080000F0FF0802E05F
:1069F000C01A2844C5B241465046FFF713FF04E0D1
:106A0000605DFFF767FF6D1CEDB20A2DF8D3BDE89E
:106A1000FE8F000000CA9A3B10B51446FFF702FF34
:106A200002E0641CFFF756FF20780028F9D110BD62
:106A300038B50C4600218DF800106A46214600F05A
:106A400065FD05460F48007818B19DF8000000F07C
:106A500097F80D49C4EBC400421800210846FFF71F
:106A6000DBFF03232A4607210020FFF785FF0648A6
:106A70009DF80010703800EB011200210120FFF793
:106A8000CBFF38BD5A0000203ADE000870B50D4635
:106A90000446002110A20846FFF7BEFF032322464A
:106AA00006210020FFF768FF0DA20A210020FFF752
:106AB000B3FF0DA200210120FFF7AEFF03232A46FA
:106AC00006210120FFF758FFBDE870400A2104A20B
:106AD0000120FFF7A1BF0000504D322E35200000ED
:106AE00075672F6D33000000504D313020200000BD
:106AF00010B54FF480710448FFF782FBBDE81040E9
:106B0000012000F019B80000000C014070B5094DDB
:106B10004FF4807421462846FFF7B6FB052004F0A9
:106B2000BAF921462846FFF76BFBBDE87040052007
:106B300004F0B1B9000C014008B5F021ADF8001027
:106B400001218DF8021038B110208DF8030069463C
:106B50000248FFF737FA08BD4820F6E7000C01406D
:106B600010B504460146022000F066F821460020D8
:106B700000F062F82146BDE81040012000F05CB84A
:106B800011B581B0294800F08DFC9DF80420012149
:106B900000242748072A21D2DFE802F00408131353
:106BA000192137000020FFF7DBFF07E0002102205A
:106BB00000F042F80121084600F03EF801210020D3
:106BC0000AE00020FFF7CCFF0121084604E0002086
:106BD000FFF7C6FF0121022000F02EF81CBD017056
:106BE0000020FFF7BDFF0121084600F025F8012134
:106BF000022000F021F8002301AA0E490B4800945E
:106C000000F02AFC002232210CE001700120FFF785
:106C1000A7FF002301AA07490448009400F01CFCC8
:106C200000220F21014806F0FBFA1CBD5014002081
:106C300060000020B96D000858B10F4B012811D039
:106C4000022818D1012902D0002202210EE00122DF
:106C5000FBE7012904D000224FF40041074806E079
:106C60000122F9E7012904D0002201211846FFF78B
:106C70004FBB0122F9E770470014014000100140AA
:106C800008B5002810D00949488000200346024674
:106C900000900749074800F0DFFB0022BDE80840EC
:106CA0003221044806F0BCBA08BD00006000002094
:106CB000716D00086C1400200D49C88A088A18B14B
:106CC000CA8A824200D9C88AC88A502801D20020C4
:106CD0000BE0C88AC82801D2022006E0C88AB0F5B5
:106CE000FA7F01D2042000E00620FFF749BF000030
:106CF0003400002038B50220ADF8000010218DF8D6
:106D00000310134C8DF8020069462046FFF75AF92C
:106D10004FF40041ADF8001069460E48FFF752F9F4
:106D20000121ADF8001069462046FFF74BF901201C
:106D300000F0BAFD002001F01DF80020FDF7EAFE8A
:106D4000002000F0B1FD0020FFF70AFF38BD000071
:106D5000001401400010014010B5044800F0A2FBEF
:106D6000BDE810400020FFF7FBBE000050140020DB
:106D700010B50F4C607850B10020FFF7F1FE60882D
:106D800068B1002232210B4806F04AFA0AE00120DD
:106D9000FFF7E6FE608810B1401E6080EFE700203C
:106DA000FFF7DEFE607880F00100607010BD00002B
:106DB000600000206C14002070B5007800250126CA
:106DC000134C052828460BD0FFF7CAFE2078C8B11F
:106DD000257000220F21BDE870400E4806F020BA51
:106DE000FFF7BEFE207818B1257000223221F2E7AD
:106DF000012126700846FFF71FFF01210220FFF73F
:106E00001BFFF2E726700120FFF7AAFEE1E7000072
:106E1000600000205014002008B10120704708488D
:106E200040F2BF310022016005494FF48050091F34
:106E3000086003480349001DC0E90012104670476E
:106E40002401002000F03B0010B508B1012010BD66
:106E500005F0FEFC80B210BD10B51146DDE902233D
:106E600008B1012010BD05F029FD002010BD10B5AE
:106E70001146DDE9022308B1012010BD05F042FDF5
:106E8000002010BD0D4900B509680A7802F07F02A4
:106E9000212A08D1FE2806D1488820B9888810B94F
:106EA000C888012801D0022000BD05488861002063
:106EB0004882FFF7DBFA002000BD0000EC02002052
:106EC0006D640008014901F0BBBF000058020020BA
:106ED000014901F0B5BF00005002002005490968D2
:106EE000C978052901D900207047034A02EBC10186
:106EF00001F0A6BFEC0200209002002009B9002892
:106F000000D00220704700000F4910B509680A78C8
:106F100002F07F02212A07D1FF2805D1488818B93D
:106F2000888808B9C88808B1022010BD0120FEF782
:106F300029F80220FEF714F80549044808600549BD
:106F40000020087010BD0000EC02002055534243A1
:106F500040370020E801002070B52F480025304957
:106F600085722E480968C0794872284601F072FD82
:106F70004FF40071002001F027FE2021002001F0D5
:106F80000BFE1821002001F08FFD264C00202178F7
:106F900001F09AFD5821002001F0E0FD0020FEF7ED
:106FA00003F8002001F0C8FD0021012001F00CFED3
:106FB0009821012001F0D2FD2021012001F0ECFDFB
:106FC0000021012001F0A0FD0021022001F0FCFDC4
:106FD000D821022001F068FD2178022001F074FD23
:106FE0004FF44051022001F08FFD0021022001F0FA
:106FF000D3FD2178002001F067FD002001F09CFD09
:10700000002001F02FFD08490120086008490748C9
:1070100008600848057070BD70370020B6E00008B1
:10702000EC0200208C020020E00200205553424375
:1070300040370020E80100207047704710B5FFF787
:1070400023FA054800240068847200F06FFC03F006
:107050008BF80248046010BDEC020020E002002022
:10706000044805490068884202D00220FDF794BD1B
:107070007047000040370020555342431C4910B56B
:10708000087840F0100008701A4B1878022819D0C0
:107090004FF44054032824D0042801D0052825D1DA
:1070A000002018702146022001F02EFD0220FFF77B
:1070B000C5F9B0F5805F19D12146BDE81040022026
:1070C00001F022BD0C48C27B282A0FD10A7842F079
:1070D00002020A70D3E90112407BBDE8104001F0C2
:1070E00099B80121002001F0C7FDE5E710BD0000BF
:1070F00031010020E80100204037002070B5194E12
:10710000307840F010003070174C0220A4F140019C
:10711000E57B03F039F815494880087818B1012853
:1071200005D0022006E0BDE87040FDF755BD2A2DD0
:107130000DD00120FDF730FD607B2422052101F0F8
:10714000BBFDBDE870400021022001F095BD307804
:1071500040F001003070091D607B06C9BDE8704039
:1071600001F040B93101002040370020E801002043
:10717000094810B50068807A00280BD0074905201F
:1071800008600120FDF7FEFE0220FDF7E9FE04493C
:107190000020087010BD0000EC020020E00200207A
:1071A000E80100200149042008607047E002002047
:1071B000FEE7704770474FF48041480300F080B805
:1071C00070B50446C0780F2528B1012803D0752179
:1071D0001EA003F03DFC6078102803D376211BA08D
:1071E00003F036FCA078102803D3772117A003F012
:1071F0002FFCE07801214FF0E022E0B1194800684F
:10720000637800F4E060C0F5E060000AC0F10406B5
:10721000C540A078B340284018432378124D0001A0
:107220005855207800F01F039940400902EB800078
:10723000C0F8001170BD207800F01F03994040098C
:1072400002EB8000C0F8801170BD00002E2E5C4C57
:107250006962726172795C7372635C6D6973632ECB
:10726000630000000CED00E000E400E010B504460F
:10727000B0F5E06F0FD0B4F5C06F0CD0B4F5A06FCF
:1072800009D0B4F5806F06D0B4F5407F03D06321F8
:1072900003A003F0DDFB084804430848046010BD68
:1072A0002E2E5C4C6962726172795C7372635C6DE4
:1072B0006973632E630000000000FA050CED00E026
:1072C00070B504460D46B0F1005F06D0B4F1006F12
:1072D00003D09F2107A003F0BBFB0C48854203D3DA
:1072E000A02104A003F0B4FB094805400948254348
:1072F000056070BD2E2E5C4C6962726172795C73A0
:1073000072635C6D6973632E63000000FFFF0F0002
:1073100080FFFF1F08ED00E070B52F4D2868017851
:1073200044784A0606D001F07F00012828D00228C0
:107330002BD035E0092C06D0052C07D0032C0ED01D
:10734000012C14D02CE001F0E5FD28E0C1787F2964
:107350002ED8817861BB818851BB807A27E0C178C3
:1073600001291DD18088D8B901F0F0FD17E0C1785E
:10737000012915D1818899B9407A80060AD40FE095
:107380000B2C0DD101F036FE09E0012C02D0032CAC
:1073900003D005E001F0CAFC01E001F0E9FD58B1BD
:1073A0000E4800684169E0B28847032802D018B14E
:1073B00008200DE009200BE0094A06200021126890
:1073C000084B92B203EB42025160074A3021118010
:1073D0002968087270BD0000EC020020F002002055
:1073E000505C004000600040FC0200200148406802
:1073F000704700001400002010B50446FFF7F6FFA8
:10740000A04201D3012010BD002010BD10B50446DC
:10741000FFF7ECFF204410BD0E4810B5046816E0DD
:10742000FFF7E4FF2169884210D3207AC1070DD00D
:10743000810703D420F00100207204E0FFF7D6FF9B
:10744000E16808442061D4E9051088476468002C8D
:10745000E6D110BD2C00002070B50446049EC36028
:10746000C4E905121D46FFF7C1FF284420612672BA
:1074700070BD00000A4B19680A4608E0814205D138
:10748000087A40F00100087200207047496800291E
:10749000F4D142601860017A41F001010172F3E712
:1074A0002C0000200649096806E0814203D10A7ACF
:1074B00022F001020A7249680029F6D170470000E3
:1074C0002C00002010B50F4C2068007A022811D043
:1074D00004280FD0032804D0052802D0072805D09F
:1074E00008E0FDF7ABFE2068007A04E0064800687B
:1074F000C0688047082021680872BDE8104000F08D
:10750000F3B90000EC020020F00200202DE9F74F53
:1075100005464FF4FA704FF00009854200D9054640
:10752000DFF8F88001294FF000041ED146462846B6
:10753000FDF79DF8824604EB840006EB8007504679
:10754000B968FDF7DDF80BD8F9685046FDF7CEF8BD
:1075500006D804EB840006EB80008668F8681DE01E
:10756000641CE4B2072CE6D352E046462846FDF7F9
:107570007EF8824604EB840006EB800750463968AB
:10758000FDF7BEF840D879685046FDF7AFF83BD814
:1075900004EB840006EB800006687868072C37D27D
:1075A0003146FCF7D9FE074604EB840108EB810065
:1075B000418A008A091A1FFA81FAFDF75DF88046B0
:1075C00089463846FDF77CF883460F462846FDF786
:1075D0004EF83146FCF7C0FEFDF772F805460E4640
:1075E0005046FDF749F82A463346FCF761FF5A46F4
:1075F0003B46FCF7CDFF42464B46FCF7B3FEFDF79A
:1076000048F81FFA80F904E0641CE4B2072CB1D3F7
:107610000024029804704846BDE8FE8F48DE00084A
:1076200070B50446FFF720F81D4D5CB1012C11D058
:10763000022C30D0032C31D1A8890121BDE8704043
:10764000FFF7F6B9FFF788FBA889E989BDE8704024
:10765000FFF71CBAFFF780FBE88A298B0844698B87
:107660002D8A084484B200210EA20846FFF7D4F9FF
:1076700005232A4608210020FFF77EF90CA20021ED
:107680000120FFF7C9F92246BDE870400523082113
:107690000120FFF771B9A8890021CFE770BD000074
:1076A000541300203E20302E33756D200000000062
:1076B0003E20322E35756D200000000070B51A4C4A
:1076C00058B1012815D0022829D003282AD1A08931
:1076D0000121BDE87040FFF7ABB9FFF73DFBA28980
:1076E000032306210020FFF747F9E289032306213F
:1076F00010E0FFF731FBE08A218B0844618B228A7E
:10770000084485B2052308210020FFF735F9052339
:107710002A460821BDE870400120FFF72DB9A08955
:107720000021D6E770BD00005413002010B586B0CC
:1077300001A8FDF7ABFE1349D8B101208871502094
:107740000882C8810024234622460F490F4800942E
:10775000FFF782FE0022C8210C4805F061FD0B48AE
:1077600000231A460A491C380094FFF775FE06B03C
:1077700010BD9DF804008871BDF80A000882BDF8AC
:107780000800DEE734000020BD970008B413002095
:10779000F5930008F0B502780023422A02D042781F
:1077A0004D2A30D1184F7A7812B17A78521E7A70F9
:1077B000C2788478DFF854C002EB0422ACF80220CF
:1077C0000CF10406002200EB42046579247905EBF4
:1077D000042426F81240521CD2B20E2AF3D3891C7C
:1077E0008AB2002104E0445C491C23449BB2C9B224
:1077F0009142F8D3BCF81E00984201D101203870A4
:107800007878401C7870F0BD3400002054130020BC
:1078100070B51B4C40F22551204602F0CDF90028EE
:1078200025D0204602F0B2FB164CC0B2E27900250A
:107830001549422A01D14D281AD0628A402A00D324
:107840006582628A8854628A521C6282E071608A10
:1078500003280CD9C8788978628A00EB012081B2AC
:10786000081D904203D10848FFF794FF658270BD60
:107870006582638A4222CA54628A521C6282E0E7AD
:107880000038014034000020D0130020054B521C6A
:10789000520803EB410104D008C920F8023B521EF4
:1078A000FAD170470060004010B5040005D0012CEB
:1078B00003D07F2102A003F0CBF80948046210BD79
:1078C0002E2E5C4C6962726172795C7372635C73B8
:1078D000746D3332663130785F7077722E630000DA
:1078E00000000E42704700000C4810B590F82C10B4
:1078F000002001F0E9F80A480068007A082802D060
:10790000092809D006E007494FF48050088006494D
:1079100010200880002010BD012010BD6002002052
:10792000EC020020FA020020FC02002010B5012029
:1079300002F0B0FB0648012101600021054A016008
:10794000031D19604FF4E05111800160002010BD4B
:10795000405C0040F802002070B51F4C40F22555F5
:107960002946204602F028F9F8B1204602F00EFB25
:107970001A4AC3B29088D188401C00F03F00884268
:107980000BD1A2F10C00418809B9012141800022EC
:107990002946204602F09AF907E01068918843547E
:1079A0009088401C00F03F00908040F227752946E7
:1079B000204602F001F900280CD002F00BFC02F086
:1079C00035FC012806D129462046BDE87040012239
:1079D00002F07CB970BD000000440040700000203F
:1079E00070B504460C480D46044200D124B940F25B
:1079F00069410AA003F02CF8104E4DB1012D04D0BE
:107A000040F26A4105A003F023F8F069204301E049
:107A1000F069A043F06170BD003601812E2E5C4CF0
:107A20006962726172795C7372635C73746D333214
:107A3000663130785F7263632E630000001002408D
:107A400070B504460C480D46044200D124B940F2FA
:107A5000C3410AA002F0FCFF104E4DB1012D04D02D
:107A600040F2C44105A002F0F3FF3069204301E079
:107A70003069A043306170BD003601812E2E5C4C10
:107A80006962726172795C7372635C73746D3332B4
:107A9000663130785F7263632E630000001002402D
:107AA00070B504460C480D46044200D124B940F29A
:107AB0004A410AA002F0CCFF104E4DB1012D04D076
:107AC00040F24B4105A002F0C3FFB069204301E042
:107AD000B069A043B06170BD0200C0FF2E2E5C4CA7
:107AE0006962726172795C7372635C73746D333254
:107AF000663130785F7263632E63000000100240CD
:107B000070B504460C480D46044200D124B940F239
:107B1000A4410AA002F09CFF104E4DB1012D04D0EB
:107B200040F2A54105A002F093FFF068204301E078
:107B3000F068A043F06070BD0200C0FF2E2E5C4CC8
:107B40006962726172795C7372635C73746D3332F3
:107B5000663130785F7263632E630000001002406C
:107B60000C48016841F00101016041680A4A114076
:107B700041600168094A11400160016821F48021D7
:107B80000160416821F4FE0141604FF41F018160F2
:107B900070470000001002400000FFF8FFFFF6FEF3
:107BA000214A10B55168214B11F00C0103D0042972
:107BB00001D0082901D0036012E05168536801F434
:107BC00070114FF0020413F4803F04EB914102D096
:107BD00053689B0301D5164B00E0144B59430160D9
:107BE0005168144B01F0F00109095C5C0168E14047
:107BF0004160546804F4E064240A1C5D21FA04F432
:107C00008460546804F46054E40A1B5DD940C16088
:107C10005268084B02F44042920B1B1F9A5CB1FB66
:107C2000F2F1016110BD00000010024000127A0064
:107C300000093D000400002070B5002504462128FD
:107C400018D0312C16D0392C14D0412C12D0612CE4
:107C500010D07A2C0ED07B2C0CD07C2C0AD07D2C12
:107C600008D07E2C06D07F2C04D040F234510BA0DB
:107C700002F0EEFE6009114901280BD002280BD05A
:107C8000486A04F01F0101228A40024200D0012507
:107C9000284670BD0868F4E7086AF2E72E2E5C4CAF
:107CA0006962726172795C7372635C73746D333292
:107CB000663130785F7263632E630000001002400B
:107CC0000248406800F00C007047000000100240BD
:107CD00010B5040014D0802C12D0902C10D0A02C01
:107CE0000ED0B02C0CD0C02C0AD0D02C08D0E02C58
:107CF00006D0F02C04D04FF4197105A002F0A8FEB4
:107D00000B49486820F0F0002043486010BD000097
:107D10002E2E5C4C6962726172795C7372635C7363
:107D2000746D3332663130785F7263632E630000A6
:107D30000010024010B5040006D0012C04D040F21F
:107D4000651103A002F084FE0948046010BD000024
:107D50002E2E5C4C6962726172795C7372635C7323
:107D6000746D3332663130785F7263632E63000066
:107D70000000424210B5040008D0012C06D0042CAB
:107D800004D04FF4507109A002F062FE0F480021A8
:107D9000017000F82019012C05D0042C02D1052116
:107DA00080F8201010BD0121FAE700002E2E5C4C57
:107DB0006962726172795C7372635C73746D333281
:107DC000663130785F7263632E63000020100240DA
:107DD00010B5040010D0B4F5806F0DD0B4F5A06FCD
:107DE0000AD0B4F5C06F07D0B4F5E06F04D040F20C
:107DF0007E2105A002F02CFE0B49486820F4E060CB
:107E00002043486010BD00002E2E5C4C69627261F8
:107E100072795C7372635C73746D3332663130787F
:107E20005F7263632E6300000010024010B504000F
:107E300010D0B4F5806F0DD0B4F5A06F0AD0B4F5B2
:107E4000C06F07D0B4F5E06F04D04FF4267105A0E1
:107E500002F0FEFD0B49486820F4605040EAC4007F
:107E6000486010BD2E2E5C4C6962726172795C7341
:107E700072635C73746D3332663130785F72636342
:107E80002E6300000010024010B5040006D0012C43
:107E900004D04FF4CA7103A002F0DAFD0948046669
:107EA00010BD00002E2E5C4C6962726172795C73A9
:107EB00072635C73746D3332663130785F72636302
:107EC0002E6300000000424270B505000C460AD047
:107ED000B5F5803F07D0B5F5403F04D040F27F11A3
:107EE0001DA002F0B5FD74B3B4F5802F2BD0B4F50E
:107EF000002F28D0B4F5402F25D0B4F5801F22D014
:107F0000B4F5A01F1FD0B4F5C01F1CD0B4F5E01FFE
:107F100019D0B4F5001F16D0B4F5101F13D0B4F566
:107F2000201F10D0B4F5301F0DD0B4F5401F0AD07B
:107F3000B4F5501F07D0B4F5601F04D04FF4C071E2
:107F400005A002F085FD0C494868254320F47C100B
:107F500005434D6070BD00002E2E5C4C696272615D
:107F600072795C7372635C73746D3332663130782E
:107F70005F7263632E6300000010024010B50400BE
:107F800008D0012C06D0022C04D04FF40E7105A0AD
:107F900002F05EFD0B49486820F003002043486072
:107FA00010BD00002E2E5C4C6962726172795C73A8
:107FB00072635C73746D3332663130785F72636301
:107FC0002E6300000010024010B5040006D0012C02
:107FD00004D040F2DB2103A002F03AFD094804601E
:107FE00010BD00002E2E5C4C6962726172795C7368
:107FF00072635C73746D3332663130785F726363C1
:108000002E630000D80042427CB5344D0446344E05
:10801000287810B101280CD053E056F82400A1FBB9
:108020000013C5E90613A2FB0010C5E908100120E2
:10803000287068682B4958B1E868402201448120C3
:1080400002F0B4F8686840386860E86840301AE0C8
:1080500056F8240080B2CDE90010D5E90623204669
:10806000FEF7FAFE10F0FF0F03D0687840F008002A
:10807000687040221B49812002F098F856F82400CD
:10808000403868604020E8604021012000F076FD23
:108090003021012000F080FDD5E906014022821840
:1080A00041F10000C5E90620D5E908026FF03F0163
:1080B000411842F1FF30C5E908100B48816840398A
:1080C0008160D5E90801084307D16860E860C5E927
:1080D0000600064A0321117028707CBD3001002083
:1080E000200100200027002060370020E801002048
:1080F00070B5184C1A4454F82040A2420DD92A29D0
:1081000002D10220FCF748FD0020FCF745FD124A91
:10811000052121209170107311E0114D0F4C55F87D
:108120002000A2685843824211D02A290DD0002095
:10813000FCF732FD607B2422052100F0BDFD00210B
:10814000012000F099FD002070BD0220F0E7012021
:1081500070BD000024010020C10100204037002034
:108160002001002010B5FEF757FE00280ED0084869
:108170003A220221407B00F09FFD0121084600F0D9
:108180007BFDBDE810400020FCF706BD10BD0000DF
:108190004037002008490A7CD20702D00748052151
:1081A00005E030B10648C97C242900D9242101F01A
:1081B00065BB0448F7E70000403700206801002055
:1081C000910100206D01002010B50B4CA06810B18A
:1081D000207B000601D5002000E00220FCF7DCFC3B
:1081E000607B2022052100F067FD0021BDE81040E2
:1081F000012000F041BD0000403700200821014867
:1082000001F03CBBB90100200421014801F036BB5C
:10821000B50100202DE9F041164C80460D4620782E
:10822000164630B1022823D14046BDE8F041FFF7A1
:10823000EBBE114F13460A46787B2821FFF758FF03
:10824000002815D0387B00064FF0020003D52070BF
:1082500032462946E8E7FCF79FFC787B242205217B
:1082600000F02AFDBDE8F0410121084600F004BD00
:10827000BDE8F081E80100204037002010B5044639
:10828000FEF7CAFD70B115483A220221407B00F08A
:1082900013FD0121084600F0EFFCBDE8104000206E
:1082A000FCF77ABC0E480F4950F82420521E100EDD
:1082B0000870100C4870100A88700B48CA7050F88B
:1082C0002400020E0A71020C4A71020A8A71C871F6
:1082D000BDE810400821034801F0D0BA4037002023
:1082E00024010020D30100202001002010B5044605
:1082F000FEF792FD70B114483A220221407B00F053
:10830000DBFC0121084600F0B7FCBDE8104000206E
:10831000FCF742BC0D480E4950F82420100E08719D
:10832000100C4871100A88710A48CA7150F824006C
:10833000020C4A72020A8A72C872BDE810400C210F
:10834000034801F09BBA00004037002024010020C0
:10835000DB010020200100200348C17C122900D944
:108360001221024801F08ABA40370020C1010020E2
:108370000121002000F080BC10B5FEF74DFD70B16A
:108380000A483A220221407B00F096FC012108466F
:1083900000F072FCBDE810400020FCF7FDBB01219D
:1083A000BDE81040002000F067BC0000403700200E
:1083B00010B50B4CA06828B9207C400702D40121DD
:1083C000002009E00220FCF7E7FB607B2422052166
:1083D00000F072FC00210120BDE8104000F04CBC10
:1083E0004037002070B5174D13462A7832B1012A64
:1083F00026D1BDE870401A4601F04ABF124C0A4629
:108400002A21607BFFF774FE002819D0207B00062C
:1084100008D401202870BDE870404FF4405102207C
:1084200000F072BB0020FCF7B7FB607B2422052123
:1084300000F042FCBDE870400021012000F01CBCAF
:1084400070BD0000E80100204037002010B5162163
:108450000648FBF7B1FEFDF7D7FA0549486001462B
:10846000BDE8104003A001F099BF00003C130020BC
:108470001C000020696E69743A20746F74616C5F2F
:108480006974656D73203D20256C640A000000004E
:1084900010B502461E48052A17D2DFE802F003068F
:1084A000090C0F000988418111E0098881810EE0E3
:1084B0000988C1810BE00988018208E00B68C0F8D7
:1084C00002304968C0F8061001E0052A04D2817C18
:1084D0000123934019438174817C41F01001817420
:1084E0001F2912D10B4CA068FEF786FF68B140F23D
:1084F000DC50FEF78BFFA060FEF778FF014606A078
:1085000001F04CFF10A000F0C5F8002010BD0000E5
:108510003C1300201C000020726561647920746F98
:10852000207769727465206461746120706F696E70
:108530007420746F2066696C652C207469636B20ED
:108540003D20256C640A000073656E736F725F6472
:108550006174612E747874002DE9F04F168885B02F
:1085600004000F46154656D0002F54D0002D52D08F
:10857000FEF73CFF4FF06408B0FBF8F0DFF8A8907E
:108580000090384629A23146D9F8043001F016FF90
:10859000218A86B2B1FBF8F2288808FB1218801BEA
:1085A0001FFA80FEE0890A21B0FBF1F201FB120202
:1085B00002F1300A4FF47A72B0FBF2F302FB1300BF
:1085C000B0FBF1FCA089B0FBF2F102FB1101608964
:1085D000CDE902CAB0FBF2F302FB130B42F21073B7
:1085E000B0FBF3F403FB1400B0FBF2F3CDE900B1F0
:1085F0003033B81911A2CDF81080714601F0DEFEBB
:10860000D9F804103044491CC9F80410288000200F
:1086100005B0BDE8F08F542310A2002114A001F092
:10862000BDFE0120F4E700001C0000205B25303572
:10863000645D2020256C64207320200025632E2596
:108640003033642020253364202020202533642EFD
:108650002563202025326425250D0A002E2E5C5529
:108660007365725C7372635C534452522E630000F4
:108670006572726F72203D2025642C2066696C65DE
:10868000203D2025732C206C696E65203D202564DB
:108690000A0000002DE9F8431D4D80461D4E288834
:1086A0000027C0F58051ADF8001031186A4606F574
:1086B0008050FFF751FF04462888BDF80020104481
:1086C00080B2C0F5805189B2288091421DD206F651
:1086D000FE74022907D930444FF02002A1F10201B3
:1086E000FBF763FD00E005D14FF002020AA120462E
:1086F000FBF784FD07494046FDF7BCFB04464FF4F9
:1087000080510448FBF758FD2F802046BDE8F883D0
:108710001C0000203C0300200D0A000070B5044638
:108720000F480D4684420AD00E48844207D00E48B6
:10873000844204D040F29A210CA002F089F955B18C
:10874000012D04D040F29B2108A002F081F920887D
:1087500040F4005002E0208820F40050208070BDDA
:108760000030014000380040003C00402E2E5C4CA0
:108770006962726172795C7372635C73746D3332B7
:10878000663130785F7370692E63000070B50446FF
:108790000F480D4684420AD00E48844207D00E4846
:1087A000844204D04FF4D7710CA002F051F955B1B6
:1087B000012D04D040F2AF1108A002F049F9208841
:1087C00040F0400002E0208820F04000208070BD92
:1087D0000030014000380040003C00402E2E5C4C30
:1087E0006962726172795C7372635C73746D333247
:1087F000663130785F7370692E6300002DE9F041B7
:10880000174D184E184F0446A84207D0B44205D061
:10881000BC4203D07A2115A002F01AF9AC420AD169
:1088200001210C032046FFF76BF92046BDE8F0411B
:108830000021FFF765B9B44202D101218C0303E0A6
:10884000BC420AD10121CC032046FFF7F9F82046AB
:10885000BDE8F0410021FFF7F3B8BDE8F08100006A
:108860000030014000380040003C00402E2E5C4C9F
:108870006962726172795C7372635C73746D3332B6
:10888000663130785F7370692E63000070B50546FD
:10889000154800260C4685420AD01448854207D068
:1088A0001348854204D040F2023112A002F0D0F801
:1088B000802C12D0402C10D0202C0ED0102C0CD09C
:1088C000082C0AD0042C08D0022C06D0012C04D08D
:1088D00040F2033107A002F0BBF82889204200D003
:1088E0000126304670BD00000030014000380040D5
:1088F000003C00402E2E5C4C6962726172795C73A0
:1089000072635C73746D3332663130785F73706993
:108910002E63000070B5054642480C46854209D0DA
:108920004148854206D04148854203D0A32140A05A
:1089300002F08EF8208860B1B0F5806F09D0B0F5F4
:10894000004F06D0B0F5404F03D0A62138A002F06A
:108950007FF86088B0F5827F04D018B1A72134A0D9
:1089600002F076F8A088B0F5006F04D018B1A82105
:108970002FA002F06DF8E08828B1022803D0A921C9
:108980002BA002F065F8208928B1012803D0AA2184
:1089900027A002F05DF86089B0F5007F04D018B11F
:1089A000AB2123A002F054F8A08988B108280FD089
:1089B00010280DD018280BD0202809D0282807D03F
:1089C000302805D0382803D0AC2119A002F040F897
:1089D000E08928B1802803D0AD2115A002F038F835
:1089E000208A18B9AE2112A002F032F82888218816
:1089F0006288E3881143A28800F441501A4311436E
:108A00002289114362891143A2891143E2891143EA
:108A100001432980A88B20F40060A883208A288243
:108A200070BD00000030014000380040003C0040B4
:108A30002E2E5C4C6962726172795C7372635C7336
:108A4000746D3332663130785F7370692E63000065
:108A500070470000024920F00700086070470000DE
:108A6000505C0040F0B50E490E4E48F68F770D78F9
:108A7000002148F2800C0AE0CAB206EB82031C68AF
:108A8000A4B23C40144344EA0C041C60491CA942B3
:108A9000F2D3044940F080004C310860F0BD000082
:108AA000B8020020005C0040054A21F00101126874
:108AB00092B202EBC000034A02EB400081607047B3
:108AC000505C0040006000400D4A12683E2992B29E
:108AD00002EBC0000B4A02EB400209D94809C90663
:108AE00001D1401E80B24FF4004141EA802005E0F0
:108AF0004808C90701D0401C80B28002106070474E
:108B0000505C00400C6000400A4A02EB8002106892
:108B10004BF68F7380B200EA0300CB0401D580F4DA
:108B20008050890401D580F4005048F28001084348
:108B300010607047005C0040074901EB800001684D
:108B40004BF68F7289B2114081F4405148F2800295
:108B50001143016070470000005C0040054A21F0AD
:108B60000101126892B202EBC000034A42F81010F1
:108B700070470000505C004000600040044A1268EA
:108B800092B202EBC000034A02EB40004160704722
:108B9000505C0040006000400A4A02EB800210680E
:108BA00048F6BF7380B200EA0300CB0601D580F01F
:108BB0001000890601D580F0200048F280010843AA
:108BC00010607047005C0040054A02EB80000268BC
:108BD00048F68F1392B21A400A43026070470000B1
:108BE000005C0040224900200A6842F480320A609A
:108BF0004FF4A0630A6800F1010012F4003F01D1B4
:108C00009842F7D10868800330D51A48026842F0CC
:108C100010020260026822F003020260026842F061
:108C2000020202604868486048684860486840F44A
:108C300080604860486820F47C104860486840F4D0
:108C4000E8104860086840F080700860086880019B
:108C5000FCD5486820F003004860486840F00200F6
:108C600048604868C0F381000228FAD170470000CC
:108C7000001002400020024010B50D4A0C460B497E
:108C8000116010730D220A49812001F08FFA094802
:108C90000521002C017007D0042101703021BDE8AE
:108CA00010400120FFF778BF10BD0000555342531C
:108CB00060370020E801002001488170027370478E
:108CC000C101002070B516480068174D81B21548E3
:108CD00000EB4101896889B200EB41042868017A00
:108CE00009290FD02178017061784170A088FBF7C5
:108CF0006DFF296848802089FBF768FF2968888014
:108D0000A089C880286801210172C08828B1FCF7B9
:108D1000E9FABDE87040FEF7E7BDFEF7FDFAF8E7B7
:108D2000505C004000600040EC0200202DE9F04162
:108D300034480168087810F07F0002D0022805D07E
:108D40005EE0487A00F0DF00487247E0488800287B
:108D500056D10879002853D14A792C4D22F0800051
:108D60001306294C55F8203003D5C3F301131B011A
:108D700002E0C3F301331B032678044686423FD941
:108D80007BB3897A69B311060ED555F82010C1F36B
:108D9000011101291ED1E0B20446FCF7F3F830219D
:108DA0002046FFF7F9FE15E005EB80042168C1F3CA
:108DB000013101290ED14BF68F7648F2800788B138
:108DC000C0B2FCF7CDF8206880B2304080F440504B
:108DD000384320600E480068406980470020BDE8A5
:108DE000F0810DE00B4890F82C100020FFF76CFE8E
:108DF000286880B2304080F4405038432860E9E76A
:108E00000220ECE7EC020020B8020020005C0040E9
:108E1000F40200206002002010B5074C30B1074872
:108E200000680068804720680A3010BD2168012072
:108E30000882002010BD0000EC020020F402002097
:108E4000054A13685A8A10B1086810447047888828
:108E5000801A188200207047EC02002010B5074CE1
:108E600030B1074800688068804720680C3010BD2A
:108E7000216801200882002010BD0000EC020020C3
:108E8000F40200201F4910B5096860B11E48002295
:108E900002800A7853060AD002F07F02012A16D017
:108EA000022A16D001E002200882002010BD497A73
:108EB0008A06027802D542F0020201E002F0FD02C9
:108EC00049060270D1B210D401F0FE010FE00E4845
:108ED00010BD4A7902F00F0113060C4A52F8211016
:108EE00007D5C1F3011106E0017841F001010170DD
:108EF00003E0C1F301310129F6D00548006800699B
:108F00008047E4E7EC020020E6020020005C00401D
:108F1000F40200200A4810B500680A4AC178527865
:108F2000914203D882780AB982880AB1022010BD22
:108F300081720548006840688047002010BD00002D
:108F4000EC020020B8020020F4020020064810B510
:108F50000068417A41F02001417204480068C0690C
:108F60008047002010BD0000EC020020F402002029
:108F700070B51C4802681C48517921F0800500EB4F
:108F800085000B06036821F0800403D5C3F30113A9
:108F90001B0102E0C3F301331B03144D2D78A542DE
:108FA00011D954887CB973B1927A62B1090600294B
:108FB000016848F2800289B207DA48F6BF731940A7
:108FC00081F0100106E0022070BD4BF68F7319404E
:108FD00081F4805111430160054800688069804731
:108FE000002070BDEC020020005C0040B8020020B0
:108FF000F402002010B50E4C0E4A20681268C178A9
:1090000092694079904721688A7A22B118B9087923
:1090100008B9887808B1022010BD07480068C06808
:10902000804720684179C172C1780173002010BD6A
:10903000EC020020F0020020F402002010B5FEF740
:109040008FFD0120FEF776FE2120FEF7F5FD0028BA
:10905000FAD01020FCF764FF0220FCF789FF002003
:10906000FEF736FE0020FEF7E1FE4FF48060FEF7CB
:10907000AFFE4FF420110020FEF726FF0120FEF77F
:1090800003FF3920FEF7D8FD0028FAD00220FEF7B2
:1090900075FFFEF715FE0828FBD10349014808605B
:1090A00010BD0000006CDC028C000020AFF30080DB
:1090B00003484168491C416001210170704700006C
:1090C000140000200B4864210068B0FBF1F0B0F1FF
:1090D000807F0DD220F07F414FF0E020491E41619A
:1090E000054AF0211170002181610721016170475B
:1090F000FEE700008C00002023ED00E0034610B5E1
:109100000020024602E09C5C521C20448A42FAD3B2
:1091100010BD3420122801D0002070470120704774
:109120000F4810B5016841F00101016041680D4A26
:109130001140416001680C4A11400160016821F44E
:1091400080210160416821F4FE0141604FF41F015C
:109150008160FFF747FD05494FF00060086010BDD2
:10916000001002400000FFF8FFFFF6FE08ED00E0EF
:1091700070B5044624480D46844234D0B4F1804F83
:1091800031D0224884422ED0214884422BD021481D
:10919000844228D02048844225D02048844222D0CE
:1091A0001F4884421FD01F4884421CD01E4884425E
:1091B00019D01E48844216D01D48844213D01D4841
:1091C000844210D01C4884420DD01C4884420AD0EE
:1091D0001B48844207D01B48844204D040F2293106
:1091E00019A001F035FC55B1012D04D040F22A310F
:1091F00015A001F02DFC208840F0010002E020883D
:1092000020F00100208070BD002C014000040040CF
:1092100000080040000C0040001000400014004016
:1092200000340140004C0140005001400054014016
:1092300000180040001C0040002000400040014099
:1092400000440140004801402E2E5C4C696272616E
:1092500072795C7372635C73746D3332663130782B
:109260005F74696D2E6300002DE9F05F444FDFF8F5
:109270001481DFF81491DFF814A1DFF814B1454E22
:1092800004460D46B8422ED0B4F1804F2BD0444551
:1092900029D04C4527D0544525D05C4523D03E48A5
:1092A000844220D0B4421ED03C4884421BD03C486B
:1092B000844218D03B48844215D03B48844212D0A7
:1092C0003A4884420FD03A4884420CD0394884420C
:1092D00009D03948844206D03848844203D0E72177
:1092E00037A001F0B5FB688858B1102809D02028B4
:1092F00007D0402805D0602803D0E82130A001F035
:10930000A7FBE88848B1B0F5807F06D0B0F5007FB4
:1093100003D0E9212AA001F09BFB2088BC420AD09F
:10932000B44208D0B4F1804F05D0444503D04C4539
:1093300001D0544503D120F07001688808435C4592
:1093400006D015498C4203D020F44071E8880843C8
:109350002080A888A08528882085BC420AD0B442F5
:1093600008D01448844205D01348844202D01348E0
:10937000844201D1287A20860120A082BDE8F09F96
:10938000002C01400004004000080040000C004098
:10939000001000400034014000140040004C014027
:1093A000005001400054014000180040001C0040E3
:1093B00000200040004001400044014000480140BE
:1093C0002E2E5C4C6962726172795C7372635C739D
:1093D000746D3332663130785F74696D2E630000CE
:1093E0004FF6FF71818000210180C18041800172B0
:1093F000704700002DE9F05FFDF7F8FF6421B0FB36
:10940000F1F7374C6589DFF8DC8098F8000030B15F
:10941000FDF7ECFF6289014633A000F0BFFF3A4937
:10942000012031F8102001EB400323F8022C401CEE
:10943000C0B21228F5D34D84A078401CA070E0780B
:10944000012600250028DFF8C490DFF8C4B0A0781A
:109450004FF0663A1BD0082813D903210F20FBF7E1
:1094600061FDA081A089FBF707F900224B46FBF7BD
:109470001FF852465B46FBF78BF8FBF70AF9E082D0
:109480006671A07812281ED3E570A5701BE0032832
:1094900019D3782F02D203210F2001E012210020DE
:1094A000FBF740FDA081A089FBF7E6F800224B46C0
:1094B000FAF7FEFF52465B46FBF76AF8FBF7E9F85E
:1094C000E082A570667198F8000020B1E28AA18957
:1094D00010A000F063FF25716581BDE8F09F0000DA
:1094E000340000205B0000207469636B203D202560
:1094F0006C642C206E65775F707062203D2025645F
:109500002075672F6D330A007413002000003E4061
:1095100066663640617665725F707062203D202518
:10952000642C20617665725F6D617373203D202528
:10953000642075672F6D330A000000002DE9F043A9
:10954000664C89B04FF001082078F0B1012870D145
:10955000634E0227277030684FF47A7940F002009A
:109560003060272001F097FC0020FBF7D3FD5C4919
:109570004FF6FF72002510464FF0040C08390B68B7
:109580009B0712D5401EFAD210E0554884F800809F
:10959000001D016841F00201016009B00022BDE830
:1095A000F04302214F4803F03BBE20B1086880071A
:1095B00077D4104603E084F801C088E000BF0B6850
:1095C0009B0702D4401EF9D200E040B184F801802C
:1095D0008DF81C50306840F00200306002E003203B
:1095E00044E000BF0868800702D5521EF9D201E0AE
:1095F000002AE0D004A8FBF71BFD082608B176235B
:1096000004E003A8FBF714FD38B1782336A200214B
:109610003BA000F0C3FE667059E006A8FBF708FD0A
:1096200008B17A23F2E705A8FBF702FD10B17C230D
:10963000ECE74DE007A8FBF7FBFC08B17E23E5E76C
:109640009DF810309DF80C009DF8186019189DF8D1
:109650001470314439449DF81C20C9B2914207D09E
:109660008DE8C1002F4800F099FE062060702EE0C2
:109670006068FDF7C1FEC0B14846FDF7C7FE6060F7
:109680002948007888B1FDF7B1FE01469DF8142005
:109690009DF81800CDE900029DF80C309DF81020CF
:1096A00000E018E021A000F079FE0C489DF81010B1
:1096B0000C3001709DF80C1041709DF818108170ED
:1096C0009DF81410C1709DF81C1001716570A57093
:1096D00009B0BDE8F0836770F9E70000780000206A
:1096E000100C0140C82600202E2E5C44726976655D
:1096F000725C7372635C44485431312E6300000025
:109700006572726F72203D2025642C2066696C653D
:10971000203D2025732C206C696E65203D2025643A
:109720000A000000D4DE00085B0000207469636B4F
:10973000203D20256C642C20646874206F6B3A20D7
:10974000485F48203D2025642C20485F4C203D2068
:1097500025642C20545F48203D2025642C20545F34
:109760004C203D2025640A0038B5124C6078C0B901
:10977000A068FDF741FEA0B1C820FDF747FEA0603C
:1097800004F10C006946807800EB80004000ADF8E1
:1097900000000220FEF77CFE04F10C010320FEF71E
:1097A00077FEFBF7CBFCBDE83840002232210248AF
:1097B00003F036BD78000020E426002038B5234CA5
:1097C000207840B100252570607A012807D003F089
:1097D000B3FBFDF773FF6079012806D02FE003F09B
:1097E000ABFBFDF71DFF6572F5E7A069FDF70EFE07
:1097F00028B3FDF7FBFD47F2305188421FD9E08ABC
:10980000ADF80000208A40B1E18A814202D9E18AA4
:10981000081A00E00020ADF80000FDF7E7FD642124
:10982000B0FBF1F2BDF8001009A000F0B7FDC820B0
:10983000FDF7ECFDA06169460020FEF729FEBDE8BA
:109840003840002223210C4803F0EABC34000020F9
:109850007361766520706D322E35203D20256420A1
:1098600075672F6D332C207469636B203D20256C48
:109870006420730A00000000B413002010B50C46E9
:109880000A460146812000F091FC30210120FFF7BB
:1098900083F905490320087004488168091B816029
:1098A0000021017310BD0000E80100206037002096
:1098B000FDF7AEBF70B50546012186B08803FEF7FF
:1098C000EFF84FF40070ADF8100003248DF812404B
:1098D00018201E4E8DF8130004A93046FCF772FBC9
:1098E0003015ADF8100004208DF8130004A930469F
:1098F000FCF768FB25208DF814008DF815408DF8D5
:10990000164001208DF8170005A8FDF759FC00202E
:10991000ADF80400ADF80600ADF80800ADF80C0095
:109920000C200B4CADF80A0000956946204600F06B
:1099300051FA012240F22551204600F0C7F90121D9
:10994000204600F0F5F806B070BD000000080140A8
:1099500000380140FEF700B8F0B5074687B0012196
:109960000420FEF79DF801214804FEF739F804248D
:10997000ADF8104018208DF813001B4E03258DF80C
:10998000125004A93046FCF71DFB0820ADF810006A
:109990008DF8134004A93046FCF714FB26208DF8FF
:1099A00014008DF8155002208DF8160001208DF856
:1099B000170005A8FDF704FC0020ADF80400ADF881
:1099C0000600ADF80800ADF80C000C20074CADF80F
:1099D0000A0000976946204600F0FCF90121204664
:1099E00000F0A6F807B0F0BD0008014000440040B8
:1099F000FCF79CBDF0B50546012187B08804FDF752
:109A0000EFFF4FF48060ADF8100018208DF81300C0
:109A10001D4F03268DF8126004A93846FCF7D2FAD0
:109A2000F814ADF8100004248DF8134004A938464A
:109A3000FCF7C8FA27208DF814008DF81560012175
:109A40008DF816108DF8171005A8FDF7B9FB00204A
:109A5000ADF80800ADF80A40ADF804000B4CADF8C5
:109A60000600ADF80C0000956946204600F0B2F9FA
:109A7000012240F22551204600F028F9012120461C
:109A800000F056F807B0F0BD000C0140004800405F
:109A90002DE9F041184E194FDFF8648004460D4659
:109AA000B0420ED0BC420CD044450AD01548844286
:109AB00007D01548844204D040F29E3113A000F034
:109AC000C7FF35F4587000D125B940F29F310FA07F
:109AD00000F0BEFFA8050AD5B44208D0BC4206D0AB
